:100000000C94CC000C94F4000C94F4000C94F400C8
:100010000C94F4000C94F4000C94F4000C94F40090
:100020000C94F4000C94F4000C94F4000C94F40080
:100030000C94F4000C94F4000C94F4000C94F40070
:100040000C940E0E0C94F4000C944F0A0C94890A34
:100050000C94F4000C94F4000C94F4000C94F40050
:100060000C94F4000C94F4004461726B004C6967CA
:10007000687400205B75735D00456E6372797074FF
:10008000696F6E20746F74616C2074616B65733A74
:100090002000205B627974655D00416674657220A2
:1000A000656E6372797074696F6E206F66206D651E
:1000B000737361676520667265654D656D6F7279F2
:1000C00028293D2000205B627974655D00426566E9
:1000D0006F726520656E6372797074696F6E206FE0
:1000E00066206D65737361676520667265654D6531
:1000F0006D6F727928293D2000205B75735D004982
:100100006E696369616C69736174696F6E20746F85
:1001100074616C2074616B65733A20004372656191
:1001200074696E67206172726179206F6620646104
:100130007461000008040C020A060E0109050D0393
:100140000B070F0000000700020100000304060077
:10015000000000000000000102040810204080019F
:1001600002040810200102040810200404040404FE
:100170000404040202020202020303030303030055
:10018000000000250028002B0000000000240027AC
:10019000002A0000C002470B11241FBECFEFD8E099
:1001A000DEBFCDBF12E0A0E0B1E0EAE2F1E202C0C2
:1001B00005900D92AC33B107D9F713E0ACE3B2E090
:1001C00001C01D92A633B107E1F711E0C8E9D1E003
:1001D00004C02297FE010E94C60FC439D107C9F797
:1001E0000E94B7020C9493100C940000CB010C9465
:1001F0004A10CF93DF9300D0CDB7DEB72091320302
:10020000309133032115310511F426E333E0CE019B
:100210000196821B930B0F900F90DF91CF91089561
:100220006CE171E08FE792E00E941B0C0E94580E77
:100230006093410270934202809343029093440280
:1002400020E030E080E090E06DE271E44091450212
:10025000509146022A3131053CF4DA01A80FB91F4A
:10026000E1E4E20FEC930EC0FA01E80FF91F60839E
:10027000E0914502F0914602E80FF91F7183019663
:1002800020E030E001962F5F3F4F811544E0940756
:10029000ECF20895EF92FF920F931F93CF93DF93A9
:1002A0007C0101E512E0C0E0D0E0CE15DF0554F49A
:1002B000BE018CE392E00E94F600F80181938F0169
:1002C0002196F3CFDF91CF911F910F91FF90EF9087
:1002D0000895FF920F931F93CF93DF938C01C7E490
:1002E000D2E0CE01875492408017910744F40E94D7
:1002F0001810F82E0E94580E6F0D6993F2CFDF91FF
:10030000CF911F910F91FF9008950F931F9340E895
:1003100055E260E070E08FE792E00E94C40A8FE748
:1003200092E00E94450B8823D1F30E9410018AE0DD
:1003300090E00E944A018AE090E00E9469010E94D8
:10034000580E60934102709342028093430290934F
:1003500044020BE512E020E530E047E452E060E5BE
:1003600070E081E592E00E9411090E94580E6093AE
:100370003D0270933E0280933F02909340026FEFE4
:1003800070E08FE792E00E94DB0B40913D025091BC
:100390003E0260913F027091400280914102909133
:1003A0004202A0914302B0914402481B590B6A0BD0
:1003B0007B0B2AE030E08FE792E00E94D80C69EFD7
:1003C00070E08FE792E00E941B0C61E080910401D5
:1003D0001F910F910C94050FEF92FF920F931F93B3
:1003E000CF93DF93CDB7DEB7A0970FB6F894DEBFFB
:1003F0000FBECDBF6DEC70E08FE792E00E94DB0B8B
:100400000E94F9004AE050E0BC018FE792E00E94B0
:10041000D00C65EC70E08FE792E00E941B0C0E940C
:10042000580E60934102709342028093430290936E
:10043000440200E010E08BE592E00E94F808E091B1
:100440004502F0914602E00FF11F908198279083BA
:100450000F5F1F4F011584E0180769F720914502CF
:1004600030914602E12C10E2F12E00E010E040E570
:1004700050E061E572E0CE0101960E949B070E9468
:10048000580E60933D0270933E0280933F0290931A
:1004900040026AE970E08FE792E00E94DB0B0E9465
:1004A000F9004AE050E0BC018FE792E00E94D00CD6
:1004B00062E970E08FE792E00E941B0C69E770E050
:1004C0008FE792E00E94DB0B40913D0250913E028B
:1004D00060913F02709140028091410290914202EE
:1004E000A0914302B0914402481B590B6A0B7B0B4D
:1004F0002AE030E08FE792E00E94D80C63E770E0DA
:100500008FE792E00E941B0C8FE792E00E94070C9D
:100510006DE670E08FE792E00E941B0C61E0809135
:1005200004010E943E0F68EE73E080E090E00E94BC
:100530007B0E68E670E08FE792E00E941B0C60E0A3
:10054000809104010E943E0F68EE73E080E090E02D
:100550000E947B0EA0960FB6F894DEBF0FBECDBFF3
:10056000DF91CF911F910F91FF90EF9008950E941E
:10057000A10E0E9485010E94EC0180E090E00895A8
:1005800080E094E00E940C0E909346028093450216
:100590000895DC0190961C92909791961C929197E9
:1005A00092961C92929793961C92939794961C9273
:1005B000949795961C92959796961C9296979796D7
:1005C0001C92979780E2E6E0F2E001900D928A9506
:1005D000E1F708950E94960F08952F923F924F924F
:1005E0005F926F927F928F929F92AF92BF92CF92C3
:1005F000DF92EF92FF920F931F93CF93DF93CDB7CC
:10060000DEB7C053D1400FB6F894DEBF0FBECDBFEA
:100610001C017B016E0101E4C00ED11C8E010F5F35
:100620001F4FD7016D917D918D919D917D010E940C
:10063000EA02F80161937193819391938F01EC1514
:10064000FD0579F72E01F9E34F0E511C9E012B5D3C
:100650003F4FCB5DDE4F39832883C552D1403801EF
:10066000AE014F5F5F4FC95DDE4F59834883C7526C
:10067000D14050E1CF5DDE4F5883C152D140D2010D
:10068000CD90DD90ED90FD902D01CB5DDE4FE881AA
:10069000F981C552D14081919191A191B191CB5DE8
:1006A000DE4FF983E883C552D140C95DDE4FE88152
:1006B000F981C752D140048115812681378141914A
:1006C000519161917191C95DDE4FF983E883C75201
:1006D000D140840F951FA61FB71FB701A601E1E106
:1006E0007695679557954795EA95D1F74601570155
:1006F000FFE0880C991CAA1CBB1CFA95D1F748296D
:1007000059296A297B2946015701EAE0B694A79442
:1007100097948794EA95D1F7482559256A257B2532
:1007200046015701F3E1B694A79497948794FA95FC
:10073000D1F7EDE0CC0CDD1CEE1CFF1CEA95D1F7E7
:100740008C289D28AE28BF28482559256A257B2559
:10075000840F951FA61FB71FB901A801F7E0769572
:10076000679557954795FA95D1F768017901E9E1C1
:10077000CC0CDD1CEE1CFF1CEA95D1F74C295D2941
:100780006E297F2968017901F3E0F694E794D79404
:10079000C794FA95D1F74C255D256E257F25680114
:1007A0007901E2E1F694E794D794C794EA95D1F7FA
:1007B000FEE0000F111F221F331FFA95D1F7C02A48
:1007C000D12AE22AF32A4C255D256E257F25840F48
:1007D000951FA61FB71FF30181939193A193B19326
:1007E0003F01CF5DDE4FF881C152D140FF5FCF5D49
:1007F000DE4FF883C152D140F03409F040CF8E0172
:100800000F5F1E4F80E2F101D80101900D928A9591
:10081000E1F726E031E0C15DDE4F39832883CF5216
:10082000D1409E012F5F3F4FCB5DDE4F3983288340
:10083000C552D14001E011E00C0F1D1F0C5F1F4F8E
:10084000C95DDE4F19830883C752D140CF5EDE4FAA
:1008500088819981AA81BB81C151D140C15DDE4FA0
:10086000E881F981CF52D1404190519061907190CF
:10087000C15DDE4FF983E883CF52D140CB5DDE4FBF
:10088000E881F981C552D1400191119121913191B5
:10089000CB5DDE4FF983E883C552D1406C017D0109
:1008A0004BE0F694E794D794C7944A95D1F7AC01FE
:1008B000BD01E5E1440F551F661F771FEA95D1F78B
:1008C000C42AD52AE62AF72AAC01BD01F6E07695BE
:1008D000679557954795FA95D1F74C015D01EAE187
:1008E000880C991CAA1CBB1CEA95D1F748295929E8
:1008F0006A297B29C426D526E626F726AC01BD0148
:10090000F9E17695679557954795FA95D1F74C019A
:100910005D01E7E0880C991CAA1CBB1CEA95D1F785
:10092000482959296A297B29C426D526E626F7268F
:10093000AC01BD014095509560957095C75EDE4F46
:1009400088809980AA80BB80C951D1404821592113
:100950006A217B21CB5EDE4F88809980AA80BB8094
:10096000C551D14088229922AA22BB224825592567
:100970006A257B25C40ED51EE61EF71EC35EDE4F1C
:1009800088819981AA81BB81CD51D140C80ED91EE1
:10099000EA1EFB1EC40CD51CE61CF71CC00ED11EA3
:1009A000E21EF31ECF5FDE4F88809980AA80BB8055
:1009B000C150D140CB5FDE4F488059806A807B8038
:1009C000C550D140C75FDE4F288139814A815B81A4
:1009D000C950D140CF5DDE4F288339834A835B8382
:1009E000C152D1404CE150E0BE016F5F7E4FC95D06
:1009F000DE4F88819981C752D1400E943110CF5E6D
:100A0000DE4F88819981AA81BB81C151D1408C0D73
:100A10009D1DAE1DBF1DCF5EDE4F88839983AA83C7
:100A2000BB83C151D140CF5DDE4F88819981AA81BE
:100A3000BB81C152D14084259525A625B7258821A3
:100A40009921AA21BB21CF5DDE4F288139814A81BE
:100A50005B81C152D14042225322642275228425F7
:100A60009525A625B725B501A401FDE076956795E6
:100A700057954795FA95D1F72401350113E1440CB8
:100A8000551C661C771C1A95D1F7442955296629EF
:100A900077292401350102E07694679457944794AE
:100AA0000A95D1F795018401EEE1000F111F221F75
:100AB000331FEA95D1F7402A512A622A732A442526
:100AC00055256625772524013501F6E1769467944E
:100AD00057944794FA95D1F71AE0880C991CAA1CF0
:100AE000BB1C1A95D1F7482859286A287B28442529
:100AF000552566257725840F951FA61FB71F8C0DDA
:100B00009D1DAE1DBF1DCF5FDE4F88839983AA83D5
:100B1000BB83C150D140C15DDE4F28813981CF52A6
:100B2000D1402650324009F091CEBE016F5F7E4F1A
:100B30007B0191018B01005E1F4FD7014D915D91AB
:100B40006D917D917D01F90180819181A281B381B7
:100B5000840F951FA61FB71F81939193A193B19303
:100B60009F01E016F10649F7D10190962C919097DC
:100B700091963C91919792964C91929793965C9115
:100B8000939794966C91949795967C919597969659
:100B90008C91969797969C9197973E5F4F4F5F4F9A
:100BA0006F4F7F4F8F4F9F4F90962C9390979196BA
:100BB0003C93919792964C93929793965C939397CC
:100BC00094966C93949795967C93959796968C9320
:100BD000969797969C93C05DDE4F0FB6F894DEBF54
:100BE0000FBECDBFDF91CF911F910F91FF90EF907E
:100BF000DF90CF90BF90AF909F908F907F906F903D
:100C00005F904F903F902F9008952F923F924F9278
:100C10005F926F927F928F929F92AF92BF92CF928C
:100C2000DF92EF92FF920F931F93CF93DF93CDB795
:100C3000DEB7C054D1090FB6F894DEBF0FBECDBFEA
:100C40004C011B012A018A013B01011532E0130707
:100C500048F0B301C4010E94ED02125020E4620E7C
:100C6000711CF3CF3201672C77246694B6E0660CD2
:100C7000771CBA95E1F7620C731C120181E03822EF
:100C8000910140E050E060E070E080E090E0F4012D
:100C9000A0A0B1A0C2A0D3A0E4A0F5A006A117A176
:100CA0000E94BB0F20A331A342A353A364A375A347
:100CB00086A397A3810183E0169507958A95E1F7AE
:100CC000A801B301CE0101960E942810F7E04F223F
:100CD0005524E1E0F0E0EC0FFD1FE00FF11F452887
:100CE00031F0D301A00FB11F8C91808301C010821D
:100CF00027E02222332480E890E002C09595879572
:100D00002A94E2F7E1E0F0E0EC0FFD1FE00FF11FA5
:100D10009081982B9083C80101968933910570F1D9
:100D20004FE350E0401B510B60E070E0E1E0F0E089
:100D3000EC0FFD1F8E0F9F1F0E944310BE016F5FBF
:100D40007F4FC4010E94ED02F40120A131A142A114
:100D500053A164A175A186A197A1325041095109FF
:100D6000610971098109910920A331A342A353A309
:100D700064A375A386A397A380E090E048E350E0C6
:100D8000481B590B60E070E021E030E02C0F3D1F64
:100D9000820F931F0E944310F401F0A021A032A003
:100DA00043A054A065A076A017A1DE01D996E8E380
:100DB000F0E02F2D322D432D542D652D762D872DCE
:100DC000912F0E2F0E949F0F2D933897E83F2FEF02
:100DD000F20779F7BE016F5F7F4FC4010E94ED02F9
:100DE000C05CDF4F0FB6F894DEBF0FBECDBFDF9102
:100DF000CF911F910F91FF90EF90DF90CF90BF9018
:100E0000AF909F908F907F906F905F904F903F90AA
:100E10002F900895FF920F931F93CF93DF938B0131
:100E2000EC01F12CF80161917191819191918F0107
:100E30000E94EA026993799389939993F394F8E075
:100E4000FF12F0CFDF91CF911F910F91FF90089586
:100E50008F929F92AF92BF92CF92DF92EF92FF92CA
:100E60000F931F93CF93DF93CDB7DEB7AC970FB639
:100E7000F894DEBF0FBECDBF6C017B01CE010196A1
:100E800029A73AA74BA75CA70E94C90229A53AA5A2
:100E90004BA55CA549015A018701811482E098069F
:100EA000A104B104A0F0B801CE01019629A73AA788
:100EB0004BA75CA70E94ED02005C1F4F82E0981ACE
:100EC000A108B1085CA54BA53AA529A5E6CFDA0192
:100ED000C9019170AA27BB27BA01A90129E076951B
:100EE0006795579547952A95D1F7BA0136E0660F71
:100EF000771F3A95E1F76E0D7F1DAC01CE0101968B
:100F00000E940506BE016F5F7F4FC6010E940A075F
:100F1000AC960FB6F894DEBF0FBECDBFDF91CF9178
:100F20001F910F91FF90EF90DF90CF90BF90AF9007
:100F30009F908F9008952F923F924F925F926F9261
:100F40007F928F929F92AF92BF92CF92DF92EF9259
:100F5000FF920F931F93CF93DF93CDB7DEB7CC569D
:100F6000D1090FB6F894DEBF0FBECDBF5C014901B9
:100F7000170128018E010F5F1F4F80E4F8011192C5
:100F80008A95E9F74130F2E05F0738F09A0140E0D6
:100F900050E0C8010E9428070AC0495F5F4FE3E0A4
:100FA00056954795EA95E1F7C8010E9428106E0111
:100FB00081E4C80ED11CF80196E3808189278193D2
:100FC000EC15FD05D1F7C6010E94C902B801C601A2
:100FD0000E94ED02A201910134012115F2E03F07C8
:100FE0004105510518F1B301C601AA962FAFAA9782
:100FF000AB963FAFAB97AC964FAFAC97AD965FAFAC
:10100000AD970E94ED02E0E46E0E711CAA962FAD22
:10101000AA97AB963FADAB97AC964FADAC97AD965C
:101020005FADAD97325041095109D7CFB201A1014F
:10103000517066277727D201C10129E0B695A7959F
:10104000979587952A95D1F71C0136E0220C331C21
:101050003A95E1F7280C391CB101C6010E9405063A
:1010600048019AE6F4018081892781934F01EC15AC
:10107000FD05C1F7BF01C5010E940A07C4010E9416
:10108000C902B801C4010E94ED0240E051E0B5017F
:10109000C4010E940506B401C5010E940A07C45993
:1010A000DF4F0FB6F894DEBF0FBECDBFDF91CF91FB
:1010B0001F910F91FF90EF90DF90CF90BF90AF9076
:1010C0009F908F907F906F905F904F903F902F9068
:1010D00008950F931F93CF93DF93FC01208530E099
:1010E000838590E0BC01A4E075956795AA95E1F72A
:1010F000A9015595479546275489569566895627DF
:10110000517013A1668D62FB662760F9C12FCC1F59
:10111000CC27CC1FC627D42FD170D5270589602FA7
:1011200070E0DC01B595A795B595A795B595A79500
:1011300095958795959587958A238427DB01B595A5
:10114000A795B595A7958A27817090A1991F992792
:10115000991F952746E0759567954A95E1F7502FB9
:10116000551F5527551F56239527412F50E0BA018B
:10117000A6E075956795AA95E1F7B5E05595479571
:10118000BA95E1F7462314E0359527951A95E1F7CE
:10119000422741704C27DF0110E050E02C9130E0F5
:1011A000B901660F672F661F770B220F331F212BA4
:1011B0002D935F5F543211F0162FF0CF20812E7FD8
:1011C000242B20838295880F807E23852F7D822B80
:1011D0008387990F86898D7F982B968BDC1711F06A
:1011E00080E801C080E0DF91CF911F910F910895B9
:1011F000FF920F931F93CF93DF938C0198E0F92E0A
:1012000080E0C82FD0E0D595C795C8010E94690835
:101210008C2BFA94B1F7DF91CF911F910F91FF9032
:101220000895AF92BF92CF92DF92EF92FF920F9309
:101230001F93CF93DF936C01EB017A01590127963D
:1012400063E0D695C7956A95E1F743E250E04C1B01
:101250005D0B60E070E0C8018C0F9D1F0E94431081
:1012600060E070E03FEF3C0F832F861BF601E80F34
:10127000F11D9081E92FEF70F0E0ED5CFE4F84915D
:10128000E92FF0E054E0F595E7955A95E1F7ED5C2C
:10129000FE4F2491D801A60FB71F40E1849FC001E3
:1012A0001124282B2C936F5F7F4FC613DDCF77E07F
:1012B000A70EB11C43E0B694A7944A95E1F75A2DC6
:1012C00080E090E06FEF6A0D262F281BF701E20FF8
:1012D000F11D3081E32FEF70F0E0ED5CFE4F2491C3
:1012E000E32FF0E034E0F595E7953A95E1F7ED5C12
:1012F000FE4F44913CE0380FD801A30FB11DE0E14F
:101300002E9F90011124422B4C9301965813DCCF51
:10131000FCE0AF0EB11C90E0F801EA0DFB1D8081EE
:10132000282F2295220F207E869586958695892BDB
:10133000808341E0A41AB1087BE0A716B10410F045
:10134000922FEACF80EEF80183A3C0E8D4E0C80171
:101350000E94690821972097D1F7DF91CF911F91C3
:101360000F91FF90EF90DF90CF90BF90AF900895D6
:10137000FC0124853585F901E05CFF4F8081918176
:10138000F901EE5BFF4F20813181821B930B8F733C
:1013900099270895FC0184859585FC01E05CFF4F49
:1013A00040815181FC01EE5BFF4F2081318142176A
:1013B000530741F00190F081E02DE80FF91F808183
:1013C00090E008958FEF9FEF0895FC018485958547
:1013D000FC01E05CFF4F40815181FC01EE5BFF4F5F
:1013E000208131814217530779F0A081B181A80F84
:1013F000B91F8C91208131812F5F3F4F2F7333278D
:101400003183208390E008958FEF9FEF0895FC01D2
:1014100081A1882329F0A489B5898C9186FFFBCF0F
:1014200011A20895CF93DF93FC0126853785D9015A
:10143000A05CBF4F8D919C91119701968F73992756
:10144000E901CE5BDF4F4881598184179507D9F3B5
:101450000D90BC91A02DA20FB31F6C93A685B785EC
:10146000A05CBF4F11969C938E93A689B7892C914F
:1014700081E090E0078C02C0880F991F0A94E2F780
:10148000282B2C9381E081A30488F589E02D8081AD
:101490008064808381E090E0DF91CF9108951F9276
:1014A0000F920FB60F9211242F933F934F938F9368
:1014B0009F93EF93FF938091C00082FD1CC04091E9
:1014C000C600809125039091260301968F7399277A
:1014D00020912703309128038217930771F0E09140
:1014E0002503F0912603EB51FD4F40839093260393
:1014F0008093250302C08091C600FF91EF919F91D8
:101500008F914F913F912F910F900FBE0F901F9091
:1015100018951F920F920FB60F9211242F933F939D
:101520008F939F93EF93FF932091E1023091E2021A
:101530008091E3029091E4022817390731F48091F9
:10154000C1008F7D8093C10014C0E091E302F0914F
:10155000E402EF55FD4F20818091E3029091E40277
:1015600001968F7399279093E4028093E30220936E
:10157000C600FF91EF919F918F913F912F910F9016
:101580000FBE0F901F901895CF92DF92EF92FF92AF
:10159000CF93DF93EC016A017B01411581EE58077F
:1015A00061057105F9F0EC89FD8981E090E008A002
:1015B00002C0880F991F0A94E2F7808360E079E007
:1015C0008DE390E0A70196010E94740F215031092C
:1015D000410951095695479537952795211580E181
:1015E000380798F0EC89FD89108260E874E88EE194
:1015F00090E0A70196010E94740F21503109410922
:1016000051095695479537952795E889F98930838B
:10161000EA89FB89208319A2EE89FF89408181E054
:1016200090E09C010C8C02C0220F331F0A94E2F759
:10163000422B4083EE89FF8940819C010D8C02C0C2
:10164000220F331F0A94E2F7422B4083EE89FF8971
:1016500040819C010E8C02C0220F331F0A94E2F7D6
:10166000422B4083EE89FF8920810F8C02C0880FB6
:10167000991F0A94E2F7809582238083DF91CF91AE
:10168000FF90EF90DF90CF90089581E00895109241
:1016900082021092810288EE93E0A0E0B0E0809395
:1016A000830290938402A0938502B093860280E324
:1016B00092E09093800280937F0285EE92E0909377
:1016C0008C0280938B0281EA92E090938E02809349
:1016D0008D0285EC90E09093900280938F0284ECD1
:1016E00090E0909392028093910280EC90E090932E
:1016F00094028093930281EC90E090939602809301
:10170000950282EC90E0909398028093970286EC89
:1017100090E090939A028093990284E080939B02D8
:1017200083E080939C0287E080939D0285E0809314
:101730009E0281E080939F020895CF92DF92EF9204
:10174000FF920F931F93CF93DF936C017A01EB010C
:10175000E60EF71E00E010E0CE15DF0561F069919E
:10176000D601ED91FC910190F081E02DC601099523
:10177000080F191FF1CFC801DF91CF911F910F9171
:10178000FF90EF90DF90CF9008956115710581F083
:10179000DB010D900020E9F7AD0141505109461BD6
:1017A000570BDC01ED91FC910280F381E02D09944F
:1017B00080E090E00895EF92FF920F931F93CF93F4
:1017C000DF938C01FB01C0E0D0E064917F018FEFDB
:1017D000E81AF80A662361F0D801ED91FC910190B6
:1017E000F081E02DC8010995C80FD91FF701EDCF91
:1017F000CE01DF91CF911F910F91FF90EF9008954F
:10180000DC01ED91FC910190F081E02D09940F93A2
:101810001F93CF93DF93EC016DE00E94000C8C01CD
:101820006AE0CE010E94000C800F911FDF91CF91E2
:101830001F910F9108950F931F93CF93DF93EC01A6
:101840000E94DB0B8C01CE010E94070C800F911FC0
:10185000DF91CF911F910F9108958F929F92AF9238
:10186000BF92CF92DF92EF92FF920F931F93CF938D
:10187000DF93CDB7DEB7A1970FB6F894DEBF0FBEEA
:10188000CDBF7C01C42EE52FCB01D22E19A221E0C1
:101890002D1510F02AE0D22E8E010F5D1F4F8D2CDA
:1018A000912CA12CB12C6C2D7E2FA50194010E94AE
:1018B000740F8C2DD29E80191124015011098A3089
:1018C00014F4805D01C0895CF80180832115310525
:1018D0004105510521F0C22EE32FCA01E4CFB80122
:1018E000C7010E94C50BA1960FB6F894DEBF0FBECC
:1018F000CDBFDF91CF911F910F91FF90EF90DF90BF
:10190000CF90BF90AF909F908F900895CF92DF922D
:10191000EF92FF920F931F93CF93DF93EC016A0135
:101920007B012115310579F4E881F9810190F0817D
:10193000E02D642FDF91CF911F910F91FF90EF90D9
:10194000DF90CF9009942A303105E9F477FF1AC06F
:101950006DE20E94000C8C0144275527BA014C19F6
:101960005D096E097F092AE0CE010E942D0C800FCF
:10197000911FDF91CF911F910F91FF90EF90DF901A
:10198000CF9008952AE0B701A601CE01DF91CF9153
:101990001F910F91FF90EF90DF90CF900C942D0C42
:1019A0009A01AB01662757FD6095762F0C94860C43
:1019B0002115310541F4DC01ED91FC910190F0819C
:1019C000E02D642F09940C942D0CCF93DF9382307B
:1019D000910510F482E090E0E0913403F09135033A
:1019E00020E030E0A0E0B0E0309739F14081518153
:1019F00048175907B8F04817590771F48281938145
:101A0000109729F013969C938E9312972CC0909365
:101A100035038093340327C02115310531F0421777
:101A2000530718F0A901DB0101C0EF019A01BD01C4
:101A3000DF010280F381E02DD7CF21153105F9F0C8
:101A4000281B390B2430310580F48A819B81611574
:101A5000710521F0FB019383828304C090933503C9
:101A600080933403FE01329644C0FE01E20FF31F5F
:101A70008193919322503109398328833AC0209170
:101A8000320330913303232B41F42091280230910B
:101A900029023093330320933203209126023091A0
:101AA00027022115310541F42DB73EB740912A0296
:101AB00050912B02241B350BE0913203F09133033C
:101AC000E217F307A0F42E1B3F0B2817390778F015
:101AD000AC014E5F5F4F2417350748F04E0F5F1F74
:101AE00050933303409332038193919302C0E0E01B
:101AF000F0E0CF01DF91CF910895CF93DF9300976E
:101B000009F487C0FC01329713821282C09134031A
:101B1000D0913503209781F420813181280F391F1E
:101B200080913203909133038217930779F5F093F4
:101B30003303E09332036DC0DE0120E030E0AE17E6
:101B4000BF0750F412964D915C9113979D0141157A
:101B5000510509F1DA01F3CFB383A28340815181AA
:101B6000840F951F8A179B0771F48D919C91119793
:101B7000840F951F02969183808312968D919C917C
:101B80001397938382832115310529F4F09335034C
:101B9000E09334033EC0D9011396FC93EE93129761
:101BA0004D915D91A40FB51FEA17FB0779F4808171
:101BB0009181840F951F0296D90111969C938E9363
:101BC0008281938113969C938E931297E0E0F0E0CC
:101BD0008A819B81009719F0FE01EC01F9CFCE01BB
:101BE000029628813981820F931F20913203309110
:101BF00033032817390769F4309729F41092350315
:101C00001092340302C013821282D0933303C09324
:101C10003203DF91CF9108950C94E50C1F920F923F
:101C20000FB60F9211242F933F938F939F93AF93EF
:101C3000BF9380912A0390912B03A0912C03B09124
:101C40002D033091290323E0230F2D3720F4019633
:101C5000A11DB11D05C026E8230F0296A11DB11DCF
:101C60002093290380932A0390932B03A0932C03A2
:101C7000B0932D0380912E0390912F03A0913003F8
:101C8000B09131030196A11DB11D80932E03909355
:101C90002F03A0933003B0933103BF91AF919F9175
:101CA0008F913F912F910F900FBE0F901F9018951D
:101CB0003FB7F89480912E0390912F03A0913003A9
:101CC000B091310326B5A89B05C02F3F19F00196AE
:101CD000A11DB11D3FBF6627782F892F9A2F620F54
:101CE000711D811D911D42E0660F771F881F991F8E
:101CF0004A95D1F70895CF92DF92EF92FF92CF935A
:101D0000DF936B017C010E94580EEB01C114D104DA
:101D1000E104F10479F00E94580E6C1B7D0B683EC3
:101D20007340A0F381E0C81AD108E108F108C85156
:101D3000DC4FECCFDF91CF91FF90EF90DF90CF9011
:101D40000895789484B5826084BD84B5816084BD33
:101D500085B5826085BD85B5816085BDEEE6F0E024
:101D6000808181608083E1E8F0E010828081826080
:101D70008083808181608083E0E8F0E08081816001
:101D80008083E1EBF0E0808184608083E0EBF0E031
:101D9000808181608083EAE7F0E0808184608083D5
:101DA000808182608083808181608083808180687F
:101DB00080831092C1000895833081F028F481302F
:101DC00099F08230A1F008958630A9F08730B9F0FB
:101DD0008430D1F4809180008F7D03C08091800099
:101DE0008F7780938000089584B58F7702C084B583
:101DF0008F7D84BD08958091B0008F7703C080915E
:101E0000B0008F7D8093B0000895CF93DF9390E072
:101E1000FC01E95AFE4F2491FC01E559FE4F8491E3
:101E2000882349F190E0880F991FFC01E757FE4F86
:101E3000A591B49181589E4FFC01C591D4919FB753
:101E4000611108C0F8948C91209582238C9388812D
:101E500082230AC0623051F4F8948C91322F30956D
:101E600083238C938881822B888304C0F8948C917F
:101E7000822B8C939FBFDF91CF9108950F931F9377
:101E8000CF93DF931F92CDB7DEB7282F30E0F90153
:101E9000ED5BFE4F8491F901E95AFE4F1491F9016F
:101EA000E559FE4F04910023C9F0882321F069838E
:101EB0000E94DC0E6981E02FF0E0EE0FFF1FE15879
:101EC000FE4FA591B4919FB7F8948C91611103C016
:101ED0001095812301C0812B8C939FBF0F90DF91C0
:101EE000CF911F910F910895A1E21A2EAA1BBB1B3F
:101EF000FD010DC0AA1FBB1FEE1FFF1FA217B307D6
:101F0000E407F50720F0A21BB30BE40BF50B661FEB
:101F1000771F881F991F1A9469F7609570958095AF
:101F200090959B01AC01BD01CF01089569279627CB
:101F30006927782787277827089597FB10F8169444
:101F400000080F93083098F00850232F342F452FA6
:101F5000562F672F782F892F902DF4CF05949795C2
:101F600087957795679557954795379527950A955E
:101F7000AAF70F9108952A0D3B1D4C1D5D1D6E1D86
:101F80007F1D801F911F0895EE0FFF1F0590F49194
:101F9000E02D09948F929F92AF92BF92CF92DF92E1
:101FA000EF92FF92CF93DF93EC01688179818A8170
:101FB0009B81611571058105910521F464E279ED3C
:101FC0008BE597E02DE133EF41E050E00E94651092
:101FD00049015A019B01AC01A7EAB1E40E945210E9
:101FE0006B017C01ACEEB4EFA50194010E9460107E
:101FF000C60ED71EE81EF91EF7FE06C081E0C81AFD
:10200000D108E10880E8F80AC882D982EA82FB8216
:10201000C6019F77DF91CF91FF90EF90DF90CF9037
:10202000BF90AF909F908F9008950E94CA0F08951F
:1020300080E091E00E94CA0F0895A0E0B0E0809394
:10204000000190930101A0930201B0930301089550
:10205000FB01DC0102C001900D9241505040D8F7C5
:1020600008956817790768F4FB01DC01E40FF51F98
:10207000A40FB51F02C002900E9241505040D8F7F5
:1020800008950C942810DC0101C06D93415050401C
:10209000E0F70895F999FECF92BD81BDF89A99278E
:1020A00080B508950E948410A59F900DB49F900D57
:1020B000A49F800D911D11240895B7FF0C94521018
:1020C0000E945210821B930B0895052E97FB1EF45D
:1020D00000940E947C1057FD07D00E94740F07FCEB
:1020E00003D04EF40C947C1050954095309521957A
:1020F0003F4F4F4F5F4F0895909580957095619534
:102100007F4F8F4F9F4F0895A29FB001B39FC00193
:10211000A39F700D811D1124911DB29F700D811D13
:0A2120001124911D0895F894FFCFDB
:10212A00010000000D00982F8A4291443771CFFBBD
:10213A00C0B5A5DBB5E95BC25639F111F159A482E4
:10214A003F92D55E1CAB98AA07D8015B8312BE8565
:10215A003124C37D0C55745DBE72FEB1DE80A706C4
:10216A00DC9B74F19BC1C1699BE48647BEEFC69DA7
:10217A00C10FCCA10C246F2CE92DAA84744ADCA9C6
:10218A00B05CDA88F97652513E986DC631A8C827F4
:10219A0003B0C77F59BFF30BE0C64791A7D5516378
:1021AA00CA0667292914850AB72738211B2EFC6D10
:1021BA002C4D130D385354730A65BB0A6A762EC91F
:1021CA00C281852C7292A1E8BFA24B661AA8708BB5
:1021DA004BC2A3516CC719E892D1240699D685350A
:1021EA000EF470A06A1016C1A419086C371E4C7739
:1021FA004827B5BCB034B30C1C394AAAD84E4FCACA
:10220A009C5BF36F2E68EE828F746F63A5781478E7
:10221A00C8840802C78CFAFFBE90EB6C50A4F7A3DF
:10222A00F9BEF27871C667E6096A85AE67BB72F3D2
:10223A006E3C3AF54FA57F520E518C68059BABD97F
:10224A00831F19CDE05B0000360380000000000008
:0C225A00120A9D0BB809E509CA09070A21
:00000001FF
