:100000000C94F6000C941E010C941E010C941E011D
:100010000C941E010C941E010C941E010C941E01E4
:100020000C941E010C941E010C941E010C941E01D4
:100030000C941E010C941E010C941E010C941E01C4
:100040000C948F0E0C941E010C94D00A0C940A0B85
:100050000C941E010C941E010C941E010C941E01A4
:100060000C941E010C941E014461726B004C696774
:10007000687400205B75735D00456E6372797074FF
:10008000696F6E20746F74616C2074616B65733A74
:100090002000205B627974655D00416674657220A2
:1000A000656E6372797074696F6E206F66206D651E
:1000B000737361676520667265654D656D6F7279F2
:1000C00028293D2000205B627974655D00426566E9
:1000D0006F726520656E6372797074696F6E206FE0
:1000E00066206D65737361676520667265654D6531
:1000F0006D6F727928293D2000205B75735D004982
:100100006E696369616C69736174696F6E20746F85
:1001100074616C2074616B65733A20004372656191
:1001200074696E67206172726179206F6620646104
:10013000746100AB77F49B908C7970B6189A6FE776
:100140007E4B6CEF80A711AF1F3CC422A32F0E8102
:100150004DE566914B54D4C10B6383301F197D98D4
:100160003CB6FEE0C3007C45E36066B55BF47F5EB1
:10017000F2D65D550926796270007931D9AF37BE64
:1001800006BE0F314D1142594CECF32696679C3256
:10019000BE3B80AF53523700000007000201000051
:1001A0000304060000000000000000010204081023
:1001B00020408001020408102001020408102004DD
:1001C00004040404040404020202020202030303FE
:1001D00003030300000000250028002B000000009E
:1001E00000240027002A0000EA02C80B11241FBEC9
:1001F000CFEFD8E0DEBFCDBF12E0A0E0B1E0ECE28F
:10020000F2E202C005900D92AC33B107D9F713E0CA
:10021000ACE3B2E001C01D92AA33B107E1F711E0EF
:10022000CCEED1E004C02297FE010E944710C83EE8
:10023000D107C9F70E94E1020C9414110C9400003C
:10024000CB010C94CB10CF93DF9300D0CDB7DEB7AA
:1002500020913603309137032115310511F42AE33B
:1002600033E0CE010196821B930B0F900F90DF912C
:10027000CF9108956CE171E083E892E00E949C0CBC
:100280000E94D90E60934102709342028093430210
:100290009093440220E030E080E090E06DE271E471
:1002A00040914502509146022A3131053CF4DA0171
:1002B000A80FB91FE1E4E20FEC930EC0FA01E80FBA
:1002C000F91F6083E0914502F0914602E80FF91FA3
:1002D0007183019620E030E001962F5F3F4F81153A
:1002E00044E09407ECF20895EF92FF920F931F936E
:1002F000CF93DF937C0101E512E0C0E0D0E0CE15A2
:10030000DF0554F4BE018CE392E00E942001F80165
:1003100081938F012196F3CFDF91CF911F910F91A0
:10032000FF90EF900895FF920F931F93CF93DF9369
:100330008C01C7E4D2E0CE01875492408017910728
:1003400044F40E949910F82E0E94D90E6F0D699303
:10035000F2CFDF91CF911F910F91FF9008950F93EE
:100360001F9340E855E260E070E083E892E00E946D
:10037000450B83E892E00E94C60B8823D1F30E94CC
:100380003A018AE090E00E9474018AE090E00E94C5
:1003900093010E94D90E60934102709342028093B0
:1003A0004302909344020BE512E020E530E047E47D
:1003B00052E060E570E081E592E00E9498090E94B9
:1003C000D90E60933D0270933E0280933F0290935A
:1003D00040026FEF70E083E892E00E945C0C409175
:1003E0003D0250913E0260913F0270914002809127
:1003F000410290914202A0914302B0914402481BF5
:10040000590B6A0B7B0B2AE030E083E892E00E94F4
:10041000590D69EF70E083E892E00E949C0C61E066
:10042000809104011F910F910C94860FEF92FF921F
:100430000F931F93CF93DF93CDB7DEB7A0970FB67F
:10044000F894DEBF0FBECDBF6DEC70E083E892E0A4
:100450000E945C0C0E9423014AE050E0BC0183E84A
:1004600092E00E94510D65EC70E083E892E00E94FA
:100470009C0C0E94D90E60934102709342028093BB
:1004800043029093440200E010E08BE592E00E946A
:10049000160AE0914502F0914602E00FF11F9081AB
:1004A000982790830F5F1F4F011584E0180769F7A5
:1004B0002091450230914602E12C10E2F12E00E03D
:1004C00010E040E550E061E572E0CE0101960E9447
:1004D000C5070E94D90E60933D0270933E0280933F
:1004E0003F02909340026AE970E083E892E00E9444
:1004F0005C0C0E9423014AE050E0BC0183E892E0DA
:100500000E94510D62E970E083E892E00E949C0C29
:1005100069E770E083E892E00E945C0C40913D0244
:1005200050913E0260913F027091400280914102E1
:1005300090914202A0914302B0914402481B590B92
:100540006A0B7B0B2AE030E083E892E00E94590DB1
:1005500063E770E083E892E00E949C0C83E892E0FD
:100560000E94880C6DE670E083E892E00E949C0C8B
:1005700061E0809104010E94BF0F68EE73E080E0AB
:1005800090E00E94FC0E68E670E083E892E00E9432
:100590009C0C60E0809104010E94BF0F68EE73E044
:1005A00080E090E00E94FC0EA0960FB6F894DEBFAB
:1005B0000FBECDBFDF91CF911F910F91FF90EF90B4
:1005C00008950E94220F0E94AF010E94160280E04F
:1005D00090E0089580E094E00E948D0E9093460292
:1005E000809345020895DC0190961C929097919615
:1005F0001C92919792961C92929793961C92939725
:1006000094961C92949795961C92959796961C9208
:10061000969797961C92979780E2E6E0F2E0019019
:100620000D928A95E1F708950E94171008952F9270
:100630003F924F925F926F927F928F929F92AF9272
:10064000BF92CF92DF92EF92FF920F931F93CF93BF
:10065000DF93CDB7DEB7C053D1400FB6F894DEBFFD
:100660000FBECDBF1C017B016E0101E4C00ED11C89
:100670008E010F5F1F4FD7016D917D918D919D91DF
:100680007D010E941403F80161937193819391930A
:100690008F01EC15FD0579F72E01F9E34F0E511C82
:1006A0009E012B5D3F4FCB5DDE4F39832883C552C2
:1006B000D1403801AE014F5F5F4FC95DDE4F5983B6
:1006C0004883C752D14050E1CF5DDE4F5883C152BD
:1006D000D140D201CD90DD90ED90FD902D01CB5D0C
:1006E000DE4FE881F981C552D14081919191A1916C
:1006F000B191CB5DDE4FF983E883C552D140C95D2E
:10070000DE4FE881F981C752D140048115812681ED
:1007100037814191519161917191C95DDE4FF983AA
:10072000E883C752D140840F951FA61FB71FB7019A
:10073000A601E1E17695679557954795EA95D1F73A
:1007400046015701FFE0880C991CAA1CBB1CFA95B6
:10075000D1F7482959296A297B2946015701EAE03E
:10076000B694A79497948794EA95D1F7482559258C
:100770006A257B2546015701F3E1B694A794979427
:100780008794FA95D1F7EDE0CC0CDD1CEE1CFF1C34
:10079000EA95D1F78C289D28AE28BF2848255925F1
:1007A0006A257B25840F951FA61FB71FB901A801D5
:1007B000F7E07695679557954795FA95D1F76801D3
:1007C0007901E9E1CC0CDD1CEE1CFF1CEA95D1F7A8
:1007D0004C295D296E297F2968017901F3E0F6949F
:1007E000E794D794C794FA95D1F74C255D256E25EB
:1007F0007F2568017901E2E1F694E794D794C794E4
:10080000EA95D1F7FEE0000F111F221F331FFA9562
:10081000D1F7C02AD12AE22AF32A4C255D256E257C
:100820007F25840F951FA61FB71FF3018193919316
:10083000A193B1933F01CF5DDE4FF881C152D1400A
:10084000FF5FCF5DDE4FF883C152D140F03409F035
:1008500040CF8E010F5F1E4F80E2F101D801019061
:100860000D928A95E1F726E031E0C15DDE4F3983D4
:100870002883CF52D1409E012F5F3F4FCB5DDE4F8B
:1008800039832883C552D14001E011E00C0F1D1FB0
:100890000C5F1F4FC95DDE4F19830883C752D140DB
:1008A000CF5EDE4F88819981AA81BB81C151D14041
:1008B000C15DDE4FE881F981CF52D1404190519026
:1008C00061907190C15DDE4FF983E883CF52D140D2
:1008D000CB5DDE4FE881F981C552D1400191119184
:1008E00021913191CB5DDE4FF983E883C552D14030
:1008F0006C017D014BE0F694E794D794C7944A9538
:10090000D1F7AC01BD01E5E1440F551F661F771F0C
:10091000EA95D1F7C42AD52AE62AF72AAC01BD0107
:10092000F6E07695679557954795FA95D1F74C017E
:100930005D01EAE1880C991CAA1CBB1CEA95D1F761
:10094000482959296A297B29C426D526E626F7266F
:10095000AC01BD01F9E17695679557954795FA95F4
:10096000D1F74C015D01E7E0880C991CAA1CBB1C67
:10097000EA95D1F7482959296A297B29C426D52621
:10098000E626F726AC01BD0140955095609570951F
:10099000C75EDE4F88809980AA80BB80C951D14054
:1009A000482159216A217B21CB5EDE4F88809980C6
:1009B000AA80BB80C551D14088229922AA22BB229D
:1009C000482559256A257B25C40ED51EE61EF71E2F
:1009D000C35EDE4F88819981AA81BB81CD51D14010
:1009E000C80ED91EEA1EFB1EC40CD51CE61CF71C43
:1009F000C00ED11EE21EF31ECF5FDE4F88809980AD
:100A0000AA80BB80C150D140CB5FDE4F4880598067
:100A10006A807B80C550D140C75FDE4F2881398115
:100A20004A815B81C950D140CF5DDE4F2883398335
:100A30004A835B83C152D1404CE150E0BE016F5FFD
:100A40007E4FC95DDE4F88819981C752D1400E9497
:100A5000B210CF5EDE4F88819981AA81BB81C151DE
:100A6000D1408C0D9D1DAE1DBF1DCF5EDE4F888316
:100A70009983AA83BB83C151D140CF5DDE4F88816A
:100A80009981AA81BB81C152D14084259525A62593
:100A9000B72588219921AA21BB21CF5DDE4F28816E
:100AA00039814A815B81C152D14042225322642262
:100AB000752284259525A625B725B501A401FDE05D
:100AC0007695679557954795FA95D1F724013501A5
:100AD00013E1440C551C661C771C1A95D1F7442968
:100AE0005529662977292401350102E07694679417
:100AF000579447940A95D1F795018401EEE1000FD0
:100B0000111F221F331FEA95D1F7402A512A622A6A
:100B1000732A442555256625772524013501F6E1FC
:100B20007694679457944794FA95D1F71AE0880C15
:100B3000991CAA1CBB1C1A95D1F7482859286A2869
:100B40007B284425552566257725840F951FA61FEC
:100B5000B71F8C0D9D1DAE1DBF1DCF5FDE4F88835F
:100B60009983AA83BB83C150D140C15DDE4F2881E8
:100B70003981CF52D1402650324009F091CEBE018A
:100B80006F5F7E4F7B0191018B01005E1F4FD7018C
:100B90004D915D916D917D917D01F90180819181F2
:100BA000A281B381840F951FA61FB71F81939193D4
:100BB000A193B1939F01E016F10649F7D1019096F8
:100BC0002C91909791963C91919792964C919297F7
:100BD00093965C91939794966C91949795967C914B
:100BE000959796968C91969797969C9197973E5F3E
:100BF0004F4F5F4F6F4F7F4F8F4F9F4F90962C936C
:100C0000909791963C93919792964C939297939646
:100C10005C93939794966C93949795967C93959701
:100C200096968C93969797969C93C05DDE4F0FB6E1
:100C3000F894DEBF0FBECDBFDF91CF911F910F9112
:100C4000FF90EF90DF90CF90BF90AF909F908F90EC
:100C50007F906F905F904F903F902F9008952F92CC
:100C60003F924F925F926F927F928F929F92AF923C
:100C7000BF92CF92DF92EF92FF920F931F93CF9389
:100C8000DF93CDB7DEB7C054D1090FB6F894DEBFFD
:100C90000FBECDBF4C011B012A018A013B0101158A
:100CA00032E0130748F0B301C4010E941703125049
:100CB00020E4620E711CF3CF3201672C7724669416
:100CC000B6E0660C771CBA95E1F7620C731C120152
:100CD00081E03822910140E050E060E070E080E087
:100CE00090E0F401A0A0B1A0C2A0D3A0E4A0F5A020
:100CF00006A117A10E943C1020A331A342A353A335
:100D000064A375A386A397A3810183E01695079535
:100D10008A95E1F7A801B301CE0101960E94A910BE
:100D2000F7E04F225524E1E0F0E0EC0FFD1FE00F6B
:100D3000F11F452831F0D301A00FB11F8C918083A2
:100D400001C0108227E02222332480E890E002C014
:100D5000959587952A94E2F7E1E0F0E0EC0FFD1F0E
:100D6000E00FF11F9081982B9083C8010196893381
:100D7000910570F14FE350E0401B510B60E070E0D3
:100D8000E1E0F0E0EC0FFD1F8E0F9F1F0E94C410EA
:100D9000BE016F5F7F4FC4010E941703F40120A1C1
:100DA00031A142A153A164A175A186A197A132509E
:100DB00041095109610971098109910920A331A3F0
:100DC00042A353A364A375A386A397A380E090E0F6
:100DD00048E350E0481B590B60E070E021E030E050
:100DE0002C0F3D1F820F931F0E94C410F401F0A02E
:100DF00021A032A043A054A065A076A017A1DE01D7
:100E0000D996E8E3F0E02F2D322D432D542D652D9A
:100E1000762D872D912F0E2F0E9420102D9338971D
:100E2000E83F2FEFF20779F7BE016F5F7F4FC401F4
:100E30000E941703C05CDF4F0FB6F894DEBF0FBEF1
:100E4000CDBFDF91CF911F910F91FF90EF90DF9079
:100E5000CF90BF90AF909F908F907F906F905F905A
:100E60004F903F902F900895FF920F931F93CF9331
:100E7000DF938B01EC01F12CF8016191719181916B
:100E800091918F010E9414036993799389939993A7
:100E9000F394F8E0FF12F0CFDF91CF911F910F9103
:100EA000FF9008958F929F92AF92BF92CF92DF9260
:100EB000EF92FF920F931F93CF93DF93CDB7DEB7DF
:100EC000AC970FB6F894DEBF0FBECDBF6C017B01AF
:100ED000CE01019629A73AA74BA75CA70E94F3026F
:100EE00029A53AA54BA55CA549015A0187018114A2
:100EF00082E09806A104B104A0F0B801CE010196E9
:100F000029A73AA74BA75CA70E941703005C1F4FB5
:100F100082E0981AA108B1085CA54BA53AA529A5BD
:100F2000E6CFDA01C9019170AA27BB27BA01A9014E
:100F300029E076956795579547952A95D1F7BA0197
:100F400036E0660F771F3A95E1F76E0D7F1DAC0115
:100F5000CE0101960E942F06BE016F5F7F4FC60132
:100F60000E943407AC960FB6F894DEBF0FBECDBF1B
:100F7000DF91CF911F910F91FF90EF90DF90CF9075
:100F8000BF90AF909F908F9008952F923F924F9275
:100F90005F926F927F928F929F92AF92BF92CF9209
:100FA000DF92EF92FF920F931F93CF93DF93CDB712
:100FB000DEB7CC56D1090FB6F894DEBF0FBECDBF59
:100FC0005C014901170128018E010F5F1F4F80E46A
:100FD000F80111928A95E9F74130F2E05F0738F0A5
:100FE0009A0140E050E0C8010E9452070AC0495FE0
:100FF0005F4FE3E056954795EA95E1F7C8010E94F7
:10100000A9106E0181E4C80ED11CF80196E380811D
:1010100089278193EC15FD05D1F7C6010E94F302E3
:10102000B801C6010E941703A201910134012115E4
:10103000F2E03F074105510518F1B301C601AA9638
:101040002FAFAA97AB963FAFAB97AC964FAFAC978D
:10105000AD965FAFAD970E941703E0E46E0E711C72
:10106000AA962FADAA97AB963FADAB97AC964FAD76
:10107000AC97AD965FADAD97325041095109D7CFCE
:10108000B201A101517066277727D201C10129E081
:10109000B695A795979587952A95D1F71C0136E0C7
:1010A000220C331C3A95E1F7280C391CB101C6011A
:1010B0000E942F0648019AE6F401808189278193D6
:1010C0004F01EC15FD05C1F7BF01C5010E943407B2
:1010D000C4010E94F302B801C4010E94170340E05A
:1010E00051E0B501C4010E942F06B401C5010E9460
:1010F0003407C459DF4F0FB6F894DEBF0FBECDBF23
:10110000DF91CF911F910F91FF90EF90DF90CF90E3
:10111000BF90AF909F908F907F906F905F904F9017
:101120003F902F900895DC0185E1815041F0FB0153
:1011300024919C9192279D936F5F7F4FF6CF0895E6
:101140008F929F92AF92BF92CF92DF92EF92FF92D7
:101150000F931F93CF93DF93CDB7DEB7A8970FB64A
:10116000F894DEBF0FBECDBF8B01D22EDB011696E9
:101170003C9116973295369536953370FC0125854E
:101180002695269523271D963C911D9736953695D5
:10119000C680C294C69477E0C722C326FC2DF170A6
:1011A000CF2E1A963C91432341704D25DC01539676
:1011B0005C915397551F5527551FFC01319620FF11
:1011C00026C0E12CF12CBC902B2D30E0B901660F2C
:1011D000771F6E296B256C937081E72EEE1CEE2431
:1011E000EE1C220F232F221F330B372F330F322BEE
:1011F00037273083F394129632962AE0F212E3CF27
:10120000451719F163E871E00E9493081EC0DC01E4
:10121000E12CF12C2C9130E0B901660F771F6E297B
:101220006C937081E72EEE1CEE24EE1C220F232F10
:10123000221F330B372F330F322B3083F394129648
:1012400032963AE0F312E6CFDBCFD8015396BC904A
:10125000BB1CBB24BB1C84E1F801DE015596019048
:101260000D928A95E1F76FE671E0CE0145960E94F6
:101270009308F80174969E012B5E3F4F7901CE01D1
:10128000019630E04291242F2695232BD7012E93EF
:101290007D01342F379533273795A817B90791F774
:1012A0006BE571E0CD010E949308DE01559648017F
:1012B000AE01475D5F4F70E0F401808190E09C01DA
:1012C000220F232F221F330BAD90F70161917F0175
:1012D0006A216727880F991F6827F40161934F01DE
:1012E000A417B50711F0722FE7CFD8018C918E7F2C
:1012F0008C93DB1451F0CC2019F063E371E002C051
:1013000067E471E0C8010E949308A8960FB6F894AC
:10131000DEBF0FBECDBFDF91CF911F910F91FF9028
:10132000EF90DF90CF90BF90AF909F908F900895F7
:101330006F927F928F929F92AF92BF92CF92DF92E5
:10134000EF92FF920F931F93CF93DF935C016B019A
:10135000EA01490184E1F801982F11929A95E9F781
:101360007801E4E1EE0EF11CF70111928A95E9F79C
:10137000612C712C68147904F1F0F301B3E0F69557
:10138000E795BA95E1F7EC0FFD1F208130E0C3012E
:10139000809590958770992702C0359527958A95F5
:1013A000E2F7217041E0B701C8010E94A008FFEFF9
:1013B0006F1A7F0ADFCFC0E0D0E0CC15DD05E1F089
:1013C000FE01A3E0F695E795AA95E1F7EA0DFB1D6E
:1013D000208130E0CE01809590958770992702C0DA
:1013E000359527958A95E2F7217041E0B701C8014C
:1013F0000E94A0082196E1CFC0EAD0E020E041E0C1
:10140000B701C8010E94A00821972097B9F7DF9182
:10141000CF911F910F91FF90EF90DF90CF90BF90F1
:10142000AF909F908F907F906F900895EF92FF9272
:101430000F931F93CF93DF93EC0118E0E12EF12C73
:101440008C010C5E1F4F8C89988189278170FF0C5D
:10145000F82A20E040E0B801CE010E94A008EA94FA
:1014600091F78F2DDF91CF911F910F91FF90EF900A
:101470000895FC0124853585F901E05CFF4F8081EA
:101480009181F901EE5BFF4F20813181821B930B2B
:101490008F7399270895FC0184859585FC01E05C94
:1014A000FF4F40815181FC01EE5BFF4F2081318174
:1014B0004217530741F00190F081E02DE80FF91F2A
:1014C000808190E008958FEF9FEF0895FC0184855F
:1014D0009585FC01E05CFF4F40815181FC01EE5B92
:1014E000FF4F208131814217530779F0A081B181EC
:1014F000A80FB91F8C91208131812F5F3F4F2F732F
:1015000033273183208390E008958FEF9FEF089574
:10151000FC0181A1882329F0A489B5898C9186FFDB
:10152000FBCF11A20895CF93DF93FC012685378569
:10153000D901A05CBF4F8D919C91119701968F733B
:101540009927E901CE5BDF4F4881598184179507C0
:10155000D9F30D90BC91A02DA20FB31F6C93A6855B
:10156000B785A05CBF4F11969C938E93A689B789CF
:101570002C9181E090E0078C02C0880F991F0A949B
:10158000E2F7282B2C9381E081A30488F589E02DD4
:1015900080818064808381E090E0DF91CF91089525
:1015A0001F920F920FB60F9211242F933F934F93D8
:1015B0008F939F93EF93FF938091C00082FD1CC097
:1015C0004091C6008091290390912A0301968F7360
:1015D000992720912B0330912C038217930771F0E8
:1015E000E0912903F0912A03E751FD4F4083909346
:1015F0002A038093290302C08091C600FF91EF91D6
:101600009F918F914F913F912F910F900FBE0F900F
:101610001F9018951F920F920FB60F9211242F93BF
:101620003F938F939F93EF93FF932091E502309127
:10163000E6028091E7029091E8022817390731F419
:101640008091C1008F7D8093C10014C0E091E702BA
:10165000F091E802EB55FD4F20818091E7029091D7
:10166000E80201968F7399279093E8028093E7022E
:101670002093C600FF91EF919F918F913F912F9101
:101680000F900FBE0F901F901895CF92DF92EF92A0
:10169000FF92CF93DF93EC016A017B01411581EE4C
:1016A000580761057105F9F0EC89FD8981E090E04A
:1016B00008A002C0880F991F0A94E2F7808360E0B7
:1016C00079E08DE390E0A70196010E94F50F21508B
:1016D00031094109510956954795379527952115A7
:1016E00080E1380798F0EC89FD89108260E874E8A1
:1016F0008EE190E0A70196010E94F50F215031097B
:10170000410951095695479537952795E889F989F3
:101710003083EA89FB89208319A2EE89FF89408101
:1017200081E090E09C010C8C02C0220F331F0A94D0
:10173000E2F7422B4083EE89FF8940819C010D8CAA
:1017400002C0220F331F0A94E2F7422B4083EE8936
:10175000FF8940819C010E8C02C0220F331F0A9426
:10176000E2F7422B4083EE89FF8920810F8C02C073
:10177000880F991F0A94E2F7809582238083DF9176
:10178000CF91FF90EF90DF90CF90089581E0089582
:10179000109286021092850288EE93E0A0E0B0E0FD
:1017A0008093870290938802A0938902B0938A0263
:1017B00080E392E0909384028093830289EE92E02A
:1017C0009093900280938F0285EA92E09093920228
:1017D0008093910285EC90E0909394028093930221
:1017E00084EC90E0909396028093950280EC90E0D8
:1017F000909398028093970281EC90E090939A02E4
:101800008093990282EC90E090939C0280939B02DB
:1018100086EC90E090939E0280939D0284E08093FA
:101820009F0283E08093A00287E08093A10285E07D
:101830008093A20281E08093A3020895CF92DF9269
:10184000EF92FF920F931F93CF93DF936C017A0176
:10185000EB01E60EF71E00E010E0CE15DF0561F0AB
:101860006991D601ED91FC910190F081E02DC601C6
:101870000995080F191FF1CFC801DF91CF911F9172
:101880000F91FF90EF90DF90CF9008956115710553
:1018900081F0DB010D900020E9F7AD0141505109C5
:1018A000461B570BDC01ED91FC910280F381E02D8A
:1018B000099480E090E00895EF92FF920F931F93B8
:1018C000CF93DF938C01FB01C0E0D0E064917F01F6
:1018D0008FEFE81AF80A662361F0D801ED91FC91C8
:1018E0000190F081E02DC8010995C80FD91FF701BB
:1018F000EDCFCE01DF91CF911F910F91FF90EF902F
:101900000895DC01ED91FC910190F081E02D0994A6
:101910000F931F93CF93DF93EC016DE00E94810C36
:101920008C016AE0CE010E94810C800F911FDF9133
:10193000CF911F910F9108950F931F93CF93DF9332
:10194000EC010E945C0C8C01CE010E94880C800F7F
:10195000911FDF91CF911F910F9108958F929F92C8
:10196000AF92BF92CF92DF92EF92FF920F931F93AD
:10197000CF93DF93CDB7DEB7A1970FB6F894DEBF54
:101980000FBECDBF7C01C42EE52FCB01D22E19A2F4
:1019900021E02D1510F02AE0D22E8E010F5D1F4F91
:1019A0008D2C912CA12CB12C6C2D7E2FA501940196
:1019B0000E94F50F8C2DD29E80191124015011091F
:1019C0008A3014F4805D01C0895CF80180832115A0
:1019D00031054105510521F0C22EE32FCA01E4CFA4
:1019E000B801C7010E94460CA1960FB6F894DEBF5D
:1019F0000FBECDBFDF91CF911F910F91FF90EF9060
:101A0000DF90CF90BF90AF909F908F900895CF922E
:101A1000DF92EF92FF920F931F93CF93DF93EC012E
:101A20006A017B012115310579F4E881F981019082
:101A3000F081E02D642FDF91CF911F910F91FF90E6
:101A4000EF90DF90CF9009942A303105E9F477FFC9
:101A50001AC06DE20E94810C8C0144275527BA01FF
:101A60004C195D096E097F092AE0CE010E94AE0C77
:101A7000800F911FDF91CF911F910F91FF90EF90F9
:101A8000DF90CF9008952AE0B701A601CE01DF9143
:101A9000CF911F910F91FF90EF90DF90CF900C941A
:101AA000AE0C9A01AB01662757FD6095762F0C941A
:101AB000070D2115310541F4DC01ED91FC910190F8
:101AC000F081E02D642F09940C94AE0CCF93DF933A
:101AD0008230910510F482E090E0E0913803F091BB
:101AE000390320E030E0A0E0B0E0309739F14081E8
:101AF000518148175907B8F04817590771F4828186
:101B00009381109729F013969C938E9312972CC073
:101B1000909339038093380327C02115310531F0A4
:101B20004217530718F0A901DB0101C0EF019A0128
:101B3000BD01DF010280F381E02DD7CF21153105F2
:101B4000F9F0281B390B2430310580F48A819B8100
:101B50006115710521F0FB019383828304C090938A
:101B6000390380933803FE01329644C0FE01E20F30
:101B7000F31F8193919322503109398328833AC00E
:101B80002091360330913703232B41F42091280212
:101B90003091290230933703209336032091260297
:101BA000309127022115310541F42DB73EB7409100
:101BB0002A0250912B02241B350BE0913603F09141
:101BC0003703E217F307A0F42E1B3F0B2817390742
:101BD00078F0AC014E5F5F4F2417350748F04E0F89
:101BE0005F1F50933703409336038193919302C054
:101BF000E0E0F0E0CF01DF91CF910895CF93DF9344
:101C0000009709F487C0FC01329713821282C091B9
:101C10003803D0913903209781F420813181280F36
:101C2000391F80913603909137038217930779F516
:101C3000F0933703E09336036DC0DE0120E030E01F
:101C4000AE17BF0750F412964D915C9113979D010A
:101C50004115510509F1DA01F3CFB383A283408125
:101C60005181840F951F8A179B0771F48D919C9168
:101C70001197840F951F02969183808312968D9100
:101C80009C911397938382832115310529F4F09356
:101C90003903E09338033EC0D9011396FC93EE93C9
:101CA00012974D915D91A40FB51FEA17FB0779F4C8
:101CB00080819181840F951F0296D90111969C9382
:101CC0008E938281938113969C938E931297E0E07A
:101CD000F0E08A819B81009719F0FE01EC01F9CFB9
:101CE000CE01029628813981820F931F20913603FD
:101CF000309137032817390769F4309729F4109287
:101D000039031092380302C013821282D093370332
:101D1000C0933603DF91CF9108950C94660D1F9206
:101D20000F920FB60F9211242F933F938F939F938F
:101D3000AF93BF9380912E0390912F03A091300316
:101D4000B091310330912D0323E0230F2D3720F480
:101D50000196A11DB11D05C026E8230F0296A11D05
:101D6000B11D20932D0380932E0390932F03A093F6
:101D70003003B09331038091320390913303A091EB
:101D80003403B09135030196A11DB11D8093320338
:101D900090933303A0933403B0933503BF91AF9175
:101DA0009F918F913F912F910F900FBE0F901F9099
:101DB00018953FB7F8948091320390913303A09126
:101DC0003403B091350326B5A89B05C02F3F19F009
:101DD0000196A11DB11D3FBF6627782F892F9A2F2D
:101DE000620F711D811D911D42E0660F771F881FD4
:101DF000991F4A95D1F70895CF92DF92EF92FF9203
:101E0000CF93DF936B017C010E94D90EEB01C114CB
:101E1000D104E104F10479F00E94D90E6C1B7D0B12
:101E2000683E7340A0F381E0C81AD108E108F108C8
:101E3000C851DC4FECCFDF91CF91FF90EF90DF9056
:101E4000CF900895789484B5826084BD84B5816014
:101E500084BD85B5826085BD85B5816085BDEEE6B2
:101E6000F0E0808181608083E1E8F0E01082808191
:101E700082608083808181608083E0E8F0E08081FF
:101E800081608083E1EBF0E0808184608083E0EB1F
:101E9000F0E0808181608083EAE7F0E08081846007
:101EA0008083808182608083808181608083808163
:101EB000806880831092C1000895833081F028F4F7
:101EC000813099F08230A1F008958630A9F08730F2
:101ED000B9F08430D1F4809180008F7D03C080916F
:101EE00080008F7780938000089584B58F7702C03B
:101EF00084B58F7D84BD08958091B0008F7703C035
:101F00008091B0008F7D8093B0000895CF93DF93D0
:101F100090E0FC01E555FE4F2491FC01E154FE4F99
:101F20008491882349F190E0880F991FFC01E352C6
:101F3000FE4FA591B4918D529E4FFC01C591D49155
:101F40009FB7611108C0F8948C91209582238C93DF
:101F5000888182230AC0623051F4F8948C91322F28
:101F6000309583238C938881822B888304C0F894D6
:101F70008C91822B8C939FBFDF91CF9108950F930B
:101F80001F93CF93DF931F92CDB7DEB7282F30E09A
:101F9000F901E956FE4F8491F901E555FE4F149180
:101FA000F901E154FE4F04910023C9F0882321F088
:101FB00069830E945D0F6981E02FF0E0EE0FFF1F43
:101FC000ED52FE4FA591B4919FB7F8948C91611199
:101FD00003C01095812301C0812B8C939FBF0F906C
:101FE000DF91CF911F910F910895A1E21A2EAA1BA4
:101FF000BB1BFD010DC0AA1FBB1FEE1FFF1FA217B9
:10200000B307E407F50720F0A21BB30BE40BF50BB5
:10201000661F771F881F991F1A9469F7609570953E
:10202000809590959B01AC01BD01CF010895692772
:1020300096276927782787277827089597FB10F830
:10204000169400080F93083098F00850232F342F6F
:10205000452F562F672F782F892F902DF4CF059479
:1020600097958795779567955795479537952795D0
:102070000A95AAF70F9108952A0D3B1D4C1D5D1D71
:102080006E1D7F1D801F911F0895EE0FFF1F05908D
:10209000F491E02D09948F929F92AF92BF92CF92CC
:1020A000DF92EF92FF92CF93DF93EC016881798109
:1020B0008A819B81611571058105910521F464E296
:1020C00079ED8BE597E02DE133EF41E050E00E94A0
:1020D000E61049015A019B01AC01A7EAB1E40E9454
:1020E000D3106B017C01ACEEB4EFA50194010E940A
:1020F000E110C60ED71EE81EF91EF7FE06C081E0ED
:10210000C81AD108E10880E8F80AC882D982EA82B0
:10211000FB82C6019F77DF91CF91FF90EF90DF9018
:10212000CF90BF90AF909F908F9008950E944B10DA
:10213000089580E091E00E944B100895A0E0B0E087
:102140008093000190930101A0930201B0930301D9
:102150000895FB01DC0102C001900D9241505040F6
:10216000D8F708956817790768F4FB01DC01E40FDC
:10217000F51FA40FB51F02C002900E9241505040AF
:10218000D8F708950C94A910DC0101C06D9341505B
:102190005040E0F70895F999FECF92BD81BDF89ABD
:1021A000992780B508950E940511A59F900DB49FB1
:1021B000900DA49F800D911D11240895B7FF0C94DC
:1021C000D3100E94D310821B930B0895052E97FB0A
:1021D0001EF400940E94FD1057FD07D00E94F50FD9
:1021E00007FC03D04EF40C94FD10509540953095AB
:1021F00021953F4F4F4F5F4F089590958095709573
:1022000061957F4F8F4F9F4F0895A29FB001B39F5D
:10221000C001A39F700D811D1124911DB29F700DEF
:0C222000811D1124911D0895F894FFCF3A
:10222C00010000000D00982F8A4291443771CFFBBA
:10223C00C0B5A5DBB5E95BC25639F111F159A482E1
:10224C003F92D55E1CAB98AA07D8015B8312BE8562
:10225C003124C37D0C55745DBE72FEB1DE80A706C1
:10226C00DC9B74F19BC1C1699BE48647BEEFC69DA4
:10227C00C10FCCA10C246F2CE92DAA84744ADCA9C3
:10228C00B05CDA88F97652513E986DC631A8C827F1
:10229C0003B0C77F59BFF30BE0C64791A7D5516375
:1022AC00CA0667292914850AB72738211B2EFC6D0D
:1022BC002C4D130D385354730A65BB0A6A762EC91C
:1022CC00C281852C7292A1E8BFA24B661AA8708BB2
:1022DC004BC2A3516CC719E892D1240699D6853507
:1022EC000EF470A06A1016C1A419086C371E4C7736
:1022FC004827B5BCB034B30C1C394AAAD84E4FCAC7
:10230C009C5BF36F2E68EE828F746F63A5781478E4
:10231C00C8840802C78CFAFFBE90EB6C50A4F7A3DC
:10232C00F9BEF27871C667E6096A85AE67BB72F3CF
:10233C006E3C3AF54FA57F520E518C68059BABD97C
:10234C00831F19CDE05B00003A0380000000000001
:0C235C00930A1E0C390A660A4B0A880A14
:00000001FF
