:100000000C9492020C94BA020C94BA020C94BA02A8
:100010000C94BA020C94BA020C94BA020C94BA0270
:100020000C94BA020C94BA020C94BA020C94BA0260
:100030000C94BA020C94BA020C94BA020C94BA0250
:100040000C94540F0C94BA020C94950B0C94CF0B97
:100050000C94BA020C94BA020C94BA020C94BA0230
:100060000C94BA020C94BA024461726B004C69673A
:10007000687400205B75735D00456E6372797074FF
:10008000696F6E20746F74616C2074616B65733A74
:100090002000205B627974655D00416674657220A2
:1000A000656E6372797074696F6E206F66206D651E
:1000B000737361676520667265654D656D6F7279F2
:1000C00028293D2000205B627974655D00426566E9
:1000D0006F726520656E6372797074696F6E206FE0
:1000E00066206D65737361676520667265654D6531
:1000F0006D6F727928293D20004372656174696EC5
:1001000067206172726179206F662064617461009A
:10011000070702030405060708090A0B0C0D0E0F5A
:10012000101112131415161718191A1B1C011E1F73
:10013000202122232425262728292A2B2C2D2E2F47
:100140003031323334353637381D08084040010627
:10015000020304054040070C08090A0B40400D1239
:100160000E0F101140401318141516174040191E99
:100170001A1B1C1D40401F24202122234040252AF9
:100180002627282940402B302C2D2E2F07060E1114
:100190000B180105031C0F06150A17130C041A0887
:1001A00010071B140D0229341F252F371E28332D4D
:1001B00021302C31273822352E2A32241D200807E1
:1001C00039312921191109013A322A221A120A0257
:1001D0003B332B231B130B033C342C243F372F279B
:1001E0001F170F073E362E261E160E063D352D25EF
:1001F0001D150D051C140C040808280830103818AB
:10020000402027072F0F37173F1F26062E0E3616C2
:100210003E1E25052D0D35153D1D24042C0C3414D2
:100220003C1C23032B0B33133B1B22022A0A3212E2
:100230003A1A210129093111391908083A322A22BA
:100240001A120A023C342C241C140C043E362E26AE
:100250001E160E0640383028201810083931292182
:10026000191109013B332B231B130B033D352D259E
:100270001D150D053F372F271F170F070404100703
:1002800014151D0C1C11010F171A05121F0A020864
:10029000180E201B0309130D1E06160B0419040665
:1002A00020010203040504050607080908090A0BD2
:1002B0000C0D0C0D0E0F1011101112131415141536
:1002C0001617181918191A1B1C1D1C1D1E1F20019A
:1002D000E4D12FB83A6C59070F74E2D1A6CB953808
:1002E00041E8D62BFC973A50FC8249175B3EA06D43
:1002F000F18E6B34972DC05A3D47F28EC01A69B506
:100300000E7BA4D158C6932FD8A13F42B67C05E9F5
:10031000A09E63F51DC7B428D709346A285ECBF1C7
:10032000D6498F30B12C5AE71AD069874FE3B52CE4
:100330007DE3069A1285BC4FD8B56F03472C1AE9A6
:10034000A690CB7DF13E52843F06A1D8945BC72E88
:100350002C417AB6853FD0E9EB2C47D150FA39864B
:10036000421BAD78F9C5630EB8C71E2D6F09A453A3
:10037000C1AF92680D34E75BAF427C9561DE0B380C
:100380009EF528C3704A1DB6432C95FABE17608DA2
:100390004B2EF08D3C975A61D0B7491AE35C2F86FB
:1003A00014BDC37EAF6805926BD814A7950FE23CCD
:1003B000D2846FB1A93E50C71FD8A374C56B0E92EB
:1003C0007B419CE206ADF35821E74A8DFC90356BEA
:1003D00078A46AD756B7C7E8DB702024EECEBDC13B
:1003E000AF0F7CF52AC68747134630A8019546FD16
:1003F000D8988069AFF7448BB15BFFFFBED75C89AB
:100400002211906B937198FD8E4379A62108B4490F
:1004100062251EF640B340C0515A5E26AAC7B6E90F
:100420005D102FD65314440281E6A1D8C8FBD3E750
:10043000E6CDE121D60737C3870DD5F4ED145A4533
:1004400005E9E3A9F8A3EFFCD9026F678A4C2A8D6E
:100450004239FAFF81F6718722619D6D0C38E5FD06
:1004600044EABEA4A9CFDE4B604BBBF670BCBFBE56
:10047000C67E9B28FA27A1EA8530EFD4051D8804A3
:1004800039D0D4D9E599DBE6F87CA21F6556ACC417
:10049000442229F497FF2A43A72394AB39A093FC65
:1004A000C3595B6592CC0C8F7DF4EFFFD15D8485E1
:1004B0004F7EA86FE0E62CFE144301A3A111084E65
:1004C000827E53F735F23ABDBBD2D72A91D386EB61
:1004D0000000000700020100000304060000000005
:1004E00000000000010204081020408001020408FE
:1004F000102001020408102004040404040404046D
:1005000002020202020203030303030300000000CD
:10051000250028002B0000000000240027002A00EE
:1005200023048D0C11241FBECFEFD8E0DEBFCDBF5A
:1005300011E0A0E0B1E0E8EFF1E202C005900D9219
:10054000A032B107D9F711E0A0E2B1E001C01D92DD
:10055000AC3EB107E1F715E0C4E2D5E004C0229754
:10056000FE010E94E510C032D107C9F70E941A04AB
:100570000C94FA100C940000CB010C94F210CF9361
:10058000DF9300D0CDB7DEB72091E8013091E901CB
:100590002115310511F42CEE31E0CE010196821BBC
:1005A000930B0F900F90DF91CF91089569EF70E05A
:1005B00085E391E00E94610D0E949E0F60932501EA
:1005C00070932601809327019093280120E030E06A
:1005D00080E090E06DE271E440912B0150912C019C
:1005E0002A3131053CF4DA01A80FB91FE1E4E20F2A
:1005F000EC930EC0FA01E80FF91F6083E0912B0124
:10060000F0912C01E80FF91F7183019620E030E092
:1006100001962F5F3F4F811544E09407ECF2089557
:10062000EF92FF920F931F93CF93DF937C010DE224
:1006300011E0C0E0D0E0CE15DF0554F4BE0180E249
:1006400091E00E94BC02F80181938F012196F3CFC3
:10065000DF91CF911F910F91FF90EF90089540E8A7
:1006600055E260E070E085E391E00E940A0C85E3CA
:1006700091E00E948B0C8823D1F30E94D60288E07F
:1006800090E00E94100361E0809100010C944B10F7
:10069000EF92FF920F931F93CF93DF93CDB7DEB707
:1006A00060970FB6F894DEBF0FBECDBF6DEC70E063
:1006B00085E391E00E94210D0E94BF024AE050E0D4
:1006C000BC0185E391E00E94160E65EC70E085E3C5
:1006D00091E00E94610D0E949E0F6093250170932E
:1006E0002601809327019093280100E810E0609193
:1006F0002B0170912C014DE251E0809129019091E4
:100700002A010E943C058091290190912A010896B6
:1007100090932A01809329010150110901151105B7
:1007200031F720912B0130912C01E12C10E2F12EB8
:1007300000E010E040E450E06DE271E0CE0101968F
:100740000E94300A0E949E0F609321017093220143
:1007500080932301909324016AE970E085E391E09E
:100760000E94210D0E94BF024AE050E0BC0185E3D7
:1007700091E00E94160E62E970E085E391E00E942C
:10078000610D69E770E085E391E00E94210D4091E1
:1007900021015091220160912301709124018091E7
:1007A000250190912601A0912701B0912801481BB5
:1007B000590B6A0B7B0B2AE030E085E391E00E9445
:1007C0001E0E63E770E085E391E00E94610D85E312
:1007D00091E00E944D0D6DE670E085E391E00E948E
:1007E000610D61E0809100010E94841068EE73E069
:1007F00080E090E00E94C10F68E670E085E391E040
:100800000E94610D60E0809100010E94841068EEFA
:1008100073E080E090E00E94C10F60960FB6F894FC
:10082000DEBF0FBECDBFDF91CF911F910F91FF9023
:10083000EF9008950E94E70F0E942F030E94480343
:1008400080E090E0089580E094E00E94520F909341
:100850002C0180932B0190932A0180932901089504
:10086000EF92FF920F931F93CF93DF93FC0131968A
:10087000F490FC013296E42EDA0140E850E08A2F31
:100880008E198F1518F59F01285F3F4F10E00491D6
:100890000150110F802F869586958695EB01C80F24
:1008A000D11D888190E00770EA0102C0D595C795F7
:1008B0000A95E2F78C239D23892B09F0116031966C
:1008C000E217F30721F7F9011D93D9CFDF91CF91FB
:1008D0001F910F91FF90EF900895CF93DF93CDB7C5
:1008E000DEB727970FB6F894DEBF0FBECDBF27E067
:1008F000FC01DE01119601900D922A95E1F7AC0101
:10090000BE016F5F7F4F80E191E00E943004279627
:100910000FB6F894DEBF0FBECDBFDF91CF91089523
:10092000FC0160817181828193810E94DC1060836F
:1009300071838283938308950F931F93CF93DF93E3
:10094000CDB7DEB7A0970FB6F894DEBF0FBECDBF10
:100950006D8F7E8F8F8F98A38A01198E1A8E1B8EB2
:100960001C8EAE014F5E5F4FBE01635E7F4F8EE90E
:1009700092E00E943004D801CE014896FE017196A3
:100980003D91208123272193E817F907C9F7598959
:100990004A893B892C899D898E8919821A821B82FA
:1009A0001C821D821E821F82188659874A873B87B8
:1009B0002C879D878E871F86188AAE014F5F5F4FF9
:1009C000BE01675F7F4F8AE491E00E943004798125
:1009D0006A815B814C813D812E819F818885798BE5
:1009E0006A8B5B8B4C8B3D8B2E8B9F8B888F898D7D
:1009F0009A8DAB8DBC8DAE014F5E5F4F20ED32E026
:100A0000FA016191AF01E62FF0E0F595E795E20F6D
:100A1000F31FE49160FFE295EF7064E0880F991F87
:100A2000AA1FBB1F6A95D1F78E2B205E3F4FF3E0C4
:100A3000203D3F0729F7898F9A8FAB8FBC8FCE015E
:100A400049960E949004AE014F5F5F4FBE01675E02
:100A50007F4F8CE792E00E94300469817A818B811C
:100A60009C81A0960FB6F894DEBF0FBECDBFDF917C
:100A7000CF911F910F9108954F925F926F927F9245
:100A80008F929F92AF92BF92CF92DF92EF92FF929E
:100A90000F931F93CF93DF93CDB7DEB765970FB654
:100AA000F894DEBF0FBECDBF6C018A01AE014F5F6F
:100AB0005F4F8AE392E00E943004AE01475F5F4FD0
:100AC000B8018EEB91E00E94300400E010E0FCEFF2
:100AD000EF2EFEE7FF2ECE0109960E946D0458010D
:100AE000AA0CBB1CC7010A2C02C0959587950A94D5
:100AF000E2F780FF04C0CE0109960E946D04AE01AA
:100B0000405F5F4FBE01675F7F4F8CE891E00E94BE
:100B100030046D817E818F819885AE01405F5F4F8B
:100B20000E949C0449805A806B807C804626572610
:100B30006826792649825A826B827C82CE01099688
:100B40000E946D048FEFA81AB80AC70102C09595DC
:100B50008795AA94E2F780FF04C0CE0109960E940F
:100B60006D04AE01405F5F4FBE01675F7F4F8CE851
:100B700091E00E94300469817A818B819C81AE0171
:100B8000405F5F4F0E949C048D809E80AF80B88440
:100B9000682579258A259B256D837E838F83988799
:100BA0000F5F1F4F0830110509F095CF09811A8199
:100BB0002B813C81DC01CB0180279127A227B32721
:100BC000082719272A273B2709831A832B833C836D
:100BD00080279127A227B3278D839E83AF83B88771
:100BE000A601BE016F5F7F4F88EF91E00E94300445
:100BF00065960FB6F894DEBF0FBECDBFDF91CF91E3
:100C00001F910F91FF90EF90DF90CF90BF90AF902A
:100C10009F908F907F906F905F904F9008958F92EC
:100C20009F92AF92BF92EF92FF920F931F934B014F
:100C30005C0160957095809590956E217F21802351
:100C40009123282139214A215B21622B732B842B8C
:100C5000952B1F910F91FF90EF90BF90AF909F90B9
:100C60008F9008958F929F92AF92BF92EF92FF92D2
:100C70000F931F934B015C01C801B70160957095FC
:100C80008095909562237323842395238E209F2043
:100C9000A022B122682979298A299B291F910F91C5
:100CA000FF90EF90BF90AF909F908F900895EF923C
:100CB000FF920F931F932E253F254027512726276C
:100CC000372748275927CA01B9011F910F91FF9073
:100CD000EF900895EF92FF920F931F93E094F0949A
:100CE00000951095E62AF72A082B192BE226F32601
:100CF00004271527C801B7011F910F91FF90EF90AE
:100D000008952F923F924F925F926F927F928F92AF
:100D10009F92AF92BF92CF92DF92EF92FF920F938A
:100D20001F93CF93DF93CDB7DEB760970FB6F894DC
:100D3000DEBF0FBECDBF4B01322E202E28E0E8E0F3
:100D4000F1E0DE01119601900D922A95E1F74370D2
:100D5000642F70E05C0124E0429FA00CB11C1124C0
:100D6000D5014D905D906D907C906B01BFEFCB1ADB
:100D7000DB0AE3E0CE22DD24CC0CDD1CCC0CDD1C38
:100D8000C80ED91EFE013196EE0DF11DEE0DF11DBE
:100D90009B012D5F3F4F23703327220F331F220FFC
:100DA000331F280F391FD901ED90FD900D911C9133
:100DB000DB011296A370BB27AA0FBB1FAA0FBB1F94
:100DC000A80FB91F2D913D914D915C91D6016D9168
:100DD0007D918D919C910190F081E02D0995B4E079
:100DE0002B9EF0011124E053FC4F25913591459144
:100DF0005491D401ED90FD900D911C91E40CF51CE3
:100E0000061D171DE60EF71E081F191FE20EF31E22
:100E1000041F151FB801A701032C04C0440F551F60
:100E2000661F771F0A94D2F720E22319D801C70161
:100E300004C0B695A795979587952A95D2F7482B24
:100E4000592B6A2B7B2BF60180819181A281B38182
:100E5000480F591F6A1F7B1FD5014D935D936D93FA
:100E60007C93139760960FB6F894DEBF0FBECDBF8C
:100E7000DF91CF911F910F91FF90EF90DF90CF9076
:100E8000BF90AF909F908F907F906F905F904F90AA
:100E90003F902F900895FC01108A118A128A138ABC
:100EA00041E053E265E477E64083518362837383D4
:100EB00049E85BEA6DEC7FEE448355836683778374
:100EC0004EEF5CED6AEB78E9408751876287738764
:100ED00046E754E562E370E1448755876687778784
:100EE00008952F923F924F925F926F927F928F92CE
:100EF0009F92AF92BF92CF92DF92EF92FF920F93A9
:100F00001F93CF93DF93CDB7DEB7A2970FB6F894B8
:100F1000DEBF0FBECDBF1C017AA369A3FC01808197
:100F20009181A281B38189839A83AB83BC838481BD
:100F30009581A681B7818D839E83AF83B887808595
:100F40009185A285B38589879A87AB87BC8784857D
:100F50009585A685B7858D879E87AF87B88B87E0F7
:100F60008D8F8CE08E8F81E18F8F86E188A32B019E
:100F7000A12CB12C3E01FDE16F0E711C65E0F62E37
:100F8000F60C43011A2D110F110F1619C12CD12C7B
:100F9000012F080DF40121914F014F2D4E1BB60179
:100FA000640D751DE12CCE0101960E948106F4E0CE
:100FB000CF0ED11C80E1C816D10451F79FEFA91ABA
:100FC000B90AE0E14E0E511CF4E0AF16B104C9F6C7
:100FD00085E0898F89E08A8F8EE08B8F84E18C8F0A
:100FE000CC24C394D12C3E0189E1680E711C5FE0D2
:100FF000552E56184601530114E0452C4C0C042D77
:101000000A0DF50121915F01B4016F707727660F1A
:10101000771F660F771F89A19AA1680F791FEE24A9
:10102000E394412FCE0101960E948106115095E074
:10103000890E911C1111E3CFE4E0CE0ED11CF1E139
:10104000CF16D104B9F684E08D8B8BE08E8B80E1D6
:101050008F8B87E1888F95E0C92ED12C3E0185E1E9
:10106000680E711C25E2522E56184601530114E0F9
:10107000452C4C18042D0A0DF50121915F01B40196
:101080006F707727660F771F660F771F89A19AA168
:10109000680F791F82E0E82E412FCE0101960E9451
:1010A0008106115093E0890E911C1111E3CFE4E009
:1010B000CE1AD108F5EFCF16FFEFDF06B1F686E0C6
:1010C000898B8AE08A8B8FE08B8B85E18C8BC12C9E
:1010D000D12C3E0181E1680E711CA0E35A2E5618F6
:1010E0004601530114E0452C4C18042D0A0DF5015E
:1010F00021915F01B4016F707727660F771F660F2C
:10110000771F89A19AA1680F791FF3E0EF2E412F75
:10111000CE0101960E948106115097E0890E911C24
:101120001111E3CFE4E0CE1AD108F0EFCF16FFEFB4
:10113000DF06B1F6F10180819181A281B3814981FD
:101140005A816B817C81840F951FA61FB71F8083F6
:101150009183A283B38384819581A681B7814D81D8
:101160005E816F817885840F951FA61FB71F8483CA
:101170009583A683B78380859185A285B3854985AC
:101180005A856B857C85840F951FA61FB71F8087A6
:101190009187A287B38784859585A685B7854D8578
:1011A0005E856F857889840F951FA61FB71F84877A
:1011B0009587A687B78780899189A289B389019687
:1011C000A11DB11D808B918BA28BB38BA2960FB604
:1011D000F894DEBF0FBECDBFDF91CF911F910F916D
:1011E000FF90EF90DF90CF90BF90AF909F908F9047
:1011F0007F906F905F904F903F902F9008956F92E7
:101200007F928F929F92AF92BF92CF92DF92EF9296
:10121000FF920F931F93CF93DF93CDB7DEB7C054E8
:10122000D1090FB6F894DEBF0FBECDBF8C013B01D4
:101230004A017A016B01E114E2E0FE0650F0B601CA
:10124000C8010E94710782E0F81A90E4C90ED11C0F
:10125000F2CF5401AB2CBB24A694F6E0AA0CBB1C25
:10126000FA95E1F7A60CB71C6401F1E0DF22CE018C
:1012700001967C0180E4F70111928A95E9F7360125
:10128000A3E076946794AA95E1F7A301B501C7019D
:101290000E94E910F7E08F229924F701E60DF71D6F
:1012A0008114910471F0D501A60DB71D80E890E07E
:1012B00002C0959587958A94E2F79C91982B90832C
:1012C00002C080E8808388E0680E711C90E4691693
:1012D0007104A8F0B701C8010E947107F801808964
:1012E0009189A289B3890197A109B109808B918B5A
:1012F000A28BB38B88E3F70111928A95E9F7F80185
:1013000080899189A289B38979E0880F991FAA1FE2
:10131000BB1F7A95D1F78C0D9D1DA11DB11D9C01A0
:10132000AD0189AF3AAF4BAF5CAF1DAE1EAE1FAE85
:1013300021961FAE2197B701C8010E947107C05CBA
:10134000DF4F0FB6F894DEBF0FBECDBFDF91CF9158
:101350001F910F91FF90EF90DF90CF90BF90AF90D3
:101360009F908F907F906F90089520E1FB01DC01AA
:1013700001900D922A95E1F708958F929F92AF9276
:10138000BF92CF92DF92EF92FF920F931F93CF9372
:10139000DF93CDB7DEB768970FB6F894DEBF0FBE08
:1013A000CDBF6C017B01CE0101962D8B3E8B4F8B07
:1013B000588F0E944B072D893E894F89588D4901CE
:1013C0005A018701811482E09806A104B104A0F0BB
:1013D000B801CE0101962D8B3E8B4F8B588F0E940A
:1013E0007107005C1F4F82E0981AA108B108588D60
:1013F0004F893E892D89E6CFDA01C9019170AA276C
:10140000BB27BA01A901B9E076956795579547952D
:10141000BA95D1F7BA0116E0660F771F1A95E1F772
:101420006E0D7F1DAC01CE0101960E94FF08BE012A
:101430006F5F7F4FC6010E94B50968960FB6F8949A
:10144000DEBF0FBECDBFDF91CF911F910F91FF90F7
:10145000EF90DF90CF90BF90AF909F908F900895C6
:101460002F923F924F925F926F927F928F929F92B4
:10147000AF92BF92CF92DF92EF92FF920F931F93A2
:10148000CF93DF93CDB7DEB7C855D1090FB6F89427
:10149000DEBF0FBECDBF5C014901170128018E01DF
:1014A0000F5F1F4F80E4F80111928A95E9F74130F0
:1014B000F2E05F0738F09A0140E050E0C8010E9476
:1014C000BD090AC0495F5F4FE3E056954795EA952D
:1014D000E1F7C8010E94E9106E0181E4C80ED11C39
:1014E000F80196E3808189278193EC15FD05D1F7FA
:1014F000C6010E944B07B801C6010E947107A201F4
:10150000910134012115F2E03F074105510518F121
:10151000B301C60166962FAF669767963FAF679790
:1015200068964FAF689769965FAF69970E94710799
:10153000E0E46E0E711C66962FAD669767963FAD20
:10154000679768964FAD689769965FAD6997325017
:1015500041095109D7CFB201A10151706627772700
:10156000D201C10129E0B695A795979587952A954F
:10157000D1F71C0136E0220C331C3A95E1F7280C18
:10158000391CB101C6010E94FF0848019AE6F40126
:101590008081892781934F01EC15FD05C1F7BF01BB
:1015A000C5010E94B509C4010E944B07B801C401DE
:1015B0000E94710740E850E0B501C4010E94FF0895
:1015C000B401C5010E94B509C85ADF4F0FB6F8949F
:1015D000DEBF0FBECDBFDF91CF911F910F91FF9066
:1015E000EF90DF90CF90BF90AF909F908F907F90C3
:1015F0006F905F904F903F902F900895FC0124854D
:101600003585F901E05CFF4F80819181F901EE5B46
:10161000FF4F20813181821B930B8F73992708958F
:10162000FC0184859585FC01E05CFF4F4081518180
:10163000FC01EE5BFF4F208131814217530741F0DF
:101640000190F081E02DE80FF91F808190E008956E
:101650008FEF9FEF0895FC0184859585FC01E05C88
:10166000FF4F40815181FC01EE5BFF4F20813181B2
:101670004217530779F0A081B181A80FB91F8C914F
:10168000208131812F5F3F4F2F7333273183208398
:1016900090E008958FEF9FEF0895FC0181A18823CA
:1016A00029F0A489B5898C9186FFFBCF11A20895FA
:1016B000CF93DF93FC0126853785D901A05CBF4F0E
:1016C0008D919C91119701968F739927E901CE5BBB
:1016D000DF4F4881598184179507D9F30D90BC914C
:1016E000A02DA20FB31F6C93A685B785A05CBF4F3A
:1016F00011969C938E93A689B7892C9181E090E0F6
:10170000078C02C0880F991F0A94E2F7282B2C93AC
:1017100081E081A30488F589E02D80818064808345
:1017200081E090E0DF91CF9108951F920F920FB664
:101730000F9211242F933F934F938F939F93EF9387
:10174000FF938091C00082FD1CC04091C600809133
:10175000DB019091DC0101968F7399272091DD01C7
:101760003091DE018217930771F0E091DB01F09177
:10177000DC01E556FE4F40839093DC018093DB0152
:1017800002C08091C600FF91EF919F918F914F9180
:101790003F912F910F900FBE0F901F9018951F92A1
:1017A0000F920FB60F9211242F933F938F939F9315
:1017B000EF93FF93209197013091980180919901C7
:1017C00090919A012817390731F48091C1008F7DDB
:1017D0008093C10014C0E0919901F0919A01E95AF7
:1017E000FE4F20818091990190919A0101968F730B
:1017F000992790939A01809399012093C600FF91B5
:10180000EF919F918F913F912F910F900FBE0F906D
:101810001F901895CF92DF92EF92FF92CF93DF93B4
:10182000EC016A017B01411581EE580761057105E4
:10183000F9F0EC89FD8981E090E008A002C0880FF2
:10184000991F0A94E2F7808360E079E08DE390E0ED
:10185000A70196010E94BA1021503109410951098E
:101860005695479537952795211580E1380798F0CB
:10187000EC89FD89108260E874E88EE190E0A701B0
:1018800096010E94BA10215031094109510956951B
:10189000479537952795E889F9893083EA89FB8947
:1018A000208319A2EE89FF89408181E090E09C01AC
:1018B0000C8C02C0220F331F0A94E2F7422B4083A4
:1018C000EE89FF8940819C010D8C02C0220F331FDD
:1018D0000A94E2F7422B4083EE89FF8940819C0104
:1018E0000E8C02C0220F331F0A94E2F7422B408372
:1018F000EE89FF8920810F8C02C0880F991F0A94FE
:10190000E2F7809582238083DF91CF91FF90EF9063
:10191000DF90CF90089581E00895109238011092E1
:10192000370188EE93E0A0E0B0E080933901909316
:101930003A01A0933B01B0933C0184E191E0909384
:101940003601809335018BE991E0909342018093B9
:10195000410187E591E0909344018093430185EC38
:1019600090E0909346018093450184EC90E0909341
:1019700048018093470180EC90E090934A01809366
:10198000490181EC90E090934C0180934B0182ECF3
:1019900090E090934E0180934D0186EC90E09093FF
:1019A000500180934F0184E08093510183E0809344
:1019B000520187E08093530185E08093540181E0D8
:1019C000809355010895CF92DF92EF92FF920F938B
:1019D0001F93CF93DF936C017A01EB01E60EF71EA4
:1019E00000E010E0CE15DF0561F06991D601ED91C0
:1019F000FC910190F081E02DC6010995080F191F97
:101A0000F1CFC801DF91CF911F910F91FF90EF901F
:101A1000DF90CF9008956115710581F0DB010D9085
:101A20000020E9F7AD0141505109461B570BDC017D
:101A3000ED91FC910280F381E02D099480E090E02B
:101A40000895EF92FF920F931F93CF93DF938C0132
:101A5000FB01C0E0D0E064917F018FEFE81AF80A43
:101A6000662361F0D801ED91FC910190F081E02DA9
:101A7000C8010995C80FD91FF701EDCFCE01DF913D
:101A8000CF911F910F91FF90EF900895DC01ED91A0
:101A9000FC910190F081E02D09940F931F93CF9357
:101AA000DF93EC016DE00E94460D8C016AE0CE01EF
:101AB0000E94460D800F911FDF91CF911F910F91D2
:101AC00008950F931F93CF93DF93EC010E94210D94
:101AD0008C01CE010E944D0D800F911FDF91CF919F
:101AE0001F910F9108958F929F92AF92BF92CF92C4
:101AF000DF92EF92FF920F931F93CF93DF93CDB7B7
:101B0000DEB7A1970FB6F894DEBF0FBECDBF7C0144
:101B1000C42EE52FCB01D22E19A221E02D1510F0F5
:101B20002AE0D22E8E010F5D1F4F8D2C912CA12CFF
:101B3000B12C6C2D7E2FA50194010E94BA108C2D22
:101B4000D29E80191124015011098A3014F4805D4D
:101B500001C0895CF80180832115310541055105DB
:101B600021F0C22EE32FCA01E4CFB801C7010E94C1
:101B70000B0DA1960FB6F894DEBF0FBECDBFDF915F
:101B8000CF911F910F91FF90EF90DF90CF90BF907A
:101B9000AF909F908F900895CF92DF92EF92FF9237
:101BA0000F931F93CF93DF93EC016A017B01211503
:101BB000310579F4E881F9810190F081E02D642FFD
:101BC000DF91CF911F910F91FF90EF90DF90CF9019
:101BD00009942A303105E9F477FF1AC06DE20E94BA
:101BE000460D8C0144275527BA014C195D096E0931
:101BF0007F092AE0CE010E94730D800F911FDF91B3
:101C0000CF911F910F91FF90EF90DF90CF900895AB
:101C10002AE0B701A601CE01DF91CF911F910F916C
:101C2000FF90EF90DF90CF900C94730D9A01AB0171
:101C3000662757FD6095762F0C94CC0D2115310544
:101C400041F4DC01ED91FC910190F081E02D642FD5
:101C500009940C94730DCF93DF938230910510F4A7
:101C600082E090E0E091EA01F091EB0120E030E0C9
:101C7000A0E0B0E0309739F1408151814817590711
:101C8000B8F04817590771F482819381109729F0B1
:101C900013969C938E9312972CC09093EB01809394
:101CA000EA0127C02115310531F04217530718F01A
:101CB000A901DB0101C0EF019A01BD01DF01028032
:101CC000F381E02DD7CF21153105F9F0281B390B11
:101CD0002430310580F48A819B816115710521F0E2
:101CE000FB019383828304C09093EB018093EA010C
:101CF000FE01329644C0FE01E20FF31F81939193DF
:101D000022503109398328833AC02091E80130916B
:101D1000E901232B41F42091040130910501309316
:101D2000E9012093E801209102013091030121157E
:101D3000310541F42DB73EB740910601509107019E
:101D4000241B350BE091E801F091E901E217F3075C
:101D5000A0F42E1B3F0B2817390778F0AC014E5F1B
:101D60005F4F2417350748F04E0F5F1F5093E9016E
:101D70004093E8018193919302C0E0E0F0E0CF014D
:101D8000DF91CF910895CF93DF93009709F487C037
:101D9000FC01329713821282C091EA01D091EB01CB
:101DA000209781F420813181280F391F8091E8012B
:101DB0009091E9018217930779F5F093E901E09397
:101DC000E8016DC0DE0120E030E0AE17BF0750F43F
:101DD00012964D915C9113979D014115510509F1A2
:101DE000DA01F3CFB383A28340815181840F951F21
:101DF0008A179B0771F48D919C911197840F951F01
:101E000002969183808312968D919C911397938370
:101E100082832115310529F4F093EB01E093EA0167
:101E20003EC0D9011396FC93EE9312974D915D91AC
:101E3000A40FB51FEA17FB0779F480819181840F05
:101E4000951F0296D90111969C938E93828193815E
:101E500013969C938E931297E0E0F0E08A819B8129
:101E6000009719F0FE01EC01F9CFCE01029628810E
:101E70003981820F931F2091E8013091E9012817E1
:101E8000390769F4309729F41092EB011092EA01B6
:101E900002C013821282D093E901C093E801DF915E
:101EA000CF9108950C942B0E1F920F920FB60F92A4
:101EB00011242F933F938F939F93AF93BF93809160
:101EC000E0019091E101A091E201B091E301309134
:101ED000DF0123E0230F2D3720F40196A11DB11D52
:101EE00005C026E8230F0296A11DB11D2093DF0136
:101EF0008093E0019093E101A093E201B093E301AC
:101F00008091E4019091E501A091E601B091E70193
:101F10000196A11DB11D8093E4019093E501A0936A
:101F2000E601B093E701BF91AF919F918F913F91EF
:101F30002F910F900FBE0F901F9018953FB7F894F8
:101F40008091E4019091E501A091E601B091E70153
:101F500026B5A89B05C02F3F19F00196A11DB11D04
:101F60003FBF6627782F892F9A2F620F711D811D21
:101F7000911D42E0660F771F881F991F4A95D1F780
:101F80000895CF92DF92EF92FF92CF93DF936B0190
:101F90007C010E949E0FEB01C114D104E104F10405
:101FA00079F00E949E0F6C1B7D0B683E7340A0F37E
:101FB00081E0C81AD108E108F108C851DC4FECCF24
:101FC000DF91CF91FF90EF90DF90CF9008957894BC
:101FD00084B5826084BD84B5816084BD85B582602E
:101FE00085BD85B5816085BDEEE6F0E080818160CC
:101FF0008083E1E8F0E010828081826080838081CC
:1020000081608083E0E8F0E0808181608083E1EBA3
:10201000F0E0808184608083E0EBF0E0808181608B
:102020008083EAE7F0E08081846080838081826041
:10203000808380818160808380818068808310922A
:10204000C1000895833081F028F4813099F0823006
:10205000A1F008958630A9F08730B9F08430D1F42A
:10206000809180008F7D03C0809180008F77809366
:102070008000089584B58F7702C084B58F7D84BDBC
:1020800008958091B0008F7703C08091B0008F7D5C
:102090008093B0000895CF93DF9390E0FC01EC5162
:1020A000FB4F2491FC01E850FB4F8491882349F1B8
:1020B00090E0880F991FFC01EA5EFA4FA591B49158
:1020C000845F9A4FFC01C591D4919FB7611108C0FC
:1020D000F8948C91209582238C93888182230AC066
:1020E000623051F4F8948C91322F309583238C9385
:1020F0008881822B888304C0F8948C91822B8C93E6
:102100009FBFDF91CF9108950F931F93CF93DF93DC
:102110001F92CDB7DEB7282F30E0F901E053FB4F17
:102120008491F901EC51FB4F1491F901E850FB4FF8
:1021300004910023C9F0882321F069830E942210B2
:102140006981E02FF0E0EE0FFF1FE45FFA4FA591E9
:10215000B4919FB7F8948C91611103C010958123BD
:1021600001C0812B8C939FBF0F90DF91CF911F9166
:102170000F910895A1E21A2EAA1BBB1BFD010DC0F1
:10218000AA1FBB1FEE1FFF1FA217B307E407F50727
:1021900020F0A21BB30BE40BF50B661F771F881F03
:1021A000991F1A9469F760957095809590959B0199
:1021B000AC01BD01CF0108956927962769277827CB
:1021C000872778270895EE0FFF1F0590F491E02DE3
:1021D0000994FB01DC0102C001900D924150504076
:1021E000D8F70895F999FECF92BD81BDF89A992745
:0821F00080B50895F894FFCFBB
:1021F8000D000000EC0180000F06320657066A0643
:1022080000000000580BE30CFE0A2B0B100B4D0BC3
:00000001FF
