:100000000C948E000C94B6000C94B6000C94B600C0
:100010000C94B6000C94B6000C94B6000C94B60088
:100020000C94B6000C94B6000C94B6000C94B60078
:100030000C94B6000C94B6000C94B6000C94B60068
:100040000C9442060C94B6000C945F020C94990236
:100050000C94B6000C94B6000C94B6000C94B60048
:100060000C94B6000C94B6004461726B004C696746
:10007000687400667265654D656D6F727928293DFB
:1000800000667265654D656D6F727928293D005077
:1000900072696E74696E6720617272617920646141
:1000A00074613A00546F74616C2074616B65733ACB
:1000B000004372656174696E6720617272617920B4
:1000C0006F66206461746100000000070002010097
:1000D0000003040600000000000000000102040804
:1000E00010204080010204081020010204081020A2
:1000F00004040404040404040202020202020303CE
:100100000303030300000000250028002B0000006B
:100110000000240027002A00BF01570311241FBE3E
:10012000CFEFD8E0DEBFCDBF11E0A0E0B1E0E4EA60
:10013000FFE002C005900D92AA31B107D9F711E096
:10014000AAE1B1E001C01D92AB3DB107E1F711E0BA
:10015000CCE1D1E004C02297FE010E94CC07C83157
:10016000D107C9F70E94B6010C94D0070C94000087
:10017000CF93DF9300D0CDB7DEB72091D701309178
:10018000D8012115310511F42BED31E0CE01019696
:10019000821B930B0F900F90DF91CF910895CF9317
:1001A000DF9361EB70E084E291E00E94EB030E9438
:1001B0008C0660931E0170931F0180932001909321
:1001C000210120E030E080E090E06DE271E44091B8
:1001D0002201509123012A3131053CF4DA01A80FA4
:1001E000B91FE1E4E20FEC930EC0FA01E80FF91F2A
:1001F0006083E0912201F0912301E80FF91F7183E0
:10020000019620E030E001962F5F3F4F811544E0DA
:100210009407ECF20E948C0660931A0170931B0104
:1002200080931C0190931D0164EA70E084E291E0E8
:100230000E94EB0340911A0150911B0160911C0137
:1002400070911D0180911E0190911F01A0912001CC
:10025000B0912101481B590B6A0B7B0B2AE030E05F
:1002600084E291E00E940505809102018823F1F06B
:100270006FE870E084E291E00E942B04C0E0D0E0DF
:10028000E0912201F0912301EC0FFD1F608184E2D7
:1002900091E00E9410042196C11584E0D80781F7EF
:1002A00084E291E0DF91CF910C941704DF91CF911C
:1002B000089540E855E260E070E084E291E00E9439
:1002C000D40284E291E00E9455038823D1F30E9476
:1002D000CF0061E0809100010C94390761E870E083
:1002E00084E291E00E94EB030E94B8004AE050E0F3
:1002F000BC0184E291E00E94E0048091220190918F
:100300002301009711F00E94400663E770E084E249
:1003100091E00E94EB030E94B8004AE050E0BC016B
:1003200084E291E00E94E0046DE670E084E291E0F6
:100330000E942B0461E0809100010E94720768EE28
:1003400073E080E090E00E94AF0668E670E084E22F
:1003500091E00E942B0460E0809100010E947207EE
:1003600068EE73E080E090E00C94AF060E94D50642
:100370000E9459010E946E0180E090E0089580E0A3
:1003800094E00E943E0690932301809322010895F9
:10039000FC0124853585F901E05CFF4F8081918166
:1003A000F901EE5BFF4F20813181821B930B8F732C
:1003B00099270895FC0184859585FC01E05CFF4F39
:1003C00040815181FC01EE5BFF4F2081318142175A
:1003D000530741F00190F081E02DE80FF91F808173
:1003E00090E008958FEF9FEF0895FC018485958537
:1003F000FC01E05CFF4F40815181FC01EE5BFF4F4F
:10040000208131814217530779F0A081B181A80F73
:10041000B91F8C91208131812F5F3F4F2F7333277C
:100420003183208390E008958FEF9FEF0895FC01C2
:1004300081A1882329F0A489B5898C9186FFFBCFFF
:1004400011A20895CF93DF93FC0126853785D9014A
:10045000A05CBF4F8D919C91119701968F73992746
:10046000E901CE5BDF4F4881598184179507D9F3A5
:100470000D90BC91A02DA20FB31F6C93A685B785DC
:10048000A05CBF4F11969C938E93A689B7892C913F
:1004900081E090E0078C02C0880F991F0A94E2F770
:1004A000282B2C9381E081A30488F589E02D80819D
:1004B0008064808381E090E0DF91CF9108951F9266
:1004C0000F920FB60F9211242F933F934F938F9358
:1004D0009F93EF93FF938091C00082FD1CC04091D9
:1004E000C6008091CA019091CB0101968F73992724
:1004F0002091CC013091CD018217930771F0E091EA
:10050000CA01F091CB01E657FE4F40839093CB0197
:100510008093CA0102C08091C600FF91EF919F9124
:100520008F914F913F912F910F900FBE0F901F9081
:1005300018951F920F920FB60F9211242F933F938D
:100540008F939F93EF93FF932091860130918701C2
:1005500080918801909189012817390731F48091A1
:10056000C1008F7D8093C10014C0E0918801F0919B
:100570008901EA5BFE4F2081809188019091890179
:1005800001968F7399279093890180938801209316
:10059000C600FF91EF919F918F913F912F910F9006
:1005A0000FBE0F901F901895CF92DF92EF92FF929F
:1005B000CF93DF93EC016A017B01411581EE58076F
:1005C00061057105F9F0EC89FD8981E090E008A0F2
:1005D00002C0880F991F0A94E2F7808360E079E0F7
:1005E0008DE390E0A70196010E94A80721503109F0
:1005F000410951095695479537952795211580E171
:10060000380798F0EC89FD89108260E874E88EE183
:1006100090E0A70196010E94A807215031094109E5
:1006200051095695479537952795E889F98930837B
:10063000EA89FB89208319A2EE89FF89408181E044
:1006400090E09C010C8C02C0220F331F0A94E2F749
:10065000422B4083EE89FF8940819C010D8C02C0B2
:10066000220F331F0A94E2F7422B4083EE89FF8961
:1006700040819C010E8C02C0220F331F0A94E2F7C6
:10068000422B4083EE89FF8920810F8C02C0880FA6
:10069000991F0A94E2F7809582238083DF91CF919E
:1006A000FF90EF90DF90CF90089581E00895109231
:1006B00027011092260188EE93E0A0E0B0E080933D
:1006C000280190932901A0932A01B0932B018DE07A
:1006D00091E090932501809324018AE891E0909322
:1006E00031018093300186E491E09093330180934F
:1006F000320185EC90E0909335018093340184ECD5
:1007000090E0909337018093360180EC90E09093D5
:1007100039018093380181EC90E090933B01809304
:100720003A0182EC90E090933D0180933C0186EC8D
:1007300090E090933F0180933E0184E080934001DC
:1007400083E08093410187E08093420185E08093BC
:10075000430181E0809344010895CF92DF92EF92AC
:10076000FF920F931F93CF93DF936C017A01EB01FC
:10077000E60EF71E00E010E0CE15DF0561F069918E
:10078000D601ED91FC910190F081E02DC601099513
:10079000080F191FF1CFC801DF91CF911F910F9161
:1007A000FF90EF90DF90CF9008956115710581F073
:1007B000DB010D900020E9F7AD0141505109461BC6
:1007C000570BDC01ED91FC910280F381E02D09943F
:1007D00080E090E00895EF92FF920F931F93CF93E4
:1007E000DF938C01FB01C0E0D0E064917F018FEFCB
:1007F000E81AF80A662361F0D801ED91FC910190A6
:10080000F081E02DC8010995C80FD91FF701EDCF80
:10081000CE01DF91CF911F910F91FF90EF9008953E
:10082000DC01ED91FC910190F081E02D09940F9392
:100830001F93CF93DF93EC016DE00E9410048C01B5
:100840006AE0CE010E941004800F911FDF91CF91CA
:100850001F910F9108950F931F93CF93DF93EC0196
:100860000E94EB038C01CE010E941704800F911FA0
:10087000DF91CF911F910F9108958F929F92AF9228
:10088000BF92CF92DF92EF92FF920F931F93CF937D
:10089000DF93CDB7DEB7A1970FB6F894DEBF0FBEDA
:1008A000CDBF7C01C42EE52FCB01D22E19A221E0B1
:1008B0002D1510F02AE0D22E8E010F5D1F4F8D2CCA
:1008C000912CA12CB12C6C2D7E2FA50194010E949E
:1008D000A8078C2DD29E80191124015011098A304D
:1008E00014F4805D01C0895CF80180832115310515
:1008F0004105510521F0C22EE32FCA01E4CFB80112
:10090000C7010E94D503A1960FB6F894DEBF0FBEB3
:10091000CDBFDF91CF911F910F91FF90EF90DF90AE
:10092000CF90BF90AF909F908F900895CF92DF921D
:10093000EF92FF920F931F93CF93DF93EC016A0125
:100940007B012115310579F4E881F9810190F0816D
:10095000E02D642FDF91CF911F910F91FF90EF90C9
:10096000DF90CF9009942A303105E9F477FF1AC05F
:100970006DE20E9410048C0144275527BA014C19DE
:100980005D096E097F092AE0CE010E943D04800FB7
:10099000911FDF91CF911F910F91FF90EF90DF900A
:1009A000CF9008952AE0B701A601CE01DF91CF9143
:1009B0001F910F91FF90EF90DF90CF900C943D042A
:1009C0000F931F93CF93DF93EC019A01AB0166273E
:1009D00057FD6095762F0E9496048C01CE010E94EF
:1009E0001704800F911FDF91CF911F910F910895F0
:1009F0002115310541F4DC01ED91FC910190F0816C
:100A0000E02D642F09940C943D040F931F93CF9312
:100A1000DF93EC010E94F8048C01CE010E941704C0
:100A2000800F911FDF91CF911F910F910895CF9368
:100A3000DF938230910510F482E090E0E091D901DB
:100A4000F091DA0120E030E0A0E0B0E0309739F139
:100A50004081518148175907B8F04817590771F478
:100A600082819381109729F013969C938E9312970D
:100A70002CC09093DA018093D90127C0211531054C
:100A800031F04217530718F0A901DB0101C0EF0153
:100A90009A01BD01DF010280F381E02DD7CF21153E
:100AA0003105F9F0281B390B2430310580F48A8197
:100AB0009B816115710521F0FB019383828304C042
:100AC0009093DA018093D901FE01329644C0FE0171
:100AD000E20FF31F819391932250310939832883C8
:100AE0003AC02091D7013091D801232B41F42091B5
:100AF0000501309106013093D8012093D701209150
:100B00000301309104012115310541F42DB73EB7A1
:100B10004091070150910801241B350BE091D7014A
:100B2000F091D801E217F307A0F42E1B3F0B281712
:100B3000390778F0AC014E5F5F4F2417350748F056
:100B40004E0F5F1F5093D8014093D701819391932B
:100B500002C0E0E0F0E0CF01DF91CF910895CF93A4
:100B6000DF93009709F487C0FC0132971382128249
:100B7000C091D901D091DA01209781F4208131818F
:100B8000280F391F8091D7019091D80182179307C0
:100B900079F5F093D801E093D7016DC0DE0120E034
:100BA00030E0AE17BF0750F412964D915C91139749
:100BB0009D014115510509F1DA01F3CFB383A283F9
:100BC00040815181840F951F8A179B0771F48D9185
:100BD0009C911197840F951F0296918380831296A2
:100BE0008D919C911397938382832115310529F46C
:100BF000F093DA01E093D9013EC0D9011396FC933A
:100C0000EE9312974D915D91A40FB51FEA17FB0764
:100C100079F480819181840F951F0296D9011196F4
:100C20009C938E938281938113969C938E931297BB
:100C3000E0E0F0E08A819B81009719F0FE01EC0171
:100C4000F9CFCE01029628813981820F931F20911E
:100C5000D7013091D8012817390769F4309729F462
:100C60001092DA011092D90102C013821282D0933D
:100C7000D801C093D701DF91CF9108950C94170547
:100C80000C94AF051F920F920FB60F9211242F9361
:100C90003F938F939F93AF93BF938091CF01909198
:100CA000D001A091D101B091D2013091CE0123E0C9
:100CB000230F2D3720F40196A11DB11D05C026E894
:100CC000230F0296A11DB11D2093CE018093CF0169
:100CD0009093D001A093D101B093D2018091D30120
:100CE0009091D401A091D501B091D6010196A11D9A
:100CF000B11D8093D3019093D401A093D501B093FB
:100D0000D601BF91AF919F918F913F912F910F90FD
:100D10000FBE0F901F9018953FB7F8948091D301A4
:100D20009091D401A091D501B091D60126B5A89B90
:100D300005C02F3F19F00196A11DB11D3FBF6627C9
:100D4000782F892F9A2F620F711D811D911D42E00E
:100D5000660F771F881F991F4A95D1F70895CF9284
:100D6000DF92EF92FF92CF93DF936B017C010E94A1
:100D70008C06EB01C114D104E104F10479F00E9466
:100D80008C066C1B7D0B683E7340A0F381E0C81A93
:100D9000D108E108F108C851DC4FECCFDF91CF91C9
:100DA000FF90EF90DF90CF900895789484B58260A3
:100DB00084BD84B5816084BD85B5826085BD85B5FF
:100DC000816085BDEEE6F0E0808181608083E1E8AE
:100DD000F0E01082808182608083808181608083E6
:100DE000E0E8F0E0808181608083E1EBF0E08081E9
:100DF00084608083E0EBF0E0808181608083EAE7BB
:100E0000F0E0808184608083808182608083808143
:100E1000816080838081806880831092C100089502
:100E2000833081F028F4813099F08230A1F0089568
:100E30008630A9F08730B9F08430D1F480918000F9
:100E40008F7D03C0809180008F778093800008950C
:100E500084B58F7702C084B58F7D84BD089580915D
:100E6000B0008F7703C08091B0008F7D8093B00079
:100E70000895CF93DF9390E0FC01E452FF4F24915B
:100E8000FC01E051FF4F8491882349F190E0880FE5
:100E9000991FFC01E25FFE4FA591B4918C5F9E4FBC
:100EA000FC01C591D4919FB7611108C0F8948C9151
:100EB000209582238C93888182230AC0623051F46A
:100EC000F8948C91322F309583238C938881822BD8
:100ED000888304C0F8948C91822B8C939FBFDF9100
:100EE000CF9108950F931F93CF93DF931F92CDB7A8
:100EF000DEB7282F30E0F901E853FF4F8491F90164
:100F0000E452FF4F1491F901E051FF4F0491002387
:100F1000C9F0882321F069830E9410076981E02FBE
:100F2000F0E0EE0FFF1FEC5FFE4FA591B4919FB76D
:100F3000F8948C91611103C01095812301C0812B1D
:100F40008C939FBF0F90DF91CF911F910F910895C8
:100F5000A1E21A2EAA1BBB1BFD010DC0AA1FBB1FBD
:100F6000EE1FFF1FA217B307E407F50720F0A21B2F
:100F7000B30BE40BF50B661F771F881F991F1A949C
:100F800069F760957095809590959B01AC01BD01C6
:100F9000CF010895EE0FFF1F0590F491E02D099405
:040FA000F894FFCFF3
:100FA4000D00010000DB018000000000002202AD02
:0A0FB40003C801F501DA011702007D
:00000001FF
