:100000000C944C010C9474010C9474010C947401C4
:100010000C9474010C9474010C9474010C9474018C
:100020000C9474010C9474010C9474010C9474017C
:100030000C9474010C9474010C9474010C9474016C
:100040000C94940D0C9474010C94D5090C940F0A23
:100050000C9474010C9474010C9474010C9474014C
:100060000C9474010C9474014461726B004C6967C8
:10007000687400205B75735D00456E6372797074FF
:10008000696F6E20746F74616C2074616B65733A74
:100090002000205B627974655D00416674657220A2
:1000A000656E6372797074696F6E206F66206D651E
:1000B000737361676520667265654D656D6F7279F2
:1000C00028293D2000205B627974655D00426566E9
:1000D0006F726520656E6372797074696F6E206FE0
:1000E00066206D65737361676520667265654D6531
:1000F0006D6F727928293D2000205B75735D004982
:100100006E696369616C69736174696F6E20746F85
:1001100074616C2074616B65733A20004372656191
:1001200074696E67206172726179206F6620646104
:1001300074610078A46AD756B7C7E8DB702024EE54
:10014000CEBDC1AF0F7CF52AC68747134630A80144
:100150009546FDD8988069AFF7448BB15BFFFFBE31
:10016000D75C892211906B937198FD8E4379A621FB
:1001700008B44962251EF640B340C0515A5E26AA13
:10018000C7B6E95D102FD65314440281E6A1D8C842
:10019000FBD3E7E6CDE121D60737C3870DD5F4EDD4
:1001A000145A4505E9E3A9F8A3EFFCD9026F678A61
:1001B0004C2A8D4239FAFF81F6718722619D6D0CC0
:1001C00038E5FD44EABEA4A9CFDE4B604BBBF67018
:1001D000BCBFBEC67E9B28FA27A1EA8530EFD405B6
:1001E0001D880439D0D4D9E599DBE6F87CA21F65D7
:1001F00056ACC4442229F497FF2A43A72394AB3971
:10020000A093FCC3595B6592CC0C8F7DF4EFFFD1BA
:100210005D84854F7EA86FE0E62CFE144301A3A108
:1002200011084E827E53F735F23ABDBBD2D72A91E0
:10023000D386EB0C05060B09000A0D030E0F08040C
:10024000070102000000070002010000030406008D
:10025000000000000000000102040810204080019E
:1002600002040810200102040810200404040404FD
:100270000404040202020202020303030303030054
:10028000000000250028002B0000000000240027AB
:10029000002A00001A03CD0A11241FBECFEFD8E0B8
:1002A000DEBFCDBF11E0A0E0B1E0EAE6FEE102C0B2
:1002B00005900D92A032B107D9F712E0A0E2B1E0AB
:1002C00001C01D92A230B107E1F712E0C8E9D2E007
:1002D00004C02297FE010E941E0FC439D107C9F73E
:1002E0000E9411030C94330F0C940000CB010C946A
:1002F0002B0FCF93DF9300D0CDB7DEB72091FE0157
:100300003091FF012115310511F422E032E0CE01D8
:100310000196821B930B0F900F90DF91CF91089560
:100320006CE171E08BE491E00E94A10B0E94DE0D74
:1003300060932501709326018093270190932801F3
:1003400020E030E080E090E06DE271E440912B012C
:1003500050912C012A3131053CF4DA01A80FB91F64
:10036000E1E4E20FEC930EC0FA01E80FF91F60839D
:10037000E0912B01F0912C01E80FF91F7183019698
:1003800020E030E001962F5F3F4F811544E0940755
:10039000ECF20895EF92FF920F931F93CF93DF93A8
:1003A0007C0101E411E0C0E0D0E0CE15DF0554F49B
:1003B000BE0180E291E00E947601F80181938F01F5
:1003C0002196F3CFDF91CF911F910F91FF90EF9086
:1003D000089540E855E260E070E08BE491E00E940F
:1003E0004A0A8BE491E00E94CB0A8823D1F30E9451
:1003F00090018AE090E00E94CA010E94DE0D6093A5
:1004000025017093260180932701909328014DE2E6
:1004100051E06AE081E491E00E946C080E94DE0DE8
:100420006093210170932201809323019093240112
:100430006FEF70E08BE491E00E94610B409121012D
:100440005091220160912301709124018091250136
:1004500090912601A0912701B0912801481B590BCA
:100460006A0B7B0B2AE030E08BE491E00E945E0C8B
:1004700069EF70E08BE491E00E94A10B61E0809154
:1004800000010C948B0EEF92FF920F931F93CF936A
:10049000DF93CDB7DEB760970FB6F894DEBF0FBE1F
:1004A000CDBF6DEC70E08BE491E00E94610B0E9487
:1004B00079014AE050E0BC018BE491E00E94560CC7
:1004C00065EC70E08BE491E00E94A10B0E94DE0DD0
:1004D0006093250170932601809327019093280152
:1004E00000E810E06DE271E08091290190912A010D
:1004F0000E948B088091290190912A01089690937F
:100500002A0180932901015011090115110551F7A4
:1005100020912B0130912C01E12C10E2F12E00E012
:1005200010E040E550E061E471E0CE0101960E94E8
:1005300048070E94DE0D6093210170932201809391
:100540002301909324016AE970E08BE491E00E941A
:10055000610B0E9479014AE050E0BC018BE491E01C
:100560000E94560C62E970E08BE491E00E94A10BBE
:1005700069E770E08BE491E00E94610B40912101FA
:1005800050912201609123017091240180912501F5
:1005900090912601A0912701B0912801481B590B89
:1005A0006A0B7B0B2AE030E08BE491E00E945E0C4A
:1005B00063E770E08BE491E00E94A10B8BE491E093
:1005C0000E948D0B6DE670E08BE491E00E94A10B20
:1005D00061E0809100010E94C40E68EE73E080E04B
:1005E00090E00E94010E68E670E08BE491E00E94CA
:1005F000A10B60E0809100010E94C40E68EE73E0E0
:1006000080E090E00E94010E60960FB6F894DEBF85
:100610000FBECDBFDF91CF911F910F91FF90EF9053
:1006200008950E94270E0E94E9010E94430280E083
:1006300090E0089580E094E00E94920D90932C0148
:1006400080932B0190932A018093290108958F9222
:100650009F92AF92BF92EF92FF920F931F934B0125
:100660005C0160957095809590956E217F21802327
:100670009123282139214A215B21622B732B842B62
:10068000952B1F910F91FF90EF90BF90AF909F908F
:100690008F9008958F929F92AF92BF92EF92FF92A8
:1006A0000F931F934B015C01C801B70160957095D2
:1006B0008095909562237323842395238E209F2019
:1006C000A022B122682979298A299B291F910F919B
:1006D000FF90EF90BF90AF909F908F900895EF9212
:1006E000FF920F931F932E253F2540275127262742
:1006F000372748275927CA01B9011F910F91FF9049
:10070000EF900895EF92FF920F931F93E094F0946F
:1007100000951095E62AF72A082B192BE226F326D6
:1007200004271527C801B7011F910F91FF90EF9083
:1007300008952F923F924F925F926F927F928F9285
:100740009F92AF92BF92CF92DF92EF92FF920F9360
:100750001F93CF93DF93CDB7DEB760970FB6F894B2
:10076000DEBF0FBECDBF4B01322E202E28E0E8E0C9
:10077000F1E0DE01119601900D922A95E1F74370A8
:10078000642F70E05C0124E0429FA00CB11C112496
:10079000D5014D905D906D907C906B01BFEFCB1AB1
:1007A000DB0AE3E0CE22DD24CC0CDD1CCC0CDD1C0E
:1007B000C80ED91EFE013196EE0DF11DEE0DF11D94
:1007C0009B012D5F3F4F23703327220F331F220FD2
:1007D000331F280F391FD901ED90FD900D911C9109
:1007E000DB011296A370BB27AA0FBB1FAA0FBB1F6A
:1007F000A80FB91F2D913D914D915C91D6016D913E
:100800007D918D919C910190F081E02D0995B4E04E
:100810002B9EF0011124ED5CFE4F25913591459101
:100820005491D401ED90FD900D911C91E40CF51CB8
:10083000061D171DE60EF71E081F191FE20EF31EF8
:10084000041F151FB801A701032C04C0440F551F36
:10085000661F771F0A94D2F720E22319D801C70137
:1008600004C0B695A795979587952A95D2F7482BFA
:10087000592B6A2B7B2BF60180819181A281B38158
:10088000480F591F6A1F7B1FD5014D935D936D93D0
:100890007C93139760960FB6F894DEBF0FBECDBF62
:1008A000DF91CF911F910F91FF90EF90DF90CF904C
:1008B000BF90AF909F908F907F906F905F904F9080
:1008C0003F902F900895FC01108A118A128A138A92
:1008D00041E053E265E477E64083518362837383AA
:1008E00049E85BEA6DEC7FEE44835583668377834A
:1008F0004EEF5CED6AEB78E940875187628773873A
:1009000046E754E562E370E1448755876687778759
:1009100008952F923F924F925F926F927F928F92A3
:100920009F92AF92BF92CF92DF92EF92FF920F937E
:100930001F93CF93DF93CDB7DEB7A2970FB6F8948E
:10094000DEBF0FBECDBF1C017AA369A3FC0180816D
:100950009181A281B38189839A83AB83BC83848193
:100960009581A681B7818D839E83AF83B88780856B
:100970009185A285B38589879A87AB87BC87848553
:100980009585A685B7858D879E87AF87B88B87E0CD
:100990008D8F8CE08E8F81E18F8F86E188A32B0174
:1009A000A12CB12C3E01FDE16F0E711C65E0F62E0D
:1009B000F60C43011A2D110F110F1619C12CD12C51
:1009C000012F080DF40121914F014F2D4E1BB6014F
:1009D000640D751DE12CCE0101960E949903F4E08F
:1009E000CF0ED11C80E1C816D10451F79FEFA91A90
:1009F000B90AE0E14E0E511CF4E0AF16B104C9F69D
:100A000085E0898F89E08A8F8EE08B8F84E18C8FDF
:100A1000CC24C394D12C3E0189E1680E711C5FE0A7
:100A2000552E56184601530114E0452C4C0C042D4C
:100A30000A0DF50121915F01B4016F707727660FF0
:100A4000771F660F771F89A19AA1680F791FEE247F
:100A5000E394412FCE0101960E949903115095E035
:100A6000890E911C1111E3CFE4E0CE0ED11CF1E10F
:100A7000CF16D104B9F684E08D8B8BE08E8B80E1AC
:100A80008F8B87E1888F95E0C92ED12C3E0185E1BF
:100A9000680E711C25E2522E56184601530114E0CF
:100AA000452C4C18042D0A0DF50121915F01B4016C
:100AB0006F707727660F771F660F771F89A19AA13E
:100AC000680F791F82E0E82E412FCE0101960E9427
:100AD0009903115093E0890E911C1111E3CFE4E0CA
:100AE000CE1AD108F5EFCF16FFEFDF06B1F686E09C
:100AF000898B8AE08A8B8FE08B8B85E18C8BC12C74
:100B0000D12C3E0181E1680E711CA0E35A2E5618CB
:100B10004601530114E0452C4C18042D0A0DF50133
:100B200021915F01B4016F707727660F771F660F01
:100B3000771F89A19AA1680F791FF3E0EF2E412F4B
:100B4000CE0101960E949903115097E0890E911CE5
:100B50001111E3CFE4E0CE1AD108F0EFCF16FFEF8A
:100B6000DF06B1F6F10180819181A281B3814981D3
:100B70005A816B817C81840F951FA61FB71F8083CC
:100B80009183A283B38384819581A681B7814D81AE
:100B90005E816F817885840F951FA61FB71F8483A0
:100BA0009583A683B78380859185A285B385498582
:100BB0005A856B857C85840F951FA61FB71F80877C
:100BC0009187A287B38784859585A685B7854D854E
:100BD0005E856F857889840F951FA61FB71F848750
:100BE0009587A687B78780899189A289B38901965D
:100BF000A11DB11D808B918BA28BB38BA2960FB6DA
:100C0000F894DEBF0FBECDBFDF91CF911F910F9142
:100C1000FF90EF90DF90CF90BF90AF909F908F901C
:100C20007F906F905F904F903F902F9008956F92BC
:100C30007F928F929F92AF92BF92CF92DF92EF926C
:100C4000FF920F931F93CF93DF93CDB7DEB7C054BE
:100C5000D1090FB6F894DEBF0FBECDBF8C013B01AA
:100C60004A017A016B01E114E2E0FE0650F0B601A0
:100C7000C8010E94890482E0F81A90E4C90ED11CD0
:100C8000F2CF5401AB2CBB24A694F6E0AA0CBB1CFB
:100C9000FA95E1F7A60CB71C6401F1E0DF22CE0162
:100CA00001967C0180E4F70111928A95E9F73601FB
:100CB000A3E076946794AA95E1F7A301B501C70173
:100CC0000E94220FF7E08F229924F701E60DF71D0D
:100CD0008114910471F0D501A60DB71D80E890E054
:100CE00002C0959587958A94E2F79C91982B908302
:100CF00002C080E8808388E0680E711C90E4691669
:100D00007104A8F0B701C8010E948904F801808924
:100D10009189A289B3890197A109B109808B918B2F
:100D2000A28BB38B88E3F70111928A95E9F7F8015A
:100D300080899189A289B38979E0880F991FAA1FB8
:100D4000BB1F7A95D1F78C0D9D1DA11DB11D9C0176
:100D5000AD0189AF3AAF4BAF5CAF1DAE1EAE1FAE5B
:100D600021961FAE2197B701C8010E948904C05C7B
:100D7000DF4F0FB6F894DEBF0FBECDBFDF91CF912E
:100D80001F910F91FF90EF90DF90CF90BF90AF90A9
:100D90009F908F907F906F90089520E1FB01DC0180
:100DA00001900D922A95E1F708958F929F92AF924C
:100DB000BF92CF92DF92EF92FF920F931F93CF9348
:100DC000DF93CDB7DEB768970FB6F894DEBF0FBEDE
:100DD000CDBF6C017B01CE0101962D8B3E8B4F8BDD
:100DE000588F0E9463042D893E894F89588D49018F
:100DF0005A018701811482E09806A104B104A0F091
:100E0000B801CE0101962D8B3E8B4F8B588F0E94DF
:100E10008904005C1F4F82E0981AA108B108588D20
:100E20004F893E892D89E6CFDA01C9019170AA2741
:100E3000BB27BA01A901B9E0769567955795479503
:100E4000BA95D1F7BA0116E0660F771F1A95E1F748
:100E50006E0D7F1DAC01CE0101960E941706BE01EA
:100E60006F5F7F4FC6010E94CD0668960FB6F8945B
:100E7000DEBF0FBECDBFDF91CF911F910F91FF90CD
:100E8000EF90DF90CF90BF90AF909F908F9008959C
:100E90002F923F924F925F926F927F928F929F928A
:100EA000AF92BF92CF92DF92EF92FF920F931F9378
:100EB000CF93DF93CDB7DEB7C855D1090FB6F894FD
:100EC000DEBF0FBECDBF5C014901170128018E01B5
:100ED0000F5F1F4F80E4F80111928A95E9F74130C6
:100EE000F2E05F0738F09A0140E050E0C8010E944C
:100EF000D5060AC0495F5F4FE3E056954795EA95EE
:100F0000E1F7C8010E94220F6E0181E4C80ED11CD6
:100F1000F80196E3808189278193EC15FD05D1F7CF
:100F2000C6010E946304B801C6010E948904A2019F
:100F3000910134012115F2E03F074105510518F1F7
:100F4000B301C60166962FAF669767963FAF679766
:100F500068964FAF689769965FAF69970E9489045A
:100F6000E0E46E0E711C66962FAD669767963FADF6
:100F7000679768964FAD689769965FAD69973250ED
:100F800041095109D7CFB201A101517066277727D6
:100F9000D201C10129E0B695A795979587952A9525
:100FA000D1F71C0136E0220C331C3A95E1F7280CEE
:100FB000391CB101C6010E94170648019AE6F401E6
:100FC0008081892781934F01EC15FD05C1F7BF0191
:100FD000C5010E94CD06C4010E946304B801C4018A
:100FE0000E94890440E850E0B501C4010E94170640
:100FF000B401C5010E94CD06C85ADF4F0FB6F89460
:10100000DEBF0FBECDBFDF91CF911F910F91FF903B
:10101000EF90DF90CF90BF90AF909F908F907F9098
:101020006F905F904F903F902F900895FC01DB01EF
:10103000480F591FE417F50729F09D9180818927F2
:101040008193F8CF08950F931F93CF93DF931F924F
:10105000CDB7DEB78C01FC0170855185872F38969E
:1010600044E032912291338322834150D1F7F80139
:101070007083518321852295220F207E908153E039
:10108000969587955A95E1F7292B2193282F207E55
:101090004F5F4A3099F7F801808169830E94900878
:1010A000807FF80190819F70892B8083698170E037
:1010B000CB019695982F88279795879590859827A7
:1010C0009087759567958781862787830F90DF9135
:1010D000CF911F910F9108951F93CF93DF932AE033
:1010E000FC01DA0101900D922A95E1F7EA012A96B6
:1010F0002AE0FC01DE0101900D922A95E1F711E052
:10110000612FCE010E9423081F5F1032C9F7DF91C3
:10111000CF911F91089523E238E04AE00C94CB0868
:10112000E82FF0E094E0F595E7959A95E1F7ED5C0E
:10113000FD4F94918F70E82FF0E0ED5CFD4FE4914E
:1011400020E1929FC00111248E2B0895CF9320E0BF
:10115000C0E030E0DC01A20FB11D5C91550F5C9343
:10116000FB01EC0FF11D4081441F4427441F452B18
:101170004C934081440F40832E5F2770432F47706C
:10118000473009F4CF5F3F3109F42F5F3F5F3034C0
:1011900009F7CF9108957F928F929F92AF92BF925D
:1011A000CF92DF92EF92FF920F931F93CF93DF9333
:1011B000CDB7DEB729970FB6F894DEBF0FBECDBF0F
:1011C0008C014901ADB6BEB650E08DB79EB7841B09
:1011D000950B0FB6F8949EBF0FBE8DBFEDB7FEB74F
:1011E00031967F01CF010E94220F48E050E0B70105
:1011F000C8010E9416087724739497E0C92ED12C59
:10120000F801EC0DFD1D808199870E949008E1E0B6
:10121000F0E0EC0FFD1FEC0DFD1D808399859150D2
:1012200068F7BE016F5F7F4FC8010E94A608672D57
:10123000C701F401099548E050E0B701C8010E94D8
:1012400016087394F0E27F12D8CF0FB6F894BEBEA2
:101250000FBEADBE29960FB6F894DEBF0FBECDBF50
:10126000DF91CF911F910F91FF90EF90DF90CF9082
:10127000BF90AF909F908F907F900895FC01248540
:101280003585F901E05CFF4F80819181F901EE5BCA
:10129000FF4F20813181821B930B8F739927089513
:1012A000FC0184859585FC01E05CFF4F4081518104
:1012B000FC01EE5BFF4F208131814217530741F063
:1012C0000190F081E02DE80FF91F808190E00895F2
:1012D0008FEF9FEF0895FC0184859585FC01E05C0C
:1012E000FF4F40815181FC01EE5BFF4F2081318136
:1012F0004217530779F0A081B181A80FB91F8C91D3
:10130000208131812F5F3F4F2F733327318320831B
:1013100090E008958FEF9FEF0895FC0181A188234D
:1013200029F0A489B5898C9186FFFBCF11A208957D
:10133000CF93DF93FC0126853785D901A05CBF4F91
:101340008D919C91119701968F739927E901CE5B3E
:10135000DF4F4881598184179507D9F30D90BC91CF
:10136000A02DA20FB31F6C93A685B785A05CBF4FBD
:1013700011969C938E93A689B7892C9181E090E079
:10138000078C02C0880F991F0A94E2F7282B2C9330
:1013900081E081A30488F589E02D808180648083C9
:1013A00081E090E0DF91CF9108951F920F920FB6E8
:1013B0000F9211242F933F934F938F939F93EF930B
:1013C000FF938091C00082FD1CC04091C6008091B7
:1013D000F1019091F20101968F7399272091F30109
:1013E0003091F4018217930771F0E091F101F091CF
:1013F000F201EF54FE4F40839093F2018093F1018C
:1014000002C08091C600FF91EF919F918F914F9103
:101410003F912F910F900FBE0F901F9018951F9224
:101420000F920FB60F9211242F933F938F939F9398
:10143000EF93FF932091AD013091AE018091AF0108
:101440009091B0012817390731F48091C1008F7D48
:101450008093C10014C0E091AF01F091B001E35955
:10146000FE4F20818091AF019091B00101968F7362
:1014700099279093B0018093AF012093C600FF910C
:10148000EF919F918F913F912F910F900FBE0F90F1
:101490001F901895CF92DF92EF92FF92CF93DF9338
:1014A000EC016A017B01411581EE58076105710568
:1014B000F9F0EC89FD8981E090E008A002C0880F76
:1014C000991F0A94E2F7808360E079E08DE390E071
:1014D000A70196010E94FA0E2150310941095109D4
:1014E0005695479537952795211580E1380798F04F
:1014F000EC89FD89108260E874E88EE190E0A70134
:1015000096010E94FA0E2150310941095109569560
:10151000479537952795E889F9893083EA89FB89CA
:10152000208319A2EE89FF89408181E090E09C012F
:101530000C8C02C0220F331F0A94E2F7422B408327
:10154000EE89FF8940819C010D8C02C0220F331F60
:101550000A94E2F7422B4083EE89FF8940819C0187
:101560000E8C02C0220F331F0A94E2F7422B4083F5
:10157000EE89FF8920810F8C02C0880F991F0A9481
:10158000E2F7809582238083DF91CF91FF90EF90E7
:10159000DF90CF90089581E0089510924E0110924F
:1015A0004D0188EE93E0A0E0B0E080934F0190936E
:1015B0005001A0935101B093520184E191E09093C6
:1015C0004C0180934B0181EB91E090935801809303
:1015D00057018DE691E090935A018093590185EC73
:1015E00090E090935C0180935B0184EC90E0909399
:1015F0005E0180935D0180EC90E0909360018093A8
:101600005F0181EC90E0909362018093610182EC34
:1016100090E0909364018093630186EC90E0909356
:1016200066018093650184E08093670183E0809385
:10163000680187E08093690185E080936A0181E019
:1016400080936B010895CF92DF92EF92FF920F93F8
:101650001F93CF93DF936C017A01EB01E60EF71E27
:1016600000E010E0CE15DF0561F06991D601ED9143
:10167000FC910190F081E02DC6010995080F191F1A
:10168000F1CFC801DF91CF911F910F91FF90EF90A3
:10169000DF90CF9008956115710581F0DB010D9009
:1016A0000020E9F7AD0141505109461B570BDC0101
:1016B000ED91FC910280F381E02D099480E090E0AF
:1016C0000895EF92FF920F931F93CF93DF938C01B6
:1016D000FB01C0E0D0E064917F018FEFE81AF80AC7
:1016E000662361F0D801ED91FC910190F081E02D2D
:1016F000C8010995C80FD91FF701EDCFCE01DF91C1
:10170000CF911F910F91FF90EF900895DC01ED9123
:10171000FC910190F081E02D09940F931F93CF93DA
:10172000DF93EC016DE00E94860B8C016AE0CE0134
:101730000E94860B800F911FDF91CF911F910F9117
:1017400008950F931F93CF93DF93EC010E94610BD9
:101750008C01CE010E948D0B800F911FDF91CF91E4
:101760001F910F9108958F929F92AF92BF92CF9247
:10177000DF92EF92FF920F931F93CF93DF93CDB73A
:10178000DEB7A1970FB6F894DEBF0FBECDBF7C01C8
:10179000C42EE52FCB01D22E19A221E02D1510F079
:1017A0002AE0D22E8E010F5D1F4F8D2C912CA12C83
:1017B000B12C6C2D7E2FA50194010E94FA0E8C2D68
:1017C000D29E80191124015011098A3014F4805DD1
:1017D00001C0895CF801808321153105410551055F
:1017E00021F0C22EE32FCA01E4CFB801C7010E9445
:1017F0004B0BA1960FB6F894DEBF0FBECDBFDF91A5
:10180000CF911F910F91FF90EF90DF90CF90BF90FD
:10181000AF909F908F900895CF92DF92EF92FF92BA
:101820000F931F93CF93DF93EC016A017B01211586
:10183000310579F4E881F9810190F081E02D642F80
:10184000DF91CF911F910F91FF90EF90DF90CF909C
:1018500009942A303105E9F477FF1AC06DE20E943D
:10186000860B8C0144275527BA014C195D096E0976
:101870007F092AE0CE010E94B30B800F911FDF91F8
:10188000CF911F910F91FF90EF90DF90CF9008952F
:101890002AE0B701A601CE01DF91CF911F910F91F0
:1018A000FF90EF90DF90CF900C94B30B9A01AB01B7
:1018B000662757FD6095762F0C940C0C2115310589
:1018C00041F4DC01ED91FC910190F081E02D642F59
:1018D00009940C94B30BCF93DF938230910510F4ED
:1018E00082E090E0E0910002F091010220E030E01F
:1018F000A0E0B0E0309739F1408151814817590795
:10190000B8F04817590771F482819381109729F034
:1019100013969C938E9312972CC090930102809300
:10192000000227C02115310531F04217530718F086
:10193000A901DB0101C0EF019A01BD01DF010280B5
:10194000F381E02DD7CF21153105F9F0281B390B94
:101950002430310580F48A819B816115710521F065
:10196000FB019383828304C0909301028093000261
:10197000FE01329644C0FE01E20FF31F8193919362
:1019800022503109398328833AC02091FE013091D9
:10199000FF01232B41F42091040130910501309384
:1019A000FF012093FE0120910201309103012115D6
:1019B000310541F42DB73EB7409106015091070122
:1019C000241B350BE091FE01F091FF01E217F307B4
:1019D000A0F42E1B3F0B2817390778F0AC014E5F9F
:1019E0005F4F2417350748F04E0F5F1F5093FF01DC
:1019F0004093FE018193919302C0E0E0F0E0CF01BB
:101A0000DF91CF910895CF93DF93009709F487C0BA
:101A1000FC01329713821282C0910002D091010220
:101A2000209781F420813181280F391F8091FE0198
:101A30009091FF018217930779F5F093FF01E093EE
:101A4000FE016DC0DE0120E030E0AE17BF0750F4AC
:101A500012964D915C9113979D014115510509F125
:101A6000DA01F3CFB383A28340815181840F951FA4
:101A70008A179B0771F48D919C911197840F951F84
:101A800002969183808312968D919C9113979383F4
:101A900082832115310529F4F0930102E0930002BD
:101AA0003EC0D9011396FC93EE9312974D915D9130
:101AB000A40FB51FEA17FB0779F480819181840F89
:101AC000951F0296D90111969C938E9382819381E2
:101AD00013969C938E931297E0E0F0E08A819B81AD
:101AE000009719F0FE01EC01F9CFCE010296288192
:101AF0003981820F931F2091FE013091FF01281739
:101B0000390769F4309729F410920102109200020B
:101B100002C013821282D093FF01C093FE01DF91B5
:101B2000CF9108950C946B0C1F920F920FB60F92E9
:101B300011242F933F938F939F93AF93BF938091E3
:101B4000F6019091F701A091F801B091F90130915F
:101B5000F50123E0230F2D3720F40196A11DB11DBF
:101B600005C026E8230F0296A11DB11D2093F501A3
:101B70008093F6019093F701A093F801B093F901D7
:101B80008091FA019091FB01A091FC01B091FD01BF
:101B90000196A11DB11D8093FA019093FB01A093C2
:101BA000FC01B093FD01BF91AF919F918F913F9147
:101BB0002F910F900FBE0F901F9018953FB7F8947C
:101BC0008091FA019091FB01A091FC01B091FD017F
:101BD00026B5A89B05C02F3F19F00196A11DB11D88
:101BE0003FBF6627782F892F9A2F620F711D811DA5
:101BF000911D42E0660F771F881F991F4A95D1F704
:101C00000895CF92DF92EF92FF92CF93DF936B0113
:101C10007C010E94DE0DEB01C114D104E104F1044A
:101C200079F00E94DE0D6C1B7D0B683E7340A0F3C3
:101C300081E0C81AD108E108F108C851DC4FECCFA7
:101C4000DF91CF91FF90EF90DF90CF90089578943F
:101C500084B5826084BD84B5816084BD85B58260B1
:101C600085BD85B5816085BDEEE6F0E0808181604F
:101C70008083E1E8F0E0108280818260808380814F
:101C800081608083E0E8F0E0808181608083E1EB27
:101C9000F0E0808184608083E0EBF0E0808181600F
:101CA0008083EAE7F0E080818460808380818260C5
:101CB00080838081816080838081806880831092AE
:101CC000C1000895833081F028F4813099F082308A
:101CD000A1F008958630A9F08730B9F08430D1F4AE
:101CE000809180008F7D03C0809180008F778093EA
:101CF0008000089584B58F7702C084B58F7D84BD40
:101D000008958091B0008F7703C08091B0008F7DDF
:101D10008093B0000895CF93DF9390E0FC01E95ADF
:101D2000FD4F2491FC01E559FD4F8491882349F131
:101D300090E0880F991FFC01E757FD4FA591B491E2
:101D400081589D4FFC01C591D4919FB7611108C086
:101D5000F8948C91209582238C93888182230AC0E9
:101D6000623051F4F8948C91322F309583238C9308
:101D70008881822B888304C0F8948C91822B8C9369
:101D80009FBFDF91CF9108950F931F93CF93DF9360
:101D90001F92CDB7DEB7282F30E0F901ED5BFD4F84
:101DA0008491F901E95AFD4F1491F901E559FD4F6C
:101DB00004910023C9F0882321F069830E94620EF8
:101DC0006981E02FF0E0EE0FFF1FE158FD4FA59174
:101DD000B4919FB7F8948C91611103C01095812341
:101DE00001C0812B8C939FBF0F90DF91CF911F91EA
:101DF0000F910895A1E21A2EAA1BBB1BFD010DC075
:101E0000AA1FBB1FEE1FFF1FA217B307E407F507AA
:101E100020F0A21BB30BE40BF50B661F771F881F86
:101E2000991F1A9469F760957095809590959B011C
:101E3000AC01BD01CF010895EE0FFF1F0590F49195
:101E4000E02D0994FB01DC0102C001900D9241508C
:101E50005040D8F70895F999FECF92BD81BDF89A08
:0A1E6000992780B50895F894FFCF8C
:101E6A000D0000000202800027034A036F03820369
:101E7A00000000009809230B3E096B0950098D09DF
:00000001FF
