:100000000C94C9010C94F1010C94F1010C94F101D0
:100010000C94F1010C94F1010C94F1010C94F10198
:100020000C94F1010C94F1010C94F1010C94F10188
:100030000C94F1010C94F1010C94F1010C94F10178
:100040000C94BD0F0C94F1010C94FE0B0C94380C25
:100050000C94F1010C94F1010C94F1010C94F10158
:100060000C94F1010C94F1014461726B004C6967CE
:10007000687400205B75735D00456E6372797074FF
:10008000696F6E20746F74616C2074616B65733A74
:100090002000205B627974655D00416674657220A2
:1000A000656E6372797074696F6E206F66206D651E
:1000B000737361676520667265654D656D6F7279F2
:1000C00028293D2000205B627974655D00426566E9
:1000D0006F726520656E6372797074696F6E206FE0
:1000E00066206D65737361676520667265654D6531
:1000F0006D6F727928293D2000205B75735D004982
:100100006E696369616C69736174696F6E20746F85
:1001100074616C2074616B65733A20004372656191
:1001200074696E67206172726179206F6620646104
:1001300074610001020408102040801B36637C7744
:100140007BF26B6FC53001672BFED7AB76CA82C9D5
:100150007DFA5947F0ADD4A2AF9CA472C0B7FD930D
:1001600026363FF7CC34A5E5F171D8311504C72305
:10017000C31896059A071280E2EB27B27509832C03
:100180001A1B6E5AA0523BD6B329E32F8453D100D9
:10019000ED20FCB15B6ACBBE394A4C58CFD0EFAAF8
:1001A000FB434D338545F9027F503C9FA851A34046
:1001B0008F929D38F5BCB6DA2110FFF3D2CD0C1327
:1001C000EC5F974417C4A77E3D645D197360814F4F
:1001D000DC222A908846EEB814DE5E0BDBE0323A71
:1001E0000A4906245CC2D3AC629195E479E7C8372A
:1001F0006D8DD54EA96C56F4EA657AAE08BA7825AD
:100200002E1CA6B4C6E8DD741F4BBD8B8A703EB5AC
:10021000664803F60E613557B986C11D9EE1F89810
:100220001169D98E949B1E87E9CE5528DF8CA18950
:100230000DBFE6426841992D0FB054BB16637C7721
:100240007BF26B6FC53001672BFED7AB76CA82C9D4
:100250007DFA5947F0ADD4A2AF9CA472C0B7FD930C
:1002600026363FF7CC34A5E5F171D8311504C72304
:10027000C31896059A071280E2EB27B27509832C02
:100280001A1B6E5AA0523BD6B329E32F8453D100D8
:10029000ED20FCB15B6ACBBE394A4C58CFD0EFAAF7
:1002A000FB434D338545F9027F503C9FA851A34045
:1002B0008F929D38F5BCB6DA2110FFF3D2CD0C1326
:1002C000EC5F974417C4A77E3D645D197360814F4E
:1002D000DC222A908846EEB814DE5E0BDBE0323A70
:1002E0000A4906245CC2D3AC629195E479E7C83729
:1002F0006D8DD54EA96C56F4EA657AAE08BA7825AC
:100300002E1CA6B4C6E8DD741F4BBD8B8A703EB5AB
:10031000664803F60E613557B986C11D9EE1F8980F
:100320001169D98E949B1E87E9CE5528DF8CA1894F
:100330000DBFE6426841992D0FB054BB1600000076
:100340000700020100000304060000000000000096
:10035000000102040810204080010204081020015E
:100360000204081020040404040404040402020229
:100370000202020303030303030000000025002818
:10038000002B0000000000240027002A0000960334
:10039000F60C11241FBECFEFD8E0DEBFCDBF12E0B8
:1003A000A0E0B1E0EAE4F3E202C005900D92A833C8
:1003B000B107D9F714E0A8E3B2E001C01D92AC3058
:1003C000B107E1F713E0C2E9D3E004C02297FE01D0
:1003D0000E947511CE38D107C9F70E948D030C9485
:1003E000A3110C940000CB010C949B11CF93DF93CD
:1003F00000D0CDB7DEB72091080430910904211553
:10040000310511F42CE034E0CE010196821B930BF0
:100410000F900F90DF91CF9108956CE171E085E529
:1004200093E00E94CA0D0E94071060933D027093F2
:100430003E0280933F029093400220E030E080E053
:1004400090E06DE271E440914302509144022A3100
:1004500031053CF4DA01A80FB91FE1E4E20FEC9397
:100460000EC0FA01E80FF91F6083E0914302F0919A
:100470004402E80FF91F7183019620E030E00196F5
:100480002F5F3F4F811544E09407ECF20895EF92FF
:10049000FF920F931F93CF93DF937C0105E412E04B
:1004A000C0E0D0E0CE15DF0554F4BE0188E392E051
:1004B0000E94F301F80181938F012196F3CFDF9120
:1004C000CF911F910F91FF90EF90089540E855E272
:1004D00060E070E085E593E00E94730C85E593E0B1
:1004E0000E94F40C8823D1F30E940D0280E290E078
:1004F0000E9447020E94071060933D0270933E02E3
:1005000080933F029093400265E672E085E492E0BA
:100510000E94B4050E9407106093390270933A025A
:1005200080933B0290933C026FEF70E085E593E08F
:100530000E948A0D4091390250913A0260913B022B
:1005400070913C0280913D0290913E02A0913F0249
:10055000B0914002481B590B6A0B7B0B2AE030E03C
:1005600085E593E00E94870E69EF70E085E593E0F2
:100570000E94CA0D61E0809100010C94B410EF92CA
:10058000FF920F931F93CF93DF93CDB7DEB7A09762
:100590000FB6F894DEBF0FBECDBF6DEC70E085E501
:1005A00093E00E948A0D0E94F6014AE050E0BC01EF
:1005B00085E593E00E947F0E65EC70E085E593E0B1
:1005C0000E94CA0D0E94071060933D0270933E0284
:1005D00080933F029093400200E410E065E672E0F1
:1005E00080914102909142020E94A30380914102B6
:1005F00090914202409690934202809341020150B2
:1006000011090115110551F720914302309144025F
:10061000E12C10E2F12E00E010E040E051E065E452
:1006200072E0CE0101960E94990A0E940710609321
:10063000390270933A0280933B0290933C026AE93C
:1006400070E085E593E00E948A0D0E94F6014AE081
:1006500050E0BC0185E593E00E947F0E62E970E006
:1006600085E593E00E94CA0D69E770E085E593E0B7
:100670000E948A0D4091390250913A0260913B02EA
:1006800070913C0280913D0290913E02A0913F0208
:10069000B0914002481B590B6A0B7B0B2AE030E0FB
:1006A00085E593E00E94870E63E770E085E593E0BF
:1006B0000E94CA0D85E593E00E94B60D6DE670E0DC
:1006C00085E593E00E94CA0D61E0809100010E94DF
:1006D000ED1068EE73E080E090E00E942A1068E67A
:1006E00070E085E593E00E94CA0D60E08091000112
:1006F0000E94ED1068EE73E080E090E00E942A1006
:10070000A0960FB6F894DEBF0FBECDBFDF91CF919C
:100710001F910F91FF90EF9008950E9450100E943A
:1007200066020E94BF0280E090E0089580E094E0BD
:100730000E94BB0F90934402809343029093420225
:100740008093410208954EE00C94E503CF93DF932C
:1007500000D000D0CDB7DEB7FC01808189838481D1
:100760008A8380858B8384858C83862F8370A1E028
:10077000B0E0AC0FBD1FA80FB11D8C91808370E05D
:10078000CB0101968370992721E030E02C0F3D1FAB
:10079000820F931FDC018C918483CB0102968370BE
:1007A0009927820F931FDC018C918087DB011396C0
:1007B000A370BB27A20FB31F8C9184870F900F905B
:1007C0000F900F90DF91CF9108952F923F924F920B
:1007D0005F926F927F928F929F92AF92BF92CF92D1
:1007E000DF92EF92FF920F931F93CF93DF93CDB7DA
:1007F000DEB767970FB6F894DEBF0FBECDBF8C0192
:100800003B01242FDB01FC0180E03D919081932787
:1008100091938F5F8031C9F7130140E1240E311CA1
:1008200031E0CE0141969A8B898B223008F4AEC01C
:10083000DE011196C801FC014191CF01E42FF0E0E7
:10084000E35CFD4FE491ED9349895A89A417B507FC
:1008500091F761E0CE0102962F8B3E8B0E94A6039A
:1008600062E0CE0103960E94A60363E0CE010496E7
:100870000E94A603CE0101965C01FE0132962F0173
:10088000AE014D5F5F4F6A01CE0104967C01812C61
:10089000912C3E892F89F2016081F50180816827C2
:1008A000F7019081F6018081982796274BE182E03D
:1008B0002F8B3E8B9D8B0E94B905A801480D591DB9
:1008C0005C8B4B8BF501408148279D894927EB893B
:1008D000FC894083F6016081F201808168274BE149
:1008E00082E09D8B0E94B905F201408148279D89D5
:1008F0004927EB89FC894183F7016081F6018081FA
:1009000068274BE182E09D8B0E94B905F60140818A
:1009100048279D894927EB89FC894283F50160813D
:10092000F701808168274BE182E09D8B0E94B90529
:10093000F701408148279D894927EB89FC8943833A
:10094000F4E0AF0EB11C44E0840E911C54E0450E5F
:10095000511C84E0C80ED11C94E0E90EF11C2F89D3
:100960003E89E0E18E16910409F095CFF801D1019E
:1009700080E04D919081942791938F5F8031C9F7EA
:100980003F5F2150F0E12F0E311C4FCF40E1349FEB
:10099000600C711C1124D80180E0EC91F0E0E35C64
:1009A000FD4FE491ED938F5F8031B9F761E0C801AD
:1009B00001960E94A60362E0C80102960E94A60367
:1009C00063E0C80103960E94A603D301F80180E00A
:1009D0002D919081922791938F5F8031C9F767960F
:1009E0000FB6F894DEBF0FBECDBFDF91CF911F9140
:1009F0000F91FF90EF90DF90CF90BF90AF909F90BE
:100A00008F907F906F905F904F903F902F900895C0
:100A10008F929F92AF92BF92CF92DF92EF92FF920E
:100A20000F931F93CF93DF93EA018B0135E0169567
:100A300007953A95E1F7D02E7801FF249701295FB9
:100A40003F4FC22ECC0CCC0CAB0163E056954795C2
:100A50006A95E1F7BC01CE010E947911902E990CA4
:100A6000A02E60E070E0B12CF62FED2DE60FEC1516
:100A700008F06DC08E2F90E0AC014150504C440FF7
:100A8000551F440F551F4C0F5D1FDA010D911D912D
:100A90002D913C91EA1501F1B8E0DB123FC0E770FF
:100AA000E43009F03BC0E02FF0E0E35CFE4FE4915E
:100AB0000E2FE12FF0E0E35CFE4FE4911E2FE22FBA
:100AC000F0E0E35CFE4FE4912E2FE32FF0E0E35CD7
:100AD000FE4FE4913E2F22C0AF2EA90CA02FE12F94
:100AE000F0E0E35CFE4FE4910E2FE22FF0E0E35CD8
:100AF000FE4FE4911E2FE32FF0E0E35CFE4FE49104
:100B00002E2FEA2FF0E0E35CFE4FE4913E2FEB2D19
:100B1000F0E0ED5CFE4FE4910E27B394FC01EE197A
:100B2000FF09EE0FFF1FEE0FFF1FEC0FFD1F80816F
:100B30009181A281B38180279127A227B327FA014F
:100B400084839583A683B7836F5F7F4F8DCFDF91BB
:100B5000CF911F910F91FF90EF90DF90CF90BF90BA
:100B6000AF909F908F900895AB0160E071E00C947E
:100B7000080528E090E060FD9827382F3078880F2E
:100B80003111842766952150B1F7892F0895DC0132
:100B900090961C92909791961C92919792961C9287
:100BA000929793961C92939794961C9294979596ED
:100BB0001C92959796961C92969797961C9297974B
:100BC00080E2E2E0F2E001900D928A95E1F708956B
:100BD0000E94451108952F923F924F925F926F921B
:100BE0007F928F929F92AF92BF92CF92DF92EF92BD
:100BF000FF920F931F93CF93DF93CDB7DEB7C05310
:100C0000D1400FB6F894DEBF0FBECDBF1C017B01F3
:100C10006E0101E4C00ED11C8E010F5F1F4FD70182
:100C20006D917D918D919D917D010E94E805F80166
:100C300061937193819391938F01EC15FD0579F781
:100C40002E01F9E34F0E511C9E012B5D3F4FCB5DF2
:100C5000DE4F39832883C552D1403801AE014F5F42
:100C60005F4FC95DDE4F59834883C752D14050E181
:100C7000CF5DDE4F5883C152D140D201CD90DD907F
:100C8000ED90FD902D01CB5DDE4FE881F981C552DD
:100C9000D14081919191A191B191CB5DDE4FF983CA
:100CA000E883C552D140C95DDE4FE881F981C75262
:100CB000D140048115812681378141915191619103
:100CC0007191C95DDE4FF983E883C752D140840F2B
:100CD000951FA61FB71FB701A601E1E1769567959D
:100CE00057954795EA95D1F746015701FFE0880CE3
:100CF000991CAA1CBB1CFA95D1F7482959296A29C5
:100D00007B2946015701EAE0B694A794979487940B
:100D1000EA95D1F7482559256A257B2546015701D3
:100D2000F3E1B694A79497948794FA95D1F7EDE000
:100D3000CC0CDD1CEE1CFF1CEA95D1F78C289D28FD
:100D4000AE28BF28482559256A257B25840F951F85
:100D5000A61FB71FB901A801F7E0769567955795CB
:100D60004795FA95D1F768017901E9E1CC0CDD1CD2
:100D7000EE1CFF1CEA95D1F74C295D296E297F29CD
:100D800068017901F3E0F694E794D794C794FA9553
:100D9000D1F74C255D256E257F2568017901E2E1BB
:100DA000F694E794D794C794EA95D1F7FEE0000F44
:100DB000111F221F331FFA95D1F7C02AD12AE22A28
:100DC000F32A4C255D256E257F25840F951FA61FD0
:100DD000B71FF30181939193A193B1933F01CF5D2D
:100DE000DE4FF881C152D140FF5FCF5DDE4FF88307
:100DF000C152D140F03409F040CF8E010F5F1E4F39
:100E000080E2F101D80101900D928A95E1F722E08C
:100E100031E0C15DDE4F39832883CF52D1409E013E
:100E20002F5F3F4FCB5DDE4F39832883C552D140C2
:100E300001E011E00C0F1D1F0C5F1F4FC95DDE4F5D
:100E400019830883C752D140CF5EDE4F88819981D4
:100E5000AA81BB81C151D140C15DDE4FE881F981DA
:100E6000CF52D1404190519061907190C15DDE4F61
:100E7000F983E883CF52D140CB5DDE4FE881F98121
:100E8000C552D1400191119121913191CB5DDE4F3D
:100E9000F983E883C552D1406C017D014BE0F694A3
:100EA000E794D794C7944A95D1F7AC01BD01E5E129
:100EB000440F551F661F771FEA95D1F7C42AD52A1C
:100EC000E62AF72AAC01BD01F6E0769567955795BD
:100ED0004795FA95D1F74C015D01EAE1880C991C20
:100EE000AA1CBB1CEA95D1F7482959296A297B29F4
:100EF000C426D526E626F726AC01BD01F9E1769594
:100F0000679557954795FA95D1F74C015D01E7E054
:100F1000880C991CAA1CBB1CEA95D1F748295929B1
:100F20006A297B29C426D526E626F726AC01BD0111
:100F30004095509560957095C75EDE4F888099808A
:100F4000AA80BB80C951D140482159216A217B2107
:100F5000CB5EDE4F88809980AA80BB80C551D1408E
:100F600088229922AA22BB22482559256A257B2559
:100F7000C40ED51EE61EF71EC35EDE4F8881998122
:100F8000AA81BB81CD51D140C80ED91EEA1EFB1EDD
:100F9000C40CD51CE61CF71CC00ED11EE21EF31EAD
:100FA000CF5FDE4F88809980AA80BB80C150D1403E
:100FB000CB5FDE4F488059806A807B80C550D1402E
:100FC000C75FDE4F288139814A815B81C950D1409A
:100FD000CF5DDE4F288339834A835B83C152D14082
:100FE0004CE150E0BE016F5F7E4FC95DDE4F8881EE
:100FF0009981C752D1400E948211CF5EDE4F888115
:101000009981AA81BB81C151D1408C0D9D1DAE1D1E
:10101000BF1DCF5EDE4F88839983AA83BB83C151F6
:10102000D140CF5DDE4F88819981AA81BB81C152B9
:10103000D14084259525A625B72588219921AA2167
:10104000BB21CF5DDE4F288139814A815B81C1524E
:10105000D140422253226422752284259525A6255B
:10106000B725B501A401FDE076956795579547959D
:10107000FA95D1F72401350113E1440C551C661C87
:10108000771C1A95D1F74429552966297729240117
:10109000350102E076946794579447940A95D1F706
:1010A00095018401EEE1000F111F221F331FEA9505
:1010B000D1F7402A512A622A732A442555256625EC
:1010C000772524013501F6E1769467945794479487
:1010D000FA95D1F71AE0880C991CAA1CBB1C1A952A
:1010E000D1F7482859286A287B28442555256625A4
:1010F0007725840F951FA61FB71F8C0D9D1DAE1D54
:10110000BF1DCF5FDE4F88839983AA83BB83C15005
:10111000D140C15DDE4F28813981CF52D14022506C
:10112000324009F091CEBE016F5F7E4F7B0191018D
:101130008B01005E1F4FD7014D915D916D917D91A7
:101140007D01F90180819181A281B381840F951F76
:10115000A61FB71F81939193A193B1939F01E016AE
:10116000F10649F7D10190962C91909791963C9178
:10117000919792964C91929793965C9193979496AF
:101180006C91949795967C91959796968C9196975D
:1011900097969C9197973E5F4F4F5F4F6F4F7F4F52
:1011A0008F4F9F4F90962C93909791963C93919749
:1011B00092964C93929793965C93939794966C9394
:1011C000949795967C93959796968C9396979796E9
:1011D0009C93C05DDE4F0FB6F894DEBF0FBECDBF4F
:1011E000DF91CF911F910F91FF90EF90DF90CF9003
:1011F000BF90AF909F908F907F906F905F904F9037
:101200003F902F9008952F923F924F925F926F924E
:101210007F928F929F92AF92BF92CF92DF92EF9286
:10122000FF920F931F93CF93DF93CDB7DEB7C054D8
:10123000D1090FB6F894DEBF0FBECDBF4C011B0124
:101240002A018A013B01011532E0130748F0B3017E
:10125000C4010E94EB05125020E4620E711CF3CF12
:101260003201672C77246694B6E0660C771CBA9539
:10127000E1F7620C731C120181E03822910140E019
:1012800050E060E070E080E090E0F401A0A0B1A048
:10129000C2A0D3A0E4A0F5A006A117A10E946A11E4
:1012A00020A331A342A353A364A375A386A397A34A
:1012B000810183E0169507958A95E1F7A801B301AE
:1012C000CE0101960E947911F7E04F225524E1E00A
:1012D000F0E0EC0FFD1FE00FF11F452831F0D301C6
:1012E000A00FB11F8C91808301C0108227E02222C1
:1012F000332480E890E002C0959587952A94E2F720
:10130000E1E0F0E0EC0FFD1FE00FF11F9081982B62
:101310009083C80101968933910570F14FE350E045
:10132000401B510B60E070E0E1E0F0E0EC0FFD1FCE
:101330008E0F9F1F0E949411BE016F5F7F4FC401EB
:101340000E94EB05F40120A131A142A153A164A1A7
:1013500075A186A197A1325041095109610971090E
:101360008109910920A331A342A353A364A375A3C8
:1013700086A397A380E090E048E350E0481B590B18
:1013800060E070E021E030E02C0F3D1F820F931FE2
:101390000E949411F401F0A021A032A043A054A017
:1013A00065A076A017A1DE01D996E8E3F0E02F2D25
:1013B000322D432D542D652D762D872D912F0E2FF7
:1013C0000E944E112D933897E83F2FEFF20779F7DF
:1013D000BE016F5F7F4FC4010E94EB05C05CDF4F11
:1013E0000FB6F894DEBF0FBECDBFDF91CF911F9136
:1013F0000F91FF90EF90DF90CF90BF90AF909F90B4
:101400008F907F906F905F904F903F902F900895B6
:10141000FF920F931F93CF93DF938B01EC01F12C7D
:10142000F80161917191819191918F010E94E8057C
:101430006993799389939993F394F8E0FF12F0CF2D
:10144000DF91CF911F910F91FF9008958F929F92FE
:10145000AF92BF92CF92DF92EF92FF920F931F93C2
:10146000CF93DF93CDB7DEB7AC970FB6F894DEBF5E
:101470000FBECDBF6C017B01CE01019629A73AA713
:101480004BA75CA70E94C70529A53AA54BA55CA55B
:1014900049015A018701811482E09806A104B10430
:1014A000A0F0B801CE01019629A73AA74BA75CA7E7
:1014B0000E94EB05005C1F4F82E0981AA108B1085A
:1014C0005CA54BA53AA529A5E6CFDA01C901917023
:1014D000AA27BB27BA01A90129E0769567955795F8
:1014E00047952A95D1F7BA0136E0660F771F3A95EE
:1014F000E1F76E0D7F1DAC01CE0101960E9403093C
:10150000BE016F5F7F4FC6010E94080AAC960FB6FE
:10151000F894DEBF0FBECDBFDF91CF911F910F9129
:10152000FF90EF90DF90CF90BF90AF909F908F9003
:1015300008952F923F924F925F926F927F928F9277
:101540009F92AF92BF92CF92DF92EF92FF920F9352
:101550001F93CF93DF93CDB7DEB7CC56D1090FB62B
:10156000F894DEBF0FBECDBF5C0149011701280111
:101570008E010F5F1F4F80E4F80111928A95E9F701
:101580004130F2E05F0738F09A0140E050E0C801D6
:101590000E94260A0AC0495F5F4FE3E056954795CF
:1015A000EA95E1F7C8010E9479116E0181E4C80E45
:1015B000D11CF80196E3808189278193EC15FD0504
:1015C000D1F7C6010E94C705B801C6010E94EB050C
:1015D000A201910134012115F2E03F0741055105B7
:1015E00018F1B301C601AA962FAFAA97AB963FAFE9
:1015F000AB97AC964FAFAC97AD965FAFAD970E94EF
:10160000EB05E0E46E0E711CAA962FADAA97AB967F
:101610003FADAB97AC964FADAC97AD965FADAD9788
:10162000325041095109D7CFB201A101517066274B
:101630007727D201C10129E0B695A795979587959F
:101640002A95D1F71C0136E0220C331C3A95E1F7BC
:10165000280C391CB101C6010E94030948019AE611
:10166000F4018081892781934F01EC15FD05C1F7B5
:10167000BF01C5010E94080AC4010E94C705B80144
:10168000C4010E94EB0540E051E0B501C4010E9495
:101690000309B401C5010E94080AC459DF4F0FB6FF
:1016A000F894DEBF0FBECDBFDF91CF911F910F9198
:1016B000FF90EF90DF90CF90BF90AF909F908F9072
:1016C0007F906F905F904F903F902F900895FC0116
:1016D00024853585F901E05CFF4F80819181F90116
:1016E000EE5BFF4F20813181821B930B8F73992713
:1016F0000895FC0184859585FC01E05CFF4F4081E5
:101700005181FC01EE5BFF4F20813181421753076D
:1017100041F00190F081E02DE80FF91F808190E009
:1017200008958FEF9FEF0895FC0184859585FC0156
:10173000E05CFF4F40815181FC01EE5BFF4F208157
:1017400031814217530779F0A081B181A80FB91FE9
:101750008C91208131812F5F3F4F2F73332731834D
:10176000208390E008958FEF9FEF0895FC0181A101
:10177000882329F0A489B5898C9186FFFBCF11A21B
:101780000895CF93DF93FC0126853785D901A05CAE
:10179000BF4F8D919C91119701968F739927E90105
:1017A000CE5BDF4F4881598184179507D9F30D909F
:1017B000BC91A02DA20FB31F6C93A685B785A05C2A
:1017C000BF4F11969C938E93A689B7892C9181E087
:1017D00090E0078C02C0880F991F0A94E2F7282B2B
:1017E0002C9381E081A30488F589E02D80818064B9
:1017F000808381E090E0DF91CF9108951F920F9256
:101800000FB60F9211242F933F934F938F939F9373
:10181000EF93FF938091C00082FD1CC04091C600F1
:101820008091FB039091FC0301968F73992720917F
:10183000FD033091FE038217930771F0E091FB03E3
:10184000F091FC03E554FC4F40839093FC0380939C
:10185000FB0302C08091C600FF91EF919F918F9191
:101860004F913F912F910F900FBE0F901F901895A1
:101870001F920F920FB60F9211242F933F938F93C5
:101880009F93EF93FF932091B7033091B80380911A
:10189000B9039091BA032817390731F48091C10038
:1018A0008F7D8093C10014C0E091B903F091BA0319
:1018B000E958FC4F20818091B9039091BA030196B9
:1018C0008F7399279093BA038093B9032093C6002E
:1018D000FF91EF919F918F913F912F910F900FBEAC
:1018E0000F901F901895CF92DF92EF92FF92CF93B7
:1018F000DF93EC016A017B01411581EE5807610518
:101900007105F9F0EC89FD8981E090E008A002C042
:10191000880F991F0A94E2F7808360E079E08DE3F5
:1019200090E0A70196010E9423112150310941093D
:1019300051095695479537952795211580E1380728
:1019400098F0EC89FD89108260E874E88EE190E0FF
:10195000A70196010E942311215031094109510923
:101960005695479537952795E889F9893083EA890F
:10197000FB89208319A2EE89FF89408181E090E0F4
:101980009C010C8C02C0220F331F0A94E2F7422BF9
:101990004083EE89FF8940819C010D8C02C0220F9B
:1019A000331F0A94E2F7422B4083EE89FF8940817E
:1019B0009C010E8C02C0220F331F0A94E2F7422BC7
:1019C0004083EE89FF8920810F8C02C0880F991F08
:1019D0000A94E2F7809582238083DF91CF91FF9074
:1019E000EF90DF90CF90089581E008951092580312
:1019F0001092570388EE93E0A0E0B0E08093590383
:101A000090935A03A0935B03B0935C038CE292E043
:101A100090935603809355038BEB93E0909362036E
:101A20008093610387E793E090936403809363035B
:101A300085EC90E0909366038093650384EC90E0DE
:101A4000909368038093670380EC90E090936A031F
:101A50008093690381EC90E090936C0380936B0317
:101A600082EC90E090936E0380936D0386EC90E09F
:101A70009093700380936F0384E08093710383E0FD
:101A80008093720387E08093730385E080937403EF
:101A900081E0809375030895CF92DF92EF92FF92D9
:101AA0000F931F93CF93DF936C017A01EB01E60E46
:101AB000F71E00E010E0CE15DF0561F06991D60158
:101AC000ED91FC910190F081E02DC6010995080F80
:101AD000191FF1CFC801DF91CF911F910F91FF9096
:101AE000EF90DF90CF9008956115710581F0DB01D3
:101AF0000D900020E9F7AD0141505109461B570BED
:101B0000DC01ED91FC910280F381E02D099480E0ED
:101B100090E00895EF92FF920F931F93CF93DF937E
:101B20008C01FB01C0E0D0E064917F018FEFE81AE7
:101B3000F80A662361F0D801ED91FC910190F081E3
:101B4000E02DC8010995C80FD91FF701EDCFCE01CF
:101B5000DF91CF911F910F91FF90EF900895DC01DD
:101B6000ED91FC910190F081E02D09940F931F936A
:101B7000CF93DF93EC016DE00E94AF0D8C016AE022
:101B8000CE010E94AF0D800F911FDF91CF911F9169
:101B90000F9108950F931F93CF93DF93EC010E9451
:101BA0008A0D8C01CE010E94B60D800F911FDF912E
:101BB000CF911F910F9108958F929F92AF92BF92F4
:101BC000CF92DF92EF92FF920F931F93CF93DF9309
:101BD000CDB7DEB7A1970FB6F894DEBF0FBECDBF6D
:101BE0007C01C42EE52FCB01D22E19A221E02D15A8
:101BF00010F02AE0D22E8E010F5D1F4F8D2C912CFC
:101C0000A12CB12C6C2D7E2FA50194010E942311D3
:101C10008C2DD29E80191124015011098A3014F4A0
:101C2000805D01C0895CF801808321153105410583
:101C3000510521F0C22EE32FCA01E4CFB801C7013C
:101C40000E94740DA1960FB6F894DEBF0FBECDBFF3
:101C5000DF91CF911F910F91FF90EF90DF90CF9088
:101C6000BF90AF909F908F900895CF92DF92EF92A8
:101C7000FF920F931F93CF93DF93EC016A017B01D7
:101C80002115310579F4E881F9810190F081E02D89
:101C9000642FDF91CF911F910F91FF90EF90DF9014
:101CA000CF9009942A303105E9F477FF1AC06DE22C
:101CB0000E94AF0D8C0144275527BA014C195D09CC
:101CC0006E097F092AE0CE010E94DC0D800F911F72
:101CD000DF91CF911F910F91FF90EF90DF90CF9008
:101CE00008952AE0B701A601CE01DF91CF911F919F
:101CF0000F91FF90EF90DF90CF900C94DC0D9A0144
:101D0000AB01662757FD6095762F0C94350E211593
:101D1000310541F4DC01ED91FC910190F081E02D61
:101D2000642F09940C94DC0DCF93DF9382309105DE
:101D300010F482E090E0E0910A04F0910B0420E0BE
:101D400030E0A0E0B0E0309739F140815181481790
:101D50005907B8F04817590771F482819381109799
:101D600029F013969C938E9312972CC090930B049A
:101D700080930A0427C02115310531F0421753071B
:101D800018F0A901DB0101C0EF019A01BD01DF01DB
:101D90000280F381E02DD7CF21153105F9F0281B02
:101DA000390B2430310580F48A819B8161157105DE
:101DB00021F0FB019383828304C090930B048093F2
:101DC0000A04FE01329644C0FE01E20FF31F819324
:101DD000919322503109398328833AC02091080415
:101DE00030910904232B41F42091240230912502E3
:101DF0003093090420930804209122023091230299
:101E00002115310541F42DB73EB74091260250917E
:101E10002702241B350BE0910804F0910904E21716
:101E2000F307A0F42E1B3F0B2817390778F0AC01FD
:101E30004E5F5F4F2417350748F04E0F5F1F5093DA
:101E40000904409308048193919302C0E0E0F0E01C
:101E5000CF01DF91CF910895CF93DF93009709F4DD
:101E600087C0FC01329713821282C0910A04D0917C
:101E70000B04209781F420813181280F391F809134
:101E80000804909109048217930779F5F0930904E7
:101E9000E09308046DC0DE0120E030E0AE17BF071C
:101EA00050F412964D915C9113979D014115510587
:101EB00009F1DA01F3CFB383A28340815181840F0A
:101EC000951F8A179B0771F48D919C911197840F30
:101ED000951F02969183808312968D919C91139702
:101EE000938382832115310529F4F0930B04E09349
:101EF0000A043EC0D9011396FC93EE9312974D91BC
:101F00005D91A40FB51FEA17FB0779F480819181D9
:101F1000840F951F0296D90111969C938E9382810E
:101F2000938113969C938E931297E0E0F0E08A8160
:101F30009B81009719F0FE01EC01F9CFCE010296CA
:101F400028813981820F931F209108043091090460
:101F50002817390769F4309729F410920B0410926E
:101F60000A0402C013821282D0930904C0930804A9
:101F7000DF91CF9108950C94940E1F920F920FB69B
:101F80000F9211242F933F938F939F93AF93BF93FF
:101F90008091000490910104A0910204B091030487
:101FA0003091FF0323E0230F2D3720F40196A11D6C
:101FB000B11D05C026E8230F0296A11DB11D209377
:101FC000FF038093000490930104A0930204B09354
:101FD00003048091040490910504A0910604B0913B
:101FE00007040196A11DB11D80930404909305047C
:101FF000A0930604B0930704BF91AF919F918F9176
:102000003F912F910F900FBE0F901F9018953FB7E3
:10201000F8948091040490910504A0910604B09175
:10202000070426B5A89B05C02F3F19F00196A11DF6
:10203000B11D3FBF6627782F892F9A2F620F711D20
:10204000811D911D42E0660F771F881F991F4A95D9
:10205000D1F70895CF92DF92EF92FF92CF93DF9363
:102060006B017C010E940710EB01C114D104E10453
:10207000F10479F00E9407106C1B7D0B683E7340E1
:10208000A0F381E0C81AD108E108F108C851DC4F7B
:10209000ECCFDF91CF91FF90EF90DF90CF9008953C
:1020A000789484B5826084BD84B5816084BD85B533
:1020B000826085BD85B5816085BDEEE6F0E08081FA
:1020C00081608083E1E8F0E010828081826080831B
:1020D000808181608083E0E8F0E08081816080839E
:1020E000E1EBF0E0808184608083E0EBF0E08081D0
:1020F00081608083EAE7F0E0808184608083808172
:102100008260808380818160808380818068808319
:102110001092C1000895833081F028F4813099F045
:102120008230A1F008958630A9F08730B9F084306C
:10213000D1F4809180008F7D03C0809180008F77E3
:1021400080938000089584B58F7702C084B58F7D19
:1021500084BD08958091B0008F7703C08091B00056
:102160008F7D8093B0000895CF93DF9390E0FC01C2
:10217000EF5AFC4F2491FC01EB59FC4F84918823CA
:1021800049F190E0880F991FFC01ED57FC4FA59194
:10219000B49187589C4FFC01C591D4919FB76111B0
:1021A00008C0F8948C91209582238C938881822397
:1021B0000AC0623051F4F8948C91322F3095832309
:1021C0008C938881822B888304C0F8948C91822B15
:1021D0008C939FBFDF91CF9108950F931F93CF935F
:1021E000DF931F92CDB7DEB7282F30E0F901E35C13
:1021F000FC4F8491F901EF5AFC4F1491F901EB590E
:10220000FC4F04910023C9F0882321F069830E94C8
:102210008B106981E02FF0E0EE0FFF1FE758FC4FB5
:10222000A591B4919FB7F8948C91611103C010955A
:10223000812301C0812B8C939FBF0F90DF91CF91A1
:102240001F910F910895A1E21A2EAA1BBB1BFD013D
:102250000DC0AA1FBB1FEE1FFF1FA217B307E40785
:10226000F50720F0A21BB30BE40BF50B661F771FDD
:10227000881F991F1A9469F76095709580959095BD
:102280009B01AC01BD01CF010895692796276927FD
:10229000782787277827089597FB10F81694000869
:1022A0000F93083098F00850232F342F452F562FC6
:1022B000672F782F892F902DF4CF059497958795C8
:1022C0007795679557954795379527950A95AAF776
:1022D0000F9108952A0D3B1D4C1D5D1D6E1D7F1D28
:1022E000801F911F0895EE0FFF1F0590F491E02DC0
:1022F0000994FB01DC0102C001900D924150504055
:10230000D8F708956817790768F4FB01DC01E40F3A
:10231000F51FA40FB51F02C002900E92415050400D
:10232000D8F708950C947911DC0101C06D934150E8
:102330005040E0F70895F999FECF92BD81BDF89A1B
:0A234000992780B50895F894FFCFA7
:10234A000D00982F8A4291443771CFFBC0B5A5DBA7
:10235A00B5E95BC25639F111F159A4823F92D55EB3
:10236A001CAB98AA07D8015B8312BE853124C37DB2
:10237A000C55745DBE72FEB1DE80A706DC9B74F15B
:10238A009BC1C1699BE48647BEEFC69DC10FCCA124
:10239A000C246F2CE92DAA84744ADCA9B05CDA8873
:1023AA00F97652513E986DC631A8C82703B0C77F47
:1023BA0059BFF30BE0C64791A7D55163CA066729EF
:1023CA002914850AB72738211B2EFC6D2C4D130DB5
:1023DA00385354730A65BB0A6A762EC9C281852CA2
:1023EA007292A1E8BFA24B661AA8708B4BC2A35186
:1023FA006CC719E892D1240699D685350EF470A0D7
:10240A006A1016C1A419086C371E4C774827B5BC48
:10241A00B034B30C1C394AAAD84E4FCA9C5BF36F2E
:10242A002E68EE828F746F63A5781478C8840802C8
:10243A00C78CFAFFBE90EB6C50A4F7A3F9BEF278F2
:10244A0071C667E6096A85AE67BB72F36E3C3AF5F8
:10245A004FA57F520E518C68059BABD9831F19CDAE
:10246A00E05B00000C04800000000000C10B4C0D72
:08247A00670B940B790BB60B04
:00000001FF
