:100000000C9446010C946E010C946E010C946E01DC
:100010000C946E010C946E010C946E010C946E01A4
:100020000C946E010C946E010C946E010C946E0194
:100030000C946E010C946E010C946E010C946E0184
:100040000C948C0E0C946E010C94CD0A0C94070B3E
:100050000C946E010C946E010C946E010C946E0164
:100060000C946E010C946E014461726B004C6967D4
:10007000687400205B75735D00456E6372797074FF
:10008000696F6E20746F74616C2074616B65733A74
:100090002000205B627974655D00416674657220A2
:1000A000656E6372797074696F6E206F66206D651E
:1000B000737361676520667265654D656D6F7279F2
:1000C00028293D2000205B627974655D00426566E9
:1000D0006F726520656E6372797074696F6E206FE0
:1000E00066206D65737361676520667265654D6531
:1000F0006D6F727928293D2000205B75735D004982
:100100006E696369616C69736174696F6E20746F85
:1001100074616C2074616B65733A20004372656191
:1001200074696E67206172726179206F6620646104
:100130007461004CB6D32678A46AD756B7C7E8DBFB
:10014000702024EECEBDC1AF0F7CF52AC6874713C1
:100150004630A8019546FDD8988069AFF7448BB129
:100160005BFFFFBED75C892211906B937198FD8E67
:100170004379A62108B44962251EF640B340C05118
:100180005A5E26AAC7B6E95D102FD65314440281E1
:10019000E6A1D8C8FBD3E7E6CDE121D60737C38770
:1001A0000DD5F4ED145A4505E9E3A9F8A3EFFCD900
:1001B000026F678A4C2A8D4239FAFF81F6718722D5
:1001C000619D6D0C38E5FD44EABEA4A9CFDE4B600D
:1001D0004BBBF670BCBFBEC67E9B28FA27A1EA8542
:1001E00030EFD4051D880439D0D4D9E599DBE6F881
:1001F0007CA21F6556ACC4442229F497FF2A43A76A
:100200002394AB39A093FCC3595B6592CC0C8F7DD2
:10021000F4EFFFD15D84854F7EA86FE0E62CFE14DD
:100220004301A3A111084E827E53F735F23ABDBBBC
:10023000D2D72A91D386EB0000000700020100000C
:100240000304060000000000000000010204081082
:10025000204080010204081020010204081020043C
:10026000040404040404040202020202020303035D
:1002700003030300000000250028002B00000000FD
:1002800000240027002A00003203C50B11241FBEE2
:10029000CFEFD8E0DEBFCDBF11E0A0E0B1E0E8E9EC
:1002A000F1E202C005900D92A433B107D9F712E034
:1002B000A4E3B1E001C01D92AC31B107E1F712E057
:1002C000CCE8D2E004C02297FE010E941610C83884
:1002D000D107C9F70E9429030C94CA100C9400009E
:1002E000CB010C948110CF93DF9300D0CDB7DEB754
:1002F00020911802309119022115310511F42CE1D9
:1003000032E0CE010196821B930B0F900F90DF918C
:10031000CF9108956CE171E085E691E00E94990C1F
:100320000E94D60E6093390170933A0180933B018D
:1003300090933C0120E030E080E090E06DE271E4D9
:1003400040913D0150913E012A3131053CF4DA01E2
:10035000A80FB91FE1E4E20FEC930EC0FA01E80F19
:10036000F91F6083E0913D01F0913E01E80FF91F14
:100370007183019620E030E001962F5F3F4F811599
:1003800044E09407ECF20895EF92FF920F931F93CD
:10039000CF93DF937C0107E411E0C0E0D0E0CE15FD
:1003A000DF0554F4BE0184E391E00E947001F8017E
:1003B00081938F012196F3CFDF91CF911F910F9100
:1003C000FF90EF900895FF920F931F93CF93DF93C9
:1003D0008C01CFE3D1E0CE018F539140801791077C
:1003E00044F40E946810F82E0E94D60E6F0D699397
:1003F000F2CFDF91CF911F910F91FF90089540E8C8
:1004000055E260E070E085E691E00E94420B85E6EF
:1004100091E00E94C30B8823D1F30E948A018AE0F5
:1004200090E00E94C40188E090E00E94E3010E94F5
:10043000D60E6093390170933A0180933B019093FB
:100440003C0141E551E06FE371E087E491E00E94F7
:10045000F5040E94D60E60933501709336018093A7
:100460003701909338016FEF70E085E691E00E94CC
:10047000590C4091350150913601609137017091CE
:1004800038018091390190913A01A0913B01B091DE
:100490003C01481B590B6A0B7B0B2AE030E085E6D8
:1004A00091E00E94560D69EF70E085E691E00E94B0
:1004B000990C61E0809104010C94830FEF92FF92FC
:1004C0000F931F93CF93DF93CDB7DEB760970FB62F
:1004D000F894DEBF0FBECDBF6DEC70E085E691E015
:1004E0000E94590C0E9473014AE050E0BC0185E66D
:1004F00091E00E944E0D65EC70E085E691E00E946F
:10050000990C0E94D60E6093390170933A01809342
:100510003B0190933C0100E010E081E591E00E94F6
:10052000D304E0913D01F0913E01E00FF11F908175
:10053000982790830F5F1F4F011584E0180769F714
:1005400020913D0130913E01E12C10E2F12E00E0BE
:1005500010E040E550E067E471E0CE0101960E94B2
:1005600068090E94D60E609335017093360180931E
:100570003701909338016AE970E085E691E00E94C6
:10058000590C0E9473014AE050E0BC0185E691E0FD
:100590000E944E0D62E970E085E691E00E94990CA0
:1005A00069E770E085E691E00E94590C40913501C1
:1005B0005091360160913701709138018091390175
:1005C00090913A01A0913B01B0913C01481B590B1D
:1005D0006A0B7B0B2AE030E085E691E00E94560D25
:1005E00063E770E085E691E00E94990C85E691E072
:1005F0000E94850C6DE670E085E691E00E94990C02
:1006000061E0809104010E94BC0F68EE73E080E01D
:1006100090E00E94F90E68E670E085E691E00E94A5
:10062000990C60E0809104010E94BC0F68EE73E0B9
:1006300080E090E00E94F90E60960FB6F894DEBF5D
:100640000FBECDBFDF91CF911F910F91FF90EF9023
:1006500008950E941F0F0E94FF010E945E0280E029
:1006600090E0089580E094E00E948A0E90933E010D
:1006700080933D010895CF93DF93CDB7DEB76097A8
:100680000FB6F894DEBF0FBECDBF90E1ECE0F1E015
:10069000DE01119601900D929A95E1F7982F9F70C7
:1006A000A1E0B0E0AC0FBD1FA90FB11D2C9190E1EE
:1006B000299F90011124E82FF0E084E0F595E7955B
:1006C0008A95E1F781E090E08C0F9D1FE80FF91FFC
:1006D0008081822B60960FB6F894DEBF0FBECDBF2F
:1006E000DF91CF9108952F923F924F925F926F9238
:1006F0007F928F929F92AF92BF92CF92DF92EF92B2
:10070000FF920F931F93CF93DF93DC011996AC9068
:100710001997B12CAA0CAB2CAA1CBB0812969C9161
:100720001297969513968C91139782958F708927BF
:1007300017969C911797892715969C9115979695D2
:10074000982718966C9118976695669569276A257B
:100750006170CD0170E0FC01208130E0A901440FFF
:10076000452F441F550B220F331F262B2193CF01FA
:100770007F5F7A3011F0642FEECF1C96BC901C97EF
:10078000CB2CD12C360113E0759467941A95E1F7C0
:100790001D962C911D9730E003E0359527950A951D
:1007A000E1F71E968C911E9790E09595879595950B
:1007B00087951F964C901F97512C7201F594E794E2
:1007C000F594E79456E0559447945A95E1F750967E
:1007D0004C91509750E063E0559547956A95E1F745
:1007E00051966C91519770E07595679575956795E1
:1007F00052963C915297832E912C8401F6E01595E8
:100800000795FA95E1F7D594C794CA24C624C22661
:10081000C826CE24C424C426C62695948794C8240A
:10082000C02653965C915397551F5527551F5C253D
:10083000FB2CF620142D1E21912F9F259527532F39
:10084000502395276222762D782344224622542D68
:10085000572763236F216122662548234B214023BC
:10086000642782238E2184216827B722BE206B252E
:1008700043224022642559276527617080E090E07B
:100880009D01280F391FF901428550E08A01000FB0
:10089000012F001F110B440F551F462B4287019655
:1008A0008A30910511F0602FEBCF19968C91199732
:1008B00085FB882780F916966C911697661F662728
:1008C000661F660F682B14968C9114978470682BA2
:1008D00012968C9112978170C82FF0E0DF2F93E071
:1008E000CC0FDD1F9A95E1F76C2B1C968C911C9711
:1008F00081FB222420F8312C24E0220C331C2A9581
:10090000E1F76229E62FE695E695E695F0E0ED5CE5
:10091000FE4FE49153968C91539790E0AC01440FB5
:10092000452F441F550B9C0156E0359527955A9548
:10093000E1F724271D963C911D97232774E0959598
:1009400087957A95E1F7282752968C915297829550
:10095000869586958370822750969C9150979695A0
:1009600098271E968C918295869587708927F0E04E
:10097000677002C0F595E7956A95E2F78E2781705A
:10098000DF91CF911F910F91FF90EF90DF90CF906B
:10099000BF90AF909F908F907F906F905F904F909F
:1009A0003F902F900895FF920F931F93CF93DF9363
:1009B0008C0128E0F22E80E0C82FD0E0D595C795B5
:1009C000C8010E947303882319F020E830E002C0B8
:1009D00020E030E0C22BD32B8C2FFA9469F7DF9103
:1009E000CF911F910F91FF900895CF92DF92EF92D8
:1009F000FF920F931F93CF93DF9300D0CDB7DEB755
:100A00006A017C0100E010E0F70181917F016983B8
:100A10007A830E943B03F601E00FF11F838B0150A4
:100A2000110969817A81063FFFEF1F0769F78B0182
:100A3000E12CF12CF80181918F010E943B03F6011A
:100A4000EE0DFF1D8187F1E0EF1AF10888EFE8163F
:100A50008FEFF80679F78FEFF6018183808310EA34
:100A6000C6010E947303F6019081982790839285B6
:100A7000982792871150A1F70F900F90DF91CF9197
:100A80001F910F91FF90EF90DF90CF9008958F927C
:100A90009F92AF92BF92EF92FF920F931F934B01E1
:100AA0005C0160957095809590956E217F218023E3
:100AB0009123282139214A215B21622B732B842B1E
:100AC000952B1F910F91FF90EF90BF90AF909F904B
:100AD0008F9008958F929F92AF92BF92EF92FF9264
:100AE0000F931F934B015C01C801B701609570958E
:100AF0008095909562237323842395238E209F20D5
:100B0000A022B122682979298A299B291F910F9156
:100B1000FF90EF90BF90AF909F908F900895EF92CD
:100B2000FF920F931F932E253F25402751272627FD
:100B3000372748275927CA01B9011F910F91FF9004
:100B4000EF900895EF92FF920F931F93E094F0942B
:100B500000951095E62AF72A082B192BE226F32692
:100B600004271527C801B7011F910F91FF90EF903F
:100B700008952F923F924F925F926F927F928F9241
:100B80009F92AF92BF92CF92DF92EF92FF920F931C
:100B90001F93CF93DF93CDB7DEB760970FB6F8946E
:100BA000DEBF0FBECDBF4B01322E202E28E0ECE180
:100BB000F1E0DE01119601900D922A95E1F7437064
:100BC000642F70E05C0124E0429FA00CB11C112452
:100BD000D5014D905D906D907C906B01BFEFCB1A6D
:100BE000DB0AE3E0CE22DD24CC0CDD1CCC0CDD1CCA
:100BF000C80ED91EFE013196EE0DF11DEE0DF11D50
:100C00009B012D5F3F4F23703327220F331F220F8D
:100C1000331F280F391FD901ED90FD900D911C91C4
:100C2000DB011296A370BB27AA0FBB1FAA0FBB1F25
:100C3000A80FB91F2D913D914D915C91D6016D91F9
:100C40007D918D919C910190F081E02D0995B4E00A
:100C50002B9EF0011124E95CFE4F259135914591C1
:100C60005491D401ED90FD900D911C91E40CF51C74
:100C7000061D171DE60EF71E081F191FE20EF31EB4
:100C8000041F151FB801A701032C04C0440F551FF2
:100C9000661F771F0A94D2F720E22319D801C701F3
:100CA00004C0B695A795979587952A95D2F7482BB6
:100CB000592B6A2B7B2BF60180819181A281B38114
:100CC000480F591F6A1F7B1FD5014D935D936D938C
:100CD0007C93139760960FB6F894DEBF0FBECDBF1E
:100CE000DF91CF911F910F91FF90EF90DF90CF9008
:100CF000BF90AF909F908F907F906F905F904F903C
:100D00003F902F900895FC01108A118A128A138A4D
:100D100041E053E265E477E6408351836283738365
:100D200049E85BEA6DEC7FEE448355836683778305
:100D30004EEF5CED6AEB78E94087518762877387F5
:100D400046E754E562E370E1448755876687778715
:100D500008952F923F924F925F926F927F928F925F
:100D60009F92AF92BF92CF92DF92EF92FF920F933A
:100D70001F93CF93DF93CDB7DEB7A2970FB6F8944A
:100D8000DEBF0FBECDBF1C017AA369A3FC01808129
:100D90009181A281B38189839A83AB83BC8384814F
:100DA0009581A681B7818D839E83AF83B887808527
:100DB0009185A285B38589879A87AB87BC8784850F
:100DC0009585A685B7858D879E87AF87B88B87E089
:100DD0008D8F8CE08E8F81E18F8F86E188A32B0130
:100DE000A12CB12C3E01FDE16F0E711C65E0F62EC9
:100DF000F60C43011A2D110F110F1619C12CD12C0D
:100E0000012F080DF40121914F014F2D4E1BB6010A
:100E1000640D751DE12CCE0101960E94B905F4E028
:100E2000CF0ED11C80E1C816D10451F79FEFA91A4B
:100E3000B90AE0E14E0E511CF4E0AF16B104C9F658
:100E400085E0898F89E08A8F8EE08B8F84E18C8F9B
:100E5000CC24C394D12C3E0189E1680E711C5FE063
:100E6000552E56184601530114E0452C4C0C042D08
:100E70000A0DF50121915F01B4016F707727660FAC
:100E8000771F660F771F89A19AA1680F791FEE243B
:100E9000E394412FCE0101960E94B905115095E0CF
:100EA000890E911C1111E3CFE4E0CE0ED11CF1E1CB
:100EB000CF16D104B9F684E08D8B8BE08E8B80E168
:100EC0008F8B87E1888F95E0C92ED12C3E0185E17B
:100ED000680E711C25E2522E56184601530114E08B
:100EE000452C4C18042D0A0DF50121915F01B40128
:100EF0006F707727660F771F660F771F89A19AA1FA
:100F0000680F791F82E0E82E412FCE0101960E94E2
:100F1000B905115093E0890E911C1111E3CFE4E063
:100F2000CE1AD108F5EFCF16FFEFDF06B1F686E057
:100F3000898B8AE08A8B8FE08B8B85E18C8BC12C2F
:100F4000D12C3E0181E1680E711CA0E35A2E561887
:100F50004601530114E0452C4C18042D0A0DF501EF
:100F600021915F01B4016F707727660F771F660FBD
:100F7000771F89A19AA1680F791FF3E0EF2E412F07
:100F8000CE0101960E94B905115097E0890E911C7F
:100F90001111E3CFE4E0CE1AD108F0EFCF16FFEF46
:100FA000DF06B1F6F10180819181A281B38149818F
:100FB0005A816B817C81840F951FA61FB71F808388
:100FC0009183A283B38384819581A681B7814D816A
:100FD0005E816F817885840F951FA61FB71F84835C
:100FE0009583A683B78380859185A285B38549853E
:100FF0005A856B857C85840F951FA61FB71F808738
:101000009187A287B38784859585A685B7854D8509
:101010005E856F857889840F951FA61FB71F84870B
:101020009587A687B78780899189A289B389019618
:10103000A11DB11D808B918BA28BB38BA2960FB695
:10104000F894DEBF0FBECDBFDF91CF911F910F91FE
:10105000FF90EF90DF90CF90BF90AF909F908F90D8
:101060007F906F905F904F903F902F9008956F9278
:101070007F928F929F92AF92BF92CF92DF92EF9228
:10108000FF920F931F93CF93DF93CDB7DEB7C0547A
:10109000D1090FB6F894DEBF0FBECDBF8C013B0166
:1010A0004A017A016B01E114E2E0FE0650F0B6015C
:1010B000C8010E94A90682E0F81A90E4C90ED11C6A
:1010C000F2CF5401AB2CBB24A694F6E0AA0CBB1CB7
:1010D000FA95E1F7A60CB71C6401F1E0DF22CE011E
:1010E00001967C0180E4F70111928A95E9F73601B7
:1010F000A3E076946794AA95E1F7A301B501C7012F
:101100000E947810F7E08F229924F701E60DF71D71
:101110008114910471F0D501A60DB71D80E890E00F
:1011200002C0959587958A94E2F79C91982B9083BD
:1011300002C080E8808388E0680E711C90E4691624
:101140007104A8F0B701C8010E94A906F8018089BE
:101150009189A289B3890197A109B109808B918BEB
:10116000A28BB38B88E3F70111928A95E9F7F80116
:1011700080899189A289B38979E0880F991FAA1F74
:10118000BB1F7A95D1F78C0D9D1DA11DB11D9C0132
:10119000AD0189AF3AAF4BAF5CAF1DAE1EAE1FAE17
:1011A00021961FAE2197B701C8010E94A906C05C15
:1011B000DF4F0FB6F894DEBF0FBECDBFDF91CF91EA
:1011C0001F910F91FF90EF90DF90CF90BF90AF9065
:1011D0009F908F907F906F90089520E1FB01DC013C
:1011E00001900D922A95E1F708958F929F92AF9208
:1011F000BF92CF92DF92EF92FF920F931F93CF9304
:10120000DF93CDB7DEB768970FB6F894DEBF0FBE99
:10121000CDBF6C017B01CE0101962D8B3E8B4F8B98
:10122000588F0E9483062D893E894F89588D490128
:101230005A018701811482E09806A104B104A0F04C
:10124000B801CE0101962D8B3E8B4F8B588F0E949B
:10125000A906005C1F4F82E0981AA108B108588DBA
:101260004F893E892D89E6CFDA01C9019170AA27FD
:10127000BB27BA01A901B9E07695679557954795BF
:10128000BA95D1F7BA0116E0660F771F1A95E1F704
:101290006E0D7F1DAC01CE0101960E943708BE0184
:1012A0006F5F7F4FC6010E94ED0868960FB6F894F5
:1012B000DEBF0FBECDBFDF91CF911F910F91FF9089
:1012C000EF90DF90CF90BF90AF909F908F90089558
:1012D0002F923F924F925F926F927F928F929F9246
:1012E000AF92BF92CF92DF92EF92FF920F931F9334
:1012F000CF93DF93CDB7DEB7C855D1090FB6F894B9
:10130000DEBF0FBECDBF5C014901170128018E0170
:101310000F5F1F4F80E4F80111928A95E9F7413081
:10132000F2E05F0738F09A0140E050E0C8010E9407
:10133000F5080AC0495F5F4FE3E056954795EA9587
:10134000E1F7C8010E9478106E0181E4C80ED11C3B
:10135000F80196E3808189278193EC15FD05D1F78B
:10136000C6010E948306B801C6010E94A906A20117
:10137000910134012115F2E03F074105510518F1B3
:10138000B301C60166962FAF669767963FAF679722
:1013900068964FAF689769965FAF69970E94A906F4
:1013A000E0E46E0E711C66962FAD669767963FADB2
:1013B000679768964FAD689769965FAD69973250A9
:1013C00041095109D7CFB201A10151706627772792
:1013D000D201C10129E0B695A795979587952A95E1
:1013E000D1F71C0136E0220C331C3A95E1F7280CAA
:1013F000391CB101C6010E94370848019AE6F40180
:101400008081892781934F01EC15FD05C1F7BF014C
:10141000C5010E94ED08C4010E948306B801C40101
:101420000E94A90640E850E0B501C4010E943708B7
:10143000B401C5010E94ED08C85ADF4F0FB6F894F9
:10144000DEBF0FBECDBFDF91CF911F910F91FF90F7
:10145000EF90DF90CF90BF90AF909F908F907F9054
:101460006F905F904F903F902F900895FC012485DE
:101470003585F901E05CFF4F80819181F901EE5BD8
:10148000FF4F20813181821B930B8F739927089521
:10149000FC0184859585FC01E05CFF4F4081518112
:1014A000FC01EE5BFF4F208131814217530741F071
:1014B0000190F081E02DE80FF91F808190E0089500
:1014C0008FEF9FEF0895FC0184859585FC01E05C1A
:1014D000FF4F40815181FC01EE5BFF4F2081318144
:1014E0004217530779F0A081B181A80FB91F8C91E1
:1014F000208131812F5F3F4F2F733327318320832A
:1015000090E008958FEF9FEF0895FC0181A188235B
:1015100029F0A489B5898C9186FFFBCF11A208958B
:10152000CF93DF93FC0126853785D901A05CBF4F9F
:101530008D919C91119701968F739927E901CE5B4C
:10154000DF4F4881598184179507D9F30D90BC91DD
:10155000A02DA20FB31F6C93A685B785A05CBF4FCB
:1015600011969C938E93A689B7892C9181E090E087
:10157000078C02C0880F991F0A94E2F7282B2C933E
:1015800081E081A30488F589E02D808180648083D7
:1015900081E090E0DF91CF9108951F920F920FB6F6
:1015A0000F9211242F933F934F938F939F93EF9319
:1015B000FF938091C00082FD1CC04091C6008091C5
:1015C0000B0290910C0201968F73992720910D02C6
:1015D00030910E028217930771F0E0910B02F091A7
:1015E0000C02E553FE4F408390930C0280930B0254
:1015F00002C08091C600FF91EF919F918F914F9112
:101600003F912F910F900FBE0F901F9018951F9232
:101610000F920FB60F9211242F933F938F939F93A6
:10162000EF93FF932091C7013091C8018091C901C8
:101630009091CA012817390731F48091C1008F7D3C
:101640008093C10014C0E091C901F091CA01E9572B
:10165000FE4F20818091C9019091CA0101968F733C
:1016600099279093CA018093C9012093C600FF91E6
:10167000EF919F918F913F912F910F900FBE0F90FF
:101680001F901895CF92DF92EF92FF92CF93DF9346
:10169000EC016A017B01411581EE58076105710576
:1016A000F9F0EC89FD8981E090E008A002C0880F84
:1016B000991F0A94E2F7808360E079E08DE390E07F
:1016C000A70196010E94F20F2150310941095109E9
:1016D0005695479537952795211580E1380798F05D
:1016E000EC89FD89108260E874E88EE190E0A70142
:1016F00096010E94F20F2150310941095109569576
:10170000479537952795E889F9893083EA89FB89D8
:10171000208319A2EE89FF89408181E090E09C013D
:101720000C8C02C0220F331F0A94E2F7422B408335
:10173000EE89FF8940819C010D8C02C0220F331F6E
:101740000A94E2F7422B4083EE89FF8940819C0195
:101750000E8C02C0220F331F0A94E2F7422B408303
:10176000EE89FF8920810F8C02C0880F991F0A948F
:10177000E2F7809582238083DF91CF91FF90EF90F5
:10178000DF90CF90089581E0089510926801109243
:10179000670188EE93E0A0E0B0E080936901909348
:1017A0006A01A0936B01B0936C0188E291E0909381
:1017B0006601809365018BEC91E0909372018093B8
:1017C000710187E891E0909374018093730185EC37
:1017D00090E0909376018093750184EC90E0909373
:1017E00078018093770180EC90E090937A01809368
:1017F000790181EC90E090937C0180937B0182ECF5
:1018000090E090937E0180937D0186EC90E0909330
:10181000800180937F0184E08093810183E0809345
:10182000820187E08093830185E08093840181E0D9
:10183000809385010895CF92DF92EF92FF920F93EC
:101840001F93CF93DF936C017A01EB01E60EF71E35
:1018500000E010E0CE15DF0561F06991D601ED9151
:10186000FC910190F081E02DC6010995080F191F28
:10187000F1CFC801DF91CF911F910F91FF90EF90B1
:10188000DF90CF9008956115710581F0DB010D9017
:101890000020E9F7AD0141505109461B570BDC010F
:1018A000ED91FC910280F381E02D099480E090E0BD
:1018B0000895EF92FF920F931F93CF93DF938C01C4
:1018C000FB01C0E0D0E064917F018FEFE81AF80AD5
:1018D000662361F0D801ED91FC910190F081E02D3B
:1018E000C8010995C80FD91FF701EDCFCE01DF91CF
:1018F000CF911F910F91FF90EF900895DC01ED9132
:10190000FC910190F081E02D09940F931F93CF93E8
:10191000DF93EC016DE00E947E0C8C016AE0CE0149
:101920000E947E0C800F911FDF91CF911F910F912C
:1019300008950F931F93CF93DF93EC010E94590CEE
:101940008C01CE010E94850C800F911FDF91CF91F9
:101950001F910F9108958F929F92AF92BF92CF9255
:10196000DF92EF92FF920F931F93CF93DF93CDB748
:10197000DEB7A1970FB6F894DEBF0FBECDBF7C01D6
:10198000C42EE52FCB01D22E19A221E02D1510F087
:101990002AE0D22E8E010F5D1F4F8D2C912CA12C91
:1019A000B12C6C2D7E2FA50194010E94F20F8C2D7D
:1019B000D29E80191124015011098A3014F4805DDF
:1019C00001C0895CF801808321153105410551056D
:1019D00021F0C22EE32FCA01E4CFB801C7010E9453
:1019E000430CA1960FB6F894DEBF0FBECDBFDF91BA
:1019F000CF911F910F91FF90EF90DF90CF90BF900C
:101A0000AF909F908F900895CF92DF92EF92FF92C8
:101A10000F931F93CF93DF93EC016A017B01211594
:101A2000310579F4E881F9810190F081E02D642F8E
:101A3000DF91CF911F910F91FF90EF90DF90CF90AA
:101A400009942A303105E9F477FF1AC06DE20E944B
:101A50007E0C8C0144275527BA014C195D096E098B
:101A60007F092AE0CE010E94AB0C800F911FDF910D
:101A7000CF911F910F91FF90EF90DF90CF9008953D
:101A80002AE0B701A601CE01DF91CF911F910F91FE
:101A9000FF90EF90DF90CF900C94AB0C9A01AB01CC
:101AA000662757FD6095762F0C94040D211531059E
:101AB00041F4DC01ED91FC910190F081E02D642F67
:101AC00009940C94AB0CCF93DF938230910510F402
:101AD00082E090E0E0911A02F0911B0220E030E0F9
:101AE000A0E0B0E0309739F14081518148175907A3
:101AF000B8F04817590771F482819381109729F043
:101B000013969C938E9312972CC090931B028093F4
:101B10001A0227C02115310531F04217530718F07A
:101B2000A901DB0101C0EF019A01BD01DF010280C3
:101B3000F381E02DD7CF21153105F9F0281B390BA2
:101B40002430310580F48A819B816115710521F073
:101B5000FB019383828304C090931B0280931A023B
:101B6000FE01329644C0FE01E20FF31F8193919370
:101B700022503109398328833AC0209118023091CC
:101B80001902232B41F4209108013091090130936F
:101B900019022093180220910601309107012115A6
:101BA000310541F42DB73EB740910A0150910B0128
:101BB000241B350BE0911802F0911902E217F3078C
:101BC000A0F42E1B3F0B2817390778F0AC014E5FAD
:101BD0005F4F2417350748F04E0F5F1F50931902CF
:101BE000409318028193919302C0E0E0F0E0CF01AE
:101BF000DF91CF910895CF93DF93009709F487C0C9
:101C0000FC01329713821282C0911A02D0911B02FA
:101C1000209781F420813181280F391F809118028B
:101C2000909119028217930779F5F0931902E093C6
:101C300018026DC0DE0120E030E0AE17BF0750F49F
:101C400012964D915C9113979D014115510509F133
:101C5000DA01F3CFB383A28340815181840F951FB2
:101C60008A179B0771F48D919C911197840F951F92
:101C700002969183808312968D919C911397938302
:101C800082832115310529F4F0931B02E0931A0297
:101C90003EC0D9011396FC93EE9312974D915D913E
:101CA000A40FB51FEA17FB0779F480819181840F97
:101CB000951F0296D90111969C938E9382819381F0
:101CC00013969C938E931297E0E0F0E08A819B81BB
:101CD000009719F0FE01EC01F9CFCE0102962881A0
:101CE0003981820F931F2091180230911902281711
:101CF000390769F4309729F410921B0210921A02E6
:101D000002C013821282D0931902C0931802DF918D
:101D1000CF9108950C94630D1F920F920FB60F92FE
:101D200011242F933F938F939F93AF93BF938091F1
:101D3000100290911102A0911202B0911302309101
:101D40000F0223E0230F2D3720F40196A11DB11DB2
:101D500005C026E8230F0296A11DB11D20930F0296
:101D60008093100290931102A0931202B093130279
:101D70008091140290911502A0911602B091170261
:101D80000196A11DB11D8093140290931502A0939A
:101D90001602B0931702BF91AF919F918F913F911F
:101DA0002F910F900FBE0F901F9018953FB7F8948A
:101DB0008091140290911502A0911602B091170221
:101DC00026B5A89B05C02F3F19F00196A11DB11D96
:101DD0003FBF6627782F892F9A2F620F711D811DB3
:101DE000911D42E0660F771F881F991F4A95D1F712
:101DF0000895CF92DF92EF92FF92CF93DF936B0122
:101E00007C010E94D60EEB01C114D104E104F1045F
:101E100079F00E94D60E6C1B7D0B683E7340A0F3D8
:101E200081E0C81AD108E108F108C851DC4FECCFB5
:101E3000DF91CF91FF90EF90DF90CF90089578944D
:101E400084B5826084BD84B5816084BD85B58260BF
:101E500085BD85B5816085BDEEE6F0E0808181605D
:101E60008083E1E8F0E0108280818260808380815D
:101E700081608083E0E8F0E0808181608083E1EB35
:101E8000F0E0808184608083E0EBF0E0808181601D
:101E90008083EAE7F0E080818460808380818260D3
:101EA00080838081816080838081806880831092BC
:101EB000C1000895833081F028F4813099F0823098
:101EC000A1F008958630A9F08730B9F08430D1F4BC
:101ED000809180008F7D03C0809180008F778093F8
:101EE0008000089584B58F7702C084B58F7D84BD4E
:101EF00008958091B0008F7703C08091B0008F7DEE
:101F00008093B0000895CF93DF9390E0FC01E55BF0
:101F1000FD4F2491FC01E15AFD4F8491882349F142
:101F200090E0880F991FFC01E358FD4FA591B491F3
:101F30008D589D4FFC01C591D4919FB7611108C088
:101F4000F8948C91209582238C93888182230AC0F7
:101F5000623051F4F8948C91322F309583238C9316
:101F60008881822B888304C0F8948C91822B8C9377
:101F70009FBFDF91CF9108950F931F93CF93DF936E
:101F80001F92CDB7DEB7282F30E0F901E95CFD4F95
:101F90008491F901E55BFD4F1491F901E15AFD4F80
:101FA00004910023C9F0882321F069830E945A0F0D
:101FB0006981E02FF0E0EE0FFF1FED58FD4FA59176
:101FC000B4919FB7F8948C91611103C0109581234F
:101FD00001C0812B8C939FBF0F90DF91CF911F91F8
:101FE0000F910895A1E21A2EAA1BBB1BFD010DC083
:101FF000AA1FBB1FEE1FFF1FA217B307E407F507B9
:1020000020F0A21BB30BE40BF50B661F771F881F94
:10201000991F1A9469F760957095809590959B012A
:10202000AC01BD01CF010895EE0FFF1F0590F491A3
:10203000E02D09948F929F92AF92BF92CF92DF9240
:10204000EF92FF92CF93DF93EC01688179818A81CF
:102050009B81611571058105910521F464E279ED9B
:102060008BE597E02DE133EF41E050E00E949C10BA
:1020700049015A019B01AC01A7EAB1E40E94891011
:102080006B017C01ACEEB4EFA50194010E949710A6
:10209000C60ED71EE81EF91EF7FE06C081E0C81A5C
:1020A000D108E10880E8F80AC882D982EA82FB8276
:1020B000C6019F77DF91CF91FF90EF90DF90CF9097
:1020C000BF90AF909F908F9008950E941A1008952E
:1020D00080E091E00E941A100895A0E0B0E08093A3
:1020E000000190930101A0930201B09303010895B0
:1020F000FB01DC0102C001900D9241505040D8F725
:102100000895F999FECF92BD81BDF89A992780B5BF
:1021100008950E94BB10A59F900DB49F900DA49FA1
:10212000800D911D11240895B7FF0C9489100E9411
:102130008910821B930B0895052E97FB1EF40094C3
:102140000E94B31057FD07D00E94F20F07FC03D086
:102150004EF40C94B31050954095309521953F4F17
:102160004F4F5F4F089590958095709561957F4F83
:102170008F4F9F4F0895A29FB001B39FC001A39FAF
:10218000700D811D1124911DB29F700D811D1124B0
:08219000911D0895F894FFCFA2
:10219800010000000D0000001C0280000008040C73
:1021A800020A060E0109050D030B070F47056A050C
:1021B8008F05A20500000000900A1B0C360A630A6E
:0421C800480A850A32
:00000001FF
