:100000000C94CC000C94F4000C94F4000C94F400C8
:100010000C94F4000C94F4000C94F4000C94F40090
:100020000C94F4000C94F4000C94F4000C94F40080
:100030000C94F4000C94F4000C94F4000C94F40070
:100040000C94A30C0C94F4000C94E4080C941E097A
:100050000C94F4000C94F4000C94F4000C94F40050
:100060000C94F4000C94F4004461726B004C6967CA
:10007000687400205B75735D00456E6372797074FF
:10008000696F6E20746F74616C2074616B65733A74
:100090002000205B627974655D00416674657220A2
:1000A000656E6372797074696F6E206F66206D651E
:1000B000737361676520667265654D656D6F7279F2
:1000C00028293D2000205B627974655D00426566E9
:1000D0006F726520656E6372797074696F6E206FE0
:1000E00066206D65737361676520667265654D6531
:1000F0006D6F727928293D2000205B75735D004982
:100100006E696369616C69736174696F6E20746F85
:1001100074616C2074616B65733A20004372656191
:1001200074696E67206172726179206F6620646104
:100130007461000C05060B09000A0D030E0F08047C
:10014000070102000000070002010000030406008E
:10015000000000000000000102040810204080019F
:1001600002040810200102040810200404040404FE
:100170000404040202020202020303030303030055
:10018000000000250028002B0000000000240027AC
:10019000002A00009A02DC0911241FBECFEFD8E02C
:1001A000DEBFCDBF11E0A0E0B1E0ECECFCE102C0AD
:1001B00005900D92A033B107D9F712E0A0E3B1E0AA
:1001C00001C01D92A231B107E1F711E0C8E9D1E009
:1001D00004C02297FE010E943D0EC439D107C9F721
:1001E0000E9491020C94640E0C940000CB010C94BC
:1001F0005C0ECF93DF9300D0CDB7DEB720910E0217
:1002000030910F022115310511F422E132E0CE01C7
:100210000196821B930B0F900F90DF91CF91089561
:100220006CE171E08BE591E00E94B00A0E94ED0C58
:1002300060933501709336018093370190933801B4
:1002400020E030E080E090E06DE271E440913B011D
:1002500050913C012A3131053CF4DA01A80FB91F55
:10026000E1E4E20FEC930EC0FA01E80FF91F60839E
:10027000E0913B01F0913C01E80FF91F7183019679
:1002800020E030E001962F5F3F4F811544E0940756
:10029000ECF20895EF92FF920F931F93CF93DF93A9
:1002A0007C0101E511E0C0E0D0E0CE15DF0554F49B
:1002B000BE0180E391E00E94F600F80181938F0176
:1002C0002196F3CFDF91CF911F910F91FF90EF9087
:1002D000089540E855E260E070E08BE591E00E940F
:1002E00059098BE591E00E94DA098823D1F30E9435
:1002F00010018AE090E00E944A010E94ED0C609398
:1003000035017093360180933701909338014DE3A6
:1003100051E06AE081E591E00E947B070E94ED0CCC
:1003200060933101709332018093330190933401D3
:100330006FEF70E08BE591E00E94700A409131010F
:1003400050913201609133017091340180913501F7
:1003500090913601A0913701B0913801481B590B9B
:100360006A0B7B0B2AE030E08BE591E00E946D0B7D
:1003700069EF70E08BE591E00E94B00A61E0809146
:1003800000010C949A0DEF92FF920F931F93CF935D
:10039000DF93CDB7DEB764970FB6F894DEBF0FBE1C
:1003A000CDBF6DEC70E08BE591E00E94700A0E9479
:1003B000F9004AE050E0BC018BE591E00E94650B3A
:1003C00065EC70E08BE591E00E94B00A0E94ED0CB4
:1003D0006093350170933601809337019093380113
:1003E00000E810E06DE371E08091390190913A01ED
:1003F0000E949A078091390190913A010896909352
:100400003A0180933901015011090115110551F785
:1004100020913B0130913C01E12C10E2F12E00E0F3
:1004200010E040E550E061E571E0CE0101960E94E8
:1004300057060E94ED0C6093310170933201809356
:100440003301909334016AE970E08BE591E00E94FA
:10045000700A0E94F9004AE050E0BC018BE591E08F
:100460000E94650B62E970E08BE591E00E94B00AA2
:1004700069E770E08BE591E00E94700A40913101DC
:1004800050913201609133017091340180913501B6
:1004900090913601A0913701B0913801481B590B5A
:1004A0006A0B7B0B2AE030E08BE591E00E946D0B3C
:1004B00063E770E08BE591E00E94B00A8BE591E084
:1004C0000E949C0A6DE670E08BE591E00E94B00A04
:1004D00061E0809100010E94D30D68EE73E080E03E
:1004E00090E00E94100D68E670E08BE591E00E94BC
:1004F000B00A60E0809100010E94D30D68EE73E0C5
:1005000080E090E00E94100D64960FB6F894DEBF74
:100510000FBECDBFDF91CF911F910F91FF90EF9054
:1005200008950E94360D0E9469010E94C30180E077
:1005300090E0089580E094E00E94A10C90933C012B
:1005400080933B0190933A018093390108958F92F3
:100550009F92AF92BF92EF92FF920F931F934B0126
:100560005C0160957095809590956E217F21802328
:100570009123282139214A215B216227732784276F
:1005800095271F910F91FF90EF90BF90AF909F9094
:100590008F9008958F929F92AF92BF92CF92DF92E9
:1005A000EF92FF920F931F934B015C01C801B701BB
:1005B0006227732784279527682179218A219B2127
:1005C00059016A01AE20BF20C022D1226A257B25B5
:1005D0008C259D251F910F91FF90EF90DF90CF907C
:1005E000BF90AF909F908F900895EF92FF920F93DE
:1005F0001F932E253F254027512726273727482799
:100600005927CA01B9011F910F91FF90EF900895EA
:10061000FC0141E053E265E477E640835183628365
:10062000738349E85BEA6DEC7FEE44835583668310
:1006300077834EEF5CED6AEB78E9408751876287FC
:10064000738746E754E562E370E144875587668720
:10065000778740EF51EE62ED73EC408B518B628BEC
:10066000738B148A158A168A178A108E118E128E31
:10067000138E08950E942B0E08952F923F924F9251
:100680005F926F927F928F929F92AF92BF92CF9222
:10069000DF92EF92FF920F931F93CF93DF93CDB72B
:1006A000DEB7C257D1090FB6F894DEBF0FBECDBF7B
:1006B0006C0188E0E8E0F1E0DE01AB59BF4F01904A
:1006C0000D928A95E1F780E1E0E1F1E0DE01AB5ABD
:1006D000BF4F01900D928A95E1F78B019E012F5F2C
:1006E0003F4F59017E0131E4E30EF11CF8016191A5
:1006F0007191819191918F010E943A03F50161936B
:100700007193819391935F01EE15FF0579F784E171
:10071000F601DE01AF5BBF4F01900D928A95E1F7C4
:10072000AF961FAEAF97E1961FAEE197AE961FAEA4
:10073000AE9721E430E02C0F3D1F2C5F3F4FE39636
:100740003FAF2EAFE397AE963FADAE973F70E096CA
:100750003FAFE097AE964FADAE97403108F45DC025
:10076000232F30E0D9011D96AF70BB27AA0FBB1F06
:10077000AA0FBB1F81E090E08C0F9D1FA80FB91F2F
:10078000F9013896EF70FF27EE0FFF1FEE0FFF1FE6
:10079000E80FF91F8D919D910D90BC91A02D408186
:1007A00051816281738184279527A627B72701E0AD
:1007B00010E00C0F1D1FE096FFADE097E4E0FE9FF8
:1007C000000D111D1124F801408151816281738156
:1007D00084279527A627B7272E5F3F4F2F703327F3
:1007E000220F331F220F331F41E050E04C0F5D1FDB
:1007F000240F351FF9014081518162817381842763
:100800009527A627B727880F991FAA1FBB1F811DF1
:10081000F80180839183A283B38325968CAC9DAC31
:10082000AEACBFAC2597D501C4012BE1B695A79519
:10083000979587952A95D1F735E0880C991CAA1CC5
:10084000BB1C3A95D1F7882A992AAA2ABB2AE19695
:10085000FFADE1972F2E312C29964CAC5DAC6EACE0
:100860007FAC2997F101EE0FFF1F25E630E02C0F3A
:100870003D1FE20FF31F6196ECACFDAC0EAD1FAD5A
:1008800061972D962CAD3DAD4EAD5FAD2D9701908E
:10089000F081E02DC301B201099565960CAD1DAD47
:1008A0002EAD3FAD6597800E911EA21EB31EF101C5
:1008B000EE0FFF1FEE0FFF1F45E550E04C0F5D1FD1
:1008C000E40FF51F0081118122813381800E911E7A
:1008D000A21EB31EE1E0F0E0EC0FFD1FE0962FAD8D
:1008E000E09754E0259FE00DF11D11240081118156
:1008F00022813381800E911EA21EB31E860E971E8A
:10090000A81EB91E40E150E0BE016F5B7F4FE39629
:100910008EAD9FADE3970E944A0E25968CAE9DAE9C
:10092000AEAEBFAE2597D301C20162E0B695A795E2
:10093000979587956A95D1F77EE1440C551C661C06
:10094000771C7A95D1F784299529A629B7292D9660
:100950008CAF9DAFAEAFBFAF2D97AF963FADAF970A
:100960003F5FAF963FAFAF97343151F4C10101966D
:10097000482F4370E1964FAFE197AF961FAEAF9708
:10098000AE965FADAE975F5FAE965FAFAE975035F8
:1009900009F0D9CECE018F5B9F4F7C0196018C016F
:1009A0000C5E1F4FF70141915191619171917F014F
:1009B000F90180819181A281B381840F951FA61FC7
:1009C000B71F81939193A193B1939F01E016F10614
:1009D00049F7F6012489358946895789608D718DDB
:1009E000828D938D3E5F4F4F5F4F6F4F7F4F8F4F85
:1009F0009F4F248B358B468B578B608F718F828FE7
:100A0000938FCE58DF4F0FB6F894DEBF0FBECDBF29
:100A1000DF91CF911F910F91FF90EF90DF90CF90DA
:100A2000BF90AF909F908F907F906F905F904F900E
:100A30003F902F9008952F923F924F925F926F9226
:100A40007F928F929F92AF92BF92CF92DF92EF925E
:100A5000FF920F931F93CF93DF93CDB7DEB7C054B0
:100A6000D1090FB6F894DEBF0FBECDBF4C011B01FC
:100A70002A018A013B010115E2E01E0748F0B3019B
:100A8000C4010E943D03125080E4680E711CF3CF34
:100A90003201F1E07F22930140E050E060E070E03D
:100AA00080E090E0F401A488B588C688D788E08CFF
:100AB000F18C028D138D0E94320E248B358B468B68
:100AC000578B608F718F828F938F50E4F52E8E013C
:100AD0000F5F1F4FF8018F2D11928A95E9F7A3013F
:100AE000495F5F4F63E0569547956A95E1F7B2011C
:100AF000672F77276695F6E0660F771FFA95E1F77F
:100B0000620D731DC8010E94410EF301A3E0F6952A
:100B1000E795AA95E1F7E00FF11F87E048225524F9
:100B200080E890E002C0959587954A94E2F790811D
:100B3000982B9083E0EC6E16E1E07E0600F1B801A0
:100B4000C4010E943D03F4012489358946895789EF
:100B5000608D718D828D938D3250410951096109EB
:100B6000710981099109248B358B468B578B608FD6
:100B7000718F828F938FF8011192FA94E9F7D40163
:100B80005C96FE01F996CE018F5B9F4F2E912193CB
:100B9000E817F907D9F7B801C4010E943D03C05C0A
:100BA000DF4F0FB6F894DEBF0FBECDBFDF91CF9100
:100BB0001F910F91FF90EF90DF90CF90BF90AF907B
:100BC0009F908F907F906F905F904F903F902F906D
:100BD0000895FF920F931F93CF93DF938B01EC0146
:100BE000F12CF80161917191819191918F010E9495
:100BF0003A036993799389939993F394F5E0FF12FB
:100C0000F0CFDF91CF911F910F91FF900895EF9258
:100C1000FF920F931F93CF93DF93CDB7DEB7A097CB
:100C20000FB6F894DEBF0FBECDBF7C018B01CE01A5
:100C300001962D8F3E8F4F8F58A30E9408032D8D54
:100C40003E8D4F8D58A1DA01C90188279E7F892BDF
:100C50008A2B8B2B99F0B801CE0101962D8F3E8FF8
:100C60004F8F58A30E943D03005C1F4F2D8D3E8D7A
:100C70004F8D58A1325041095109E5CFA901B80162
:100C8000CE0101960E941B05BE016F5F7F4FC70119
:100C90000E94E905A0960FB6F894DEBF0FBECDBF47
:100CA000DF91CF911F910F91FF90EF9008952F92B8
:100CB0003F924F925F926F927F928F929F92AF92EC
:100CC000BF92CF92DF92EF92FF920F931F93CF9339
:100CD000DF93CDB7DEB7C056D1090FB6F894DEBFAB
:100CE0000FBECDBF5C014901170128018E010F5FC6
:100CF0001F4F80E4F80111928A95E9F74130F2E044
:100D00005F0738F09A0140E050E0C8010E940706F2
:100D10000AC0495F5F4FE3E056954795EA95E1F7D2
:100D2000C8010E94410E6E0181E4C80ED11CF80179
:100D300096E3808189278193EC15FD05D1F7C601E3
:100D40000E940803B801C6010E943D03A20191015F
:100D500034012115F2E03F074105510518F1B301B7
:100D6000C6016E962FAF6E976F963FAF6F97A096A6
:100D70004FAFA097A1965FAFA1970E943D03E0E41B
:100D80006E0E711C6E962FAD6E976F963FAD6F977E
:100D9000A0964FADA097A1965FADA19732504109A3
:100DA0005109D7CFB201A101517066277727D2012F
:100DB000C10139E0B695A795979587953A95D1F7F2
:100DC0001C0166E0220C331C6A95E1F7280C391CE3
:100DD000B101C6010E941B0548019AE6F401808119
:100DE000892781934F01EC15FD05C1F7BF01C501AE
:100DF0000E94E905C4010E940803B801C4010E94D1
:100E00003D0340EA50E0B501C4010E941B05B40156
:100E1000C5010E94E905C05ADF4F0FB6F894DEBF46
:100E20000FBECDBFDF91CF911F910F91FF90EF903B
:100E3000DF90CF90BF90AF909F908F907F906F90FA
:100E40005F904F903F902F900895FC01DB01480F79
:100E5000591FE417F50729F09D9180818927819317
:100E6000F8CF08950F931F93CF93DF931F92CDB7C1
:100E7000DEB78C01FC0170855185872F389644E0E0
:100E800032912291338322834150D1F7F80170834C
:100E9000518321852295220F207E908153E09695E3
:100EA00087955A95E1F7292B2193282F207E4F5FB4
:100EB0004A3099F7F801808169830E949F07807FFB
:100EC000F80190819F70892B8083698170E0CB014C
:100ED0009695982F8827979587959085982790873E
:100EE000759567958781862787830F90DF91CF91CE
:100EF0001F910F9108951F93CF93DF932AE0FC0178
:100F0000DA0101900D922A95E1F7EA012A962AE08A
:100F1000FC01DE0101900D922A95E1F711E0612FAD
:100F2000CE010E9432071F5F1032C9F7DF91CF91C7
:100F30001F91089522E337E04AE00C94DA07E82F86
:100F4000F0E094E0F595E7959A95E1F7ED5CFE4FBA
:100F500094918F70E82FF0E0ED5CFE4FE49120E17A
:100F6000929FC00111248E2B0895CF9320E0C0E002
:100F700030E0DC01A20FB11D5C91550F5C93FB01C9
:100F8000EC0FF11D4081441F4427441F452B4C9317
:100F90004081440F40832E5F2770432F47704730B6
:100FA00009F4CF5F3F3109F42F5F3F5F303409F719
:100FB000CF9108957F928F929F92AF92BF92CF92DE
:100FC000DF92EF92FF920F931F93CF93DF93CDB7F2
:100FD000DEB729970FB6F894DEBF0FBECDBF8C01E8
:100FE0004901ADB6BEB650E08DB79EB7841B950BD8
:100FF0000FB6F8949EBF0FBE8DBFEDB7FEB731960A
:101000007F01CF010E94410E48E050E0B701C801C6
:101010000E9425077724739497E0C92ED12CF801FC
:10102000EC0DFD1D808199870E949F07E1E0F0E0B3
:10103000EC0FFD1FEC0DFD1D80839985915068F725
:10104000BE016F5F7F4FC8010E94B507672DC701C2
:10105000F401099548E050E0B701C8010E94250756
:101060007394F0E27F12D8CF0FB6F894BEBE0FBED5
:10107000ADBE29960FB6F894DEBF0FBECDBFDF918F
:10108000CF911F910F91FF90EF90DF90CF90BF9085
:10109000AF909F908F907F900895FC0124853585B7
:1010A000F901E05CFF4F80819181F901EE5BFF4F18
:1010B00020813181821B930B8F7399270895FC0146
:1010C00084859585FC01E05CFF4F40815181FC01E6
:1010D000EE5BFF4F208131814217530741F00190B1
:1010E000F081E02DE80FF91F808190E008958FEFE7
:1010F0009FEF0895FC0184859585FC01E05CFF4F1E
:1011000040815181FC01EE5BFF4F2081318142170C
:10111000530779F0A081B181A80FB91F8C9120816C
:1011200031812F5F3F4F2F7333273183208390E02E
:1011300008958FEF9FEF0895FC0181A1882329F086
:10114000A489B5898C9186FFFBCF11A20895CF9316
:10115000DF93FC0126853785D901A05CBF4F8D91B7
:101160009C91119701968F739927E901CE5BDF4F10
:101170004881598184179507D9F30D90BC91A02D12
:10118000A20FB31F6C93A685B785A05CBF4F1196C5
:101190009C938E93A689B7892C9181E090E0078C6F
:1011A00002C0880F991F0A94E2F7282B2C9381E044
:1011B00081A30488F589E02D80818064808381E0AB
:1011C00090E0DF91CF9108951F920F920FB60F928A
:1011D00011242F933F934F938F939F93EF93FF93FC
:1011E0008091C00082FD1CC04091C6008091010228
:1011F0009091020201968F739927209103023091FA
:1012000004028217930771F0E0910102F09102024B
:10121000EF53FE4F4083909302028093010202C07D
:101220008091C600FF91EF919F918F914F913F91D7
:101230002F910F900FBE0F901F9018951F920F9235
:101240000FB60F9211242F933F938F939F93EF9399
:10125000FF932091BD013091BE018091BF0190911B
:10126000C0012817390731F48091C1008F7D809328
:10127000C10014C0E091BF01F091C001E358FE4FDE
:1012800020818091BF019091C00101968F739927B1
:101290009093C0018093BF012093C600FF91EF910E
:1012A0009F918F913F912F910F900FBE0F901F90A4
:1012B0001895CF92DF92EF92FF92CF93DF93EC01DC
:1012C0006A017B01411581EE580761057105F9F04E
:1012D000EC89FD8981E090E008A002C0880F991F89
:1012E0000A94E2F7808360E079E08DE390E0A70163
:1012F00096010E94090E2150310941095109569564
:10130000479537952795211580E1380798F0EC89A6
:10131000FD89108260E874E88EE190E0A7019601F3
:101320000E94090E215031094109510956954795EE
:1013300037952795E889F9893083EA89FB892083E5
:1013400019A2EE89FF89408181E090E09C010C8C1C
:1013500002C0220F331F0A94E2F7422B4083EE892A
:10136000FF8940819C010D8C02C0220F331F0A941B
:10137000E2F7422B4083EE89FF8940819C010E8C6D
:1013800002C0220F331F0A94E2F7422B4083EE89FA
:10139000FF8920810F8C02C0880F991F0A94E2F701
:1013A000809582238083DF91CF91FF90EF90DF9033
:1013B000CF90089581E0089510925E0110925D0132
:1013C00088EE93E0A0E0B0E080935F01909360012D
:1013D000A0936101B093620184E291E090935C017B
:1013E00080935B0181EC91E09093680180936701A9
:1013F0008DE791E090936A018093690185EC90E01C
:1014000090936C0180936B0184EC90E090936E015B
:1014100080936D0180EC90E09093700180936F0158
:1014200081EC90E0909372018093710182EC90E0E6
:10143000909374018093730186EC90E09093760111
:101440008093750184E08093770183E08093780135
:1014500087E08093790185E080937A0181E0809331
:101460007B010895CF92DF92EF92FF920F931F932B
:10147000CF93DF936C017A01EB01E60EF71E00E0DB
:1014800010E0CE15DF0561F06991D601ED91FC9178
:101490000190F081E02DC6010995080F191FF1CFC9
:1014A000C801DF91CF911F910F91FF90EF90DF90D6
:1014B000CF9008956115710581F0DB010D9000203A
:1014C000E9F7AD0141505109461B570BDC01ED9185
:1014D000FC910280F381E02D099480E090E0089572
:1014E000EF92FF920F931F93CF93DF938C01FB0139
:1014F000C0E0D0E064917F018FEFE81AF80A66231C
:1015000061F0D801ED91FC910190F081E02DC801CE
:101510000995C80FD91FF701EDCFCE01DF91CF910B
:101520001F910F91FF90EF900895DC01ED91FC91D8
:101530000190F081E02D09940F931F93CF93DF93D7
:10154000EC016DE00E94950A8C016AE0CE010E94D8
:10155000950A800F911FDF91CF911F910F910895F0
:101560000F931F93CF93DF93EC010E94700A8C01BD
:10157000CE010E949C0A800F911FDF91CF911F9195
:101580000F9108958F929F92AF92BF92CF92DF9268
:10159000EF92FF920F931F93CF93DF93CDB7DEB7F8
:1015A000A1970FB6F894DEBF0FBECDBF7C01C42E4D
:1015B000E52FCB01D22E19A221E02D1510F02AE043
:1015C000D22E8E010F5D1F4F8D2C912CA12CB12C92
:1015D0006C2D7E2FA50194010E94090E8C2DD29EA8
:1015E00080191124015011098A3014F4805D01C062
:1015F000895CF8018083211531054105510521F0F1
:10160000C22EE32FCA01E4CFB801C7010E945A0AD3
:10161000A1960FB6F894DEBF0FBECDBFDF91CF917C
:101620001F910F91FF90EF90DF90CF90BF90AF9000
:101630009F908F900895CF92DF92EF92FF920F9339
:101640001F93CF93DF93EC016A017B0121153105D4
:1016500079F4E881F9810190F081E02D642FDF9128
:10166000CF911F910F91FF90EF90DF90CF90099451
:101670002A303105E9F477FF1AC06DE20E94950A1D
:101680008C0144275527BA014C195D096E097F0961
:101690002AE0CE010E94C20A800F911FDF91CF91F4
:1016A0001F910F91FF90EF90DF90CF9008952AE067
:1016B000B701A601CE01DF91CF911F910F91FF904D
:1016C000EF90DF90CF900C94C20A9A01AB0166278D
:1016D00057FD6095762F0C941B0B2115310541F4B5
:1016E000DC01ED91FC910190F081E02D642F0994D3
:1016F0000C94C20ACF93DF938230910510F482E0FC
:1017000090E0E0911002F091110220E030E0A0E0C2
:10171000B0E0309739F14081518148175907B8F04E
:101720004817590771F482819381109729F0139615
:101730009C938E9312972CC0909311028093100269
:1017400027C02115310531F04217530718F0A901C0
:10175000DB0101C0EF019A01BD01DF010280F381CD
:10176000E02DD7CF21153105F9F0281B390B243096
:10177000310580F48A819B816115710521F0FB019F
:101780009383828304C09093110280931002FE0120
:10179000329644C0FE01E20FF31F819391932250D1
:1017A0003109398328833AC020910E0230910F020B
:1017B000232B41F4209104013091050130930F0255
:1017C00020930E0220910201309103012115310571
:1017D00041F42DB73EB74091060150910701241BFB
:1017E000350BE0910E02F0910F02E217F307A0F41F
:1017F0002E1B3F0B2817390778F0AC014E5F5F4F67
:101800002417350748F04E0F5F1F50930F02409387
:101810000E028193919302C0E0E0F0E0CF01DF91EE
:10182000CF910895CF93DF93009709F487C0FC010F
:10183000329713821282C0911002D0911102209728
:1018400081F420813181280F391F80910E029091FF
:101850000F028217930779F5F0930F02E0930E02BF
:101860006DC0DE0120E030E0AE17BF0750F41296E5
:101870004D915C9113979D014115510509F1DA01D4
:10188000F3CFB383A28340815181840F951F8A17C0
:101890009B0771F48D919C911197840F951F02966F
:1018A0009183808312968D919C9113979383828369
:1018B0002115310529F4F0931102E09310023EC086
:1018C000D9011396FC93EE9312974D915D91A40F5D
:1018D000B51FEA17FB0779F480819181840F951F6A
:1018E0000296D90111969C938E93828193811396CF
:1018F0009C938E931297E0E0F0E08A819B810097A1
:1019000019F0FE01EC01F9CFCE0102962881398150
:10191000820F931F20910E0230910F022817390772
:1019200069F4309729F4109211021092100202C04B
:1019300013821282D0930F02C0930E02DF91CF91D7
:1019400008950C947A0B1F920F920FB60F921124E8
:101950002F933F938F939F93AF93BF9380910602F2
:1019600090910702A0910802B091090230910502FE
:1019700023E0230F2D3720F40196A11DB11D05C0D2
:1019800026E8230F0296A11DB11D20930502809326
:10199000060290930702A0930802B0930902809177
:1019A0000A0290910B02A0910C02B0910D020196D7
:1019B000A11DB11D80930A0290930B02A0930C020B
:1019C000B0930D02BF91AF919F918F913F912F9155
:1019D0000F900FBE0F901F9018953FB7F89480910D
:1019E0000A0290910B02A0910C02B0910D0226B553
:1019F000A89B05C02F3F19F00196A11DB11D3FBF47
:101A00006627782F892F9A2F620F711D811D911DD6
:101A100042E0660F771F881F991F4A95D1F70895F6
:101A2000CF92DF92EF92FF92CF93DF936B017C0115
:101A30000E94ED0CEB01C114D104E104F10479F032
:101A40000E94ED0C6C1B7D0B683E7340A0F381E09F
:101A5000C81AD108E108F108C851DC4FECCFDF917A
:101A6000CF91FF90EF90DF90CF900895789484B558
:101A7000826084BD84B5816084BD85B5826085BD8A
:101A800085B5816085BDEEE6F0E080818160808370
:101A9000E1E8F0E010828081826080838081816053
:101AA0008083E0E8F0E0808181608083E1EBF0E01A
:101AB000808184608083E0EBF0E0808181608083BE
:101AC000EAE7F0E0808184608083808182608083A7
:101AD0008081816080838081806880831092C100D2
:101AE0000895833081F028F4813099F08230A1F09C
:101AF00008958630A9F08730B9F08430D1F4809110
:101B000080008F7D03C0809180008F77809380005C
:101B1000089584B58F7702C084B58F7D84BD089504
:101B20008091B0008F7703C08091B0008F7D80934B
:101B3000B0000895CF93DF9390E0FC01E95AFE4F87
:101B40002491FC01E559FE4F8491882349F190E0EE
:101B5000880F991FFC01E757FE4FA591B49181585A
:101B60009E4FFC01C591D4919FB7611108C0F894B4
:101B70008C91209582238C93888182230AC06230C5
:101B800051F4F8948C91322F309583238C93888173
:101B9000822B888304C0F8948C91822B8C939FBFF6
:101BA000DF91CF9108950F931F93CF93DF931F92EF
:101BB000CDB7DEB7282F30E0F901ED5BFE4F849101
:101BC000F901E95AFE4F1491F901E559FE4F0491CC
:101BD0000023C9F0882321F069830E94710D698177
:101BE000E02FF0E0EE0FFF1FE158FE4FA591B491FA
:101BF0009FB7F8948C91611103C01095812301C0A7
:101C0000812B8C939FBF0F90DF91CF911F910F91EC
:101C10000895A1E21A2EAA1BBB1BFD010DC0AA1F2D
:101C2000BB1FEE1FFF1FA217B307E407F50720F045
:101C3000A21BB30BE40BF50B661F771F881F991FC0
:101C40001A9469F760957095809590959B01AC0109
:101C5000BD01CF010895692796276927782787272F
:101C6000782708952A0D3B1D4C1D5D1D6E1D7F1D9F
:101C7000801F911F0895EE0FFF1F0590F491E02D36
:101C80000994FB01DC0102C001900D9241505040CB
:101C9000D8F708956817790768F4FB01DC01E40FB1
:101CA000F51FA40FB51F02C002900E924150504084
:101CB000D8F708950C94410EF999FECF92BD81BDDD
:0C1CC000F89A992780B50895F894FFCF9A
:101CCC000D00000012028000A702F502CA02F50204
:101CDC009979825AA1EBD96EDCBC1B8FD6C162CA32
:101CEC0000000000A708320A4D087A085F089C081B
:00000001FF
