:100000000C94CC000C94F4000C94F4000C94F400C8
:100010000C94F4000C94F4000C94F4000C94F40090
:100020000C94F4000C94F4000C94F4000C94F40080
:100030000C94F4000C94F4000C94F4000C94F40070
:100040000C943C080C94F4000C947D040C94B704BC
:100050000C94F4000C94F4000C94F4000C94F40050
:100060000C94F4000C94F4004461726B004C6967CA
:10007000687400205B6D735D00456E637279707407
:10008000696F6E20746F74616C2074616B65733A74
:100090002000205B627974655D00416674657220A2
:1000A000656E6372797074696F6E206F66206D651E
:1000B000737361676520667265654D656D6F7279F2
:1000C00028293D2000205B627974655D00426566E9
:1000D0006F726520656E6372797074696F6E206FE0
:1000E00066206D65737361676520667265654D6531
:1000F0006D6F727928293D2000205B75735D004982
:100100006E696369616C69736174696F6E20746F85
:1001100074616C2074616B65733A20004372656191
:1001200074696E67206172726179206F6620646104
:100130007461000008040C020A060E0109050D0393
:100140000B070F0000000700020100000304060077
:10015000000000000000000102040810204080019F
:1001600002040810200102040810200404040404FE
:100170000404040202020202020303030303030055
:10018000000000250028002B0000000000240027AC
:10019000002A00008E02750511241FBECFEFD8E0A3
:1001A000DEBFCDBF11E0A0E0B1E0E4EFF4E102C0BA
:1001B00005900D92AC31B107D9F712E0ACE1B1E096
:1001C00001C01D92A631B107E1F711E0C8E9D1E005
:1001D00004C02297FE010E94C609C439D107C9F79D
:1001E0000E9485020C94780A0C940000CB010C94B8
:1001F0002F0ACF93DF9300D0CDB7DEB72091120244
:10020000309113022115310511F426E132E0CE01BF
:100210000196821B930B0F900F90DF91CF91089561
:100220006CE171E08FE591E00E9449060E9486082A
:100230006093210170932201809323019093240104
:1002400020E030E080E090E06DE271E44091250133
:10025000509126012A3131053CF4DA01A80FB91F6B
:10026000E1E4E20FEC930EC0FA01E80FF91F60839E
:10027000E0912501F0912601E80FF91F71830196A5
:1002800020E030E001962F5F3F4F811544E0940756
:10029000ECF20895EF92FF920F931F93CF93DF93A9
:1002A0007C0101E311E0C0E0D0E0CE15DF0554F49D
:1002B000BE018CE191E00E94F600F80181938F016C
:1002C0002196F3CFDF91CF911F910F91FF90EF9087
:1002D0000895FF920F931F93CF93DF938C01C7E292
:1002E000D1E0CE01875291408017910744F40E94DB
:1002F000180AF82E0E9486086F0D6993F2CFDF91DD
:10030000CF911F910F91FF9008950F931F9340E895
:1003100055E260E070E08FE591E00E94F2048FE525
:1003200091E00E9473058823D1F30E9410018AE0B6
:1003300090E00E944A018AE090E00E9469010E94D8
:10034000860860932101709322018093230190938A
:1003500024010BE311E020E530E047E251E060E5E5
:1003600070E081E391E00E943F030E948608609361
:100370001D0170931E0180931F01909320016FEF68
:1003800070E08FE591E00E94090640911D015091B7
:100390001E0160911F0170912001809121019091B7
:1003A0002201A0912301B0912401481B590B6A0B33
:1003B0007B0B2AE030E08FE591E00E94060769EFB1
:1003C00070E08FE591E00E94490661E080910401B0
:1003D0001F910F910C943309CF93DF936DEC70E074
:1003E0008FE591E00E9409060E94F9004AE050E082
:1003F000BC018FE591E00E94FE0665EC70E08FE5A0
:1004000091E00E9449060E94860860932101709342
:10041000220180932301909324018BE391E00E94B9
:100420002603E0912501F091260190819827908381
:100430000E94860860931D0170931E0180931F0126
:10044000909320016AE970E08FE591E00E9409062F
:100450000E94F9004AE050E0BC018FE591E00E9463
:10046000FE0662E970E08FE591E00E94490669E7C7
:1004700070E08FE591E00E94090640911D015091C6
:100480001E0160911F0170912001809121019091C6
:100490002201A0912301B0912401481B590B6A0B42
:1004A0007B0B2AE030E08FE591E00E94060763E7CE
:1004B00070E08FE591E00E9449068FE591E00E948F
:1004C00035066DE670E08FE591E00E944906C4E0D4
:1004D000D1E061E088810E946C0968EE73E080E001
:1004E00090E00E94A90868E670E08FE591E00E9424
:1004F000490660E088810E946C0968EE73E080E044
:1005000090E0DF91CF910C94A9080E94CF080E943F
:1005100085010E94EC0180E090E0089580E094E085
:100520000E943A08909326018093250108950F9325
:100530001F93CF93DF93FC01208530E0838590E00B
:10054000BC01A4E075956795AA95E1F7A9015595B9
:10055000479546275489569566895627517013A1A9
:10056000668D62FB662760F9C12FCC1FCC27CC1F9C
:10057000C627D42FD170D5270589602F70E0DC0104
:10058000B595A795B595A795B595A7959595879593
:10059000959587958A238427DB01B595A795B59511
:1005A000A7958A27817090A1991F9927991F952750
:1005B00046E0759567954A95E1F7502F551F5527E9
:1005C000551F56239527412F50E0BA01A6E0759597
:1005D0006795AA95E1F7B5E055954795BA95E1F786
:1005E000462314E0359527951A95E1F74227417087
:1005F0004C27DF0110E050E02C9130E0B901660F8C
:10060000672F661F770B220F331F212B2D935F5F00
:10061000543211F0162FF0CF20812E7F242B20830F
:100620008295880F807E23852F7D822B8387990F6B
:1006300086898D7F982B968BDC1711F080E801C09E
:1006400080E0DF91CF911F910F910895FF920F935A
:100650001F93CF93DF938C0198E0F92E80E0C82F91
:10066000D0E0D595C795C8010E9497028C2BFA94CB
:10067000B1F7DF91CF911F910F91FF900895AF9245
:10068000BF92CF92DF92EF92FF920F931F93CF937F
:10069000DF936C01EB017A015901279663E0D6954F
:1006A000C7956A95E1F743E250E04C1B5D0B60E0B3
:1006B00070E0C8018C0F9D1F0E94280A60E070E066
:1006C0003FEF3C0F832F861BF601E80FF11D908151
:1006D000E92FEF70F0E0ED5CFE4F8491E92FF0E040
:1006E00054E0F595E7955A95E1F7ED5CFE4F2491BE
:1006F000D801A60FB71F40E1849FC0011124282B09
:100700002C936F5F7F4FC613DDCF77E0A70EB11C30
:1007100043E0B694A7944A95E1F75A2D80E090E023
:100720006FEF6A0D262F281BF701E20FF11D3081B4
:10073000E32FEF70F0E0ED5CFE4F2491E32FF0E04B
:1007400034E0F595E7953A95E1F7ED5CFE4F44917D
:100750003CE0380FD801A30FB11DE0E12E9F9001BE
:100760001124422B4C9301965813DCCFFCE0AF0EC2
:10077000B11C90E0F801EA0DFB1D8081282F229525
:10078000220F207E869586958695892B808341E071
:10079000A41AB1087BE0A716B10410F0922FEACF9B
:1007A00080EEF80183A3C0E8D4E0C8010E9497025C
:1007B00021972097D1F7DF91CF911F910F91FF9053
:1007C000EF90DF90CF90BF90AF900895FC0124850B
:1007D0003585F901E05CFF4F80819181F901EE5B85
:1007E000FF4F20813181821B930B8F7399270895CE
:1007F000FC0184859585FC01E05CFF4F40815181BF
:10080000FC01EE5BFF4F208131814217530741F01D
:100810000190F081E02DE80FF91F808190E00895AC
:100820008FEF9FEF0895FC0184859585FC01E05CC6
:10083000FF4F40815181FC01EE5BFF4F20813181F0
:100840004217530779F0A081B181A80FB91F8C918D
:10085000208131812F5F3F4F2F73332731832083D6
:1008600090E008958FEF9FEF0895FC0181A1882308
:1008700029F0A489B5898C9186FFFBCF11A2089538
:10088000CF93DF93FC0126853785D901A05CBF4F4C
:100890008D919C91119701968F739927E901CE5BF9
:1008A000DF4F4881598184179507D9F30D90BC918A
:1008B000A02DA20FB31F6C93A685B785A05CBF4F78
:1008C00011969C938E93A689B7892C9181E090E034
:1008D000078C02C0880F991F0A94E2F7282B2C93EB
:1008E00081E081A30488F589E02D80818064808384
:1008F00081E090E0DF91CF9108951F920F920FB6A3
:100900000F9211242F933F934F938F939F93EF93C5
:10091000FF938091C00082FD1CC04091C600809171
:1009200005029091060201968F7399272091070284
:10093000309108028217930771F0E0910502F0915F
:100940000602EB53FE4F408390930602809305020C
:1009500002C08091C600FF91EF919F918F914F91BE
:100960003F912F910F900FBE0F901F9018951F92DF
:100970000F920FB60F9211242F933F938F939F9353
:10098000EF93FF932091C1013091C2018091C30187
:100990009091C4012817390731F48091C1008F7DEF
:1009A0008093C10014C0E091C301F091C401EF57DE
:1009B000FE4F20818091C3019091C40101968F73F5
:1009C00099279093C4018093C3012093C600FF919F
:1009D000EF919F918F913F912F910F900FBE0F90AC
:1009E0001F901895CF92DF92EF92FF92CF93DF93F3
:1009F000EC016A017B01411581EE58076105710523
:100A0000F9F0EC89FD8981E090E008A002C0880F30
:100A1000991F0A94E2F7808360E079E08DE390E02B
:100A2000A70196010E94A2092150310941095109EB
:100A30005695479537952795211580E1380798F009
:100A4000EC89FD89108260E874E88EE190E0A701EE
:100A500096010E94A2092150310941095109569578
:100A6000479537952795E889F9893083EA89FB8985
:100A7000208319A2EE89FF89408181E090E09C01EA
:100A80000C8C02C0220F331F0A94E2F7422B4083E2
:100A9000EE89FF8940819C010D8C02C0220F331F1B
:100AA0000A94E2F7422B4083EE89FF8940819C0142
:100AB0000E8C02C0220F331F0A94E2F7422B4083B0
:100AC000EE89FF8920810F8C02C0880F991F0A943C
:100AD000E2F7809582238083DF91CF91FF90EF90A2
:100AE000DF90CF90089581E00895109262011092F6
:100AF000610188EE93E0A0E0B0E080936301909301
:100B00006401A0936501B093660180E191E0909348
:100B1000600180935F0185EC91E090936C0180937C
:100B20006B0181E891E090936E0180936D0185ECFB
:100B300090E09093700180936F0184EC90E090932B
:100B400072018093710180EC90E090937401809326
:100B5000730181EC90E0909376018093750182ECB3
:100B600090E0909378018093770186EC90E09093E9
:100B70007A018093790184E080937B0183E0809304
:100B80007C0187E080937D0185E080937E0181E098
:100B900080937F010895CF92DF92EF92FF920F939F
:100BA0001F93CF93DF936C017A01EB01E60EF71EE2
:100BB00000E010E0CE15DF0561F06991D601ED91FE
:100BC000FC910190F081E02DC6010995080F191FD5
:100BD000F1CFC801DF91CF911F910F91FF90EF905E
:100BE000DF90CF9008956115710581F0DB010D90C4
:100BF0000020E9F7AD0141505109461B570BDC01BC
:100C0000ED91FC910280F381E02D099480E090E069
:100C10000895EF92FF920F931F93CF93DF938C0170
:100C2000FB01C0E0D0E064917F018FEFE81AF80A81
:100C3000662361F0D801ED91FC910190F081E02DE7
:100C4000C8010995C80FD91FF701EDCFCE01DF917B
:100C5000CF911F910F91FF90EF900895DC01ED91DE
:100C6000FC910190F081E02D09940F931F93CF9395
:100C7000DF93EC016DE00E942E068C016AE0CE014C
:100C80000E942E06800F911FDF91CF911F910F912F
:100C900008950F931F93CF93DF93EC010E940906F1
:100CA0008C01CE010E943506800F911FDF91CF91FC
:100CB0001F910F9108958F929F92AF92BF92CF9202
:100CC000DF92EF92FF920F931F93CF93DF93CDB7F5
:100CD000DEB7A1970FB6F894DEBF0FBECDBF7C0183
:100CE000C42EE52FCB01D22E19A221E02D1510F034
:100CF0002AE0D22E8E010F5D1F4F8D2C912CA12C3E
:100D0000B12C6C2D7E2FA50194010E94A2098C2D7F
:100D1000D29E80191124015011098A3014F4805D8B
:100D200001C0895CF8018083211531054105510519
:100D300021F0C22EE32FCA01E4CFB801C7010E94FF
:100D4000F305A1960FB6F894DEBF0FBECDBFDF91BD
:100D5000CF911F910F91FF90EF90DF90CF90BF90B8
:100D6000AF909F908F900895CF92DF92EF92FF9275
:100D70000F931F93CF93DF93EC016A017B01211541
:100D8000310579F4E881F9810190F081E02D642F3B
:100D9000DF91CF911F910F91FF90EF90DF90CF9057
:100DA00009942A303105E9F477FF1AC06DE20E94F8
:100DB0002E068C0144275527BA014C195D096E098E
:100DC0007F092AE0CE010E945B06800F911FDF9110
:100DD000CF911F910F91FF90EF90DF90CF900895EA
:100DE0002AE0B701A601CE01DF91CF911F910F91AB
:100DF000FF90EF90DF90CF900C945B069A01AB01CF
:100E0000662757FD6095762F0C94B40621153105A1
:100E100041F4DC01ED91FC910190F081E02D642F13
:100E200009940C945B06CF93DF938230910510F404
:100E300082E090E0E0911402F091150220E030E0B1
:100E4000A0E0B0E0309739F140815181481759074F
:100E5000B8F04817590771F482819381109729F0EF
:100E600013969C938E9312972CC0909315028093A7
:100E7000140227C02115310531F04217530718F02D
:100E8000A901DB0101C0EF019A01BD01DF01028070
:100E9000F381E02DD7CF21153105F9F0281B390B4F
:100EA0002430310580F48A819B816115710521F020
:100EB000FB019383828304C09093150280931402F4
:100EC000FE01329644C0FE01E20FF31F819391931D
:100ED00022503109398328833AC02091120230917F
:100EE0001302232B41F42091080130910901309322
:100EF000130220931202209106013091070121155F
:100F0000310541F42DB73EB740910A0150910B01D4
:100F1000241B350BE0911202F0911302E217F30744
:100F2000A0F42E1B3F0B2817390778F0AC014E5F59
:100F30005F4F2417350748F04E0F5F1F5093130281
:100F4000409312028193919302C0E0E0F0E0CF0160
:100F5000DF91CF910895CF93DF93009709F487C075
:100F6000FC01329713821282C0911402D0911502B3
:100F7000209781F420813181280F391F809112023E
:100F8000909113028217930779F5F0931302E0937F
:100F900012026DC0DE0120E030E0AE17BF0750F452
:100FA00012964D915C9113979D014115510509F1E0
:100FB000DA01F3CFB383A28340815181840F951F5F
:100FC0008A179B0771F48D919C911197840F951F3F
:100FD00002969183808312968D919C9113979383AF
:100FE00082832115310529F4F0931502E093140250
:100FF0003EC0D9011396FC93EE9312974D915D91EB
:10100000A40FB51FEA17FB0779F480819181840F43
:10101000951F0296D90111969C938E93828193819C
:1010200013969C938E931297E0E0F0E08A819B8167
:10103000009719F0FE01EC01F9CFCE01029628814C
:101040003981820F931F20911202309113022817C9
:10105000390769F4309729F410921502109214029E
:1010600002C013821282D0931302C0931202DF9146
:10107000CF9108950C9413071F920F920FB60F9201
:1010800011242F933F938F939F93AF93BF9380919E
:101090000A0290910B02A0910C02B0910D023091C6
:1010A000090223E0230F2D3720F40196A11DB11D65
:1010B00005C026E8230F0296A11DB11D2093090249
:1010C00080930A0290930B02A0930C02B0930D023E
:1010D00080910E0290910F02A0911002B091110226
:1010E0000196A11DB11D80930E0290930F02A09353
:1010F0001002B0931102BF91AF919F918F913F91D8
:101100002F910F900FBE0F901F9018953FB7F89436
:1011100080910E0290910F02A0911002B0911102E5
:1011200026B5A89B05C02F3F19F00196A11DB11D42
:101130003FBF6627782F892F9A2F620F711D811D5F
:10114000911D42E0660F771F881F991F4A95D1F7BE
:101150000895CF92DF92EF92FF92CF93DF936B01CE
:101160007C010E948608EB01C114D104E104F10462
:1011700079F00E9486086C1B7D0B683E7340A0F3DB
:1011800081E0C81AD108E108F108C851DC4FECCF62
:10119000DF91CF91FF90EF90DF90CF9008957894FA
:1011A00084B5826084BD84B5816084BD85B582606C
:1011B00085BD85B5816085BDEEE6F0E0808181600A
:1011C0008083E1E8F0E0108280818260808380810A
:1011D00081608083E0E8F0E0808181608083E1EBE2
:1011E000F0E0808184608083E0EBF0E080818160CA
:1011F0008083EAE7F0E08081846080838081826080
:101200008083808181608083808180688083109268
:10121000C1000895833081F028F4813099F0823044
:10122000A1F008958630A9F08730B9F08430D1F468
:10123000809180008F7D03C0809180008F778093A4
:101240008000089584B58F7702C084B58F7D84BDFA
:1012500008958091B0008F7703C08091B0008F7D9A
:101260008093B0000895CF93DF9390E0FC01E95A9A
:10127000FE4F2491FC01E559FE4F8491882349F1EA
:1012800090E0880F991FFC01E757FE4FA591B4919C
:1012900081589E4FFC01C591D4919FB7611108C040
:1012A000F8948C91209582238C93888182230AC0A4
:1012B000623051F4F8948C91322F309583238C93C3
:1012C0008881822B888304C0F8948C91822B8C9324
:1012D0009FBFDF91CF9108950F931F93CF93DF931B
:1012E0001F92CDB7DEB7282F30E0F901ED5BFE4F3E
:1012F0008491F901E95AFE4F1491F901E559FE4F25
:1013000004910023C9F0882321F069830E940A090F
:101310006981E02FF0E0EE0FFF1FE158FE4FA5912D
:10132000B4919FB7F8948C91611103C010958123FB
:1013300001C0812B8C939FBF0F90DF91CF911F91A4
:101340000F910895A1E21A2EAA1BBB1BFD010DC02F
:10135000AA1FBB1FEE1FFF1FA217B307E407F50765
:1013600020F0A21BB30BE40BF50B661F771F881F41
:10137000991F1A9469F760957095809590959B01D7
:10138000AC01BD01CF010895EE0FFF1F0590F49150
:10139000E02D09948F929F92AF92BF92CF92DF92ED
:1013A000EF92FF92CF93DF93EC01688179818A817C
:1013B0009B81611571058105910521F464E279ED48
:1013C0008BE597E02DE133EF41E050E00E944A0ABF
:1013D00049015A019B01AC01A7EAB1E40E94370A16
:1013E0006B017C01ACEEB4EFA50194010E94450AAB
:1013F000C60ED71EE81EF91EF7FE06C081E0C81A09
:10140000D108E10880E8F80AC882D982EA82FB8222
:10141000C6019F77DF91CF91FF90EF90DF90CF9043
:10142000BF90AF909F908F9008950E94CA09089531
:1014300080E091E00E94CA090895A0E0B0E08093A6
:10144000000190930101A0930201B093030108955C
:10145000DC0101C06D9341505040E0F70895F999C7
:10146000FECF92BD81BDF89A992780B508950E945C
:10147000690AA59F900DB49F900DA49F800D911DAA
:1014800011240895B7FF0C94370A0E94370A821B73
:10149000930B0895052E97FB1EF400940E94610A99
:1014A00057FD07D00E94A20907FC03D04EF40C940C
:1014B000610A50954095309521953F4F4F4F5F4FB2
:1014C000089590958095709561957F4F8F4F9F4FB0
:1014D0000895A29FB001B39FC001A39F700D811D0D
:1014E0001124911DB29F700D811D1124911D08952D
:0414F000F894FFCF9E
:1014F400010000000D000000160280000000000042
:0C1504004004CB05E6031304F803350493
:00000001FF
