:100000000C94C9010C94F1010C94F1010C94F101D0
:100010000C94F1010C94F1010C94F1010C94F10198
:100020000C94F1010C94F1010C94F1010C94F10188
:100030000C94F1010C94F1010C94F1010C94F10178
:100040000C941C0A0C94F1010C945D060C94970618
:100050000C94F1010C94F1010C94F1010C94F10158
:100060000C94F1010C94F1014461726B004C6967CE
:10007000687400205B75735D00456E6372797074FF
:10008000696F6E20746F74616C2074616B65733A74
:100090002000205B627974655D00416674657220A2
:1000A000656E6372797074696F6E206F66206D651E
:1000B000737361676520667265654D656D6F7279F2
:1000C00028293D2000205B627974655D00426566E9
:1000D0006F726520656E6372797074696F6E206FE0
:1000E00066206D65737361676520667265654D6531
:1000F0006D6F727928293D2000205B75735D004982
:100100006E696369616C69736174696F6E20746F85
:1001100074616C2074616B65733A20004372656191
:1001200074696E67206172726179206F6620646104
:1001300074610001020408102040801B36637C7744
:100140007BF26B6FC53001672BFED7AB76CA82C9D5
:100150007DFA5947F0ADD4A2AF9CA472C0B7FD930D
:1001600026363FF7CC34A5E5F171D8311504C72305
:10017000C31896059A071280E2EB27B27509832C03
:100180001A1B6E5AA0523BD6B329E32F8453D100D9
:10019000ED20FCB15B6ACBBE394A4C58CFD0EFAAF8
:1001A000FB434D338545F9027F503C9FA851A34046
:1001B0008F929D38F5BCB6DA2110FFF3D2CD0C1327
:1001C000EC5F974417C4A77E3D645D197360814F4F
:1001D000DC222A908846EEB814DE5E0BDBE0323A71
:1001E0000A4906245CC2D3AC629195E479E7C8372A
:1001F0006D8DD54EA96C56F4EA657AAE08BA7825AD
:100200002E1CA6B4C6E8DD741F4BBD8B8A703EB5AC
:10021000664803F60E613557B986C11D9EE1F89810
:100220001169D98E949B1E87E9CE5528DF8CA18950
:100230000DBFE6426841992D0FB054BB16637C7721
:100240007BF26B6FC53001672BFED7AB76CA82C9D4
:100250007DFA5947F0ADD4A2AF9CA472C0B7FD930C
:1002600026363FF7CC34A5E5F171D8311504C72304
:10027000C31896059A071280E2EB27B27509832C02
:100280001A1B6E5AA0523BD6B329E32F8453D100D8
:10029000ED20FCB15B6ACBBE394A4C58CFD0EFAAF7
:1002A000FB434D338545F9027F503C9FA851A34045
:1002B0008F929D38F5BCB6DA2110FFF3D2CD0C1326
:1002C000EC5F974417C4A77E3D645D197360814F4E
:1002D000DC222A908846EEB814DE5E0BDBE0323A70
:1002E0000A4906245CC2D3AC629195E479E7C83729
:1002F0006D8DD54EA96C56F4EA657AAE08BA7825AC
:100300002E1CA6B4C6E8DD741F4BBD8B8A703EB5AB
:10031000664803F60E613557B986C11D9EE1F8980F
:100320001169D98E949B1E87E9CE5528DF8CA1894F
:100330000DBFE6426841992D0FB054BB1600000076
:100340000700020100000304060000000000000096
:10035000000102040810204080010204081020015E
:100360000204081020040404040404040402020229
:100370000202020303030303030000000025002818
:10038000002B0000000000240027002A0000950335
:10039000550711241FBECFEFD8E0DEBFCDBF11E05F
:1003A000A0E0B1E0EAE7F7E102C005900D92A831C4
:1003B000B107D9F712E0A8E1B1E001C01D92AC3954
:1003C000B107E1F713E0C2E9D3E004C02297FE01D0
:1003D0000E94A60BCE38D107C9F70E948C030C945B
:1003E000BB0B0C940000CB010C94B30BCF93DF93A9
:1003F00000D0CDB7DEB72091980230919902211537
:10040000310511F42CE932E0CE010196821B930BE9
:100410000F900F90DF91CF9108956CE171E085EE20
:1004200091E00E9429080E94660A60931D01709362
:100430001E0180931F019093200120E030E080E0B6
:1004400090E06DE271E440912301509124012A3142
:1004500031053CF4DA01A80FB91FE1E4E20FEC9397
:100460000EC0FA01E80FF91F6083E0912301F091BB
:100470002401E80FF91F7183019620E030E0019616
:100480002F5F3F4F811544E09407ECF20895EF92FF
:10049000FF920F931F93CF93DF937C0105E211E04E
:1004A000C0E0D0E0CE15DF0554F4BE0188E191E054
:1004B0000E94F301F80181938F012196F3CFDF9120
:1004C000CF911F910F91FF90EF900895FB0120E0D5
:1004D00030E0DC014D91CD0141932F5F3F4F203142
:1004E0003105B9F7089540E855E260E070E085EE27
:1004F00091E00E94D20685EE91E00E945307882386
:10050000D1F30E940D0280E190E00E9447020E9418
:10051000660A60931D0170931E0180931F019093E2
:10052000200165E371E085E291E00E94B3050E943D
:10053000660A6093190170931A0180931B019093CE
:100540001C016FEF70E085EE91E00E94E907409199
:10055000190150911A0160911B0170911C01809149
:100560001D0190911E01A0911F01B0912001481B17
:10057000590B6A0B7B0B2AE030E085EE91E00E947C
:10058000E60869EF70E085EE91E00E94290861E0DD
:10059000809100010C94130B0F931F93CF93DF9363
:1005A000CDB7DEB760970FB6F894DEBF0FBECDBFF4
:1005B0006DEC70E085EE91E00E94E9070E94F60183
:1005C0004AE050E0BC0185EE91E00E94DE0865EC57
:1005D00070E085EE91E00E9429080E94660A60930F
:1005E0001D0170931E0180931F019093200100E470
:1005F00010E0BE016F5F7F4F809121019091220139
:100600000E94660265E371E0CE0101960E94A2039A
:100610008091210190912201409690932201809334
:100620002101015011090115110519F70E94660AEF
:100630006093190170931A0180931B0190931C0120
:100640006AE970E085EE91E00E94E9070E94F601F8
:100650004AE050E0BC0185EE91E00E94DE0862E9CC
:1006600070E085EE91E00E94290869E770E085EE70
:1006700091E00E94E9074091190150911A0160919F
:100680001B0170911C0180911D0190911E01A09190
:100690001F01B0912001481B590B6A0B7B0B2AE00C
:1006A00030E085EE91E00E94E60863E770E085EEB9
:1006B00091E00E94290885EE91E00E9415086DE600
:1006C00070E085EE91E00E94290861E080910001D0
:1006D0000E944C0B68EE73E080E090E00E94890A73
:1006E00068E670E085EE91E00E94290860E0809164
:1006F00000010E944C0B68EE73E080E090E00E94E5
:10070000890A60960FB6F894DEBF0FBECDBFDF91A9
:10071000CF911F910F9108950E94AF0A0E9473021A
:100720000E94CC0280E090E0089580E094E00E9476
:100730001A0A9093240180932301909322018093BD
:10074000210108954AE00C94E403CF93DF9300D095
:1007500000D0CDB7DEB7FC018081898384818A8394
:1007600080858B8384858C83862F8370A1E0B0E0A5
:10077000AC0FBD1FA80FB11D8C91808370E0CB0121
:1007800001968370992721E030E02C0F3D1F820FE6
:10079000931FDC018C918483CB010296837099278F
:1007A000820F931FDC018C918087DB011396A3706D
:1007B000BB27A20FB31F8C9184870F900F900F90CF
:1007C0000F90DF91CF9108952F923F924F925F92B9
:1007D0006F927F928F929F92AF92BF92CF92DF9251
:1007E000EF92FF920F931F93CF93DF93CDB7DEB7B6
:1007F00067970FB6F894DEBF0FBECDBF8C013B01EB
:10080000242FDB01FC0180E03D919081932791939F
:100810008F5F8031C9F7130140E1240E311C31E0B4
:10082000CE0141969A8B898B223008F4AEC0DE014E
:100830001196C801FC014191CF01E42FF0E0E35C87
:10084000FD4FE491ED9349895A89A417B50791F7B3
:1008500061E0CE0102962F8B3E8B0E94A50362E0E1
:10086000CE0103960E94A50363E0CE0104960E9488
:10087000A503CE0101965C01FE0132962F01AE0167
:100880004D5F5F4F6A01CE0104967C01812C912C53
:100890003E892F89F2016081F50180816827F70187
:1008A0009081F6018081982796274BE182E02F8B7B
:1008B0003E8B9D8B0E94B805A801480D591D5C8B8D
:1008C0004B8BF501408148279D894927EB89FC899D
:1008D0004083F6016081F201808168274BE182E06C
:1008E0009D8B0E94B805F201408148279D894927C8
:1008F000EB89FC894183F7016081F60180816827DB
:100900004BE182E09D8B0E94B805F60140814827AB
:100910009D894927EB89FC894283F5016081F701B4
:10092000808168274BE182E09D8B0E94B805F7012A
:10093000408148279D894927EB89FC894383F4E05E
:10094000AF0EB11C44E0840E911C54E0450E511CC6
:1009500084E0C80ED11C94E0E90EF11C2F893E8979
:10096000E0E18E16910409F095CFF801D10180E005
:100970004D919081942791938F5F8031C9F73F5FAC
:100980002150F0E12F0E311C4FCF40E1349F600C1D
:10099000711C1124D80180E0EC91F0E0E35CFD4F84
:1009A000E491ED938F5F8031B9F761E0C801019662
:1009B0000E94A50362E0C80102960E94A50363E0BD
:1009C000C80103960E94A503D301F80180E02D9190
:1009D0009081922791938F5F8031C9F767960FB608
:1009E000F894DEBF0FBECDBFDF91CF911F910F9165
:1009F000FF90EF90DF90CF90BF90AF909F908F903F
:100A00007F906F905F904F903F902F9008958F92BE
:100A10009F92AF92BF92CF92DF92EF92FF920F938D
:100A20001F93CF93DF93EA018B0135E0169507956D
:100A30003A95E1F7D02E7801FF249701295F3F4FC7
:100A4000C22ECC0CCC0CAB0163E0569547956A9551
:100A5000E1F7BC01CE010E94AA0B902E990CA02EAA
:100A600060E070E0B12CF62FED2DE60FEC1508F0EC
:100A70006DC08E2F90E0AC014150504C440F551F7B
:100A8000440F551F4C0F5D1FDA010D911D912D91E3
:100A90003C91EA1501F1B8E0DB123FC0E770E430A9
:100AA00009F03BC0E02FF0E0E35CFE4FE4910E2F35
:100AB000E12FF0E0E35CFE4FE4911E2FE22FF0E027
:100AC000E35CFE4FE4912E2FE32FF0E0E35CFE4F5A
:100AD000E4913E2F22C0AF2EA90CA02FE12FF0E011
:100AE000E35CFE4FE4910E2FE22FF0E0E35CFE4F5B
:100AF000E4911E2FE32FF0E0E35CFE4FE4912E2FF4
:100B0000EA2FF0E0E35CFE4FE4913E2FEB2DF0E0A6
:100B1000ED5CFE4FE4910E27B394FC01EE19FF0942
:100B2000EE0FFF1FEE0FFF1FEC0FFD1F8081918165
:100B3000A281B38180279127A227B327FA0184835A
:100B40009583A683B7836F5F7F4F8DCFDF91CF9162
:100B50001F910F91FF90EF90DF90CF90BF90AF90DB
:100B60009F908F900895AB0160E870E00C940705AA
:100B700028E090E060FD9827382F3078880F3111F9
:100B8000842766952150B1F7892F0895FC012485AB
:100B90003585F901E05CFF4F80819181F901EE5BC1
:100BA000FF4F20813181821B930B8F73992708950A
:100BB000FC0184859585FC01E05CFF4F40815181FB
:100BC000FC01EE5BFF4F208131814217530741F05A
:100BD0000190F081E02DE80FF91F808190E00895E9
:100BE0008FEF9FEF0895FC0184859585FC01E05C03
:100BF000FF4F40815181FC01EE5BFF4F208131812D
:100C00004217530779F0A081B181A80FB91F8C91C9
:100C1000208131812F5F3F4F2F7333273183208312
:100C200090E008958FEF9FEF0895FC0181A1882344
:100C300029F0A489B5898C9186FFFBCF11A2089574
:100C4000CF93DF93FC0126853785D901A05CBF4F88
:100C50008D919C91119701968F739927E901CE5B35
:100C6000DF4F4881598184179507D9F30D90BC91C6
:100C7000A02DA20FB31F6C93A685B785A05CBF4FB4
:100C800011969C938E93A689B7892C9181E090E070
:100C9000078C02C0880F991F0A94E2F7282B2C9327
:100CA00081E081A30488F589E02D808180648083C0
:100CB00081E090E0DF91CF9108951F920F920FB6DF
:100CC0000F9211242F933F934F938F939F93EF9302
:100CD000FF938091C00082FD1CC04091C6008091AE
:100CE0008B0290918C0201968F73992720918D022F
:100CF00030918E028217930771F0E0918B02F09190
:100D00008C02E55BFD4F408390938C0280938B02B5
:100D100002C08091C600FF91EF919F918F914F91FA
:100D20003F912F910F900FBE0F901F9018951F921B
:100D30000F920FB60F9211242F933F938F939F938F
:100D4000EF93FF932091470230914802809149022E
:100D500090914A022817390731F48091C1008F7DA4
:100D60008093C10014C0E0914902F0914A02E95F0A
:100D7000FD4F20818091490290914A0201968F7324
:100D8000992790934A02809349022093C600FF91CD
:100D9000EF919F918F913F912F910F900FBE0F90E8
:100DA0001F901895CF92DF92EF92FF92CF93DF932F
:100DB000EC016A017B01411581EE5807610571055F
:100DC000F9F0EC89FD8981E090E008A002C0880F6D
:100DD000991F0A94E2F7808360E079E08DE390E068
:100DE000A70196010E94820B215031094109510946
:100DF0005695479537952795211580E1380798F046
:100E0000EC89FD89108260E874E88EE190E0A7012A
:100E100096010E94820B21503109410951095695D2
:100E2000479537952795E889F9893083EA89FB89C1
:100E3000208319A2EE89FF89408181E090E09C0126
:100E40000C8C02C0220F331F0A94E2F7422B40831E
:100E5000EE89FF8940819C010D8C02C0220F331F57
:100E60000A94E2F7422B4083EE89FF8940819C017E
:100E70000E8C02C0220F331F0A94E2F7422B4083EC
:100E8000EE89FF8920810F8C02C0880F991F0A9478
:100E9000E2F7809582238083DF91CF91FF90EF90DE
:100EA000DF90CF90089581E008951092E8011092AC
:100EB000E70188EE93E0A0E0B0E08093E901909331
:100EC000EA01A093EB01B093EC018CE091E09093E8
:100ED000E6018093E5018BE492E09093F201809328
:100EE000F10187E092E09093F4018093F30185ECA7
:100EF00090E09093F6018093F50184EC90E090935C
:100F0000F8018093F70180EC90E09093FA018093D0
:100F1000F90181EC90E09093FC018093FB0182EC5D
:100F200090E09093FE018093FD0186EC90E0909319
:100F300000028093FF0184E08093010283E08093AC
:100F4000020287E08093030285E08093040281E03F
:100F5000809305020895CF92DF92EF92FF920F9354
:100F60001F93CF93DF936C017A01EB01E60EF71E1E
:100F700000E010E0CE15DF0561F06991D601ED913A
:100F8000FC910190F081E02DC6010995080F191F11
:100F9000F1CFC801DF91CF911F910F91FF90EF909A
:100FA000DF90CF9008956115710581F0DB010D9000
:100FB0000020E9F7AD0141505109461B570BDC01F8
:100FC000ED91FC910280F381E02D099480E090E0A6
:100FD0000895EF92FF920F931F93CF93DF938C01AD
:100FE000FB01C0E0D0E064917F018FEFE81AF80ABE
:100FF000662361F0D801ED91FC910190F081E02D24
:10100000C8010995C80FD91FF701EDCFCE01DF91B7
:10101000CF911F910F91FF90EF900895DC01ED911A
:10102000FC910190F081E02D09940F931F93CF93D1
:10103000DF93EC016DE00E940E088C016AE0CE01A6
:101040000E940E08800F911FDF91CF911F910F9189
:1010500008950F931F93CF93DF93EC010E94E9074C
:101060008C01CE010E941508800F911FDF91CF9156
:101070001F910F9108958F929F92AF92BF92CF923E
:10108000DF92EF92FF920F931F93CF93DF93CDB731
:10109000DEB7A1970FB6F894DEBF0FBECDBF7C01BF
:1010A000C42EE52FCB01D22E19A221E02D1510F070
:1010B0002AE0D22E8E010F5D1F4F8D2C912CA12C7A
:1010C000B12C6C2D7E2FA50194010E94820B8C2DDA
:1010D000D29E80191124015011098A3014F4805DC8
:1010E00001C0895CF8018083211531054105510556
:1010F00021F0C22EE32FCA01E4CFB801C7010E943C
:10110000D307A1960FB6F894DEBF0FBECDBFDF9117
:10111000CF911F910F91FF90EF90DF90CF90BF90F4
:10112000AF909F908F900895CF92DF92EF92FF92B1
:101130000F931F93CF93DF93EC016A017B0121157D
:10114000310579F4E881F9810190F081E02D642F77
:10115000DF91CF911F910F91FF90EF90DF90CF9093
:1011600009942A303105E9F477FF1AC06DE20E9434
:101170000E088C0144275527BA014C195D096E09E8
:101180007F092AE0CE010E943B08800F911FDF916A
:10119000CF911F910F91FF90EF90DF90CF90089526
:1011A0002AE0B701A601CE01DF91CF911F910F91E7
:1011B000FF90EF90DF90CF900C943B089A01AB0129
:1011C000662757FD6095762F0C94940821153105FC
:1011D00041F4DC01ED91FC910190F081E02D642F50
:1011E00009940C943B08CF93DF938230910510F45F
:1011F00082E090E0E0919A02F0919B0220E030E0E2
:10120000A0E0B0E0309739F140815181481759078B
:10121000B8F04817590771F482819381109729F02B
:1012200013969C938E9312972CC090939B0280935D
:101230009A0227C02115310531F04217530718F0E3
:10124000A901DB0101C0EF019A01BD01DF010280AC
:10125000F381E02DD7CF21153105F9F0281B390B8B
:101260002430310580F48A819B816115710521F05C
:10127000FB019383828304C090939B0280939A0224
:10128000FE01329644C0FE01E20FF31F8193919359
:1012900022503109398328833AC020919802309135
:1012A0009902232B41F420910401309105013093E0
:1012B0009902209398022091020130910301211597
:1012C000310541F42DB73EB7409106015091070119
:1012D000241B350BE0919802F0919902E217F30775
:1012E000A0F42E1B3F0B2817390778F0AC014E5F96
:1012F0005F4F2417350748F04E0F5F1F5093990238
:10130000409398028193919302C0E0E0F0E0CF0116
:10131000DF91CF910895CF93DF93009709F487C0B1
:10132000FC01329713821282C0919A02D0919B02E3
:10133000209781F420813181280F391F80919802F4
:10134000909199028217930779F5F0939902E093AF
:1013500098026DC0DE0120E030E0AE17BF0750F408
:1013600012964D915C9113979D014115510509F11C
:10137000DA01F3CFB383A28340815181840F951F9B
:101380008A179B0771F48D919C911197840F951F7B
:1013900002969183808312968D919C9113979383EB
:1013A00082832115310529F4F0939B02E0939A0280
:1013B0003EC0D9011396FC93EE9312974D915D9127
:1013C000A40FB51FEA17FB0779F480819181840F80
:1013D000951F0296D90111969C938E9382819381D9
:1013E00013969C938E931297E0E0F0E08A819B81A4
:1013F000009719F0FE01EC01F9CFCE010296288189
:101400003981820F931F20919802309199022817F9
:10141000390769F4309729F410929B0210929A02CE
:1014200002C013821282D0939902C0939802DF9176
:10143000CF9108950C94F3081F920F920FB60F925C
:1014400011242F933F938F939F93AF93BF938091DA
:10145000900290919102A0919202B09193023091EA
:101460008F0223E0230F2D3720F40196A11DB11D1B
:1014700005C026E8230F0296A11DB11D20938F02FF
:101480008093900290939102A0939202B093930262
:101490008091940290919502A0919602B09197024A
:1014A0000196A11DB11D8093940290939502A09383
:1014B0009602B0939702BF91AF919F918F913F9108
:1014C0002F910F900FBE0F901F9018953FB7F89473
:1014D0008091940290919502A0919602B09197020A
:1014E00026B5A89B05C02F3F19F00196A11DB11D7F
:1014F0003FBF6627782F892F9A2F620F711D811D9C
:10150000911D42E0660F771F881F991F4A95D1F7FA
:101510000895CF92DF92EF92FF92CF93DF936B010A
:101520007C010E94660AEB01C114D104E104F104BC
:1015300079F00E94660A6C1B7D0B683E7340A0F335
:1015400081E0C81AD108E108F108C851DC4FECCF9E
:10155000DF91CF91FF90EF90DF90CF900895789436
:1015600084B5826084BD84B5816084BD85B58260A8
:1015700085BD85B5816085BDEEE6F0E08081816046
:101580008083E1E8F0E01082808182608083808146
:1015900081608083E0E8F0E0808181608083E1EB1E
:1015A000F0E0808184608083E0EBF0E08081816006
:1015B0008083EAE7F0E080818460808380818260BC
:1015C00080838081816080838081806880831092A5
:1015D000C1000895833081F028F4813099F0823081
:1015E000A1F008958630A9F08730B9F08430D1F4A5
:1015F000809180008F7D03C0809180008F778093E1
:101600008000089584B58F7702C084B58F7D84BD36
:1016100008958091B0008F7703C08091B0008F7DD6
:101620008093B0000895CF93DF9390E0FC01EF5AD0
:10163000FC4F2491FC01EB59FC4F8491882349F124
:1016400090E0880F991FFC01ED57FC4FA591B491D4
:1016500087589C4FFC01C591D4919FB7611108C078
:10166000F8948C91209582238C93888182230AC0E0
:10167000623051F4F8948C91322F309583238C93FF
:101680008881822B888304C0F8948C91822B8C9360
:101690009FBFDF91CF9108950F931F93CF93DF9357
:1016A0001F92CDB7DEB7282F30E0F901E35CFC4F85
:1016B0008491F901EF5AFC4F1491F901EB59FC4F59
:1016C00004910023C9F0882321F069830E94EA0A6B
:1016D0006981E02FF0E0EE0FFF1FE758FC4FA59166
:1016E000B4919FB7F8948C91611103C01095812338
:1016F00001C0812B8C939FBF0F90DF91CF911F91E1
:101700000F910895A1E21A2EAA1BBB1BFD010DC06B
:10171000AA1FBB1FEE1FFF1FA217B307E407F507A1
:1017200020F0A21BB30BE40BF50B661F771F881F7D
:10173000991F1A9469F760957095809590959B0113
:10174000AC01BD01CF010895EE0FFF1F0590F4918C
:10175000E02D0994FB01DC0102C001900D92415083
:101760005040D8F70895F999FECF92BD81BDF89AFF
:0A177000992780B50895F894FFCF83
:10177A000D0000009C028000000000002006AB075C
:08178A00C605F305D80515069C
:00000001FF
