:100000000C944C010C9474010C9474010C947401C4
:100010000C9474010C9474010C9474010C9474018C
:100020000C9474010C9474010C9474010C9474017C
:100030000C9474010C9474010C9474010C9474016C
:100040000C94DD0D0C9474010C941E0A0C94580A47
:100050000C9474010C9474010C9474010C9474014C
:100060000C9474010C9474014461726B004C6967C8
:10007000687400205B75735D00456E6372797074FF
:10008000696F6E20746F74616C2074616B65733A74
:100090002000205B627974655D00416674657220A2
:1000A000656E6372797074696F6E206F66206D651E
:1000B000737361676520667265654D656D6F7279F2
:1000C00028293D2000205B627974655D00426566E9
:1000D0006F726520656E6372797074696F6E206FE0
:1000E00066206D65737361676520667265654D6531
:1000F0006D6F727928293D2000205B75735D004982
:100100006E696369616C69736174696F6E20746F85
:1001100074616C2074616B65733A20004372656191
:1001200074696E67206172726179206F6620646104
:1001300074610078A46AD756B7C7E8DB702024EE54
:10014000CEBDC1AF0F7CF52AC68747134630A80144
:100150009546FDD8988069AFF7448BB15BFFFFBE31
:10016000D75C892211906B937198FD8E4379A621FB
:1001700008B44962251EF640B340C0515A5E26AA13
:10018000C7B6E95D102FD65314440281E6A1D8C842
:10019000FBD3E7E6CDE121D60737C3870DD5F4EDD4
:1001A000145A4505E9E3A9F8A3EFFCD9026F678A61
:1001B0004C2A8D4239FAFF81F6718722619D6D0CC0
:1001C00038E5FD44EABEA4A9CFDE4B604BBBF67018
:1001D000BCBFBEC67E9B28FA27A1EA8530EFD405B6
:1001E0001D880439D0D4D9E599DBE6F87CA21F65D7
:1001F00056ACC4442229F497FF2A43A72394AB3971
:10020000A093FCC3595B6592CC0C8F7DF4EFFFD1BA
:100210005D84854F7EA86FE0E62CFE144301A3A108
:1002200011084E827E53F735F23ABDBBD2D72A91E0
:10023000D386EB0008040C020A060E0109050D0323
:100240000B070F0000000700020100000304060076
:10025000000000000000000102040810204080019E
:1002600002040810200102040810200404040404FD
:100270000404040202020202020303030303030054
:10028000000000250028002B0000000000240027AB
:10029000002A00004003160B11241FBECFEFD8E048
:1002A000DEBFCDBF11E0A0E0B1E0E8E4F0E202C0C3
:1002B00005900D92A432B107D9F712E0A4E2B1E0A3
:1002C00001C01D92AE31B107E1F712E0C8E9D2E0FA
:1002D00004C02297FE010E94670FC439D107C9F7F5
:1002E0000E9437030C9422100C940000CB010C9454
:1002F000D90FCF93DF9300D0CDB7DEB720911A028C
:1003000030911B022115310511F42EE132E0CE01AE
:100310000196821B930B0F900F90DF91CF91089560
:100320006CE171E087E691E00E94EA0B0E94270EE3
:100330006093290170932A0180932B0190932C01E3
:1003400020E030E080E090E06DE271E440912D012A
:1003500050912E012A3131053CF4DA01A80FB91F62
:10036000E1E4E20FEC930EC0FA01E80FF91F60839D
:10037000E0912D01F0912E01E80FF91F7183019694
:1003800020E030E001962F5F3F4F811544E0940755
:10039000ECF20895EF92FF920F931F93CF93DF93A8
:1003A0007C0109E311E0C0E0D0E0CE15DF0554F494
:1003B000BE0184E291E00E947601F80181938F01F1
:1003C0002196F3CFDF91CF911F910F91FF90EF9086
:1003D0000895FF920F931F93CF93DF938C01CFE289
:1003E000D1E0CE018F5291408017910744F40E94D2
:1003F000B90FF82E0E94270E6F0D6993F2CFDF918F
:10040000CF911F910F91FF9008950F931F9340E894
:1004100055E260E070E087E691E00E94930A87E68B
:1004200091E00E94140B8823D1F30E9490018AE08E
:1004300090E00E94CA018AE090E00E94E9010E94D7
:10044000270E6093290170932A0180932B019093CA
:100450002C0103E411E020E530E04FE251E060E5DB
:1004600070E089E391E00E94E0080E94270E60930B
:1004700025017093260180932701909328016FEF47
:1004800070E087E691E00E94AA0B4091250150910F
:100490002601609127017091280180912901909196
:1004A0002A01A0912B01B0912C01481B590B6A0B1A
:1004B0007B0B2AE030E087E691E00E94A70C69EF11
:1004C00070E087E691E00E94EA0B61E08091040110
:1004D0001F910F910C94D40EEF92FF920F931F93E4
:1004E000CF93DF93CDB7DEB760970FB6F894DEBF3A
:1004F0000FBECDBF6DEC70E087E691E00E94AA0BC5
:100500000E9479014AE050E0BC0187E691E00E9438
:100510009F0C65EC70E087E691E00E94EA0B0E9478
:10052000270E6093290170932A0180932B019093E9
:100530002C0100E010E083E491E00E94C708E09104
:100540002D01F0912E01E00FF11F908198279083EB
:100550000F5F1F4F011584E0180769F720912D01E7
:1005600030912E01E12C10E2F12E00E010E040E588
:1005700050E069E371E0CE0101960E946A070E9493
:10058000270E609325017093260180932701909395
:1005900028016AE970E087E691E00E94AA0B0E94B8
:1005A00079014AE050E0BC0187E691E00E949F0C8F
:1005B00062E970E087E691E00E94EA0B69E770E08B
:1005C00087E691E00E94AA0B4091250150912601F7
:1005D00060912701709128018091290190912A0151
:1005E000A0912B01B0912C01481B590B6A0B7B0B7E
:1005F0002AE030E087E691E00E94A70C63E770E014
:1006000087E691E00E94EA0B87E691E00E94D60B14
:100610006DE670E087E691E00E94EA0B61E0809170
:1006200004010E940D0F68EE73E080E090E00E94EC
:100630004A0E68E670E087E691E00E94EA0B60E00F
:10064000809104010E940D0F68EE73E080E090E05D
:100650000E944A0E60960FB6F894DEBF0FBECDBF63
:10066000DF91CF911F910F91FF90EF9008950E941D
:10067000700E0E9405020E946C0280E090E00895D6
:1006800080E094E00E94DB0D90932E0180932D0179
:1006900008958F929F92AF92BF92EF92FF920F9325
:1006A0001F934B015C0160957095809590956E212C
:1006B0007F2180239123282139214A215B21622B2C
:1006C000732B842B952B1F910F91FF90EF90BF9070
:1006D000AF909F908F9008958F929F92AF92BF920C
:1006E000EF92FF920F931F934B015C01C801B7017A
:1006F000609570958095909562237323842395234C
:100700008E209F20A022B122682979298A299B293D
:100710001F910F91FF90EF90BF90AF909F908F909F
:100720000895EF92FF920F931F932E253F254027A8
:1007300051272627372748275927CA01B9011F9172
:100740000F91FF90EF900895EF92FF920F931F93F8
:10075000E094F09400951095E62AF72A082B192BBF
:10076000E226F32604271527C801B7011F910F9130
:10077000FF90EF9008952F923F924F925F926F9269
:100780007F928F929F92AF92BF92CF92DF92EF9221
:10079000FF920F931F93CF93DF93CDB7DEB7609790
:1007A0000FB6F894DEBF0FBECDBF4B01322E202E08
:1007B00028E0ECE0F1E0DE01119601900D922A951F
:1007C000E1F74370642F70E05C0124E0429FA00CCD
:1007D000B11C1124D5014D905D906D907C906B0102
:1007E000BFEFCB1ADB0AE3E0CE22DD24CC0CDD1C0C
:1007F000CC0CDD1CC80ED91EFE013196EE0DF11D8C
:10080000EE0DF11D9B012D5F3F4F23703327220F0B
:10081000331F220F331F280F391FD901ED90FD9090
:100820000D911C91DB011296A370BB27AA0FBB1F71
:10083000AA0FBB1FA80FB91F2D913D914D915C913F
:10084000D6016D917D918D919C910190F081E02D6B
:100850000995B4E02B9EF0011124ED5CFE4F25912B
:10086000359145915491D401ED90FD900D911C91DD
:10087000E40CF51C061D171DE60EF71E081F191FB8
:10088000E20EF31E041F151FB801A701032C04C0BC
:10089000440F551F661F771F0A94D2F720E22319D1
:1008A000D801C70104C0B695A795979587952A9555
:1008B000D2F7482B592B6A2B7B2BF6018081918133
:1008C000A281B381480F591F6A1F7B1FD5014D9329
:1008D0005D936D937C93139760960FB6F894DEBF8B
:1008E0000FBECDBFDF91CF911F910F91FF90EF9081
:1008F000DF90CF90BF90AF909F908F907F906F9040
:100900005F904F903F902F900895FC01108A118ABC
:10091000128A138A41E053E265E477E6408351830B
:100920006283738349E85BEA6DEC7FEE4483558311
:10093000668377834EEF5CED6AEB78E940875187F9
:100940006287738746E754E562E370E14487558721
:100950006687778708952F923F924F925F926F92AA
:100960007F928F929F92AF92BF92CF92DF92EF923F
:10097000FF920F931F93CF93DF93CDB7DEB7A2976C
:100980000FB6F894DEBF0FBECDBF1C017AA369A3DA
:10099000FC0180819181A281B38189839A83AB8399
:1009A000BC8384819581A681B7818D839E83AF832B
:1009B000B88780859185A285B38589879A87AB871B
:1009C000BC8784859585A685B7858D879E87AF87EB
:1009D000B88B87E08D8F8CE08E8F81E18F8F86E1E1
:1009E00088A32B01A12CB12C3E01FDE16F0E711CDF
:1009F00065E0F62EF60C43011A2D110F110F161992
:100A0000C12CD12C012F080DF40121914F014F2D44
:100A10004E1BB601640D751DE12CCE0101960E949E
:100A2000BB03F4E0CF0ED11C80E1C816D10451F70E
:100A30009FEFA91AB90AE0E14E0E511CF4E0AF167F
:100A4000B104C9F685E0898F89E08A8F8EE08B8FAB
:100A500084E18C8FCC24C394D12C3E0189E1680EB3
:100A6000711C5FE0552E56184601530114E0452CC9
:100A70004C0C042D0A0DF50121915F01B4016F703A
:100A80007727660F771F660F771F89A19AA1680FD6
:100A9000791FEE24E394412FCE0101960E94BB03FF
:100AA000115095E0890E911C1111E3CFE4E0CE0EB8
:100AB000D11CF1E1CF16D104B9F684E08D8B8BE027
:100AC0008E8B80E18F8B87E1888F95E0C92ED12CAA
:100AD0003E0185E1680E711C25E2522E5618460132
:100AE000530114E0452C4C18042D0A0DF5012191F9
:100AF0005F01B4016F707727660F771F660F771F4E
:100B000089A19AA1680F791F82E0E82E412FCE01BA
:100B100001960E94BB03115093E0890E911C1111A4
:100B2000E3CFE4E0CE1AD108F5EFCF16FFEFDF06F2
:100B3000B1F686E0898B8AE08A8B8FE08B8B85E12A
:100B40008C8BC12CD12C3E0181E1680E711CA0E37D
:100B50005A2E56184601530114E0452C4C18042D0A
:100B60000A0DF50121915F01B4016F707727660FBF
:100B7000771F660F771F89A19AA1680F791FF3E08D
:100B8000EF2E412FCE0101960E94BB03115097E03A
:100B9000890E911C1111E3CFE4E0CE1AD108F0EFD9
:100BA000CF16FFEFDF06B1F6F10180819181A281BE
:100BB000B38149815A816B817C81840F951FA61F67
:100BC000B71F80839183A283B38384819581A6819B
:100BD000B7814D815E816F817885840F951FA61F37
:100BE000B71F84839583A683B78380859185A2856B
:100BF000B38549855A856B857C85840F951FA61F13
:100C0000B71F80879187A287B38784859585A6853E
:100C1000B7854D855E856F857889840F951FA61FE2
:100C2000B71F84879587A687B78780899189A2890E
:100C3000B3890196A11DB11D808B918BA28BB38BC3
:100C4000A2960FB6F894DEBF0FBECDBFDF91CF9155
:100C50001F910F91FF90EF90DF90CF90BF90AF90DA
:100C60009F908F907F906F905F904F903F902F90CC
:100C700008956F927F928F929F92AF92BF92CF9280
:100C8000DF92EF92FF920F931F93CF93DF93CDB735
:100C9000DEB7C054D1090FB6F894DEBF0FBECDBF8A
:100CA0008C013B014A017A016B01E114E2E0FE068E
:100CB00050F0B601C8010E94AB0482E0F81A90E43B
:100CC000C90ED11CF2CF5401AB2CBB24A694F6E084
:100CD000AA0CBB1CFA95E1F7A60CB71C6401F1E065
:100CE000DF22CE0101967C0180E4F70111928A9502
:100CF000E9F73601A3E076946794AA95E1F7A3019A
:100D0000B501C7010E94C90FF7E08F229924F701AE
:100D1000E60DF71D8114910471F0D501A60DB71DE4
:100D200080E890E002C0959587958A94E2F79C91BF
:100D3000982B908302C080E8808388E0680E711C45
:100D400090E469167104A8F0B701C8010E94AB04D1
:100D5000F80180899189A289B3890197A109B10914
:100D6000808B918BA28BB38B88E3F70111928A95CC
:100D7000E9F7F80180899189A289B38979E0880F20
:100D8000991FAA1FBB1F7A95D1F78C0D9D1DA11D20
:100D9000B11D9C01AD0189AF3AAF4BAF5CAF1DAE49
:100DA0001EAE1FAE21961FAE2197B701C8010E944B
:100DB000AB04C05CDF4F0FB6F894DEBF0FBECDBFF3
:100DC000DF91CF911F910F91FF90EF90DF90CF9027
:100DD000BF90AF909F908F907F906F90089520E18B
:100DE000FB01DC0101900D922A95E1F708958F92A5
:100DF0009F92AF92BF92CF92DF92EF92FF920F93AA
:100E00001F93CF93DF93CDB7DEB768970FB6F894F3
:100E1000DEBF0FBECDBF6C017B01CE0101962D8BD5
:100E20003E8B4F8B588F0E9485042D893E894F89B8
:100E3000588D49015A018701811482E09806A10466
:100E4000B104A0F0B801CE0101962D8B3E8B4F8BE3
:100E5000588F0E94AB04005C1F4F82E0981AA108D3
:100E6000B108588D4F893E892D89E6CFDA01C90135
:100E70009170AA27BB27BA01A901B9E076956795B9
:100E800057954795BA95D1F7BA0116E0660F771FC7
:100E90001A95E1F76E0D7F1DAC01CE0101960E94FF
:100EA0003906BE016F5F7F4FC6010E94EF0668964C
:100EB0000FB6F894DEBF0FBECDBFDF91CF911F916B
:100EC0000F91FF90EF90DF90CF90BF90AF909F90E9
:100ED0008F9008952F923F924F925F926F927F92E0
:100EE0008F929F92AF92BF92CF92DF92EF92FF923A
:100EF0000F931F93CF93DF93CDB7DEB7C855D109BA
:100F00000FB6F894DEBF0FBECDBF5C0149011701DB
:100F100028018E010F5F1F4F80E4F80111928A951E
:100F2000E9F74130F2E05F0738F09A0140E050E025
:100F3000C8010E94F7060AC0495F5F4FE3E056957B
:100F40004795EA95E1F7C8010E94C90F6E0181E457
:100F5000C80ED11CF80196E3808189278193EC1596
:100F6000FD05D1F7C6010E948504B801C6010E94A3
:100F7000AB04A201910134012115F2E03F074105C4
:100F8000510518F1B301C60166962FAF66976796B3
:100F90003FAF679768964FAF689769965FAF69975D
:100FA0000E94AB04E0E46E0E711C66962FAD66974E
:100FB00067963FAD679768964FAD689769965FAD46
:100FC0006997325041095109D7CFB201A10151703F
:100FD00066277727D201C10129E0B695A795979595
:100FE00087952A95D1F71C0136E0220C331C3A95DF
:100FF000E1F7280C391CB101C6010E9439064801ED
:101000009AE6F4018081892781934F01EC15FD0553
:10101000C1F7BF01C5010E94EF06C4010E9485040B
:10102000B801C4010E94AB0440E850E0B501C4011E
:101030000E943906B401C5010E94EF06C85ADF4F6D
:101040000FB6F894DEBF0FBECDBFDF91CF911F91D9
:101050000F91FF90EF90DF90CF90BF90AF909F9057
:101060008F907F906F905F904F903F902F9008955A
:101070000F931F93CF93DF93FC01208530E083858E
:1010800090E0BC01A4E075956795AA95E1F7A901E8
:101090005595479546275489569566895627517028
:1010A00013A1668D62FB662760F9C12FCC1FCC2788
:1010B000CC1FC627D42FD170D5270589602F70E0AB
:1010C000DC01B595A795B595A795B595A795959587
:1010D0008795959587958A238427DB01B595A795F4
:1010E000B595A7958A27817090A1991F9927991F77
:1010F000952746E0759567954A95E1F7502F551F5E
:101100005527551F56239527412F50E0BA01A6E0D9
:1011100075956795AA95E1F7B5E055954795BA9508
:10112000E1F7462314E0359527951A95E1F7422714
:1011300041704C27DF0110E050E02C9130E0B90104
:10114000660F672F661F770B220F331F212B2D93FE
:101150005F5F543211F0162FF0CF20812E7F242BA9
:1011600020838295880F807E23852F7D822B838725
:10117000990F86898D7F982B968BDC1711F080E86C
:1011800001C080E0DF91CF911F910F910895FF92F0
:101190000F931F93CF93DF938C0198E0F92E80E09B
:1011A000C82FD0E0D595C795C8010E9438088C2B70
:1011B000FA94B1F7DF91CF911F910F91FF900895AD
:1011C000AF92BF92CF92DF92EF92FF920F931F9355
:1011D000CF93DF936C01EB017A015901279663E00D
:1011E000D695C7956A95E1F743E250E04C1B5D0B3D
:1011F00060E070E0C8018C0F9D1F0E94D20F60E07C
:1012000070E03FEF3C0F832F861BF601E80FF11DC6
:101210009081E92FEF70F0E0ED5CFD4F8491E92FB4
:10122000F0E054E0F595E7955A95E1F7ED5CFD4F58
:101230002491D801A60FB71F40E1849FC00111245B
:10124000282B2C936F5F7F4FC613DDCF77E0A70E5F
:10125000B11C43E0B694A7944A95E1F75A2D80E07B
:1012600090E06FEF6A0D262F281BF701E20FF11DAA
:101270003081E32FEF70F0E0ED5CFD4F2491E32F20
:10128000F0E034E0F595E7953A95E1F7ED5CFD4F38
:1012900044913CE0380FD801A30FB11DE0E12E9F2F
:1012A00090011124422B4C9301965813DCCFFCE0A3
:1012B000AF0EB11C90E0F801EA0DFB1D8081282FD4
:1012C0002295220F207E869586958695892B808390
:1012D00041E0A41AB1087BE0A716B10410F0922FE8
:1012E000EACF80EEF80183A3C0E8D4E0C8010E94F1
:1012F000380821972097D1F7DF91CF911F910F9157
:10130000FF90EF90DF90CF90BF90AF900895FC01D9
:1013100024853585F901E05CFF4F80819181F901D9
:10132000EE5BFF4F20813181821B930B8F739927D6
:101330000895FC0184859585FC01E05CFF4F4081A8
:101340005181FC01EE5BFF4F208131814217530731
:1013500041F00190F081E02DE80FF91F808190E0CD
:1013600008958FEF9FEF0895FC0184859585FC011A
:10137000E05CFF4F40815181FC01EE5BFF4F20811B
:1013800031814217530779F0A081B181A80FB91FAD
:101390008C91208131812F5F3F4F2F733327318311
:1013A000208390E008958FEF9FEF0895FC0181A1C5
:1013B000882329F0A489B5898C9186FFFBCF11A2DF
:1013C0000895CF93DF93FC0126853785D901A05C72
:1013D000BF4F8D919C91119701968F739927E901C9
:1013E000CE5BDF4F4881598184179507D9F30D9063
:1013F000BC91A02DA20FB31F6C93A685B785A05CEE
:10140000BF4F11969C938E93A689B7892C9181E04A
:1014100090E0078C02C0880F991F0A94E2F7282BEE
:101420002C9381E081A30488F589E02D808180647C
:10143000808381E090E0DF91CF9108951F920F9219
:101440000FB60F9211242F933F934F938F939F9337
:10145000EF93FF938091C00082FD1CC04091C600B5
:1014600080910D0290910E0201968F739927209121
:101470000F02309110028217930771F0E0910D0274
:10148000F0910E02E353FE4F408390930E0280933F
:101490000D0202C08091C600FF91EF919F918F9144
:1014A0004F913F912F910F900FBE0F901F90189565
:1014B0001F920F920FB60F9211242F933F938F9389
:1014C0009F93EF93FF932091C9013091CA018091BE
:1014D000CB019091CC012817390731F48091C100DC
:1014E0008F7D8093C10014C0E091CB01F091CC01BD
:1014F000E757FE4F20818091CB019091CC0101965E
:101500008F7399279093CC018093CB012093C600D1
:10151000FF91EF919F918F913F912F910F900FBE6F
:101520000F901F901895CF92DF92EF92FF92CF937A
:10153000DF93EC016A017B01411581EE58076105DB
:101540007105F9F0EC89FD8981E090E008A002C006
:10155000880F991F0A94E2F7808360E079E08DE3B9
:1015600090E0A70196010E94430F215031094109E3
:1015700051095695479537952795211580E13807EC
:1015800098F0EC89FD89108260E874E88EE190E0C3
:10159000A70196010E94430F2150310941095109C9
:1015A0005695479537952795E889F9893083EA89D3
:1015B000FB89208319A2EE89FF89408181E090E0B8
:1015C0009C010C8C02C0220F331F0A94E2F7422BBD
:1015D0004083EE89FF8940819C010D8C02C0220F5F
:1015E000331F0A94E2F7422B4083EE89FF89408142
:1015F0009C010E8C02C0220F331F0A94E2F7422B8B
:101600004083EE89FF8920810F8C02C0880F991FCB
:101610000A94E2F7809582238083DF91CF91FF9037
:10162000EF90DF90CF90089581E0089510926A01C5
:101630001092690188EE93E0A0E0B0E080936B0126
:1016400090936C01A0936D01B0936E0188E191E0DD
:1016500090936801809367018DEC91E09093740101
:101660008093730189E891E09093760180937501EE
:1016700085EC90E0909378018093770184EC90E082
:1016800090937A018093790180EC90E090937C01B3
:1016900080937B0181EC90E090937E0180937D01AB
:1016A00082EC90E09093800180937F0186EC90E043
:1016B000909382018093810184E08093830183E091
:1016C0008093840187E08093850185E08093860183
:1016D00081E0809387010895CF92DF92EF92FF928D
:1016E0000F931F93CF93DF936C017A01EB01E60E0A
:1016F000F71E00E010E0CE15DF0561F06991D6011C
:10170000ED91FC910190F081E02DC6010995080F43
:10171000191FF1CFC801DF91CF911F910F91FF9059
:10172000EF90DF90CF9008956115710581F0DB0196
:101730000D900020E9F7AD0141505109461B570BB0
:10174000DC01ED91FC910280F381E02D099480E0B1
:1017500090E00895EF92FF920F931F93CF93DF9342
:101760008C01FB01C0E0D0E064917F018FEFE81AAB
:10177000F80A662361F0D801ED91FC910190F081A7
:10178000E02DC8010995C80FD91FF701EDCFCE0193
:10179000DF91CF911F910F91FF90EF900895DC01A1
:1017A000ED91FC910190F081E02D09940F931F932E
:1017B000CF93DF93EC016DE00E94CF0B8C016AE0C8
:1017C000CE010E94CF0B800F911FDF91CF911F910F
:1017D0000F9108950F931F93CF93DF93EC010E9415
:1017E000AA0B8C01CE010E94D60B800F911FDF91B6
:1017F000CF911F910F9108958F929F92AF92BF92B8
:10180000CF92DF92EF92FF920F931F93CF93DF93CC
:10181000CDB7DEB7A1970FB6F894DEBF0FBECDBF30
:101820007C01C42EE52FCB01D22E19A221E02D156B
:1018300010F02AE0D22E8E010F5D1F4F8D2C912CBF
:10184000A12CB12C6C2D7E2FA50194010E94430F79
:101850008C2DD29E80191124015011098A3014F464
:10186000805D01C0895CF801808321153105410547
:10187000510521F0C22EE32FCA01E4CFB801C70100
:101880000E94940BA1960FB6F894DEBF0FBECDBF99
:10189000DF91CF911F910F91FF90EF90DF90CF904C
:1018A000BF90AF909F908F900895CF92DF92EF926C
:1018B000FF920F931F93CF93DF93EC016A017B019B
:1018C0002115310579F4E881F9810190F081E02D4D
:1018D000642FDF91CF911F910F91FF90EF90DF90D8
:1018E000CF9009942A303105E9F477FF1AC06DE2F0
:1018F0000E94CF0B8C0144275527BA014C195D0972
:101900006E097F092AE0CE010E94FC0B800F911F17
:10191000DF91CF911F910F91FF90EF90DF90CF90CB
:1019200008952AE0B701A601CE01DF91CF911F9162
:101930000F91FF90EF90DF90CF900C94FC0B9A01E9
:10194000AB01662757FD6095762F0C94550C211539
:10195000310541F4DC01ED91FC910190F081E02D25
:10196000642F09940C94FC0BCF93DF938230910584
:1019700010F482E090E0E0911C02F0911D0220E062
:1019800030E0A0E0B0E0309739F140815181481754
:101990005907B8F04817590771F48281938110975D
:1019A00029F013969C938E9312972CC090931D024E
:1019B00080931C0227C02115310531F042175307CF
:1019C00018F0A901DB0101C0EF019A01BD01DF019F
:1019D0000280F381E02DD7CF21153105F9F0281BC6
:1019E000390B2430310580F48A819B8161157105A2
:1019F00021F0FB019383828304C090931D028093A6
:101A00001C02FE01329644C0FE01E20FF31F8193D7
:101A1000919322503109398328833AC020911A02C8
:101A200030911B02232B41F42091080130910901D0
:101A300030931B0220931A02209106013091070176
:101A40002115310541F42DB73EB740910A0150915F
:101A50000B01241B350BE0911A02F0911B02E217D7
:101A6000F307A0F42E1B3F0B2817390778F0AC01C1
:101A70004E5F5F4F2417350748F04E0F5F1F50939E
:101A80001B0240931A028193919302C0E0E0F0E0C0
:101A9000CF01DF91CF910895CF93DF93009709F4A1
:101AA00087C0FC01329713821282C0911C02D09130
:101AB0001D02209781F420813181280F391F8091E8
:101AC0001A0290911B028217930779F5F0931B027B
:101AD000E0931A026DC0DE0120E030E0AE17BF07D0
:101AE00050F412964D915C9113979D01411551054B
:101AF00009F1DA01F3CFB383A28340815181840FCE
:101B0000951F8A179B0771F48D919C911197840FF3
:101B1000951F02969183808312968D919C911397C5
:101B2000938382832115310529F4F0931D02E093FC
:101B30001C023EC0D9011396FC93EE9312974D916F
:101B40005D91A40FB51FEA17FB0779F4808191819D
:101B5000840F951F0296D90111969C938E938281D2
:101B6000938113969C938E931297E0E0F0E08A8124
:101B70009B81009719F0FE01EC01F9CFCE0102968E
:101B800028813981820F931F20911A0230911B0204
:101B90002817390769F4309729F410921D02109222
:101BA0001C0202C013821282D0931B02C0931A023D
:101BB000DF91CF9108950C94B40C1F920F920FB641
:101BC0000F9211242F933F938F939F93AF93BF93C3
:101BD0008091120290911302A0911402B09115020B
:101BE0003091110223E0230F2D3720F40196A11D1F
:101BF000B11D05C026E8230F0296A11DB11D20933B
:101C000011028093120290931302A0931402B093D6
:101C100015028091160290911702A0911802B091BE
:101C200019020196A11DB11D80931602909317020F
:101C3000A0931802B0931902BF91AF919F918F9119
:101C40003F912F910F900FBE0F901F9018953FB7A7
:101C5000F8948091160290911702A0911802B09109
:101C6000190226B5A89B05C02F3F19F00196A11DAA
:101C7000B11D3FBF6627782F892F9A2F620F711DE4
:101C8000811D911D42E0660F771F881F991F4A959D
:101C9000D1F70895CF92DF92EF92FF92CF93DF9327
:101CA0006B017C010E94270EEB01C114D104E104F9
:101CB000F10479F00E94270E6C1B7D0B683E734087
:101CC000A0F381E0C81AD108E108F108C851DC4F3F
:101CD000ECCFDF91CF91FF90EF90DF90CF90089500
:101CE000789484B5826084BD84B5816084BD85B5F7
:101CF000826085BD85B5816085BDEEE6F0E08081BE
:101D000081608083E1E8F0E01082808182608083DE
:101D1000808181608083E0E8F0E080818160808361
:101D2000E1EBF0E0808184608083E0EBF0E0808193
:101D300081608083EAE7F0E0808184608083808135
:101D400082608083808181608083808180688083DD
:101D50001092C1000895833081F028F4813099F009
:101D60008230A1F008958630A9F08730B9F0843030
:101D7000D1F4809180008F7D03C0809180008F77A7
:101D800080938000089584B58F7702C084B58F7DDD
:101D900084BD08958091B0008F7703C08091B0001A
:101DA0008F7D8093B0000895CF93DF9390E0FC0186
:101DB000E95AFD4F2491FC01E559FD4F8491882398
:101DC00049F190E0880F991FFC01E757FD4FA5915D
:101DD000B49181589D4FFC01C591D4919FB7611179
:101DE00008C0F8948C91209582238C93888182235B
:101DF0000AC0623051F4F8948C91322F30958323CD
:101E00008C938881822B888304C0F8948C91822BD8
:101E10008C939FBFDF91CF9108950F931F93CF9322
:101E2000DF931F92CDB7DEB7282F30E0F901ED5BCD
:101E3000FD4F8491F901E95AFD4F1491F901E559DB
:101E4000FD4F04910023C9F0882321F069830E948B
:101E5000AB0E6981E02FF0E0EE0FFF1FE158FD4F60
:101E6000A591B4919FB7F8948C91611103C010951E
:101E7000812301C0812B8C939FBF0F90DF91CF9165
:101E80001F910F910895A1E21A2EAA1BBB1BFD0101
:101E90000DC0AA1FBB1FEE1FFF1FA217B307E40749
:101EA000F50720F0A21BB30BE40BF50B661F771FA1
:101EB000881F991F1A9469F7609570958095909581
:101EC0009B01AC01BD01CF010895EE0FFF1F0590EE
:101ED000F491E02D09948F929F92AF92BF92CF928E
:101EE000DF92EF92FF92CF93DF93EC0168817981CB
:101EF0008A819B81611571058105910521F464E258
:101F000079ED8BE597E02DE133EF41E050E00E9461
:101F1000F40F49015A019B01AC01A7EAB1E40E9408
:101F2000E10F6B017C01ACEEB4EFA50194010E94BE
:101F3000EF0FC60ED71EE81EF91EF7FE06C081E0A1
:101F4000C81AD108E10880E8F80AC882D982EA8272
:101F5000FB82C6019F77DF91CF91FF90EF90DF90DA
:101F6000CF90BF90AF909F908F9008950E946B0F7D
:101F7000089580E091E00E946B0F0895A0E0B0E02A
:101F80008093000190930101A0930201B09303019B
:101F90000895FB01DC0102C001900D9241505040B8
:101FA000D8F70895DC0101C06D9341505040E0F72F
:101FB0000895F999FECF92BD81BDF89A992780B511
:101FC00008950E941310A59F900DB49F900DA49F9B
:101FD000800D911D11240895B7FF0C94E10F0E940C
:101FE000E10F821B930B0895052E97FB1EF40094BE
:101FF0000E940B1057FD07D00E94430F07FC03D02F
:102000004EF40C940B1050954095309521953F4F10
:102010004F4F5F4F089590958095709561957F4FD4
:102020008F4F9F4F0895A29FB001B39FC001A39F00
:10203000700D811D1124911DB29F700D811D112401
:08204000911D0895F894FFCFF3
:10204800010000000D0000001E02800049036C031F
:102058009103A40300000000E1096C0B8709B4098F
:042068009909D609F3
:00000001FF
