:100000000C94C9010C94F1010C94F1010C94F101D0
:100010000C94F1010C94F1010C94F1010C94F10198
:100020000C94F1010C94F1010C94F1010C94F10188
:100030000C94F1010C94F1010C94F1010C94F10178
:100040000C94170A0C94F1010C9458060C94920627
:100050000C94F1010C94F1010C94F1010C94F10158
:100060000C94F1010C94F1014461726B004C6967CE
:10007000687400205B6D735D00456E637279707407
:10008000696F6E20746F74616C2074616B65733A74
:100090002000205B627974655D00416674657220A2
:1000A000656E6372797074696F6E206F66206D651E
:1000B000737361676520667265654D656D6F7279F2
:1000C00028293D2000205B627974655D00426566E9
:1000D0006F726520656E6372797074696F6E206FE0
:1000E00066206D65737361676520667265654D6531
:1000F0006D6F727928293D2000205B75735D004982
:100100006E696369616C69736174696F6E20746F85
:1001100074616C2074616B65733A20004372656191
:1001200074696E67206172726179206F6620646104
:1001300074610001020408102040801B36637C7744
:100140007BF26B6FC53001672BFED7AB76CA82C9D5
:100150007DFA5947F0ADD4A2AF9CA472C0B7FD930D
:1001600026363FF7CC34A5E5F171D8311504C72305
:10017000C31896059A071280E2EB27B27509832C03
:100180001A1B6E5AA0523BD6B329E32F8453D100D9
:10019000ED20FCB15B6ACBBE394A4C58CFD0EFAAF8
:1001A000FB434D338545F9027F503C9FA851A34046
:1001B0008F929D38F5BCB6DA2110FFF3D2CD0C1327
:1001C000EC5F974417C4A77E3D645D197360814F4F
:1001D000DC222A908846EEB814DE5E0BDBE0323A71
:1001E0000A4906245CC2D3AC629195E479E7C8372A
:1001F0006D8DD54EA96C56F4EA657AAE08BA7825AD
:100200002E1CA6B4C6E8DD741F4BBD8B8A703EB5AC
:10021000664803F60E613557B986C11D9EE1F89810
:100220001169D98E949B1E87E9CE5528DF8CA18950
:100230000DBFE6426841992D0FB054BB16637C7721
:100240007BF26B6FC53001672BFED7AB76CA82C9D4
:100250007DFA5947F0ADD4A2AF9CA472C0B7FD930C
:1002600026363FF7CC34A5E5F171D8311504C72304
:10027000C31896059A071280E2EB27B27509832C02
:100280001A1B6E5AA0523BD6B329E32F8453D100D8
:10029000ED20FCB15B6ACBBE394A4C58CFD0EFAAF7
:1002A000FB434D338545F9027F503C9FA851A34045
:1002B0008F929D38F5BCB6DA2110FFF3D2CD0C1326
:1002C000EC5F974417C4A77E3D645D197360814F4E
:1002D000DC222A908846EEB814DE5E0BDBE0323A70
:1002E0000A4906245CC2D3AC629195E479E7C83729
:1002F0006D8DD54EA96C56F4EA657AAE08BA7825AC
:100300002E1CA6B4C6E8DD741F4BBD8B8A703EB5AB
:10031000664803F60E613557B986C11D9EE1F8980F
:100320001169D98E949B1E87E9CE5528DF8CA1894F
:100330000DBFE6426841992D0FB054BB1600000076
:100340000700020100000304060000000000000096
:10035000000102040810204080010204081020015E
:100360000204081020040404040404040402020229
:100370000202020303030303030000000025002818
:10038000002B0000000000240027002A000090033A
:10039000500711241FBECFEFD8E0DEBFCDBF11E064
:1003A000A0E0B1E0E0E7F7E102C005900D92A831CE
:1003B000B107D9F712E0A8E1B1E001C01D92A43C59
:1003C000B107E1F713E0C2E9D3E004C02297FE01D0
:1003D0000E94A10BCE38D107C9F70E9487030C9465
:1003E000B60B0C940000CB010C94AE0BCF93DF93B3
:1003F00000D0CDB7DEB72091C0023091C1022115E7
:10040000310511F424EC32E0CE010196821B930BEE
:100410000F900F90DF91CF9108956CE171E08DE026
:1004200092E00E9424080E94610A60931D0170936B
:100430001E0180931F019093200120E030E080E0B6
:1004400090E06DE271E440912301509124012A3142
:1004500031053CF4DA01A80FB91FE1E4E20FEC9397
:100460000EC0FA01E80FF91F6083E0912301F091BB
:100470002401E80FF91F7183019620E030E0019616
:100480002F5F3F4F811544E09407ECF20895EF92FF
:10049000FF920F931F93CF93DF937C0105E211E04E
:1004A000C0E0D0E0CE15DF0554F4BE0188E191E054
:1004B0000E94F301F80181938F012196F3CFDF9120
:1004C000CF911F910F91FF90EF900895FB0120E0D5
:1004D00030E0DC014D91CD0141932F5F3F4F203142
:1004E0003105B9F7089540E855E260E070E08DE02D
:1004F00092E00E94CD068DE092E00E944E07882394
:10050000D1F30E940D0288E190E00E9447020E9410
:10051000610A60931D0170931E0180931F019093E7
:1005200020016DE371E085E291E00E94AE050E943A
:10053000610A6093190170931A0180931B019093D3
:100540001C016FEF70E08DE092E00E94E4074091A3
:10055000190150911A0160911B0170911C01809149
:100560001D0190911E01A0911F01B0912001481B17
:10057000590B6A0B7B0B2AE030E08DE092E00E9481
:10058000E10869EF70E08DE092E00E94240861E0EC
:10059000809100010C940E0B0F931F93CF93DF9368
:1005A000CDB7DEB760970FB6F894DEBF0FBECDBFF4
:1005B0006DEC70E08DE092E00E94E4070E94F6018D
:1005C0004AE050E0BC018DE092E00E94D90865EC61
:1005D00070E08DE092E00E9424080E94610A60931E
:1005E0001D0170931E0180931F0190932001BE0195
:1005F0006F5F7F4F80912101909122010E946602DE
:100600006DE371E0CE0101960E949D03809121016E
:1006100090912201409690932201809321010E94A3
:10062000610A6093190170931A0180931B019093E2
:100630001C016AE970E08DE092E00E94E4070E94EC
:10064000F6014AE050E0BC018DE092E00E94D9083A
:1006500062E970E08DE092E00E94240869E770E0B2
:100660008DE092E00E94E4074091190150911A0137
:1006700060911B0170911C0180911D0190911E01E0
:10068000A0911F01B0912001481B590B6A0B7B0BF5
:100690002AE030E08DE092E00E94E10863E770E03C
:1006A0008DE092E00E9424088DE092E00E94100804
:1006B0006DE670E08DE092E00E94240800E011E019
:1006C00061E0F80180810E94470B68EE73E080E0F2
:1006D00090E00E94840A68E670E08DE092E00E945B
:1006E000240860E0F80180810E94470B68EE73E007
:1006F00080E090E00E94840A60960FB6F894DEBF16
:100700000FBECDBFDF91CF911F910F9108950E9431
:10071000AA0A0E9473020E94CC0280E090E0089531
:1007200080E094E00E94150A9093240180932301B5
:10073000909322018093210108954CE00C94DF03F3
:10074000CF93DF9300D000D0CDB7DEB7FC0180811E
:10075000898384818A8380858B8384858C83862F9B
:100760008370A1E0B0E0AC0FBD1FA80FB11D8C914C
:10077000808370E0CB0101968370992721E030E0FF
:100780002C0F3D1F820F931FDC018C918483CB01C2
:10079000029683709927820F931FDC018C918087CA
:1007A000DB011396A370BB27A20FB31F8C91848724
:1007B0000F900F900F900F90DF91CF9108952F928F
:1007C0003F924F925F926F927F928F929F92AF92E1
:1007D000BF92CF92DF92EF92FF920F931F93CF932E
:1007E000DF93CDB7DEB767970FB6F894DEBF0FBEC5
:1007F000CDBF8C013B01242FDB01FC0180E03D914A
:100800009081932791938F5F8031C9F7130140E165
:10081000240E311C31E0CE0141969A8B898B223017
:1008200008F4AEC0DE011196C801FC014191CF0170
:10083000E42FF0E0E35CFD4FE491ED9349895A89A0
:10084000A417B50791F761E0CE0102962F8B3E8B7E
:100850000E94A00362E0CE0103960E94A00363E021
:10086000CE0104960E94A003CE0101965C01FE0118
:1008700032962F01AE014D5F5F4F6A01CE010496A3
:100880007C01812C912C3E892F89F2016081F50138
:1008900080816827F7019081F6018081982796274B
:1008A0004BE182E02F8B3E8B9D8B0E94B305A8010C
:1008B000480D591D5C8B4B8BF501408148279D8964
:1008C0004927EB89FC894083F6016081F201808130
:1008D00068274BE182E09D8B0E94B305F2014081C5
:1008E00048279D894927EB89FC894183F70160816D
:1008F000F601808168274BE182E09D8B0E94B30561
:10090000F601408148279D894927EB89FC8942836C
:10091000F5016081F701808168274BE182E09D8BC2
:100920000E94B305F701408148279D894927EB893B
:10093000FC894383F4E0AF0EB11C44E0840E911CAB
:1009400054E0450E511C84E0C80ED11C94E0E90E21
:10095000F11C2F893E89E0E18E16910409F095CFB4
:10096000F801D10180E04D919081942791938F5FA0
:100970008031C9F73F5F2150F0E12F0E311C4FCF7E
:1009800040E1349F600C711C1124D80180E0EC918F
:10099000F0E0E35CFD4FE491ED938F5F8031B9F7B8
:1009A00061E0C80101960E94A00362E0C8010296BE
:1009B0000E94A00363E0C80103960E94A003D30134
:1009C000F80180E02D919081922791938F5F803183
:1009D000C9F767960FB6F894DEBF0FBECDBFDF91A3
:1009E000CF911F910F91FF90EF90DF90CF90BF902C
:1009F000AF909F908F907F906F905F904F903F90BF
:100A00002F9008958F929F92AF92BF92CF92DF92D4
:100A1000EF92FF920F931F93CF93DF93EA018B0125
:100A200035E0169507953A95E1F7D02E7801FF2429
:100A30009701295F3F4FC22ECC0CCC0CAB0163E079
:100A4000569547956A95E1F7BC01CE010E94A50B2A
:100A5000902E990CA02E60E070E0B12CF62FED2DB9
:100A6000E60FEC1508F06DC08E2F90E0AC01415000
:100A7000504C440F551F440F551F4C0F5D1FDA019A
:100A80000D911D912D913C91EA1501F1B8E0DB1219
:100A90003FC0E770E43009F03BC0E02FF0E0E35CDA
:100AA000FE4FE4910E2FE12FF0E0E35CFE4FE49166
:100AB0001E2FE22FF0E0E35CFE4FE4912E2FE32F98
:100AC000F0E0E35CFE4FE4913E2F22C0AF2EA90C74
:100AD000A02FE12FF0E0E35CFE4FE4910E2FE22F18
:100AE000F0E0E35CFE4FE4911E2FE32FF0E0E35CC7
:100AF000FE4FE4912E2FEA2FF0E0E35CFE4FE491ED
:100B00003E2FEB2DF0E0ED5CFE4FE4910E27B39409
:100B1000FC01EE19FF09EE0FFF1FEE0FFF1FEC0F98
:100B2000FD1F80819181A281B38180279127A22717
:100B3000B327FA0184839583A683B7836F5F7F4FC2
:100B40008DCFDF91CF911F910F91FF90EF90DF90AC
:100B5000CF90BF90AF909F908F900895AB0160ECC5
:100B600070E00C94020528E090E060FD9827382F93
:100B70003078880F3111842766952150B1F7892F7D
:100B80000895FC0124853585F901E05CFF4F8081E3
:100B90009181F901EE5BFF4F20813181821B930B24
:100BA0008F7399270895FC0184859585FC01E05C8D
:100BB000FF4F40815181FC01EE5BFF4F208131816D
:100BC0004217530741F00190F081E02DE80FF91F23
:100BD000808190E008958FEF9FEF0895FC01848558
:100BE0009585FC01E05CFF4F40815181FC01EE5B8B
:100BF000FF4F208131814217530779F0A081B181E5
:100C0000A80FB91F8C91208131812F5F3F4F2F7327
:100C100033273183208390E008958FEF9FEF08956D
:100C2000FC0181A1882329F0A489B5898C9186FFD4
:100C3000FBCF11A20895CF93DF93FC012685378562
:100C4000D901A05CBF4F8D919C91119701968F7334
:100C50009927E901CE5BDF4F4881598184179507B9
:100C6000D9F30D90BC91A02DA20FB31F6C93A68554
:100C7000B785A05CBF4F11969C938E93A689B789C8
:100C80002C9181E090E0078C02C0880F991F0A9494
:100C9000E2F7282B2C9381E081A30488F589E02DCD
:100CA00080818064808381E090E0DF91CF9108951E
:100CB0001F920F920FB60F9211242F933F934F93D1
:100CC0008F939F93EF93FF938091C00082FD1CC090
:100CD0004091C6008091B3029091B40201968F7347
:100CE00099272091B5023091B6028217930771F0CF
:100CF000E091B302F091B402ED58FD4F4083909320
:100D0000B4028093B30202C08091C600FF91EF91BC
:100D10009F918F914F913F912F910F900FBE0F9008
:100D20001F9018951F920F920FB60F9211242F93B8
:100D30003F938F939F93EF93FF9320916F02309196
:100D4000700280917102909172022817390731F474
:100D50008091C1008F7D8093C10014C0E091710229
:100D6000F0917202E15DFD4F2081809171029091BE
:100D7000720201968F739927909372028093710289
:100D80002093C600FF91EF919F918F913F912F91FA
:100D90000F900FBE0F901F901895CF92DF92EF9299
:100DA000FF92CF93DF93EC016A017B01411581EE45
:100DB000580761057105F9F0EC89FD8981E090E043
:100DC00008A002C0880F991F0A94E2F7808360E0B0
:100DD00079E08DE390E0A70196010E947D0B215000
:100DE00031094109510956954795379527952115A0
:100DF00080E1380798F0EC89FD89108260E874E89A
:100E00008EE190E0A70196010E947D0B21503109EF
:100E1000410951095695479537952795E889F989EC
:100E20003083EA89FB89208319A2EE89FF894081FA
:100E300081E090E09C010C8C02C0220F331F0A94C9
:100E4000E2F7422B4083EE89FF8940819C010D8CA3
:100E500002C0220F331F0A94E2F7422B4083EE892F
:100E6000FF8940819C010E8C02C0220F331F0A941F
:100E7000E2F7422B4083EE89FF8920810F8C02C06C
:100E8000880F991F0A94E2F7809582238083DF916F
:100E9000CF91FF90EF90DF90CF90089581E008957B
:100EA0001092100210920F0288EE93E0A0E0B0E0E2
:100EB0008093110290931202A0931302B093140234
:100EC0008CE091E090930E0280930D0283E792E014
:100ED00090931A02809319028FE292E090931C0281
:100EE00080931B0285EC90E090931E0280931D027C
:100EF00084EC90E09093200280931F0280EC90E0BD
:100F0000909322028093210281EC90E0909324023E
:100F10008093230282EC90E0909326028093250236
:100F200086EC90E0909328028093270284E08093DF
:100F3000290283E080932A0287E080932B0285E0D8
:100F400080932C0281E080932D020895CF92DF924E
:100F5000EF92FF920F931F93CF93DF936C017A016F
:100F6000EB01E60EF71E00E010E0CE15DF0561F0A4
:100F70006991D601ED91FC910190F081E02DC601BF
:100F80000995080F191FF1CFC801DF91CF911F916B
:100F90000F91FF90EF90DF90CF900895611571054C
:100FA00081F0DB010D900020E9F7AD0141505109BE
:100FB000461B570BDC01ED91FC910280F381E02D83
:100FC000099480E090E00895EF92FF920F931F93B1
:100FD000CF93DF938C01FB01C0E0D0E064917F01EF
:100FE0008FEFE81AF80A662361F0D801ED91FC91C1
:100FF0000190F081E02DC8010995C80FD91FF701B4
:10100000EDCFCE01DF91CF911F910F91FF90EF9027
:101010000895DC01ED91FC910190F081E02D09949F
:101020000F931F93CF93DF93EC016DE00E940908AB
:101030008C016AE0CE010E940908800F911FDF91A8
:10104000CF911F910F9108950F931F93CF93DF932B
:10105000EC010E94E4078C01CE010E941008800F71
:10106000911FDF91CF911F910F9108958F929F92C1
:10107000AF92BF92CF92DF92EF92FF920F931F93A6
:10108000CF93DF93CDB7DEB7A1970FB6F894DEBF4D
:101090000FBECDBF7C01C42EE52FCB01D22E19A2ED
:1010A00021E02D1510F02AE0D22E8E010F5D1F4F8A
:1010B0008D2C912CA12CB12C6C2D7E2FA50194018F
:1010C0000E947D0B8C2DD29E801911240150110994
:1010D0008A3014F4805D01C0895CF8018083211599
:1010E00031054105510521F0C22EE32FCA01E4CF9D
:1010F000B801C7010E94CE07A1960FB6F894DEBFD3
:101100000FBECDBFDF91CF911F910F91FF90EF9058
:10111000DF90CF90BF90AF909F908F900895CF9227
:10112000DF92EF92FF920F931F93CF93DF93EC0127
:101130006A017B012115310579F4E881F98101907B
:10114000F081E02D642FDF91CF911F910F91FF90DF
:10115000EF90DF90CF9009942A303105E9F477FFC2
:101160001AC06DE20E9409088C0144275527BA0174
:101170004C195D096E097F092AE0CE010E943608EC
:10118000800F911FDF91CF911F910F91FF90EF90F2
:10119000DF90CF9008952AE0B701A601CE01DF913C
:1011A000CF911F910F91FF90EF90DF90CF900C9413
:1011B00036089A01AB01662757FD6095762F0C948F
:1011C0008F082115310541F4DC01ED91FC9101906E
:1011D000F081E02D642F09940C943608CF93DF93AF
:1011E0008230910510F482E090E0E091C202F0912B
:1011F000C30220E030E0A0E0B0E0309739F1408158
:10120000518148175907B8F04817590771F482817E
:101210009381109729F013969C938E9312972CC06C
:101220009093C3028093C20227C02115310531F08B
:101230004217530718F0A901DB0101C0EF019A0121
:10124000BD01DF010280F381E02DD7CF21153105EB
:10125000F9F0281B390B2430310580F48A819B81F9
:101260006115710521F0FB019383828304C0909383
:10127000C3028093C202FE01329644C0FE01E20F17
:10128000F31F8193919322503109398328833AC007
:101290002091C0023091C102232B41F4209104011E
:1012A000309105013093C1022093C00220910201C8
:1012B000309103012115310541F42DB73EB740911E
:1012C000060150910701241B350BE091C002F091FB
:1012D000C102E217F307A0F42E1B3F0B28173907B2
:1012E00078F0AC014E5F5F4F2417350748F04E0F82
:1012F0005F1F5093C1024093C0028193919302C03B
:10130000E0E0F0E0CF01DF91CF910895CF93DF933C
:10131000009709F487C0FC01329713821282C091B2
:10132000C202D091C302209781F420813181280F1D
:10133000391F8091C0029091C1028217930779F5FD
:10134000F093C102E093C0026DC0DE0120E030E006
:10135000AE17BF0750F412964D915C9113979D0103
:101360004115510509F1DA01F3CFB383A28340811E
:101370005181840F951F8A179B0771F48D919C9161
:101380001197840F951F02969183808312968D91F9
:101390009C911397938382832115310529F4F0934F
:1013A000C302E093C2023EC0D9011396FC93EE93B0
:1013B00012974D915D91A40FB51FEA17FB0779F4C1
:1013C00080819181840F951F0296D90111969C937B
:1013D0008E938281938113969C938E931297E0E073
:1013E000F0E08A819B81009719F0FE01EC01F9CFB2
:1013F000CE01029628813981820F931F2091C0026D
:101400003091C1022817390769F4309729F41092F6
:10141000C3021092C20202C013821282D093C10290
:10142000C093C002DF91CF9108950C94EE081F92F3
:101430000F920FB60F9211242F933F938F939F9388
:10144000AF93BF938091B8029091B902A091BA0274
:10145000B091BB023091B70223E0230F2D3720F467
:101460000196A11DB11D05C026E8230F0296A11DFE
:10147000B11D2093B7028093B8029093B902A09354
:10148000BA02B093BB028091BC029091BD02A091C0
:10149000BE02B091BF020196A11DB11D8093BC0296
:1014A0009093BD02A093BE02B093BF02BF91AF91D3
:1014B0009F918F913F912F910F900FBE0F901F9092
:1014C00018953FB7F8948091BC029091BD02A0910D
:1014D000BE02B091BF0226B5A89B05C02F3F19F0F0
:1014E0000196A11DB11D3FBF6627782F892F9A2F26
:1014F000620F711D811D911D42E0660F771F881FCD
:10150000991F4A95D1F70895CF92DF92EF92FF92FB
:10151000CF93DF936B017C010E94610AEB01C11440
:10152000D104E104F10479F00E94610A6C1B7D0B87
:10153000683E7340A0F381E0C81AD108E108F108C1
:10154000C851DC4FECCFDF91CF91FF90EF90DF904F
:10155000CF900895789484B5826084BD84B581600D
:1015600084BD85B5826085BD85B5816085BDEEE6AB
:10157000F0E0808181608083E1E8F0E0108280818A
:1015800082608083808181608083E0E8F0E08081F8
:1015900081608083E1EBF0E0808184608083E0EB18
:1015A000F0E0808181608083EAE7F0E08081846000
:1015B000808380818260808380818160808380815C
:1015C000806880831092C1000895833081F028F4F0
:1015D000813099F08230A1F008958630A9F08730EB
:1015E000B9F08430D1F4809180008F7D03C0809168
:1015F00080008F7780938000089584B58F7702C034
:1016000084B58F7D84BD08958091B0008F7703C02D
:101610008091B0008F7D8093B0000895CF93DF93C9
:1016200090E0FC01EF5AFC4F2491FC01EB59FC4F78
:101630008491882349F190E0880F991FFC01ED57B0
:10164000FC4FA591B49187589C4FFC01C591D49152
:101650009FB7611108C0F8948C91209582238C93D8
:10166000888182230AC0623051F4F8948C91322F21
:10167000309583238C938881822B888304C0F894CF
:101680008C91822B8C939FBFDF91CF9108950F9304
:101690001F93CF93DF931F92CDB7DEB7282F30E093
:1016A000F901E35CFC4F8491F901EF5AFC4F14916E
:1016B000F901EB59FC4F04910023C9F0882321F074
:1016C00069830E94E50A6981E02FF0E0EE0FFF1FB9
:1016D000E758FC4FA591B4919FB7F8948C91611194
:1016E00003C01095812301C0812B8C939FBF0F9065
:1016F000DF91CF911F910F910895A1E21A2EAA1B9D
:10170000BB1BFD010DC0AA1FBB1FEE1FFF1FA217B1
:10171000B307E407F50720F0A21BB30BE40BF50BAE
:10172000661F771F881F991F1A9469F76095709537
:10173000809590959B01AC01BD01CF010895EE0FFE
:10174000FF1F0590F491E02D0994FB01DC0102C01C
:1017500001900D9241505040D8F70895F999FECF6D
:1017600092BD81BDF89A992780B50895F894FFCF6E
:101770000D000000C4028000000000001B06A60748
:08178000C105EE05D3051006BA
:00000001FF
