:100000000C94C6000C94EE000C94EE000C94EE00E0
:100010000C94EE000C94EE000C94EE000C94EE00A8
:100020000C94EE000C94EE000C94EE000C94EE0098
:100030000C94EE000C94EE000C94EE000C94EE0088
:100040000C949B0D0C94EE000C94DC090C94160A95
:100050000C94EE000C94EE000C94EE000C94EE0068
:100060000C94EE000C94EE004461726B004C6967D6
:10007000687400205B75735D00456E6372797074FF
:10008000696F6E20746F74616C2074616B65733A74
:100090002000205B627974655D00416674657220A2
:1000A000656E6372797074696F6E206F66206D651E
:1000B000737361676520667265654D656D6F7279F2
:1000C00028293D2000205B627974655D00426566E9
:1000D0006F726520656E6372797074696F6E206FE0
:1000E00066206D65737361676520667265654D6531
:1000F0006D6F727928293D2000205B75735D004982
:100100006E696369616C69736174696F6E20746F85
:1001100074616C2074616B65733A20004372656191
:1001200074696E67206172726179206F6620646104
:100130007461004CB6D326000000070002010000E5
:100140000304060000000000000000010204081083
:10015000204080010204081020010204081020043D
:10016000040404040404040202020202020303035E
:1001700003030300000000250028002B00000000FE
:1001800000240027002A0000B202D40A11241FBE56
:10019000CFEFD8E0DEBFCDBF11E0A0E0B1E0EAEFE5
:1001A000FFE102C005900D92A434B107D9F712E027
:1001B000A4E4B1E001C01D92AC32B107E1F711E057
:1001C000CCE8D1E004C02297FE010E94350FC83868
:1001D000D107C9F70E94A9020C94FB0F0C940000F0
:1001E000CB010C94B20FCF93DF9300D0CDB7DEB725
:1001F00020912802309129022115310511F42CE2B9
:1002000032E0CE010196821B930B0F900F90DF918D
:10021000CF9108956CE171E085E791E00E94A80B11
:100220000E94E50D6093490170934A0180934B0150
:1002300090934C0120E030E080E090E06DE271E4CA
:1002400040914D0150914E012A3131053CF4DA01C3
:10025000A80FB91FE1E4E20FEC930EC0FA01E80F1A
:10026000F91F6083E0914D01F0914E01E80FF91FF5
:100270007183019620E030E001962F5F3F4F81159A
:1002800044E09407ECF20895EF92FF920F931F93CE
:10029000CF93DF937C0107E511E0C0E0D0E0CE15FD
:1002A000DF0554F4BE0184E491E00E94F000F801FF
:1002B00081938F012196F3CFDF91CF911F910F9101
:1002C000FF90EF900895FF920F931F93CF93DF93CA
:1002D0008C01CFE4D1E0CE018F549140801791077B
:1002E00044F40E94870FF82E0E94E50D6F0D69936C
:1002F000F2CFDF91CF911F910F91FF90089540E8C9
:1003000055E260E070E085E791E00E94510A85E7E0
:1003100091E00E94D20A8823D1F30E940A018AE068
:1003200090E00E94440188E090E00E9463010E94F6
:10033000E50D6093490170934A0180934B019093BE
:100340004C0141E651E06FE471E087E591E00E94E5
:1003500075040E94E50D60934501709346018093FA
:100360004701909348016FEF70E085E791E00E94AC
:10037000680B409145015091460160914701709191
:1003800048018091490190914A01A0914B01B0919F
:100390004C01481B590B6A0B7B0B2AE030E085E7C8
:1003A00091E00E94650C69EF70E085E791E00E94A2
:1003B000A80B61E0809104010C94920EEF92FF92E1
:1003C0000F931F93CF93DF93CDB7DEB764970FB62C
:1003D000F894DEBF0FBECDBF6DEC70E085E791E015
:1003E0000E94680B0E94F3004AE050E0BC0185E7E0
:1003F00091E00E945D0C65EC70E085E791E00E9461
:10040000A80B0E94E50D6093490170934A01809307
:100410004B0190934C0100E010E081E691E00E94D6
:100420005304E0914D01F0914E01E00FF11F9081D6
:10043000982790830F5F1F4F011584E0180769F715
:1004400020914D0130914E01E12C10E2F12E00E09F
:1004500010E040E550E067E571E0CE0101960E94B2
:1004600077080E94E50D60934501709346018093E3
:100470004701909348016AE970E085E791E00E94A6
:10048000680B0E94F3004AE050E0BC0185E791E070
:100490000E945D0C62E970E085E791E00E94A80B84
:1004A00069E770E085E791E00E94680B40914501A3
:1004B0005091460160914701709148018091490136
:1004C00090914A01A0914B01B0914C01481B590BEE
:1004D0006A0B7B0B2AE030E085E791E00E94650C17
:1004E00063E770E085E791E00E94A80B85E791E063
:1004F0000E94940B6DE670E085E791E00E94A80BE6
:1005000061E0809104010E94CB0E68EE73E080E010
:1005100090E00E94080E68E670E085E791E00E9496
:10052000A80B60E0809104010E94CB0E68EE73E09E
:1005300080E090E00E94080E64960FB6F894DEBF4B
:100540000FBECDBFDF91CF911F910F91FF90EF9024
:1005500008950E942E0E0E947F010E94DE0180E01D
:1005600090E0089580E094E00E94990D90934E01F0
:1005700080934D010895CF93DF93CDB7DEB7609799
:100580000FB6F894DEBF0FBECDBF90E1ECE0F1E016
:10059000DE01119601900D929A95E1F7982F9F70C8
:1005A000A1E0B0E0AC0FBD1FA90FB11D2C9190E1EF
:1005B000299F90011124E82FF0E084E0F595E7955C
:1005C0008A95E1F781E090E08C0F9D1FE80FF91FFD
:1005D0008081822B60960FB6F894DEBF0FBECDBF30
:1005E000DF91CF9108952F923F924F925F926F9239
:1005F0007F928F929F92AF92BF92CF92DF92EF92B3
:10060000FF920F931F93CF93DF93DC011996AC9069
:100610001997B12CAA0CAB2CAA1CBB0812969C9162
:100620001297969513968C91139782958F708927C0
:1006300017969C911797892715969C9115979695D3
:10064000982718966C9118976695669569276A257C
:100650006170CD0170E0FC01208130E0A901440F00
:10066000452F441F550B220F331F262B2193CF01FB
:100670007F5F7A3011F0642FEECF1C96BC901C97F0
:10068000CB2CD12C360113E0759467941A95E1F7C1
:100690001D962C911D9730E003E0359527950A951E
:1006A000E1F71E968C911E9790E09595879595950C
:1006B00087951F964C901F97512C7201F594E794E3
:1006C000F594E79456E0559447945A95E1F750967F
:1006D0004C91509750E063E0559547956A95E1F746
:1006E00051966C91519770E07595679575956795E2
:1006F00052963C915297832E912C8401F6E01595E9
:100700000795FA95E1F7D594C794CA24C624C22662
:10071000C826CE24C424C426C62695948794C8240B
:10072000C02653965C915397551F5527551F5C253E
:10073000FB2CF620142D1E21912F9F259527532F3A
:10074000502395276222762D782344224622542D69
:10075000572763236F216122662548234B214023BD
:10076000642782238E2184216827B722BE206B252F
:1007700043224022642559276527617080E090E07C
:100780009D01280F391FF901428550E08A01000FB1
:10079000012F001F110B440F551F462B4287019656
:1007A0008A30910511F0602FEBCF19968C91199733
:1007B00085FB882780F916966C911697661F662729
:1007C000661F660F682B14968C9114978470682BA3
:1007D00012968C9112978170C82FF0E0DF2F93E072
:1007E000CC0FDD1F9A95E1F76C2B1C968C911C9712
:1007F00081FB222420F8312C24E0220C331C2A9582
:10080000E1F76229E62FE695E695E695F0E0ED5CE6
:10081000FE4FE49153968C91539790E0AC01440FB6
:10082000452F441F550B9C0156E0359527955A9549
:10083000E1F724271D963C911D97232774E0959599
:1008400087957A95E1F7282752968C915297829551
:10085000869586958370822750969C9150979695A1
:1008600098271E968C918295869587708927F0E04F
:10087000677002C0F595E7956A95E2F78E2781705B
:10088000DF91CF911F910F91FF90EF90DF90CF906C
:10089000BF90AF909F908F907F906F905F904F90A0
:1008A0003F902F900895FF920F931F93CF93DF9364
:1008B0008C0128E0F22E80E0C82FD0E0D595C795B6
:1008C000C8010E94F302882319F020E830E002C03A
:1008D00020E030E0C22BD32B8C2FFA9469F7DF9104
:1008E000CF911F910F91FF900895CF92DF92EF92D9
:1008F000FF920F931F93CF93DF9300D0CDB7DEB756
:100900006A017C0100E010E0F70181917F016983B9
:100910007A830E94BB02F601E00FF11F838B015026
:10092000110969817A81063FFFEF1F0769F78B0183
:10093000E12CF12CF80181918F010E94BB02F6019C
:10094000EE0DFF1D8187F1E0EF1AF10888EFE81640
:100950008FEFF80679F78FEFF6018183808310EA35
:10096000C6010E94F302F601908198279083928538
:10097000982792871150A1F70F900F90DF91CF9198
:100980001F910F91FF90EF90DF90CF9008958F927D
:100990009F92AF92BF92EF92FF920F931F934B01E2
:1009A0005C0160957095809590956E217F218023E4
:1009B0009123282139214A215B216227732784272B
:1009C00095271F910F91FF90EF90BF90AF909F9050
:1009D0008F9008958F929F92AF92BF92CF92DF92A5
:1009E000EF92FF920F931F934B015C01C801B70177
:1009F0006227732784279527682179218A219B21E3
:100A000059016A01AE20BF20C022D1226A257B2570
:100A10008C259D251F910F91FF90EF90DF90CF9037
:100A2000BF90AF909F908F900895EF92FF920F9399
:100A30001F932E253F254027512726273727482754
:100A40005927CA01B9011F910F91FF90EF900895A6
:100A5000FC0141E053E265E477E640835183628321
:100A6000738349E85BEA6DEC7FEE448355836683CC
:100A700077834EEF5CED6AEB78E9408751876287B8
:100A8000738746E754E562E370E1448755876687DC
:100A9000778740EF51EE62ED73EC408B518B628BA8
:100AA000738B148A158A168A178A108E118E128EED
:100AB000138E08950E94230F08952F923F924F9214
:100AC0005F926F927F928F929F92AF92BF92CF92DE
:100AD000DF92EF92FF920F931F93CF93DF93CDB7E7
:100AE000DEB7C257D1090FB6F894DEBF0FBECDBF37
:100AF0006C0188E0ECE1F1E0DE01AB59BF4F019001
:100B00000D928A95E1F780E1E4E2F1E0DE01AB5A73
:100B1000BF4F01900D928A95E1F78B019E012F5FE7
:100B20003F4F59017E0131E4E30EF11CF801619160
:100B30007191819191918F010E945A05F501619304
:100B40007193819391935F01EE15FF0579F784E12D
:100B5000F601DE01AF5BBF4F01900D928A95E1F780
:100B6000AF961FAEAF97E1961FAEE197AE961FAE60
:100B7000AE9721E430E02C0F3D1F2C5F3F4FE396F2
:100B80003FAF2EAFE397AE963FADAE973F70E09686
:100B90003FAFE097AE964FADAE97403108F45DC0E1
:100BA000232F30E0D9011D96AF70BB27AA0FBB1FC2
:100BB000AA0FBB1F81E090E08C0F9D1FA80FB91FEB
:100BC000F9013896EF70FF27EE0FFF1FEE0FFF1FA2
:100BD000E80FF91F8D919D910D90BC91A02D408142
:100BE00051816281738184279527A627B72701E069
:100BF00010E00C0F1D1FE096FFADE097E4E0FE9FB4
:100C0000000D111D1124F801408151816281738111
:100C100084279527A627B7272E5F3F4F2F703327AE
:100C2000220F331F220F331F41E050E04C0F5D1F96
:100C3000240F351FF901408151816281738184271E
:100C40009527A627B727880F991FAA1FBB1F811DAD
:100C5000F80180839183A283B38325968CAC9DACED
:100C6000AEACBFAC2597D501C4012BE1B695A795D5
:100C7000979587952A95D1F735E0880C991CAA1C81
:100C8000BB1C3A95D1F7882A992AAA2ABB2AE19651
:100C9000FFADE1972F2E312C29964CAC5DAC6EAC9C
:100CA0007FAC2997F101EE0FFF1F25E630E02C0FF6
:100CB0003D1FE20FF31F6196ECACFDAC0EAD1FAD16
:100CC00061972D962CAD3DAD4EAD5FAD2D9701904A
:100CD000F081E02DC301B201099565960CAD1DAD03
:100CE0002EAD3FAD6597800E911EA21EB31EF10181
:100CF000EE0FFF1FEE0FFF1F45E550E04C0F5D1F8D
:100D0000E40FF51F0081118122813381800E911E35
:100D1000A21EB31EE1E0F0E0EC0FFD1FE0962FAD48
:100D2000E09754E0259FE00DF11D11240081118111
:100D300022813381800E911EA21EB31E860E971E45
:100D4000A81EB91E40E150E0BE016F5B7F4FE396E5
:100D50008EAD9FADE3970E94A00F25968CAE9DAE01
:100D6000AEAEBFAE2597D301C20162E0B695A7959E
:100D7000979587956A95D1F77EE1440C551C661CC2
:100D8000771C7A95D1F784299529A629B7292D961C
:100D90008CAF9DAFAEAFBFAF2D97AF963FADAF97C6
:100DA0003F5FAF963FAFAF97343151F4C101019629
:100DB000482F4370E1964FAFE197AF961FAEAF97C4
:100DC000AE965FADAE975F5FAE965FAFAE975035B4
:100DD00009F0D9CECE018F5B9F4F7C0196018C012B
:100DE0000C5E1F4FF70141915191619171917F010B
:100DF000F90180819181A281B381840F951FA61F83
:100E0000B71F81939193A193B1939F01E016F106CF
:100E100049F7F6012489358946895789608D718D96
:100E2000828D938D3E5F4F4F5F4F6F4F7F4F8F4F40
:100E30009F4F248B358B468B578B608F718F828FA2
:100E4000938FCE58DF4F0FB6F894DEBF0FBECDBFE5
:100E5000DF91CF911F910F91FF90EF90DF90CF9096
:100E6000BF90AF909F908F907F906F905F904F90CA
:100E70003F902F9008952F923F924F925F926F92E2
:100E80007F928F929F92AF92BF92CF92DF92EF921A
:100E9000FF920F931F93CF93DF93CDB7DEB7C0546C
:100EA000D1090FB6F894DEBF0FBECDBF4C011B01B8
:100EB0002A018A013B010115E2E01E0748F0B30157
:100EC000C4010E945D05125080E4680E711CF3CFCE
:100ED0003201F1E07F22930140E050E060E070E0F9
:100EE00080E090E0F401A488B588C688D788E08CBB
:100EF000F18C028D138D0E942A0F248B358B468B2B
:100F0000578B608F718F828F938F50E4F52E8E01F7
:100F10000F5F1F4FF8018F2D11928A95E9F7A301FA
:100F2000495F5F4F63E0569547956A95E1F7B201D7
:100F3000672F77276695F6E0660F771FFA95E1F73A
:100F4000620D731DC8010E94970FF301A3E0F6958F
:100F5000E795AA95E1F7E00FF11F87E048225524B5
:100F600080E890E002C0959587954A94E2F79081D9
:100F7000982B9083E0EC6E16E1E07E0600F1B8015C
:100F8000C4010E945D05F401248935894689578989
:100F9000608D718D828D938D3250410951096109A7
:100FA000710981099109248B358B468B578B608F92
:100FB000718F828F938FF8011192FA94E9F7D4011F
:100FC0005C96FE01F996CE018F5B9F4F2E91219387
:100FD000E817F907D9F7B801C4010E945D05C05CA4
:100FE000DF4F0FB6F894DEBF0FBECDBFDF91CF91BC
:100FF0001F910F91FF90EF90DF90CF90BF90AF9037
:101000009F908F907F906F905F904F903F902F9028
:101010000895FF920F931F93CF93DF938B01EC0101
:10102000F12CF80161917191819191918F010E9450
:101030005A056993799389939993F394F5E0FF1294
:10104000F0CFDF91CF911F910F91FF900895EF9214
:10105000FF920F931F93CF93DF93CDB7DEB7A09787
:101060000FB6F894DEBF0FBECDBF7C018B01CE0161
:1010700001962D8F3E8F4F8F58A30E9428052D8DEE
:101080003E8D4F8D58A1DA01C90188279E7F892B9B
:101090008A2B8B2B99F0B801CE0101962D8F3E8FB4
:1010A0004F8F58A30E945D05005C1F4F2D8D3E8D14
:1010B0004F8D58A1325041095109E5CFA901B8011E
:1010C000CE0101960E943B07BE016F5F7F4FC701B3
:1010D0000E940908A0960FB6F894DEBF0FBECDBFE0
:1010E000DF91CF911F910F91FF90EF9008952F9274
:1010F0003F924F925F926F927F928F929F92AF92A8
:10110000BF92CF92DF92EF92FF920F931F93CF93F4
:10111000DF93CDB7DEB7C056D1090FB6F894DEBF66
:101120000FBECDBF5C014901170128018E010F5F81
:101130001F4F80E4F80111928A95E9F74130F2E0FF
:101140005F0738F09A0140E050E0C8010E9427088C
:101150000AC0495F5F4FE3E056954795EA95E1F78E
:10116000C8010E94970F6E0181E4C80ED11CF801DE
:1011700096E3808189278193EC15FD05D1F7C6019F
:101180000E942805B801C6010E945D05A2019101D7
:1011900034012115F2E03F074105510518F1B30173
:1011A000C6016E962FAF6E976F963FAF6F97A09662
:1011B0004FAFA097A1965FAFA1970E945D05E0E4B5
:1011C0006E0E711C6E962FAD6E976F963FAD6F973A
:1011D000A0964FADA097A1965FADA197325041095F
:1011E0005109D7CFB201A101517066277727D201EB
:1011F000C10139E0B695A795979587953A95D1F7AE
:101200001C0166E0220C331C6A95E1F7280C391C9E
:10121000B101C6010E943B0748019AE6F4018081B2
:10122000892781934F01EC15FD05C1F7BF01C50169
:101230000E940908C4010E942805B801C4010E9447
:101240005D0540EA50E0B501C4010E943B07B401CE
:10125000C5010E940908C05ADF4F0FB6F894DEBFDF
:101260000FBECDBFDF91CF911F910F91FF90EF90F7
:10127000DF90CF90BF90AF909F908F907F906F90B6
:101280005F904F903F902F900895FC012485358505
:10129000F901E05CFF4F80819181F901EE5BFF4F26
:1012A00020813181821B930B8F7399270895FC0154
:1012B00084859585FC01E05CFF4F40815181FC01F4
:1012C000EE5BFF4F208131814217530741F00190BF
:1012D000F081E02DE80FF91F808190E008958FEFF5
:1012E0009FEF0895FC0184859585FC01E05CFF4F2C
:1012F00040815181FC01EE5BFF4F2081318142171B
:10130000530779F0A081B181A80FB91F8C9120817A
:1013100031812F5F3F4F2F7333273183208390E03C
:1013200008958FEF9FEF0895FC0181A1882329F094
:10133000A489B5898C9186FFFBCF11A20895CF9324
:10134000DF93FC0126853785D901A05CBF4F8D91C5
:101350009C91119701968F739927E901CE5BDF4F1E
:101360004881598184179507D9F30D90BC91A02D20
:10137000A20FB31F6C93A685B785A05CBF4F1196D3
:101380009C938E93A689B7892C9181E090E0078C7D
:1013900002C0880F991F0A94E2F7282B2C9381E052
:1013A00081A30488F589E02D80818064808381E0B9
:1013B00090E0DF91CF9108951F920F920FB60F9298
:1013C00011242F933F934F938F939F93EF93FF930A
:1013D0008091C00082FD1CC04091C60080911B021C
:1013E00090911C0201968F73992720911D023091D4
:1013F0001E028217930771F0E0911B02F0911C020C
:10140000E552FE4F408390931C0280931B0202C062
:101410008091C600FF91EF919F918F914F913F91E5
:101420002F910F900FBE0F901F9018951F920F9243
:101430000FB60F9211242F933F938F939F93EF93A7
:10144000FF932091D7013091D8018091D9019091DB
:10145000DA012817390731F48091C1008F7D80931C
:10146000C10014C0E091D901F091DA01E956FE4FB4
:1014700020818091D9019091DA0101968F7399278B
:101480009093DA018093D9012093C600FF91EF91E8
:101490009F918F913F912F910F900FBE0F901F90B2
:1014A0001895CF92DF92EF92FF92CF93DF93EC01EA
:1014B0006A017B01411581EE580761057105F9F05C
:1014C000EC89FD8981E090E008A002C0880F991F97
:1014D0000A94E2F7808360E079E08DE390E0A70171
:1014E00096010E94010F2150310941095109569579
:1014F000479537952795211580E1380798F0EC89B5
:10150000FD89108260E874E88EE190E0A701960101
:101510000E94010F21503109410951095695479503
:1015200037952795E889F9893083EA89FB892083F3
:1015300019A2EE89FF89408181E090E09C010C8C2A
:1015400002C0220F331F0A94E2F7422B4083EE8938
:10155000FF8940819C010D8C02C0220F331F0A9429
:10156000E2F7422B4083EE89FF8940819C010E8C7B
:1015700002C0220F331F0A94E2F7422B4083EE8908
:10158000FF8920810F8C02C0880F991F0A94E2F70F
:10159000809582238083DF91CF91FF90EF90DF9041
:1015A000CF90089581E0089510927801109277010C
:1015B00088EE93E0A0E0B0E08093790190937A0107
:1015C000A0937B01B0937C0188E391E09093760136
:1015D000809375018BED91E090938201809381015E
:1015E00087E991E0909384018093830185EC90E0FA
:1015F000909386018093850184EC90E0909388011C
:101600008093870180EC90E090938A018093890118
:1016100081EC90E090938C0180938B0182EC90E0C0
:1016200090938E0180938D0186EC90E090939001D1
:1016300080938F0184E08093910183E080939201F5
:1016400087E08093930185E08093940181E080930B
:1016500095010895CF92DF92EF92FF920F931F931F
:10166000CF93DF936C017A01EB01E60EF71E00E0E9
:1016700010E0CE15DF0561F06991D601ED91FC9186
:101680000190F081E02DC6010995080F191FF1CFD7
:10169000C801DF91CF911F910F91FF90EF90DF90E4
:1016A000CF9008956115710581F0DB010D90002048
:1016B000E9F7AD0141505109461B570BDC01ED9193
:1016C000FC910280F381E02D099480E090E0089580
:1016D000EF92FF920F931F93CF93DF938C01FB0147
:1016E000C0E0D0E064917F018FEFE81AF80A66232A
:1016F00061F0D801ED91FC910190F081E02DC801DD
:101700000995C80FD91FF701EDCFCE01DF91CF9119
:101710001F910F91FF90EF900895DC01ED91FC91E6
:101720000190F081E02D09940F931F93CF93DF93E5
:10173000EC016DE00E948D0B8C016AE0CE010E94ED
:101740008D0B800F911FDF91CF911F910F91089505
:101750000F931F93CF93DF93EC010E94680B8C01D2
:10176000CE010E94940B800F911FDF91CF911F91AA
:101770000F9108958F929F92AF92BF92CF92DF9276
:10178000EF92FF920F931F93CF93DF93CDB7DEB706
:10179000A1970FB6F894DEBF0FBECDBF7C01C42E5B
:1017A000E52FCB01D22E19A221E02D1510F02AE051
:1017B000D22E8E010F5D1F4F8D2C912CA12CB12CA0
:1017C0006C2D7E2FA50194010E94010F8C2DD29EBD
:1017D00080191124015011098A3014F4805D01C070
:1017E000895CF8018083211531054105510521F0FF
:1017F000C22EE32FCA01E4CFB801C7010E94520BE9
:10180000A1960FB6F894DEBF0FBECDBFDF91CF918A
:101810001F910F91FF90EF90DF90CF90BF90AF900E
:101820009F908F900895CF92DF92EF92FF920F9347
:101830001F93CF93DF93EC016A017B0121153105E2
:1018400079F4E881F9810190F081E02D642FDF9136
:10185000CF911F910F91FF90EF90DF90CF9009945F
:101860002A303105E9F477FF1AC06DE20E948D0B32
:101870008C0144275527BA014C195D096E097F096F
:101880002AE0CE010E94BA0B800F911FDF91CF9109
:101890001F910F91FF90EF90DF90CF9008952AE075
:1018A000B701A601CE01DF91CF911F910F91FF905B
:1018B000EF90DF90CF900C94BA0B9A01AB016627A2
:1018C00057FD6095762F0C94130C2115310541F4CA
:1018D000DC01ED91FC910190F081E02D642F0994E1
:1018E0000C94BA0BCF93DF938230910510F482E011
:1018F00090E0E0912A02F0912B0220E030E0A0E09D
:10190000B0E0309739F14081518148175907B8F05C
:101910004817590771F482819381109729F0139623
:101920009C938E9312972CC090932B0280932A0243
:1019300027C02115310531F04217530718F0A901CE
:10194000DB0101C0EF019A01BD01DF010280F381DB
:10195000E02DD7CF21153105F9F0281B390B2430A4
:10196000310580F48A819B816115710521F0FB01AD
:101970009383828304C090932B0280932A02FE01FA
:10198000329644C0FE01E20FF31F819391932250DF
:101990003109398328833AC02091280230912902E5
:1019A000232B41F420910801309109013093290241
:1019B000209328022091060130910701211531055D
:1019C00041F42DB73EB740910A0150910B01241B01
:1019D000350BE0912802F0912902E217F307A0F4F9
:1019E0002E1B3F0B2817390778F0AC014E5F5F4F75
:1019F0002417350748F04E0F5F1F5093290240937C
:101A000028028193919302C0E0E0F0E0CF01DF91E2
:101A1000CF910895CF93DF93009709F487C0FC011D
:101A2000329713821282C0912A02D0912B02209702
:101A300081F420813181280F391F809128029091F3
:101A400029028217930779F5F0932902E09328027F
:101A50006DC0DE0120E030E0AE17BF0750F41296F3
:101A60004D915C9113979D014115510509F1DA01E2
:101A7000F3CFB383A28340815181840F951F8A17CE
:101A80009B0771F48D919C911197840F951F02967D
:101A90009183808312968D919C9113979383828377
:101AA0002115310529F4F0932B02E0932A023EC060
:101AB000D9011396FC93EE9312974D915D91A40F6B
:101AC000B51FEA17FB0779F480819181840F951F78
:101AD0000296D90111969C938E93828193811396DD
:101AE0009C938E931297E0E0F0E08A819B810097AF
:101AF00019F0FE01EC01F9CFCE010296288139815F
:101B0000820F931F2091280230912902281739074C
:101B100069F4309729F410922B0210922A0202C025
:101B200013821282D0932902C0932802DF91CF91B1
:101B300008950C94720C1F920F920FB60F921124FD
:101B40002F933F938F939F93AF93BF9380912002E6
:101B500090912102A0912202B091230230911F02A4
:101B600023E0230F2D3720F40196A11DB11D05C0E0
:101B700026E8230F0296A11DB11D20931F0280931A
:101B8000200290932102A0932202B093230280911D
:101B9000240290912502A0912602B091270201967D
:101BA000A11DB11D8093240290932502A0932602CB
:101BB000B0932702BF91AF919F918F913F912F9149
:101BC0000F900FBE0F901F9018953FB7F89480911B
:101BD000240290912502A0912602B091270226B5F9
:101BE000A89B05C02F3F19F00196A11DB11D3FBF55
:101BF0006627782F892F9A2F620F711D811D911DE5
:101C000042E0660F771F881F991F4A95D1F7089504
:101C1000CF92DF92EF92FF92CF93DF936B017C0123
:101C20000E94E50DEB01C114D104E104F10479F047
:101C30000E94E50D6C1B7D0B683E7340A0F381E0B4
:101C4000C81AD108E108F108C851DC4FECCFDF9188
:101C5000CF91FF90EF90DF90CF900895789484B566
:101C6000826084BD84B5816084BD85B5826085BD98
:101C700085B5816085BDEEE6F0E08081816080837E
:101C8000E1E8F0E010828081826080838081816061
:101C90008083E0E8F0E0808181608083E1EBF0E028
:101CA000808184608083E0EBF0E0808181608083CC
:101CB000EAE7F0E0808184608083808182608083B5
:101CC0008081816080838081806880831092C100E0
:101CD0000895833081F028F4813099F08230A1F0AA
:101CE00008958630A9F08730B9F08430D1F480911E
:101CF00080008F7D03C0809180008F77809380006B
:101D0000089584B58F7702C084B58F7D84BD089512
:101D10008091B0008F7703C08091B0008F7D809359
:101D2000B0000895CF93DF9390E0FC01E55BFE4F98
:101D30002491FC01E15AFE4F8491882349F190E0FF
:101D4000880F991FFC01E358FE4FA591B4918D585F
:101D50009E4FFC01C591D4919FB7611108C0F894C2
:101D60008C91209582238C93888182230AC06230D3
:101D700051F4F8948C91322F309583238C93888181
:101D8000822B888304C0F8948C91822B8C939FBF04
:101D9000DF91CF9108950F931F93CF93DF931F92FD
:101DA000CDB7DEB7282F30E0F901E95CFE4F849112
:101DB000F901E55BFE4F1491F901E15AFE4F0491E0
:101DC0000023C9F0882321F069830E94690E69818C
:101DD000E02FF0E0EE0FFF1FED58FE4FA591B491FC
:101DE0009FB7F8948C91611103C01095812301C0B5
:101DF000812B8C939FBF0F90DF91CF911F910F91FB
:101E00000895A1E21A2EAA1BBB1BFD010DC0AA1F3B
:101E1000BB1FEE1FFF1FA217B307E407F50720F053
:101E2000A21BB30BE40BF50B661F771F881F991FCE
:101E30001A9469F760957095809590959B01AC0117
:101E4000BD01CF010895692796276927782787273D
:101E5000782708952A0D3B1D4C1D5D1D6E1D7F1DAD
:101E6000801F911F0895EE0FFF1F0590F491E02D44
:101E700009948F929F92AF92BF92CF92DF92EF928E
:101E8000FF92CF93DF93EC01688179818A819B81F6
:101E9000611571058105910521F464E279ED8BE509
:101EA00097E02DE133EF41E050E00E94CD0F490172
:101EB0005A019B01AC01A7EAB1E40E94BA0F6B0181
:101EC0007C01ACEEB4EFA50194010E94C80FC60ED0
:101ED000D71EE81EF91EF7FE06C081E0C81AD10819
:101EE000E10880E8F80AC882D982EA82FB82C6014A
:101EF0009F77DF91CF91FF90EF90DF90CF90BF90D1
:101F0000AF909F908F9008950E94390F089580E0C0
:101F100091E00E94390F0895A0E0B0E080930001A5
:101F200090930101A0930201B09303010895FB0176
:101F3000DC0102C001900D9241505040D8F7089545
:101F40006817790768F4FB01DC01E40FF51FA40FA3
:101F5000B51F02C002900E9241505040D8F708952C
:101F60000C94970FF999FECF92BD81BDF89A9927ED
:101F700080B508950E94EC0FA59F900DB49F900D21
:101F8000A49F800D911D11240895B7FF0C94BA0FE2
:101F90000E94BA0F821B930B0895052E97FB1EF427
:101FA00000940E94E40F57FD07D00E94010F07FC28
:101FB00003D04EF40C94E40F509540953095219544
:101FC0003F4F4F4F5F4F0895909580957095619565
:101FD0007F4F8F4F9F4F0895A29FB001B39FC001C5
:101FE000A39F700D811D1124911DB29F700D811D45
:0A1FF0001124911D0895F894FFCF0D
:101FFA00010000000D0000002C0280000008040C03
:10200A00020A060E0109050D030B070FC704150581
:10201A00EA0415059979825AA1EBD96EDCBC1B8FAB
:10202A00D6C162CA000000009F092A0B450972093D
:04203A0057099409A5
:00000001FF
