:100000000C9412020C943A020C943A020C943A02A8
:100010000C943A020C943A020C943A020C943A0270
:100020000C943A020C943A020C943A020C943A0260
:100030000C943A020C943A020C943A020C943A0250
:100040000C94850F0C943A020C94C60B0C94000C83
:100050000C943A020C943A020C943A020C943A0230
:100060000C943A020C943A024461726B004C69673A
:10007000687400205B75735D00456E6372797074FF
:10008000696F6E20746F74616C2074616B65733A74
:100090002000205B627974655D00416674657220A2
:1000A000656E6372797074696F6E206F66206D651E
:1000B000737361676520667265654D656D6F7279F2
:1000C00028293D2000205B627974655D00426566E9
:1000D0006F726520656E6372797074696F6E206FE0
:1000E00066206D65737361676520667265654D6531
:1000F0006D6F727928293D20004372656174696EC5
:1001000067206172726179206F662064617461009A
:10011000070702030405060708090A0B0C0D0E0F5A
:10012000101112131415161718191A1B1C011E1F73
:10013000202122232425262728292A2B2C2D2E2F47
:100140003031323334353637381D08084040010627
:10015000020304054040070C08090A0B40400D1239
:100160000E0F101140401318141516174040191E99
:100170001A1B1C1D40401F24202122234040252AF9
:100180002627282940402B302C2D2E2F07060E1114
:100190000B180105031C0F06150A17130C041A0887
:1001A00010071B140D0229341F252F371E28332D4D
:1001B00021302C31273822352E2A32241D200807E1
:1001C00039312921191109013A322A221A120A0257
:1001D0003B332B231B130B033C342C243F372F279B
:1001E0001F170F073E362E261E160E063D352D25EF
:1001F0001D150D051C140C040808280830103818AB
:10020000402027072F0F37173F1F26062E0E3616C2
:100210003E1E25052D0D35153D1D24042C0C3414D2
:100220003C1C23032B0B33133B1B22022A0A3212E2
:100230003A1A210129093111391908083A322A22BA
:100240001A120A023C342C241C140C043E362E26AE
:100250001E160E0640383028201810083931292182
:10026000191109013B332B231B130B033D352D259E
:100270001D150D053F372F271F170F070404100703
:1002800014151D0C1C11010F171A05121F0A020864
:10029000180E201B0309130D1E06160B0419040665
:1002A00020010203040504050607080908090A0BD2
:1002B0000C0D0C0D0E0F1011101112131415141536
:1002C0001617181918191A1B1C1D1C1D1E1F20019A
:1002D000E4D12FB83A6C59070F74E2D1A6CB953808
:1002E00041E8D62BFC973A50FC8249175B3EA06D43
:1002F000F18E6B34972DC05A3D47F28EC01A69B506
:100300000E7BA4D158C6932FD8A13F42B67C05E9F5
:10031000A09E63F51DC7B428D709346A285ECBF1C7
:10032000D6498F30B12C5AE71AD069874FE3B52CE4
:100330007DE3069A1285BC4FD8B56F03472C1AE9A6
:10034000A690CB7DF13E52843F06A1D8945BC72E88
:100350002C417AB6853FD0E9EB2C47D150FA39864B
:10036000421BAD78F9C5630EB8C71E2D6F09A453A3
:10037000C1AF92680D34E75BAF427C9561DE0B380C
:100380009EF528C3704A1DB6432C95FABE17608DA2
:100390004B2EF08D3C975A61D0B7491AE35C2F86FB
:1003A00014BDC37EAF6805926BD814A7950FE23CCD
:1003B000D2846FB1A93E50C71FD8A374C56B0E92EB
:1003C0007B419CE206ADF35821E74A8DFC90356BEA
:1003D0000000000700020100000304060000000006
:1003E00000000000010204081020408001020408FF
:1003F000102001020408102004040404040404046E
:1004000002020202020203030303030300000000CE
:10041000250028002B0000000000240027002A00EF
:10042000A303BE0C11241FBECFEFD8E0DEBFCDBFAB
:1004300012E0A0E0B1E0EAEDF2E202C005900D9218
:10044000A833B107D9F713E0A8E3B2E001C01D92C9
:10045000A430B107E1F714E0C4E2D4E004C022976D
:10046000FE010E943D11C032D107C9F70E949A03D4
:100470000C946B110C940000CB010C946311CF937E
:10048000DF9300D0CDB7DEB7209100033091010398
:100490002115310511F424E033E0CE010196821BD1
:1004A000930B0F900F90DF91CF91089569EF70E05B
:1004B0008DE492E00E94920D0E94CF0F60933D0266
:1004C00070933E0280933F029093400220E030E020
:1004D00080E090E06DE271E440914302509144026B
:1004E0002A3131053CF4DA01A80FB91FE1E4E20F2B
:1004F000EC930EC0FA01E80FF91F6083E09143020C
:10050000F0914402E80FF91F7183019620E030E07A
:1005100001962F5F3F4F811544E09407ECF2089558
:10052000EF92FF920F931F93CF93DF937C0105E42B
:1005300012E0C0E0D0E0CE15DF0554F4BE0188E340
:1005400092E00E943C02F80181938F012196F3CF43
:10055000DF91CF911F910F91FF90EF90089540E8A8
:1005600055E260E070E08DE492E00E943B0C8DE487
:1005700092E00E94BC0C8823D1F30E94560288E0CE
:1005800090E00E94900261E0809100010C947C1048
:10059000EF92FF920F931F93CF93DF93CDB7DEB708
:1005A000A0970FB6F894DEBF0FBECDBF6DEC70E024
:1005B0008DE492E00E94520D0E943F024AE050E01A
:1005C000BC018DE492E00E94470E65EC70E08DE482
:1005D00092E00E94920D0E94CF0F60933D027093B3
:1005E0003E0280933F029093400200E810E0609149
:1005F00043027091440245E452E08091410290919F
:1006000042020E94BC0480914102909142020896ED
:100610009093420280934102015011090115110586
:1006200031F72091430230914402E12C10E2F12E87
:1006300000E010E040E450E065E472E0CE01019695
:100640000E94610A0E94CF0F6093390270933A02B0
:1006500080933B0290933C026AE970E08DE492E063
:100660000E94520D0E943F024AE050E0BC018DE41E
:1006700092E00E94470E62E970E08DE492E00E94F1
:10068000920D69E770E08DE492E00E94520D409176
:10069000390250913A0260913B0270913C02809184
:1006A0003D0290913E02A0913F02B0914002481B52
:1006B000590B6A0B7B0B2AE030E08DE492E00E943C
:1006C0004F0E63E770E08DE492E00E94920D8DE49E
:1006D00092E00E947E0D6DE670E08DE492E00E9453
:1006E000920D61E0809100010E94B51068EE73E008
:1006F00080E090E00E94F20F68E670E08DE492E006
:100700000E94920D60E0809100010E94B51068EE99
:1007100073E080E090E00E94F20FA0960FB6F8948C
:10072000DEBF0FBECDBFDF91CF911F910F91FF9024
:10073000EF9008950E9418100E94AF020E94C80214
:1007400080E090E0089580E094E00E94830F909311
:1007500044028093430290934202809341020895A1
:10076000EF92FF920F931F93CF93DF93FC0131968B
:10077000F490FC013296E42EDA0140E850E08A2F32
:100780008E198F1518F59F01285F3F4F10E00491D7
:100790000150110F802F869586958695EB01C80F25
:1007A000D11D888190E00770EA0102C0D595C795F8
:1007B0000A95E2F78C239D23892B09F0116031966D
:1007C000E217F30721F7F9011D93D9CFDF91CF91FC
:1007D0001F910F91FF90EF900895CF93DF93CDB7C6
:1007E000DEB727970FB6F894DEBF0FBECDBF27E068
:1007F000FC01DE01119601900D922A95E1F7AC0102
:10080000BE016F5F7F4F80E191E00E94B0032796A9
:100810000FB6F894DEBF0FBECDBFDF91CF91089524
:10082000FC0160817181828193810E940D1160833E
:1008300071838283938308950F931F93CF93DF93E4
:10084000CDB7DEB7A0970FB6F894DEBF0FBECDBF11
:100850006D8F7E8F8F8F98A38A01198E1A8E1B8EB3
:100860001C8EAE014F5E5F4FBE01635E7F4F8EE90F
:1008700092E00E94B003D801CE014896FE01719625
:100880003D91208123272193E817F907C9F759895A
:100890004A893B892C899D898E8919821A821B82FB
:1008A0001C821D821E821F82188659874A873B87B9
:1008B0002C879D878E871F86188AAE014F5F5F4FFA
:1008C000BE01675F7F4F8AE491E00E94B0037981A7
:1008D0006A815B814C813D812E819F818885798BE6
:1008E0006A8B5B8B4C8B3D8B2E8B9F8B888F898D7E
:1008F0009A8DAB8DBC8DAE014F5E5F4F20ED32E027
:10090000FA016191AF01E62FF0E0F595E795E20F6E
:10091000F31FE49160FFE295EF7064E0880F991F88
:10092000AA1FBB1F6A95D1F78E2B205E3F4FF3E0C5
:10093000203D3F0729F7898F9A8FAB8FBC8FCE015F
:1009400049960E941004AE014F5F5F4FBE01675E83
:100950007F4F8CE792E00E94B00369817A818B819E
:100960009C81A0960FB6F894DEBF0FBECDBFDF917D
:10097000CF911F910F9108954F925F926F927F9246
:100980008F929F92AF92BF92CF92DF92EF92FF929F
:100990000F931F93CF93DF93CDB7DEB765970FB655
:1009A000F894DEBF0FBECDBF6C018A01AE014F5F70
:1009B0005F4F8AE392E00E94B003AE01475F5F4F52
:1009C000B8018EEB91E00E94B00300E010E0FCEF74
:1009D000EF2EFEE7FF2ECE0109960E94ED0358018F
:1009E000AA0CBB1CC7010A2C02C0959587950A94D6
:1009F000E2F780FF04C0CE0109960E94ED03AE012C
:100A0000405F5F4FBE01675F7F4F8CE891E00E94BF
:100A1000B0036D817E818F819885AE01405F5F4F0D
:100A20000E941C0449805A806B807C804626572691
:100A30006826792649825A826B827C82CE01099689
:100A40000E94ED038FEFA81AB80AC70102C095955E
:100A50008795AA94E2F780FF04C0CE0109960E9410
:100A6000ED03AE01405F5F4FBE01675F7F4F8CE8D3
:100A700091E00E94B00369817A818B819C81AE01F3
:100A8000405F5F4F0E941C048D809E80AF80B884C1
:100A9000682579258A259B256D837E838F8398879A
:100AA0000F5F1F4F0830110509F095CF09811A819A
:100AB0002B813C81DC01CB0180279127A227B32722
:100AC000082719272A273B2709831A832B833C836E
:100AD00080279127A227B3278D839E83AF83B88772
:100AE000A601BE016F5F7F4F88EF91E00E94B003C7
:100AF00065960FB6F894DEBF0FBECDBFDF91CF91E4
:100B00001F910F91FF90EF90DF90CF90BF90AF902B
:100B10009F908F907F906F905F904F900895DC0131
:100B200090961C92909791961C92919792961C92F7
:100B3000929793961C92939794961C92949795965D
:100B40001C92959796961C92969797961C929797BB
:100B500080E2E2E0F2E001900D928A95E1F70895DB
:100B60000E940D1108952F923F924F925F926F92C3
:100B70007F928F929F92AF92BF92CF92DF92EF922D
:100B8000FF920F931F93CF93DF93CDB7DEB7C05380
:100B9000D1400FB6F894DEBF0FBECDBF1C017B0164
:100BA0006E0101E4C00ED11C8E010F5F1F4FD701F3
:100BB0006D917D918D919D917D010E94B005F8010F
:100BC00061937193819391938F01EC15FD0579F7F2
:100BD0002E01F9E34F0E511C9E012B5D3F4FCB5D63
:100BE000DE4F39832883C552D1403801AE014F5FB3
:100BF0005F4FC95DDE4F59834883C752D14050E1F2
:100C0000CF5DDE4F5883C152D140D201CD90DD90EF
:100C1000ED90FD902D01CB5DDE4FE881F981C5524D
:100C2000D14081919191A191B191CB5DDE4FF9833A
:100C3000E883C552D140C95DDE4FE881F981C752D2
:100C4000D140048115812681378141915191619173
:100C50007191C95DDE4FF983E883C752D140840F9B
:100C6000951FA61FB71FB701A601E1E1769567950D
:100C700057954795EA95D1F746015701FFE0880C53
:100C8000991CAA1CBB1CFA95D1F7482959296A2935
:100C90007B2946015701EAE0B694A794979487947C
:100CA000EA95D1F7482559256A257B254601570144
:100CB000F3E1B694A79497948794FA95D1F7EDE071
:100CC000CC0CDD1CEE1CFF1CEA95D1F78C289D286E
:100CD000AE28BF28482559256A257B25840F951FF6
:100CE000A61FB71FB901A801F7E07695679557953C
:100CF0004795FA95D1F768017901E9E1CC0CDD1C43
:100D0000EE1CFF1CEA95D1F74C295D296E297F293D
:100D100068017901F3E0F694E794D794C794FA95C3
:100D2000D1F74C255D256E257F2568017901E2E12B
:100D3000F694E794D794C794EA95D1F7FEE0000FB4
:100D4000111F221F331FFA95D1F7C02AD12AE22A98
:100D5000F32A4C255D256E257F25840F951FA61F40
:100D6000B71FF30181939193A193B1933F01CF5D9D
:100D7000DE4FF881C152D140FF5FCF5DDE4FF88377
:100D8000C152D140F03409F040CF8E010F5F1E4FA9
:100D900080E2F101D80101900D928A95E1F722E0FD
:100DA00031E0C15DDE4F39832883CF52D1409E01AF
:100DB0002F5F3F4FCB5DDE4F39832883C552D14033
:100DC00001E011E00C0F1D1F0C5F1F4FC95DDE4FCE
:100DD00019830883C752D140CF5EDE4F8881998145
:100DE000AA81BB81C151D140C15DDE4FE881F9814B
:100DF000CF52D1404190519061907190C15DDE4FD2
:100E0000F983E883CF52D140CB5DDE4FE881F98191
:100E1000C552D1400191119121913191CB5DDE4FAD
:100E2000F983E883C552D1406C017D014BE0F69413
:100E3000E794D794C7944A95D1F7AC01BD01E5E199
:100E4000440F551F661F771FEA95D1F7C42AD52A8C
:100E5000E62AF72AAC01BD01F6E07695679557952D
:100E60004795FA95D1F74C015D01EAE1880C991C90
:100E7000AA1CBB1CEA95D1F7482959296A297B2964
:100E8000C426D526E626F726AC01BD01F9E1769504
:100E9000679557954795FA95D1F74C015D01E7E0C5
:100EA000880C991CAA1CBB1CEA95D1F74829592922
:100EB0006A297B29C426D526E626F726AC01BD0182
:100EC0004095509560957095C75EDE4F88809980FB
:100ED000AA80BB80C951D140482159216A217B2178
:100EE000CB5EDE4F88809980AA80BB80C551D140FF
:100EF00088229922AA22BB22482559256A257B25CA
:100F0000C40ED51EE61EF71EC35EDE4F8881998192
:100F1000AA81BB81CD51D140C80ED91EEA1EFB1E4D
:100F2000C40CD51CE61CF71CC00ED11EE21EF31E1D
:100F3000CF5FDE4F88809980AA80BB80C150D140AE
:100F4000CB5FDE4F488059806A807B80C550D1409E
:100F5000C75FDE4F288139814A815B81C950D1400A
:100F6000CF5DDE4F288339834A835B83C152D140F2
:100F70004CE150E0BE016F5F7E4FC95DDE4F88815E
:100F80009981C752D1400E944A11CF5EDE4F8881BD
:100F90009981AA81BB81C151D1408C0D9D1DAE1D8F
:100FA000BF1DCF5EDE4F88839983AA83BB83C15167
:100FB000D140CF5DDE4F88819981AA81BB81C1522A
:100FC000D14084259525A625B72588219921AA21D8
:100FD000BB21CF5DDE4F288139814A815B81C152BF
:100FE000D140422253226422752284259525A625CC
:100FF000B725B501A401FDE076956795579547950E
:10100000FA95D1F72401350113E1440C551C661CF7
:10101000771C1A95D1F74429552966297729240187
:10102000350102E076946794579447940A95D1F776
:1010300095018401EEE1000F111F221F331FEA9575
:10104000D1F7402A512A622A732A4425552566255C
:10105000772524013501F6E17694679457944794F7
:10106000FA95D1F71AE0880C991CAA1CBB1C1A959A
:10107000D1F7482859286A287B2844255525662514
:101080007725840F951FA61FB71F8C0D9D1DAE1DC4
:10109000BF1DCF5FDE4F88839983AA83BB83C15076
:1010A000D140C15DDE4F28813981CF52D1402250DD
:1010B000324009F091CEBE016F5F7E4F7B019101FE
:1010C0008B01005E1F4FD7014D915D916D917D9118
:1010D0007D01F90180819181A281B381840F951FE7
:1010E000A61FB71F81939193A193B1939F01E0161F
:1010F000F10649F7D10190962C91909791963C91E9
:10110000919792964C91929793965C91939794961F
:101110006C91949795967C91959796968C919697CD
:1011200097969C9197973E5F4F4F5F4F6F4F7F4FC2
:101130008F4F9F4F90962C93909791963C939197B9
:1011400092964C93929793965C93939794966C9304
:10115000949795967C93959796968C939697979659
:101160009C93C05DDE4F0FB6F894DEBF0FBECDBFBF
:10117000DF91CF911F910F91FF90EF90DF90CF9073
:10118000BF90AF909F908F907F906F905F904F90A7
:101190003F902F9008952F923F924F925F926F92BF
:1011A0007F928F929F92AF92BF92CF92DF92EF92F7
:1011B000FF920F931F93CF93DF93CDB7DEB7C05449
:1011C000D1090FB6F894DEBF0FBECDBF4C011B0195
:1011D0002A018A013B01011532E0130748F0B301EF
:1011E000C4010E94B305125020E4620E711CF3CFBB
:1011F0003201672C77246694B6E0660C771CBA95AA
:10120000E1F7620C731C120181E03822910140E089
:1012100050E060E070E080E090E0F401A0A0B1A0B8
:10122000C2A0D3A0E4A0F5A006A117A10E9432118C
:1012300020A331A342A353A364A375A386A397A3BA
:10124000810183E0169507958A95E1F7A801B3011E
:10125000CE0101960E944111F7E04F225524E1E0B2
:10126000F0E0EC0FFD1FE00FF11F452831F0D30136
:10127000A00FB11F8C91808301C0108227E0222231
:10128000332480E890E002C0959587952A94E2F790
:10129000E1E0F0E0EC0FFD1FE00FF11F9081982BD3
:1012A0009083C80101968933910570F14FE350E0B6
:1012B000401B510B60E070E0E1E0F0E0EC0FFD1F3F
:1012C0008E0F9F1F0E945C11BE016F5F7F4FC40194
:1012D0000E94B305F40120A131A142A153A164A150
:1012E00075A186A197A1325041095109610971097F
:1012F0008109910920A331A342A353A364A375A339
:1013000086A397A380E090E048E350E0481B590B88
:1013100060E070E021E030E02C0F3D1F820F931F52
:101320000E945C11F401F0A021A032A043A054A0BF
:1013300065A076A017A1DE01D996E8E3F0E02F2D95
:10134000322D432D542D652D762D872D912F0E2F67
:101350000E9416112D933897E83F2FEFF20779F787
:10136000BE016F5F7F4FC4010E94B305C05CDF4FB9
:101370000FB6F894DEBF0FBECDBFDF91CF911F91A6
:101380000F91FF90EF90DF90CF90BF90AF909F9024
:101390008F907F906F905F904F903F902F90089527
:1013A000FF920F931F93CF93DF938B01EC01F12CEE
:1013B000F80161917191819191918F010E94B00525
:1013C0006993799389939993F394F8E0FF12F0CF9E
:1013D000DF91CF911F910F91FF9008958F929F926F
:1013E000AF92BF92CF92DF92EF92FF920F931F9333
:1013F000CF93DF93CDB7DEB7AC970FB6F894DEBFCF
:101400000FBECDBF6C017B01CE01019629A73AA783
:101410004BA75CA70E948F0529A53AA54BA55CA503
:1014200049015A018701811482E09806A104B104A0
:10143000A0F0B801CE01019629A73AA74BA75CA757
:101440000E94B305005C1F4F82E0981AA108B10802
:101450005CA54BA53AA529A5E6CFDA01C901917093
:10146000AA27BB27BA01A90129E076956795579568
:1014700047952A95D1F7BA0136E0660F771F3A955E
:10148000E1F76E0D7F1DAC01CE0101960E94CB08E5
:10149000BE016F5F7F4FC6010E94D009AC960FB6A8
:1014A000F894DEBF0FBECDBFDF91CF911F910F919A
:1014B000FF90EF90DF90CF90BF90AF909F908F9074
:1014C00008952F923F924F925F926F927F928F92E8
:1014D0009F92AF92BF92CF92DF92EF92FF920F93C3
:1014E0001F93CF93DF93CDB7DEB7CC56D1090FB69C
:1014F000F894DEBF0FBECDBF5C0149011701280182
:101500008E010F5F1F4F80E4F80111928A95E9F771
:101510004130F2E05F0738F09A0140E050E0C80146
:101520000E94EE090AC0495F5F4FE3E05695479578
:10153000EA95E1F7C8010E9441116E0181E4C80EED
:10154000D11CF80196E3808189278193EC15FD0574
:10155000D1F7C6010E948F05B801C6010E94B305EC
:10156000A201910134012115F2E03F074105510527
:1015700018F1B301C601AA962FAFAA97AB963FAF59
:10158000AB97AC964FAFAC97AD965FAFAD970E945F
:10159000B305E0E46E0E711CAA962FADAA97AB9628
:1015A0003FADAB97AC964FADAC97AD965FADAD97F9
:1015B000325041095109D7CFB201A10151706627BC
:1015C0007727D201C10129E0B695A7959795879510
:1015D0002A95D1F71C0136E0220C331C3A95E1F72D
:1015E000280C391CB101C6010E94CB0848019AE6BB
:1015F000F4018081892781934F01EC15FD05C1F726
:10160000BF01C5010E94D009C4010E948F05B80125
:10161000C4010E94B30540E051E0B501C4010E943D
:10162000CB08B401C5010E94D009C459DF4F0FB6E1
:10163000F894DEBF0FBECDBFDF91CF911F910F9108
:10164000FF90EF90DF90CF90BF90AF909F908F90E2
:101650007F906F905F904F903F902F900895FC0186
:1016600024853585F901E05CFF4F80819181F90186
:10167000EE5BFF4F20813181821B930B8F73992783
:101680000895FC0184859585FC01E05CFF4F408155
:101690005181FC01EE5BFF4F2081318142175307DE
:1016A00041F00190F081E02DE80FF91F808190E07A
:1016B00008958FEF9FEF0895FC0184859585FC01C7
:1016C000E05CFF4F40815181FC01EE5BFF4F2081C8
:1016D00031814217530779F0A081B181A80FB91F5A
:1016E0008C91208131812F5F3F4F2F7333273183BE
:1016F000208390E008958FEF9FEF0895FC0181A172
:10170000882329F0A489B5898C9186FFFBCF11A28B
:101710000895CF93DF93FC0126853785D901A05C1E
:10172000BF4F8D919C91119701968F739927E90175
:10173000CE5BDF4F4881598184179507D9F30D900F
:10174000BC91A02DA20FB31F6C93A685B785A05C9A
:10175000BF4F11969C938E93A689B7892C9181E0F7
:1017600090E0078C02C0880F991F0A94E2F7282B9B
:101770002C9381E081A30488F589E02D8081806429
:10178000808381E090E0DF91CF9108951F920F92C6
:101790000FB60F9211242F933F934F938F939F93E4
:1017A000EF93FF938091C00082FD1CC04091C60062
:1017B0008091F3029091F40201968F739927209102
:1017C000F5023091F6028217930771F0E091F3026F
:1017D000F091F402ED54FD4F40839093F402809316
:1017E000F30202C08091C600FF91EF919F918F910B
:1017F0004F913F912F910F900FBE0F901F90189512
:101800001F920F920FB60F9211242F933F938F9335
:101810009F93EF93FF932091AF023091B00280919C
:10182000B1029091B2022817390731F48091C100BA
:101830008F7D8093C10014C0E091B102F091B2029B
:10184000E159FD4F20818091B1029091B202019641
:101850008F7399279093B2028093B1022093C600B0
:10186000FF91EF919F918F913F912F910F900FBE1C
:101870000F901F901895CF92DF92EF92FF92CF9327
:10188000DF93EC016A017B01411581EE5807610588
:101890007105F9F0EC89FD8981E090E008A002C0B3
:1018A000880F991F0A94E2F7808360E079E08DE366
:1018B00090E0A70196010E94EB10215031094109E7
:1018C00051095695479537952795211580E1380799
:1018D00098F0EC89FD89108260E874E88EE190E070
:1018E000A70196010E94EB102150310941095109CD
:1018F0005695479537952795E889F9893083EA8980
:10190000FB89208319A2EE89FF89408181E090E064
:101910009C010C8C02C0220F331F0A94E2F7422B69
:101920004083EE89FF8940819C010D8C02C0220F0B
:10193000331F0A94E2F7422B4083EE89FF894081EE
:101940009C010E8C02C0220F331F0A94E2F7422B37
:101950004083EE89FF8920810F8C02C0880F991F78
:101960000A94E2F7809582238083DF91CF91FF90E4
:10197000EF90DF90CF90089581E00895109250028B
:1019800010924F0288EE93E0A0E0B0E08093510205
:1019900090935202A0935302B09354028CE292E0CF
:1019A00090934E0280934D0283EB92E090935A0203
:1019B000809359028FE692E090935C0280935B02E1
:1019C00085EC90E090935E0280935D0284EC90E061
:1019D0009093600280935F0280EC90E090936202AB
:1019E0008093610281EC90E09093640280936302A3
:1019F00082EC90E0909366028093650286EC90E022
:101A0000909368028093670284E08093690283E088
:101A100080936A0287E080936B0285E080936C027A
:101A200081E080936D020895CF92DF92EF92FF9252
:101A30000F931F93CF93DF936C017A01EB01E60EB6
:101A4000F71E00E010E0CE15DF0561F06991D601C8
:101A5000ED91FC910190F081E02DC6010995080FF0
:101A6000191FF1CFC801DF91CF911F910F91FF9006
:101A7000EF90DF90CF9008956115710581F0DB0143
:101A80000D900020E9F7AD0141505109461B570B5D
:101A9000DC01ED91FC910280F381E02D099480E05E
:101AA00090E00895EF92FF920F931F93CF93DF93EF
:101AB0008C01FB01C0E0D0E064917F018FEFE81A58
:101AC000F80A662361F0D801ED91FC910190F08154
:101AD000E02DC8010995C80FD91FF701EDCFCE0140
:101AE000DF91CF911F910F91FF90EF900895DC014E
:101AF000ED91FC910190F081E02D09940F931F93DB
:101B0000CF93DF93EC016DE00E94770D8C016AE0CA
:101B1000CE010E94770D800F911FDF91CF911F9111
:101B20000F9108950F931F93CF93DF93EC010E94C1
:101B3000520D8C01CE010E947E0D800F911FDF910E
:101B4000CF911F910F9108958F929F92AF92BF9264
:101B5000CF92DF92EF92FF920F931F93CF93DF9379
:101B6000CDB7DEB7A1970FB6F894DEBF0FBECDBFDD
:101B70007C01C42EE52FCB01D22E19A221E02D1518
:101B800010F02AE0D22E8E010F5D1F4F8D2C912C6C
:101B9000A12CB12C6C2D7E2FA50194010E94EB107D
:101BA0008C2DD29E80191124015011098A3014F411
:101BB000805D01C0895CF8018083211531054105F4
:101BC000510521F0C22EE32FCA01E4CFB801C701AD
:101BD0000E943C0DA1960FB6F894DEBF0FBECDBF9C
:101BE000DF91CF911F910F91FF90EF90DF90CF90F9
:101BF000BF90AF909F908F900895CF92DF92EF9219
:101C0000FF920F931F93CF93DF93EC016A017B0147
:101C10002115310579F4E881F9810190F081E02DF9
:101C2000642FDF91CF911F910F91FF90EF90DF9084
:101C3000CF9009942A303105E9F477FF1AC06DE29C
:101C40000E94770D8C0144275527BA014C195D0974
:101C50006E097F092AE0CE010E94A40D800F911F1A
:101C6000DF91CF911F910F91FF90EF90DF90CF9078
:101C700008952AE0B701A601CE01DF91CF911F910F
:101C80000F91FF90EF90DF90CF900C94A40D9A01EC
:101C9000AB01662757FD6095762F0C94FD0D21153D
:101CA000310541F4DC01ED91FC910190F081E02DD2
:101CB000642F09940C94A40DCF93DF938230910587
:101CC00010F482E090E0E0910203F091030320E041
:101CD00030E0A0E0B0E0309739F140815181481701
:101CE0005907B8F04817590771F48281938110970A
:101CF00029F013969C938E9312972CC09093030314
:101D00008093020327C02115310531F04217530794
:101D100018F0A901DB0101C0EF019A01BD01DF014B
:101D20000280F381E02DD7CF21153105F9F0281B72
:101D3000390B2430310580F48A819B81611571054E
:101D400021F0FB019383828304C09093030380936B
:101D50000203FE01329644C0FE01E20FF31F81939D
:101D6000919322503109398328833AC0209100038E
:101D700030910103232B41F420912402309125025C
:101D8000309301032093000320912202309123021B
:101D90002115310541F42DB73EB7409126025091EF
:101DA0002702241B350BE0910003F0910103E21799
:101DB000F307A0F42E1B3F0B2817390778F0AC016E
:101DC0004E5F5F4F2417350748F04E0F5F1F50934B
:101DD0000103409300038193919302C0E0E0F0E09F
:101DE000CF01DF91CF910895CF93DF93009709F44E
:101DF00087C0FC01329713821282C0910203D091F6
:101E00000303209781F420813181280F391F8091AD
:101E10000003909101038217930779F5F093010372
:101E2000E09300036DC0DE0120E030E0AE17BF0795
:101E300050F412964D915C9113979D0141155105F7
:101E400009F1DA01F3CFB383A28340815181840F7A
:101E5000951F8A179B0771F48D919C911197840FA0
:101E6000951F02969183808312968D919C91139772
:101E7000938382832115310529F4F0930303E093C2
:101E800002033EC0D9011396FC93EE9312974D9135
:101E90005D91A40FB51FEA17FB0779F4808191814A
:101EA000840F951F0296D90111969C938E9382817F
:101EB000938113969C938E931297E0E0F0E08A81D1
:101EC0009B81009719F0FE01EC01F9CFCE0102963B
:101ED00028813981820F931F2091000330910103E3
:101EE0002817390769F4309729F4109203031092E8
:101EF000020302C013821282D0930103C093000335
:101F0000DF91CF9108950C945C0E1F920F920FB643
:101F10000F9211242F933F938F939F93AF93BF936F
:101F20008091F8029091F902A091FA02B091FB021F
:101F30003091F70223E0230F2D3720F40196A11DE5
:101F4000B11D05C026E8230F0296A11DB11D2093E7
:101F5000F7028093F8029093F902A093FA02B093EB
:101F6000FB028091FC029091FD02A091FE02B091D3
:101F7000FF020196A11DB11D8093FC029093FD020A
:101F8000A093FE02B093FF02BF91AF919F918F91FA
:101F90003F912F910F900FBE0F901F9018953FB754
:101FA000F8948091FC029091FD02A091FE02B09104
:101FB000FF0226B5A89B05C02F3F19F00196A11D71
:101FC000B11D3FBF6627782F892F9A2F620F711D91
:101FD000811D911D42E0660F771F881F991F4A954A
:101FE000D1F70895CF92DF92EF92FF92CF93DF93D4
:101FF0006B017C010E94CF0FEB01C114D104E104FD
:10200000F10479F00E94CF0F6C1B7D0B683E73408A
:10201000A0F381E0C81AD108E108F108C851DC4FEB
:10202000ECCFDF91CF91FF90EF90DF90CF900895AC
:10203000789484B5826084BD84B5816084BD85B5A3
:10204000826085BD85B5816085BDEEE6F0E080816A
:1020500081608083E1E8F0E010828081826080838B
:10206000808181608083E0E8F0E08081816080830E
:10207000E1EBF0E0808184608083E0EBF0E0808140
:1020800081608083EAE7F0E08081846080838081E2
:10209000826080838081816080838081806880838A
:1020A0001092C1000895833081F028F4813099F0B6
:1020B0008230A1F008958630A9F08730B9F08430DD
:1020C000D1F4809180008F7D03C0809180008F7754
:1020D00080938000089584B58F7702C084B58F7D8A
:1020E00084BD08958091B0008F7703C08091B000C7
:1020F0008F7D8093B0000895CF93DF9390E0FC0133
:10210000EC51FC4F2491FC01E850FC4F8491882352
:1021100049F190E0880F991FFC01EA5EFB4FA59101
:10212000B491845F9B4FFC01C591D4919FB761111D
:1021300008C0F8948C91209582238C938881822307
:102140000AC0623051F4F8948C91322F3095832379
:102150008C938881822B888304C0F8948C91822B85
:102160008C939FBFDF91CF9108950F931F93CF93CF
:10217000DF931F92CDB7DEB7282F30E0F901E0538F
:10218000FC4F8491F901EC51FC4F1491F901E85096
:10219000FC4F04910023C9F0882321F069830E9439
:1021A00053106981E02FF0E0EE0FFF1FE45FFB4F5B
:1021B000A591B4919FB7F8948C91611103C01095CB
:1021C000812301C0812B8C939FBF0F90DF91CF9112
:1021D0001F910F910895A1E21A2EAA1BBB1BFD01AE
:1021E0000DC0AA1FBB1FEE1FFF1FA217B307E407F6
:1021F000F50720F0A21BB30BE40BF50B661F771F4E
:10220000881F991F1A9469F760957095809590952D
:102210009B01AC01BD01CF0108956927962769276D
:10222000782787277827089597FB10F816940008D9
:102230000F93083098F00850232F342F452F562F36
:10224000672F782F892F902DF4CF05949795879538
:102250007795679557954795379527950A95AAF7E6
:102260000F9108952A0D3B1D4C1D5D1D6E1D7F1D98
:10227000801F911F0895EE0FFF1F0590F491E02D30
:102280000994FB01DC0102C001900D9241505040C5
:10229000D8F708956817790768F4FB01DC01E40FAB
:1022A000F51FA40FB51F02C002900E92415050407E
:1022B000D8F708950C944111DC0101C06D93415091
:1022C0005040E0F70895F999FECF92BD81BDF89A8C
:0A22D000992780B50895F894FFCF18
:1022DA000D00982F8A4291443771CFFBC0B5A5DB18
:1022EA00B5E95BC25639F111F159A4823F92D55E24
:1022FA001CAB98AA07D8015B8312BE853124C37D23
:10230A000C55745DBE72FEB1DE80A706DC9B74F1CB
:10231A009BC1C1699BE48647BEEFC69DC10FCCA194
:10232A000C246F2CE92DAA84744ADCA9B05CDA88E3
:10233A00F97652513E986DC631A8C82703B0C77FB7
:10234A0059BFF30BE0C64791A7D55163CA0667295F
:10235A002914850AB72738211B2EFC6D2C4D130D25
:10236A00385354730A65BB0A6A762EC9C281852C12
:10237A007292A1E8BFA24B661AA8708B4BC2A351F6
:10238A006CC719E892D1240699D685350EF470A047
:10239A006A1016C1A419086C371E4C774827B5BCB9
:1023AA00B034B30C1C394AAAD84E4FCA9C5BF36F9F
:1023BA002E68EE828F746F63A5781478C884080239
:1023CA00C78CFAFFBE90EB6C50A4F7A3F9BEF27863
:1023DA0071C667E6096A85AE67BB72F36E3C3AF569
:1023EA004FA57F520E518C68059BABD9831F19CD1F
:1023FA00E05B00000403800000000000890B140D5C
:08240A002F0B5C0B410B7E0B54
:00000001FF
