:100000000C94F6000C941E010C941E010C941E011D
:100010000C941E010C941E010C941E010C941E01E4
:100020000C941E010C941E010C941E010C941E01D4
:100030000C941E010C941E010C941E010C941E01C4
:100040000C94650D0C941E010C94A6090C94E00907
:100050000C941E010C941E010C941E010C941E01A4
:100060000C941E010C941E014461726B004C696774
:10007000687400205B75735D00456E6372797074FF
:10008000696F6E20746F74616C2074616B65733A74
:100090002000205B627974655D00416674657220A2
:1000A000656E6372797074696F6E206F66206D651E
:1000B000737361676520667265654D656D6F7279F2
:1000C00028293D2000205B627974655D00426566E9
:1000D0006F726520656E6372797074696F6E206FE0
:1000E00066206D65737361676520667265654D6531
:1000F0006D6F727928293D2000205B75735D004982
:100100006E696369616C69736174696F6E20746F85
:1001100074616C2074616B65733A20004372656191
:1001200074696E67206172726179206F6620646104
:10013000746100AB77F49B908C7970B6189A6FE776
:100140007E4B6CEF80A711AF1F3CC422A32F0E8102
:100150004DE566914B54D4C10B6383301F197D98D4
:100160003CB6FEE0C3007C45E36066B55BF47F5EB1
:10017000F2D65D550926796270007931D9AF37BE64
:1001800006BE0F314D1142594CECF32696679C3256
:10019000BE3B80AF53523700000007000201000051
:1001A0000304060000000000000000010204081023
:1001B00020408001020408102001020408102004DD
:1001C00004040404040404020202020202030303FE
:1001D00003030300000000250028002B000000009E
:1001E00000240027002A0000E2029E0A11241FBEFC
:1001F000CFEFD8E0DEBFCDBF11E0A0E0B1E0EEE888
:10020000FFE102C005900D92A433B107D9F712E0C7
:10021000A4E3B1E001C01D92A233B107E1F711E000
:10022000CCEED1E004C02297FE010E94FF0EC83E32
:10023000D107C9F70E94D9020C94C50F0C94000095
:10024000CB010C947C0FCF93DF9300D0CDB7DEB7FA
:1002500020912E0230912F022115310511F422E355
:1002600032E0CE010196821B930B0F900F90DF912D
:10027000CF9108956CE171E08BE791E00E94720BE1
:100280000E94AF0D6093390170933A0180933B0156
:1002900090933C0120E030E080E090E06DE271E47A
:1002A00040913D0150913E012A3131053CF4DA0183
:1002B000A80FB91FE1E4E20FEC930EC0FA01E80FBA
:1002C000F91F6083E0913D01F0913E01E80FF91FB5
:1002D0007183019620E030E001962F5F3F4F81153A
:1002E00044E09407ECF20895EF92FF920F931F936E
:1002F000CF93DF937C0109E411E0C0E0D0E0CE159C
:10030000DF0554F4BE0184E391E00E942001F8016E
:1003100081938F012196F3CFDF91CF911F910F91A0
:10032000FF90EF900895FF920F931F93CF93DF9369
:100330008C01CFE3D1E0CE018F539140801791071C
:1003400044F40E94510FF82E0E94AF0D6F0D699377
:10035000F2CFDF91CF911F910F91FF9008950F93EE
:100360001F9340E855E260E070E08BE791E00E9467
:100370001B0A8BE791E00E949C0A8823D1F30E941C
:100380003A018AE090E00E9474018AE090E00E94C5
:1003900093010E94AF0D6093390170933A018093ED
:1003A0003B0190933C0103E511E020E530E04FE391
:1003B00051E060E570E089E491E00E946E080E94DF
:1003C000AF0D6093350170933601809337019093A0
:1003D00038016FEF70E08BE791E00E94320B4091A3
:1003E000350150913601609137017091380180914B
:1003F000390190913A01A0913B01B0913C01481B19
:10040000590B6A0B7B0B2AE030E08BE791E00E94EE
:100410002F0C69EF70E08BE791E00E94720B61E0B6
:10042000809104011F910F910C945C0EEF92FF924A
:100430000F931F93CF93DF93CDB7DEB764970FB6BB
:10044000F894DEBF0FBECDBF6DEC70E08BE791E09E
:100450000E94320B0E9423014AE050E0BC018BE76E
:1004600091E00E94270C65EC70E08BE791E00E9420
:10047000720B0E94AF0D6093390170933A01809323
:100480003B0190933C0183E591E00E94EC08E091F0
:100490003D01F0913E0190819827908320913D018C
:1004A00030913E0118E0E12EF12C00E010E040E533
:1004B00050E069E471E0CE0101960E949B060E9423
:1004C000AF0D60933501709336018093370190939F
:1004D00038016AE970E08BE791E00E94320B0E94DC
:1004E00023014AE050E0BC018BE791E00E94270C19
:1004F00062E970E08BE791E00E94720B69E770E0BF
:100500008BE791E00E94320B40913501509136010A
:1005100060913701709138018091390190913A01D1
:10052000A0913B01B0913C01481B590B6A0B7B0B1E
:100530002AE030E08BE791E00E942F0C63E770E047
:100540008BE791E00E94720B8BE791E00E945E0BBB
:100550006DE670E08BE791E00E94720B04E011E021
:1005600061E0F80180810E94950E68EE73E080E002
:1005700090E00E94D20D68E670E08BE791E00E9467
:10058000720B60E0F80180810E94950E68EE73E0C6
:1005900080E090E00E94D20D64960FB6F894DEBF22
:1005A0000FBECDBFDF91CF911F910F91FF90EF90C4
:1005B00008950E94F80D0E94AF010E94160280E08B
:1005C00090E0089580E094E00E94630D90933E01D6
:1005D00080933D0108958F929F92AF92BF92EF92C8
:1005E000FF920F931F934B015C016095709580956E
:1005F00090956E217F2180239123282139214A2142
:100600005B2162277327842795271F910F91FF9005
:10061000EF90BF90AF909F908F9008958F929F9290
:10062000AF92BF92CF92DF92EF92FF920F931F9300
:100630004B015C01C801B701622773278427952706
:10064000682179218A219B2159016A01AE20BF20AE
:10065000C022D1226A257B258C259D251F910F91D3
:10066000FF90EF90DF90CF90BF90AF909F908F90D2
:100670000895EF92FF920F931F932E253F25402759
:1006800051272627372748275927CA01B9011F9123
:100690000F91FF90EF900895FC0141E053E265E473
:1006A00077E6408351836283738349E85BEA6DECAC
:1006B0007FEE44835583668377834EEF5CED6AEB70
:1006C00078E9408751876287738746E754E562E39C
:1006D00070E1448755876687778740EF51EE62ED7A
:1006E00073EC408B518B628B738B148A158A168A3C
:1006F000178A108E118E128E138E08950E94ED0EA1
:1007000008952F923F924F925F926F927F928F92B5
:100710009F92AF92BF92CF92DF92EF92FF920F9390
:100720001F93CF93DF93CDB7DEB7C257D1090FB672
:10073000F894DEBF0FBECDBF6C0188E0ECE0F1E0C5
:10074000DE01AB59BF4F01900D928A95E1F780E130
:10075000E4E1F1E0DE01AB5ABF4F01900D928A95C2
:10076000E1F78B019E012F5F3F4F59017E0131E47C
:10077000E30EF11CF80161917191819191918F01CA
:100780000E947E03F50161937193819391935F01C0
:10079000EE15FF0579F784E1F601DE01AF5BBF4F8F
:1007A00001900D928A95E1F7AF961FAEAF97E19653
:1007B0001FAEE197AE961FAEAE9721E430E02C0F4E
:1007C0003D1F2C5F3F4FE3963FAF2EAFE397AE96B2
:1007D0003FADAE973F70E0963FAFE097AE964FAD1E
:1007E000AE97403108F45DC0232F30E0D9011D964B
:1007F000AF70BB27AA0FBB1FAA0FBB1F81E090E001
:100800008C0F9D1FA80FB91FF9013896EF70FF27B5
:10081000EE0FFF1FEE0FFF1FE80FF91F8D919D9147
:100820000D90BC91A02D40815181628173818427FC
:100830009527A627B72701E010E00C0F1D1FE096B3
:10084000FFADE097E4E0FE9F000D111D1124F801BB
:10085000408151816281738184279527A627B7271C
:100860002E5F3F4F2F703327220F331F220F331F6E
:1008700041E050E04C0F5D1F240F351FF90140810E
:1008800051816281738184279527A627B727880F16
:10089000991FAA1FBB1F811DF80180839183A2832A
:1008A000B38325968CAC9DACAEACBFAC2597D5017F
:1008B000C4012BE1B695A795979587952A95D1F711
:1008C00035E0880C991CAA1CBB1C3A95D1F7882AE4
:1008D000992AAA2ABB2AE196FFADE1972F2E312C47
:1008E00029964CAC5DAC6EAC7FAC2997F101EE0F54
:1008F000FF1F25E630E02C0F3D1FE20FF31F61962E
:10090000ECACFDAC0EAD1FAD61972D962CAD3DADA1
:100910004EAD5FAD2D970190F081E02DC301B20186
:10092000099565960CAD1DAD2EAD3FAD6597800E5A
:10093000911EA21EB31EF101EE0FFF1FEE0FFF1F4F
:1009400045E550E04C0F5D1FE40FF51F008111815C
:1009500022813381800E911EA21EB31EE1E0F0E0E1
:10096000EC0FFD1FE0962FADE09754E0259FE00DC2
:10097000F11D11240081118122813381800E911E8D
:10098000A21EB31E860E971EA81EB91E40E150E09F
:10099000BE016F5B7F4FE3968EAD9FADE3970E94E4
:1009A0006A0F25968CAE9DAEAEAEBFAE2597D30135
:1009B000C20162E0B695A795979587956A95D1F79C
:1009C0007EE1440C551C661C771C7A95D1F784296E
:1009D0009529A629B7292D968CAF9DAFAEAFBFAF95
:1009E0002D97AF963FADAF973F5FAF963FAFAF97B5
:1009F000343151F4C1010196482F4370E1964FAF55
:100A0000E197AF961FAEAF97AE965FADAE975F5FC3
:100A1000AE965FAFAE97503509F0D9CECE018F5B61
:100A20009F4F7C0196018C010C5E1F4FF701419195
:100A30005191619171917F01F90180819181A28130
:100A4000B381840F951FA61FB71F81939193A19324
:100A5000B1939F01E016F10649F7F6012489358923
:100A600046895789608D718D828D938D3E5F4F4F82
:100A70005F4F6F4F7F4F8F4F9F4F248B358B468B30
:100A8000578B608F718F828F938FCE58DF4F0FB649
:100A9000F894DEBF0FBECDBFDF91CF911F910F91B4
:100AA000FF90EF90DF90CF90BF90AF909F908F908E
:100AB0007F906F905F904F903F902F9008952F926E
:100AC0003F924F925F926F927F928F929F92AF92DE
:100AD000BF92CF92DF92EF92FF920F931F93CF932B
:100AE000DF93CDB7DEB7C054D1090FB6F894DEBF9F
:100AF0000FBECDBF4C011B012A018A013B0101152C
:100B0000E2E01E0748F0B301C4010E9481031250C5
:100B100080E4680E711CF3CF3201F1E07F22930173
:100B200040E050E060E070E080E090E0F401A488F4
:100B3000B588C688D788E08CF18C028D138D0E9411
:100B4000F40E248B358B468B578B608F718F828F81
:100B5000938F50E4F52E8E010F5F1F4FF8018F2DFC
:100B600011928A95E9F7A301495F5F4F63E05695BB
:100B700047956A95E1F7B201672F77276695F6E00A
:100B8000660F771FFA95E1F7620D731DC8010E9489
:100B9000610FF301A3E0F695E795AA95E1F7E00F61
:100BA000F11F87E04822552480E890E002C0959527
:100BB00087954A94E2F79081982B9083E0EC6E162B
:100BC000E1E07E0600F1B801C4010E948103F40156
:100BD0002489358946895789608D718D828D938DE1
:100BE0003250410951096109710981099109248B28
:100BF000358B468B578B608F718F828F938FF80167
:100C00001192FA94E9F7D4015C96FE01F996CE01AF
:100C10008F5B9F4F2E912193E817F907D9F7B80101
:100C2000C4010E948103C05CDF4F0FB6F894DEBFA1
:100C30000FBECDBFDF91CF911F910F91FF90EF902D
:100C4000DF90CF90BF90AF909F908F907F906F90EC
:100C50005F904F903F902F900895FF920F931F93B6
:100C6000CF93DF938B01EC01F12CF801619171912D
:100C7000819191918F010E947E0369937993899369
:100C80009993F394F5E0FF12F0CFDF91CF911F918C
:100C90000F91FF900895EF92FF920F931F93CF93C0
:100CA000DF93CDB7DEB7A0970FB6F894DEBF0FBEC7
:100CB000CDBF7C018B01CE0101962D8F3E8F4F8FD2
:100CC00058A30E944C032D8D3E8D4F8D58A1DA0103
:100CD000C90188279E7F892B8A2B8B2B99F0B8011D
:100CE000CE0101962D8F3E8F4F8F58A30E94810316
:100CF000005C1F4F2D8D3E8D4F8D58A13250410904
:100D00005109E5CFA901B801CE0101960E945F0506
:100D1000BE016F5F7F4FC7010E942D06A0960FB6E0
:100D2000F894DEBF0FBECDBFDF91CF911F910F9121
:100D3000FF90EF9008952F923F924F925F926F92A3
:100D40007F928F929F92AF92BF92CF92DF92EF925B
:100D5000FF920F931F93CF93DF93CDB7DEB7C056AB
:100D6000D1090FB6F894DEBF0FBECDBF5C014901BB
:100D7000170128018E010F5F1F4F80E4F8011192C7
:100D80008A95E9F74130F2E05F0738F09A0140E0D8
:100D900050E0C8010E944B060AC0495F5F4FE3E084
:100DA00056954795EA95E1F7C8010E94610F6E01DB
:100DB00081E4C80ED11CF80196E3808189278193D4
:100DC000EC15FD05D1F7C6010E944C03B801C60120
:100DD0000E948103A201910134012115F2E03F0735
:100DE0004105510518F1B301C6016E962FAF6E97FC
:100DF0006F963FAF6F97A0964FAFA097A1965FAF4A
:100E0000A1970E948103E0E46E0E711C6E962FADD7
:100E10006E976F963FAD6F97A0964FADA097A19636
:100E20005FADA197325041095109D7CFB201A1015D
:100E3000517066277727D201C10139E0B695A79591
:100E4000979587953A95D1F71C0166E0220C331CE3
:100E50006A95E1F7280C391CB101C6010E945F05B3
:100E600048019AE6F4018081892781934F01EC15AE
:100E7000FD05C1F7BF01C5010E942D06C4010E94F6
:100E80004C03B801C4010E94810340EA50E0B5015F
:100E9000C4010E945F05B401C5010E942D06C05A1D
:100EA000DF4F0FB6F894DEBF0FBECDBFDF91CF91FD
:100EB0001F910F91FF90EF90DF90CF90BF90AF9078
:100EC0009F908F907F906F905F904F903F902F906A
:100ED0000895DC0185E1815041F0FB0124919C9152
:100EE00092279D936F5F7F4FF6CF08958F929F92C9
:100EF000AF92BF92CF92DF92EF92FF920F931F9328
:100F0000CF93DF93CDB7DEB7A8970FB6F894DEBFC7
:100F10000FBECDBF8B01D22EDB0116963C911697EA
:100F20003295369536953370FC01258526952695A4
:100F300023271D963C911D9736953695C680C29401
:100F4000C69477E0C722C326FC2DF170CF2E1A96E7
:100F50003C91432341704D25DC0153965C9153979E
:100F6000551F5527551FFC01319620FF26C0E12C47
:100F7000F12CBC902B2D30E0B901660F771F6E2944
:100F80006B256C937081E72EEE1CEE24EE1C220F75
:100F9000232F221F330B372F330F322B372730836A
:100FA000F394129632962AE0F212E3CF451719F124
:100FB00063E871E00E9469071EC0DC01E12CF12C9E
:100FC0002C9130E0B901660F771F6E296C93708108
:100FD000E72EEE1CEE24EE1C220F232F221F330BD4
:100FE000372F330F322B3083F394129632963AE038
:100FF000F312E6CFDBCFD8015396BC90BB1CBB24C9
:10100000BB1C84E1F801DE01559601900D928A9592
:10101000E1F76FE671E0CE0145960E946907F8019D
:1010200074969E012B5E3F4F7901CE01019630E010
:101030004291242F2695232BD7012E937D01342F07
:10104000379533273795A817B90791F76BE571E006
:10105000CD010E946907DE0155964801AE01475D4A
:101060005F4F70E0F401808190E09C01220F232FFC
:10107000221F330BAD90F70161917F016A21672731
:10108000880F991F6827F40161934F01A417B507D2
:1010900011F0722FE7CFD8018C918E7F8C93DB14E7
:1010A00051F0CC2019F063E371E002C067E471E015
:1010B000C8010E946907A8960FB6F894DEBF0FBE5C
:1010C000CDBFDF91CF911F910F91FF90EF90DF90F7
:1010D000CF90BF90AF909F908F9008956F927F9226
:1010E0008F929F92AF92BF92CF92DF92EF92FF9238
:1010F0000F931F93CF93DF935C016B01EA014901CA
:1011000084E1F801982F11929A95E9F77801E4E1CA
:10111000EE0EF11CF70111928A95E9F7612C712C02
:1011200068147904F1F0F301B3E0F695E795BA9508
:10113000E1F7EC0FFD1F208130E0C3018095909511
:101140008770992702C0359527958A95E2F7217017
:1011500041E0B701C8010E947607FFEF6F1A7F0ACE
:10116000DFCFC0E0D0E0CC15DD05E1F0FE01A3E06B
:10117000F695E795AA95E1F7EA0DFB1D208130E091
:10118000CE01809590958770992702C03595279557
:101190008A95E2F7217041E0B701C8010E94760705
:1011A0002196E1CFC0EAD0E020E041E0B701C801DC
:1011B0000E94760721972097B9F7DF91CF911F9171
:1011C0000F91FF90EF90DF90CF90BF90AF909F90E6
:1011D0008F907F906F900895EF92FF920F931F93DF
:1011E000CF93DF93EC0118E0E12EF12C8C010C5E23
:1011F0001F4F8C89988189278170FF0CF82A20E085
:1012000040E0B801CE010E947607EA9491F78F2D55
:10121000DF91CF911F910F91FF90EF900895FC0106
:1012200024853585F901E05CFF4F80819181F901CA
:10123000EE5BFF4F20813181821B930B8F739927C7
:101240000895FC0184859585FC01E05CFF4F408199
:101250005181FC01EE5BFF4F208131814217530722
:1012600041F00190F081E02DE80FF91F808190E0BE
:1012700008958FEF9FEF0895FC0184859585FC010B
:10128000E05CFF4F40815181FC01EE5BFF4F20810C
:1012900031814217530779F0A081B181A80FB91F9E
:1012A0008C91208131812F5F3F4F2F733327318302
:1012B000208390E008958FEF9FEF0895FC0181A1B6
:1012C000882329F0A489B5898C9186FFFBCF11A2D0
:1012D0000895CF93DF93FC0126853785D901A05C63
:1012E000BF4F8D919C91119701968F739927E901BA
:1012F000CE5BDF4F4881598184179507D9F30D9054
:10130000BC91A02DA20FB31F6C93A685B785A05CDE
:10131000BF4F11969C938E93A689B7892C9181E03B
:1013200090E0078C02C0880F991F0A94E2F7282BDF
:101330002C9381E081A30488F589E02D808180646D
:10134000808381E090E0DF91CF9108951F920F920A
:101350000FB60F9211242F933F934F938F939F9328
:10136000EF93FF938091C00082FD1CC04091C600A6
:10137000809121029091220201968F7399272091EA
:101380002302309124028217930771F0E091210229
:10139000F0912202EF51FE4F4083909322028093FE
:1013A000210202C08091C600FF91EF919F918F9121
:1013B0004F913F912F910F900FBE0F901F90189556
:1013C0001F920F920FB60F9211242F933F938F937A
:1013D0009F93EF93FF932091DD013091DE01809187
:1013E000DF019091E0012817390731F48091C100A5
:1013F0008F7D8093C10014C0E091DF01F091E00186
:10140000E356FE4F20818091DF019091E00101962B
:101410008F7399279093E0018093DF012093C6009A
:10142000FF91EF919F918F913F912F910F900FBE60
:101430000F901F901895CF92DF92EF92FF92CF936B
:10144000DF93EC016A017B01411581EE58076105CC
:101450007105F9F0EC89FD8981E090E008A002C0F7
:10146000880F991F0A94E2F7808360E079E08DE3AA
:1014700090E0A70196010E94CB0E2150310941094D
:1014800051095695479537952795211580E13807DD
:1014900098F0EC89FD89108260E874E88EE190E0B4
:1014A000A70196010E94CB0E215031094109510933
:1014B0005695479537952795E889F9893083EA89C4
:1014C000FB89208319A2EE89FF89408181E090E0A9
:1014D0009C010C8C02C0220F331F0A94E2F7422BAE
:1014E0004083EE89FF8940819C010D8C02C0220F50
:1014F000331F0A94E2F7422B4083EE89FF89408133
:101500009C010E8C02C0220F331F0A94E2F7422B7B
:101510004083EE89FF8920810F8C02C0880F991FBC
:101520000A94E2F7809582238083DF91CF91FF9028
:10153000EF90DF90CF90089581E0089510927E01A2
:1015400010927D0188EE93E0A0E0B0E080937F01EF
:1015500090938001A0938101B093820188E291E091
:1015600090937C0180937B0181EE91E090938801C0
:10157000809387018DE991E090938A01809389019E
:1015800085EC90E090938C0180938B0184EC90E04B
:1015900090938E0180938D0180EC90E09093900168
:1015A00080938F0181EC90E0909392018093910160
:1015B00082EC90E0909394018093930186EC90E00C
:1015C000909396018093950184E08093970183E046
:1015D0008093980187E08093990185E080939A0138
:1015E00081E080939B010895CF92DF92EF92FF926A
:1015F0000F931F93CF93DF936C017A01EB01E60EFB
:10160000F71E00E010E0CE15DF0561F06991D6010C
:10161000ED91FC910190F081E02DC6010995080F34
:10162000191FF1CFC801DF91CF911F910F91FF904A
:10163000EF90DF90CF9008956115710581F0DB0187
:101640000D900020E9F7AD0141505109461B570BA1
:10165000DC01ED91FC910280F381E02D099480E0A2
:1016600090E00895EF92FF920F931F93CF93DF9333
:101670008C01FB01C0E0D0E064917F018FEFE81A9C
:10168000F80A662361F0D801ED91FC910190F08198
:10169000E02DC8010995C80FD91FF701EDCFCE0184
:1016A000DF91CF911F910F91FF90EF900895DC0192
:1016B000ED91FC910190F081E02D09940F931F931F
:1016C000CF93DF93EC016DE00E94570B8C016AE031
:1016D000CE010E94570B800F911FDF91CF911F9178
:1016E0000F9108950F931F93CF93DF93EC010E9406
:1016F000320B8C01CE010E945E0B800F911FDF9197
:10170000CF911F910F9108958F929F92AF92BF92A8
:10171000CF92DF92EF92FF920F931F93CF93DF93BD
:10172000CDB7DEB7A1970FB6F894DEBF0FBECDBF21
:101730007C01C42EE52FCB01D22E19A221E02D155C
:1017400010F02AE0D22E8E010F5D1F4F8D2C912CB0
:10175000A12CB12C6C2D7E2FA50194010E94CB0EE3
:101760008C2DD29E80191124015011098A3014F455
:10177000805D01C0895CF801808321153105410538
:10178000510521F0C22EE32FCA01E4CFB801C701F1
:101790000E941C0BA1960FB6F894DEBF0FBECDBF02
:1017A000DF91CF911F910F91FF90EF90DF90CF903D
:1017B000BF90AF909F908F900895CF92DF92EF925D
:1017C000FF920F931F93CF93DF93EC016A017B018C
:1017D0002115310579F4E881F9810190F081E02D3E
:1017E000642FDF91CF911F910F91FF90EF90DF90C9
:1017F000CF9009942A303105E9F477FF1AC06DE2E1
:101800000E94570B8C0144275527BA014C195D09DA
:101810006E097F092AE0CE010E94840B800F911F80
:10182000DF91CF911F910F91FF90EF90DF90CF90BC
:1018300008952AE0B701A601CE01DF91CF911F9153
:101840000F91FF90EF90DF90CF900C94840B9A0152
:10185000AB01662757FD6095762F0C94DD0B2115A3
:10186000310541F4DC01ED91FC910190F081E02D16
:10187000642F09940C94840BCF93DF9382309105ED
:1018800010F482E090E0E0913002F091310220E02B
:1018900030E0A0E0B0E0309739F140815181481745
:1018A0005907B8F04817590771F48281938110974E
:1018B00029F013969C938E9312972CC0909331022B
:1018C0008093300227C02115310531F042175307AC
:1018D00018F0A901DB0101C0EF019A01BD01DF0190
:1018E0000280F381E02DD7CF21153105F9F0281BB7
:1018F000390B2430310580F48A819B816115710593
:1019000021F0FB019383828304C090933102809382
:101910003002FE01329644C0FE01E20FF31F8193B4
:10192000919322503109398328833AC020912E02A5
:1019300030912F02232B41F42091080130910901AD
:1019400030932F0220932E0220910601309107013F
:101950002115310541F42DB73EB740910A01509150
:101960000B01241B350BE0912E02F0912F02E217A0
:10197000F307A0F42E1B3F0B2817390778F0AC01B2
:101980004E5F5F4F2417350748F04E0F5F1F50938F
:101990002F0240932E028193919302C0E0E0F0E089
:1019A000CF01DF91CF910895CF93DF93009709F492
:1019B00087C0FC01329713821282C0913002D0910D
:1019C0003102209781F420813181280F391F8091C5
:1019D0002E0290912F028217930779F5F0932F0230
:1019E000E0932E026DC0DE0120E030E0AE17BF07AD
:1019F00050F412964D915C9113979D01411551053C
:101A000009F1DA01F3CFB383A28340815181840FBE
:101A1000951F8A179B0771F48D919C911197840FE4
:101A2000951F02969183808312968D919C911397B6
:101A3000938382832115310529F4F0933102E093D9
:101A400030023EC0D9011396FC93EE9312974D914C
:101A50005D91A40FB51FEA17FB0779F4808191818E
:101A6000840F951F0296D90111969C938E938281C3
:101A7000938113969C938E931297E0E0F0E08A8115
:101A80009B81009719F0FE01EC01F9CFCE0102967F
:101A900028813981820F931F20912E0230912F02CD
:101AA0002817390769F4309729F4109231021092FF
:101AB000300202C013821282D0932F02C0932E02F2
:101AC000DF91CF9108950C943C0C1F920F920FB6AA
:101AD0000F9211242F933F938F939F93AF93BF93B4
:101AE0008091260290912702A0912802B0912902AC
:101AF0003091250223E0230F2D3720F40196A11DFC
:101B0000B11D05C026E8230F0296A11DB11D20932B
:101B100025028093260290932702A0932802B09377
:101B2000290280912A0290912B02A0912C02B0915F
:101B30002D020196A11DB11D80932A0290932B02C4
:101B4000A0932C02B0932D02BF91AF919F918F91E2
:101B50003F912F910F900FBE0F901F9018953FB798
:101B6000F89480912A0290912B02A0912C02B091BE
:101B70002D0226B5A89B05C02F3F19F00196A11D87
:101B8000B11D3FBF6627782F892F9A2F620F711DD5
:101B9000811D911D42E0660F771F881F991F4A958E
:101BA000D1F70895CF92DF92EF92FF92CF93DF9318
:101BB0006B017C010E94AF0DEB01C114D104E10463
:101BC000F10479F00E94AF0D6C1B7D0B683E7340F1
:101BD000A0F381E0C81AD108E108F108C851DC4F30
:101BE000ECCFDF91CF91FF90EF90DF90CF900895F1
:101BF000789484B5826084BD84B5816084BD85B5E8
:101C0000826085BD85B5816085BDEEE6F0E08081AE
:101C100081608083E1E8F0E01082808182608083CF
:101C2000808181608083E0E8F0E080818160808352
:101C3000E1EBF0E0808184608083E0EBF0E0808184
:101C400081608083EAE7F0E0808184608083808126
:101C500082608083808181608083808180688083CE
:101C60001092C1000895833081F028F4813099F0FA
:101C70008230A1F008958630A9F08730B9F0843021
:101C8000D1F4809180008F7D03C0809180008F7798
:101C900080938000089584B58F7702C084B58F7DCE
:101CA00084BD08958091B0008F7703C08091B0000B
:101CB0008F7D8093B0000895CF93DF9390E0FC0177
:101CC000E555FE4F2491FC01E154FE4F8491882399
:101CD00049F190E0880F991FFC01E352FE4FA59156
:101CE000B4918D529E4FFC01C591D4919FB7611163
:101CF00008C0F8948C91209582238C93888182234C
:101D00000AC0623051F4F8948C91322F30958323BD
:101D10008C938881822B888304C0F8948C91822BC9
:101D20008C939FBFDF91CF9108950F931F93CF9313
:101D3000DF931F92CDB7DEB7282F30E0F901E956C7
:101D4000FE4F8491F901E555FE4F1491F901E154DC
:101D5000FE4F04910023C9F0882321F069830E947B
:101D6000330E6981E02FF0E0EE0FFF1FED52FE4FC2
:101D7000A591B4919FB7F8948C91611103C010950F
:101D8000812301C0812B8C939FBF0F90DF91CF9156
:101D90001F910F910895A1E21A2EAA1BBB1BFD01F2
:101DA0000DC0AA1FBB1FEE1FFF1FA217B307E4073A
:101DB000F50720F0A21BB30BE40BF50B661F771F92
:101DC000881F991F1A9469F7609570958095909572
:101DD0009B01AC01BD01CF010895692796276927B2
:101DE00078278727782708952A0D3B1D4C1D5D1DF8
:101DF0006E1D7F1D801F911F0895EE0FFF1F059020
:101E0000F491E02D09948F929F92AF92BF92CF925E
:101E1000DF92EF92FF92CF93DF93EC01688179819B
:101E20008A819B81611571058105910521F464E228
:101E300079ED8BE597E02DE133EF41E050E00E9432
:101E4000970F49015A019B01AC01A7EAB1E40E9436
:101E5000840F6B017C01ACEEB4EFA50194010E94EC
:101E6000920FC60ED71EE81EF91EF7FE06C081E0CF
:101E7000C81AD108E10880E8F80AC882D982EA8243
:101E8000FB82C6019F77DF91CF91FF90EF90DF90AB
:101E9000CF90BF90AF909F908F9008950E94030FB6
:101EA000089580E091E00E94030F0895A0E0B0E063
:101EB0008093000190930101A0930201B09303016C
:101EC0000895FB01DC0102C001900D924150504089
:101ED000D8F708956817790768F4FB01DC01E40F6F
:101EE000F51FA40FB51F02C002900E924150504042
:101EF000D8F708950C94610FF999FECF92BD81BD7A
:101F0000F89A992780B508950E94B60FA59F900D65
:101F1000B49F900DA49F800D911D11240895B7FFCB
:101F20000C94840F0E94840F821B930B0895052E3E
:101F300097FB1EF400940E94AE0F57FD07D00E943D
:101F4000CB0E07FC03D04EF40C94AE0F5095409589
:101F5000309521953F4F4F4F5F4F08959095809555
:101F6000709561957F4F8F4F9F4F0895A29FB0014D
:101F7000B39FC001A39F700D811D1124911DB29FBD
:0E1F8000700D811D1124911D0895F894FFCF5E
:101F8E00010000000D00000032028000EB02390358
:101F9E000E0339039979825AA1EBD96EDCBC1B8FE3
:101FAE00D6C162CA000000006909F40A0F093C0993
:041FBE0021095E098E
:00000001FF
