:100000000C94F6000C941E010C941E010C941E011D
:100010000C941E010C941E010C941E010C941E01E4
:100020000C941E010C941E010C941E010C941E01D4
:100030000C941E010C941E010C941E010C941E01C4
:100040000C94BD080C941E010C94FE040C9438050D
:100050000C941E010C941E010C941E010C941E01A4
:100060000C941E010C941E014461726B004C696774
:10007000687400205B6D735D00456E637279707407
:10008000696F6E20746F74616C2074616B65733A74
:100090002000205B627974655D00416674657220A2
:1000A000656E6372797074696F6E206F66206D651E
:1000B000737361676520667265654D656D6F7279F2
:1000C00028293D2000205B627974655D00426566E9
:1000D0006F726520656E6372797074696F6E206FE0
:1000E00066206D65737361676520667265654D6531
:1000F0006D6F727928293D2000205B75735D004982
:100100006E696369616C69736174696F6E20746F85
:1001100074616C2074616B65733A20004372656191
:1001200074696E67206172726179206F6620646104
:10013000746100AB77F49B908C7970B6189A6FE776
:100140007E4B6CEF80A711AF1F3CC422A32F0E8102
:100150004DE566914B54D4C10B6383301F197D98D4
:100160003CB6FEE0C3007C45E36066B55BF47F5EB1
:10017000F2D65D550926796270007931D9AF37BE64
:1001800006BE0F314D1142594CECF32696679C3256
:10019000BE3B80AF53523700000007000201000051
:1001A0000304060000000000000000010204081023
:1001B00020408001020408102001020408102004DD
:1001C00004040404040404020202020202030303FE
:1001D00003030300000000250028002B000000009E
:1001E00000240027002A0000B802F60511241FBED3
:1001F000CFEFD8E0DEBFCDBF11E0A0E0B1E0E8EE88
:10020000F5E102C005900D92AC31B107D9F712E0CB
:10021000ACE1B1E001C01D92AA31B107E1F711E0F4
:10022000CCEED1E004C02297FE010E94470AC83EEE
:10023000D107C9F70E94AF020C94F20A0C94000097
:10024000CB010C94A90ACF93DF9300D0CDB7DEB7D2
:1002500020911602309117022115310511F42AE17F
:1002600032E0CE010196821B930B0F900F90DF912D
:10027000CF9108956CE171E083E691E00E94CA0697
:100280000E9407096093210170932201809323014A
:100290009093240120E030E080E090E06DE271E492
:1002A00040912501509126012A3131053CF4DA01B3
:1002B000A80FB91FE1E4E20FEC930EC0FA01E80FBA
:1002C000F91F6083E0912501F0912601E80FF91FE5
:1002D0007183019620E030E001962F5F3F4F81153A
:1002E00044E09407ECF20895EF92FF920F931F936E
:1002F000CF93DF937C0101E311E0C0E0D0E0CE15A5
:10030000DF0554F4BE018CE191E00E942001F80168
:1003100081938F012196F3CFDF91CF911F910F91A0
:10032000FF90EF900895FF920F931F93CF93DF9369
:100330008C01C7E2D1E0CE0187529140801791072E
:1003400044F40E94990AF82E0E9407096F0D6993E0
:10035000F2CFDF91CF911F910F91FF9008950F93EE
:100360001F9340E855E260E070E083E691E00E9470
:10037000730583E691E00E94F4058823D1F30E947F
:100380003A018AE090E00E9474018AE090E00E94C5
:1003900093010E94070960932101709322018093C9
:1003A0002301909324010BE311E020E530E047E2C4
:1003B00051E060E570E081E391E00E94C6030E9495
:1003C000070960931D0170931E0180931F01909394
:1003D00020016FEF70E083E691E00E948A06409171
:1003E0001D0150911E0160911F01709120018091AB
:1003F000210190912201A0912301B0912401481B79
:10040000590B6A0B7B0B2AE030E083E691E00E94F7
:10041000870769EF70E083E691E00E94CA0661E019
:10042000809104011F910F910C94B409CF93DF9335
:100430006DEC70E083E691E00E948A060E94230141
:100440004AE050E0BC0183E691E00E947F0765EC42
:1004500070E083E691E00E94CA060E94070960935B
:1004600021017093220180932301909324018BE357
:1004700091E00E944404E0912501F09126019081D1
:10048000982790830E94070960931D0170931E01B5
:1004900080931F01909320016AE970E083E691E068
:1004A0000E948A060E9423014AE050E0BC0183E6D4
:1004B00091E00E947F0762E970E083E691E00E948C
:1004C000CA0669E770E083E691E00E948A064091DF
:1004D0001D0150911E0160911F01709120018091BA
:1004E000210190912201A0912301B0912401481B88
:1004F000590B6A0B7B0B2AE030E083E691E00E9407
:10050000870763E770E083E691E00E94CA0683E60E
:1005100091E00E94B6066DE670E083E691E00E94ED
:10052000CA06C4E0D1E061E088810E94ED0968EE6E
:1005300073E080E090E00E942A0968E670E083E6BC
:1005400091E00E94CA0660E088810E94ED0968EE91
:1005500073E080E090E0DF91CF910C942A090E9433
:1005600050090E94AF010E94160280E090E00895B9
:1005700080E094E00E94BB089093260180932501BF
:100580000895DC0185E1815041F0FB0124919C91AB
:1005900092279D936F5F7F4FF6CF08958F929F9222
:1005A000AF92BF92CF92DF92EF92FF920F931F9381
:1005B000CF93DF93CDB7DEB7A8970FB6F894DEBF21
:1005C0000FBECDBF8B01D22EDB0116963C91169744
:1005D0003295369536953370FC01258526952695FE
:1005E00023271D963C911D9736953695C680C2945B
:1005F000C69477E0C722C326FC2DF170CF2E1A9641
:100600003C91432341704D25DC0153965C915397F7
:10061000551F5527551FFC01319620FF26C0E12CA0
:10062000F12CBC902B2D30E0B901660F771F6E299D
:100630006B256C937081E72EEE1CEE24EE1C220FCE
:10064000232F221F330B372F330F322B37273083C3
:10065000F394129632962AE0F212E3CF451719F17D
:1006600063E871E00E94C1021EC0DC01E12CF12CA4
:100670002C9130E0B901660F771F6E296C93708161
:10068000E72EEE1CEE24EE1C220F232F221F330B2D
:10069000372F330F322B3083F394129632963AE091
:1006A000F312E6CFDBCFD8015396BC90BB1CBB2422
:1006B000BB1C84E1F801DE01559601900D928A95EC
:1006C000E1F76FE671E0CE0145960E94C102F801A4
:1006D00074969E012B5E3F4F7901CE01019630E06A
:1006E0004291242F2695232BD7012E937D01342F61
:1006F000379533273795A817B90791F76BE571E060
:10070000CD010E94C102DE0155964801AE01475D50
:100710005F4F70E0F401808190E09C01220F232F55
:10072000221F330BAD90F70161917F016A2167278A
:10073000880F991F6827F40161934F01A417B5072B
:1007400011F0722FE7CFD8018C918E7F8C93DB1440
:1007500051F0CC2019F063E371E002C067E471E06E
:10076000C8010E94C102A8960FB6F894DEBF0FBE62
:10077000CDBFDF91CF911F910F91FF90EF90DF9050
:10078000CF90BF90AF909F908F9008956F927F927F
:100790008F929F92AF92BF92CF92DF92EF92FF9291
:1007A0000F931F93CF93DF935C016B01EA01490123
:1007B00084E1F801982F11929A95E9F77801E4E124
:1007C000EE0EF11CF70111928A95E9F7612C712C5C
:1007D00068147904F1F0F301B3E0F695E795BA9562
:1007E000E1F7EC0FFD1F208130E0C301809590956B
:1007F0008770992702C0359527958A95E2F7217071
:1008000041E0B701C8010E94CE02FFEF6F1A7F0AD4
:10081000DFCFC0E0D0E0CC15DD05E1F0FE01A3E0C4
:10082000F695E795AA95E1F7EA0DFB1D208130E0EA
:10083000CE01809590958770992702C035952795B0
:100840008A95E2F7217041E0B701C8010E94CE020B
:100850002196E1CFC0EAD0E020E041E0B701C80135
:100860000E94CE0221972097B9F7DF91CF911F9177
:100870000F91FF90EF90DF90CF90BF90AF909F903F
:100880008F907F906F900895EF92FF920F931F9338
:10089000CF93DF93EC0118E0E12EF12C8C010C5E7C
:1008A0001F4F8C89988189278170FF0CF82A20E0DE
:1008B00040E0B801CE010E94CE02EA9491F78F2D5C
:1008C000DF91CF911F910F91FF90EF900895FC0160
:1008D00024853585F901E05CFF4F80819181F90124
:1008E000EE5BFF4F20813181821B930B8F73992721
:1008F0000895FC0184859585FC01E05CFF4F4081F3
:100900005181FC01EE5BFF4F20813181421753077B
:1009100041F00190F081E02DE80FF91F808190E017
:1009200008958FEF9FEF0895FC0184859585FC0164
:10093000E05CFF4F40815181FC01EE5BFF4F208165
:1009400031814217530779F0A081B181A80FB91FF7
:100950008C91208131812F5F3F4F2F73332731835B
:10096000208390E008958FEF9FEF0895FC0181A10F
:10097000882329F0A489B5898C9186FFFBCF11A229
:100980000895CF93DF93FC0126853785D901A05CBC
:10099000BF4F8D919C91119701968F739927E90113
:1009A000CE5BDF4F4881598184179507D9F30D90AD
:1009B000BC91A02DA20FB31F6C93A685B785A05C38
:1009C000BF4F11969C938E93A689B7892C9181E095
:1009D00090E0078C02C0880F991F0A94E2F7282B39
:1009E0002C9381E081A30488F589E02D80818064C7
:1009F000808381E090E0DF91CF9108951F920F9264
:100A00000FB60F9211242F933F934F938F939F9381
:100A1000EF93FF938091C00082FD1CC04091C600FF
:100A20008091090290910A0201968F739927209173
:100A30000B0230910C028217930771F0E0910902CA
:100A4000F0910A02E753FE4F408390930A0280938D
:100A5000090202C08091C600FF91EF919F918F9192
:100A60004F913F912F910F900FBE0F901F901895AF
:100A70001F920F920FB60F9211242F933F938F93D3
:100A80009F93EF93FF932091C5013091C601809110
:100A9000C7019091C8012817390731F48091C1002E
:100AA0008F7D8093C10014C0E091C701F091C8010F
:100AB000EB57FE4F20818091C7019091C8010196AC
:100AC0008F7399279093C8018093C7012093C60024
:100AD000FF91EF919F918F913F912F910F900FBEBA
:100AE0000F901F901895CF92DF92EF92FF92CF93C5
:100AF000DF93EC016A017B01411581EE5807610526
:100B00007105F9F0EC89FD8981E090E008A002C050
:100B1000880F991F0A94E2F7808360E079E08DE303
:100B200090E0A70196010E94230A21503109410952
:100B300051095695479537952795211580E1380736
:100B400098F0EC89FD89108260E874E88EE190E00D
:100B5000A70196010E94230A215031094109510938
:100B60005695479537952795E889F9893083EA891D
:100B7000FB89208319A2EE89FF89408181E090E002
:100B80009C010C8C02C0220F331F0A94E2F7422B07
:100B90004083EE89FF8940819C010D8C02C0220FA9
:100BA000331F0A94E2F7422B4083EE89FF8940818C
:100BB0009C010E8C02C0220F331F0A94E2F7422BD5
:100BC0004083EE89FF8920810F8C02C0880F991F16
:100BD0000A94E2F7809582238083DF91CF91FF9082
:100BE000EF90DF90CF90089581E008951092660114
:100BF0001092650188EE93E0A0E0B0E08093670179
:100C000090936801A0936901B0936A0180E191E03B
:100C1000909364018093630189EC91E0909370015B
:100C200080936F0185E891E0909372018093710148
:100C300085EC90E0909374018093730184EC90E0D4
:100C4000909376018093750180EC90E09093780109
:100C50008093770181EC90E090937A018093790101
:100C600082EC90E090937C0180937B0186EC90E095
:100C700090937E0180937D0184E080937F0183E0E7
:100C80008093800187E08093810185E080938201D9
:100C900081E0809383010895CF92DF92EF92FF92DB
:100CA0000F931F93CF93DF936C017A01EB01E60E54
:100CB000F71E00E010E0CE15DF0561F06991D60166
:100CC000ED91FC910190F081E02DC6010995080F8E
:100CD000191FF1CFC801DF91CF911F910F91FF90A4
:100CE000EF90DF90CF9008956115710581F0DB01E1
:100CF0000D900020E9F7AD0141505109461B570BFB
:100D0000DC01ED91FC910280F381E02D099480E0FB
:100D100090E00895EF92FF920F931F93CF93DF938C
:100D20008C01FB01C0E0D0E064917F018FEFE81AF5
:100D3000F80A662361F0D801ED91FC910190F081F1
:100D4000E02DC8010995C80FD91FF701EDCFCE01DD
:100D5000DF91CF911F910F91FF90EF900895DC01EB
:100D6000ED91FC910190F081E02D09940F931F9378
:100D7000CF93DF93EC016DE00E94AF068C016AE037
:100D8000CE010E94AF06800F911FDF91CF911F917E
:100D90000F9108950F931F93CF93DF93EC010E945F
:100DA0008A068C01CE010E94B606800F911FDF914A
:100DB000CF911F910F9108958F929F92AF92BF9202
:100DC000CF92DF92EF92FF920F931F93CF93DF9317
:100DD000CDB7DEB7A1970FB6F894DEBF0FBECDBF7B
:100DE0007C01C42EE52FCB01D22E19A221E02D15B6
:100DF00010F02AE0D22E8E010F5D1F4F8D2C912C0A
:100E0000A12CB12C6C2D7E2FA50194010E94230AE8
:100E10008C2DD29E80191124015011098A3014F4AE
:100E2000805D01C0895CF801808321153105410591
:100E3000510521F0C22EE32FCA01E4CFB801C7014A
:100E40000E947406A1960FB6F894DEBF0FBECDBF08
:100E5000DF91CF911F910F91FF90EF90DF90CF9096
:100E6000BF90AF909F908F900895CF92DF92EF92B6
:100E7000FF920F931F93CF93DF93EC016A017B01E5
:100E80002115310579F4E881F9810190F081E02D97
:100E9000642FDF91CF911F910F91FF90EF90DF9022
:100EA000CF9009942A303105E9F477FF1AC06DE23A
:100EB0000E94AF068C0144275527BA014C195D09E1
:100EC0006E097F092AE0CE010E94DC06800F911F87
:100ED000DF91CF911F910F91FF90EF90DF90CF9016
:100EE00008952AE0B701A601CE01DF91CF911F91AD
:100EF0000F91FF90EF90DF90CF900C94DC069A0159
:100F0000AB01662757FD6095762F0C9435072115A8
:100F1000310541F4DC01ED91FC910190F081E02D6F
:100F2000642F09940C94DC06CF93DF9382309105F3
:100F300010F482E090E0E0911802F091190220E0B4
:100F400030E0A0E0B0E0309739F14081518148179E
:100F50005907B8F04817590771F4828193811097A7
:100F600029F013969C938E9312972CC0909319029C
:100F70008093180227C02115310531F0421753071D
:100F800018F0A901DB0101C0EF019A01BD01DF01E9
:100F90000280F381E02DD7CF21153105F9F0281B10
:100FA000390B2430310580F48A819B8161157105EC
:100FB00021F0FB019383828304C0909319028093F4
:100FC0001802FE01329644C0FE01E20FF31F819326
:100FD000919322503109398328833AC02091160217
:100FE00030911702232B41F420910801309109011F
:100FF00030931702209316022091060130910701C9
:101000002115310541F42DB73EB740910A015091A9
:101010000B01241B350BE0911602F0911702E21729
:10102000F307A0F42E1B3F0B2817390778F0AC010B
:101030004E5F5F4F2417350748F04E0F5F1F5093E8
:101040001702409316028193919302C0E0E0F0E012
:10105000CF01DF91CF910895CF93DF93009709F4EB
:1010600087C0FC01329713821282C0911802D0917E
:101070001902209781F420813181280F391F809136
:101080001602909117028217930779F5F0931702D1
:10109000E09316026DC0DE0120E030E0AE17BF071E
:1010A00050F412964D915C9113979D014115510595
:1010B00009F1DA01F3CFB383A28340815181840F18
:1010C000951F8A179B0771F48D919C911197840F3E
:1010D000951F02969183808312968D919C91139710
:1010E000938382832115310529F4F0931902E0934B
:1010F00018023EC0D9011396FC93EE9312974D91BE
:101100005D91A40FB51FEA17FB0779F480819181E7
:10111000840F951F0296D90111969C938E9382811C
:10112000938113969C938E931297E0E0F0E08A816E
:101130009B81009719F0FE01EC01F9CFCE010296D8
:1011400028813981820F931F209116023091170256
:101150002817390769F4309729F410921902109270
:10116000180202C013821282D0931702C093160293
:10117000DF91CF9108950C9494071F920F920FB6B0
:101180000F9211242F933F938F939F93AF93BF930D
:1011900080910E0290910F02A0911002B091110265
:1011A00030910D0223E0230F2D3720F40196A11D6D
:1011B000B11D05C026E8230F0296A11DB11D209385
:1011C0000D0280930E0290930F02A0931002B09331
:1011D00011028091120290911302A0911402B09119
:1011E00015020196A11DB11D809312029093130266
:1011F000A0931402B0931502BF91AF919F918F916C
:101200003F912F910F900FBE0F901F9018953FB7F1
:10121000F8948091120290911302A0911402B0915F
:10122000150226B5A89B05C02F3F19F00196A11DF8
:10123000B11D3FBF6627782F892F9A2F620F711D2E
:10124000811D911D42E0660F771F881F991F4A95E7
:10125000D1F70895CF92DF92EF92FF92CF93DF9371
:101260006B017C010E940709EB01C114D104E10468
:10127000F10479F00E9407096C1B7D0B683E7340F6
:10128000A0F381E0C81AD108E108F108C851DC4F89
:10129000ECCFDF91CF91FF90EF90DF90CF9008954A
:1012A000789484B5826084BD84B5816084BD85B541
:1012B000826085BD85B5816085BDEEE6F0E0808108
:1012C00081608083E1E8F0E0108280818260808329
:1012D000808181608083E0E8F0E0808181608083AC
:1012E000E1EBF0E0808184608083E0EBF0E08081DE
:1012F00081608083EAE7F0E0808184608083808180
:101300008260808380818160808380818068808327
:101310001092C1000895833081F028F4813099F053
:101320008230A1F008958630A9F08730B9F084307A
:10133000D1F4809180008F7D03C0809180008F77F1
:1013400080938000089584B58F7702C084B58F7D27
:1013500084BD08958091B0008F7703C08091B00064
:101360008F7D8093B0000895CF93DF9390E0FC01D0
:10137000E555FE4F2491FC01E154FE4F84918823F2
:1013800049F190E0880F991FFC01E352FE4FA591AF
:10139000B4918D529E4FFC01C591D4919FB76111BC
:1013A00008C0F8948C91209582238C9388818223A5
:1013B0000AC0623051F4F8948C91322F3095832317
:1013C0008C938881822B888304C0F8948C91822B23
:1013D0008C939FBFDF91CF9108950F931F93CF936D
:1013E000DF931F92CDB7DEB7282F30E0F901E95621
:1013F000FE4F8491F901E555FE4F1491F901E15436
:10140000FE4F04910023C9F0882321F069830E94D4
:101410008B096981E02FF0E0EE0FFF1FED52FE4FC8
:10142000A591B4919FB7F8948C91611103C0109568
:10143000812301C0812B8C939FBF0F90DF91CF91AF
:101440001F910F910895A1E21A2EAA1BBB1BFD014B
:101450000DC0AA1FBB1FEE1FFF1FA217B307E40793
:10146000F50720F0A21BB30BE40BF50B661F771FEB
:10147000881F991F1A9469F76095709580959095CB
:101480009B01AC01BD01CF010895EE0FFF1F059038
:10149000F491E02D09948F929F92AF92BF92CF92D8
:1014A000DF92EF92FF92CF93DF93EC016881798115
:1014B0008A819B81611571058105910521F464E2A2
:1014C00079ED8BE597E02DE133EF41E050E00E94AC
:1014D000C40A49015A019B01AC01A7EAB1E40E9488
:1014E000B10A6B017C01ACEEB4EFA50194010E943E
:1014F000BF0AC60ED71EE81EF91EF7FE06C081E021
:10150000C81AD108E10880E8F80AC882D982EA82BC
:10151000FB82C6019F77DF91CF91FF90EF90DF9024
:10152000CF90BF90AF909F908F9008950E944B0AEC
:10153000089580E091E00E944B0A0895A0E0B0E099
:101540008093000190930101A0930201B0930301E5
:101550000895F999FECF92BD81BDF89A992780B57B
:1015600008950E94E30AA59F900DB49F900DA49F3B
:10157000800D911D11240895B7FF0C94B10A0E94AB
:10158000B10A821B930B0895052E97FB1EF400945D
:101590000E94DB0A57FD07D00E94230A07FC03D0F4
:1015A0004EF40C94DB0A50954095309521953F4FB1
:1015B0004F4F5F4F089590958095709561957F4F3F
:1015C0008F4F9F4F0895A29FB001B39FC001A39F6B
:1015D000700D811D1124911DB29F700D811D11246C
:0815E000911D0895F894FFCF5E
:1015E800010000000D0000001A0280000000000049
:0C15F800C1044C06670494047904B60496
:00000001FF
