:100000000C94CC000C94F4000C94F4000C94F400C8
:100010000C94F4000C94F4000C94F4000C94F40090
:100020000C94F4000C94F4000C94F4000C94F40080
:100030000C94F4000C94F4000C94F4000C94F40070
:100040000C94E40C0C94F4000C9425090C945F09B6
:100050000C94F4000C94F4000C94F4000C94F40050
:100060000C94F4000C94F4004461726B004C6967CA
:10007000687400205B75735D00456E6372797074FF
:10008000696F6E20746F74616C2074616B65733A74
:100090002000205B627974655D00416674657220A2
:1000A000656E6372797074696F6E206F66206D651E
:1000B000737361676520667265654D656D6F7279F2
:1000C00028293D2000205B627974655D00426566E9
:1000D0006F726520656E6372797074696F6E206FE0
:1000E00066206D65737361676520667265654D6531
:1000F0006D6F727928293D2000205B75735D004982
:100100006E696369616C69736174696F6E20746F85
:1001100074616C2074616B65733A20004372656191
:1001200074696E67206172726179206F6620646104
:100130007461000008040C020A060E0109050D0393
:100140000B070F0000000700020100000304060077
:10015000000000000000000102040810204080019F
:1001600002040810200102040810200404040404FE
:100170000404040202020202020303030303030055
:10018000000000250028002B0000000000240027AC
:10019000002A0000B8021D0A11241FBECFEFD8E0CC
:1001A000DEBFCDBF11E0A0E0B1E0EAE9FEE102C0B0
:1001B00005900D92A433B107D9F712E0A4E3B1E0A2
:1001C00001C01D92AE32B107E1F711E0C8E9D1E0FC
:1001D00004C02297FE010E947E0EC439D107C9F7E0
:1001E0000E94AF020C944B0F0C940000CB010C94B6
:1001F000020FCF93DF9300D0CDB7DEB720912A0254
:1002000030912B022115310511F42EE232E0CE019E
:100210000196821B930B0F900F90DF91CF91089561
:100220006CE171E087E791E00E94F10A0E942E0DD7
:100230006093390170933A0180933B0190933C01A4
:1002400020E030E080E090E06DE271E440913D011B
:1002500050913E012A3131053CF4DA01A80FB91F53
:10026000E1E4E20FEC930EC0FA01E80FF91F60839E
:10027000E0913D01F0913E01E80FF91F7183019675
:1002800020E030E001962F5F3F4F811544E0940756
:10029000ECF20895EF92FF920F931F93CF93DF93A9
:1002A0007C0109E411E0C0E0D0E0CE15DF0554F494
:1002B000BE0184E391E00E94F600F80181938F0172
:1002C0002196F3CFDF91CF911F910F91FF90EF9087
:1002D0000895FF920F931F93CF93DF938C01CFE389
:1002E000D1E0CE018F5391408017910744F40E94D2
:1002F000D00EF82E0E942E0D6F0D6993F2CFDF9174
:10030000CF911F910F91FF9008950F931F9340E895
:1003100055E260E070E087E791E00E949A0987E784
:1003200091E00E941B0A8823D1F30E9410018AE009
:1003300090E00E944A018AE090E00E9469010E94D8
:100340002E0D6093390170933A0180933B01909395
:100350003C0103E511E020E530E04FE351E060E5CA
:1003600070E089E491E00E94E7070E942E0D6093FF
:1003700035017093360180933701909338016FEF08
:1003800070E087E791E00E94B10A409135015091F9
:100390003601609137017091380180913901909157
:1003A0003A01A0913B01B0913C01481B590B6A0BEB
:1003B0007B0B2AE030E087E791E00E94AE0B69EF0B
:1003C00070E087E791E00E94F10A61E0809104010A
:1003D0001F910F910C94DB0DEF92FF920F931F93DF
:1003E000CF93DF93CDB7DEB764970FB6F894DEBF37
:1003F0000FBECDBF6DEC70E087E791E00E94B10ABF
:100400000E94F9004AE050E0BC0187E791E00E94B9
:10041000A60B65EC70E087E791E00E94F10A0E946C
:100420002E0D6093390170933A0180933B019093B4
:100430003C0183E591E00E94CE07E0913D01F091FF
:100440003E0190819827908320913D0130913E019B
:1004500018E0E12EF12C00E010E040E550E069E406
:1004600071E0CE0101960E9471060E942E0D6093EC
:1004700035017093360180933701909338016AE912
:1004800070E087E791E00E94B10A0E94F9004AE01B
:1004900050E0BC0187E791E00E94A60B62E970E0A2
:1004A00087E791E00E94F10A69E770E087E791E051
:1004B0000E94B10A40913501509136016091370197
:1004C000709138018091390190913A01A0913B01DE
:1004D000B0913C01481B590B6A0B7B0B2AE030E0C2
:1004E00087E791E00E94AE0B63E770E087E791E059
:1004F0000E94F10A87E791E00E94DD0A6DE670E054
:1005000087E791E00E94F10A04E011E061E0F80160
:1005100080810E94140E68EE73E080E090E00E94FB
:10052000510D68E670E087E791E00E94F10A60E013
:10053000F80180810E94140E68EE73E080E090E084
:100540000E94510D64960FB6F894DEBF0FBECDBF6A
:10055000DF91CF911F910F91FF90EF9008950E942E
:10056000770D0E9485010E94EC0180E090E00895E3
:1005700080E094E00E94E20C90933E0180933D0164
:1005800008958F929F92AF92BF92EF92FF920F9336
:100590001F934B015C0160957095809590956E213D
:1005A0007F2180239123282139214A215B21622741
:1005B0007327842795271F910F91FF90EF90BF908D
:1005C000AF909F908F9008958F929F92AF92BF921D
:1005D000CF92DF92EF92FF920F931F934B015C013A
:1005E000C801B701622773278427952768217921DD
:1005F0008A219B2159016A01AE20BF20C022D1224D
:100600006A257B258C259D251F910F91FF90EF90EA
:10061000DF90CF90BF90AF909F908F900895EF9212
:10062000FF920F931F932E253F2540275127262702
:10063000372748275927CA01B9011F910F91FF9009
:10064000EF900895FC0141E053E265E477E64083D2
:1006500051836283738349E85BEA6DEC7FEE4483E8
:100660005583668377834EEF5CED6AEB78E94087CC
:1006700051876287738746E754E562E370E14487F8
:1006800055876687778740EF51EE62ED73EC408BBC
:10069000518B628B738B148A158A168A178A108E77
:1006A000118E128E138E08950E946C0E08952F9253
:1006B0003F924F925F926F927F928F929F92AF92F2
:1006C000BF92CF92DF92EF92FF920F931F93CF933F
:1006D000DF93CDB7DEB7C257D1090FB6F894DEBFAE
:1006E0000FBECDBF6C0188E0ECE0F1E0DE01AB595C
:1006F000BF4F01900D928A95E1F780E1E4E1F1E0CE
:10070000DE01AB5ABF4F01900D928A95E1F78B0144
:100710009E012F5F3F4F59017E0131E4E30EF11C32
:10072000F80161917191819191918F010E9454031F
:10073000F50161937193819391935F01EE15FF052C
:1007400079F784E1F601DE01AF5BBF4F01900D92B6
:100750008A95E1F7AF961FAEAF97E1961FAEE1978E
:10076000AE961FAEAE9721E430E02C0F3D1F2C5FFC
:100770003F4FE3963FAF2EAFE397AE963FADAE97B8
:100780003F70E0963FAFE097AE964FADAE974031E9
:1007900008F45DC0232F30E0D9011D96AF70BB2750
:1007A000AA0FBB1FAA0FBB1F81E090E08C0F9D1FFB
:1007B000A80FB91FF9013896EF70FF27EE0FFF1F42
:1007C000EE0FFF1FE80FF91F8D919D910D90BC91C9
:1007D000A02D408151816281738184279527A627AE
:1007E000B72701E010E00C0F1D1FE096FFADE0976A
:1007F000E4E0FE9F000D111D1124F801408151819C
:100800006281738184279527A627B7272E5F3F4FE4
:100810002F703327220F331F220F331F41E050E088
:100820004C0F5D1F240F351FF901408151816281FA
:10083000738184279527A627B727880F991FAA1F9A
:10084000BB1F811DF80180839183A283B38325960A
:100850008CAC9DACAEACBFAC2597D501C4012BE1EF
:10086000B695A795979587952A95D1F735E0880C89
:10087000991CAA1CBB1C3A95D1F7882A992AAA2A46
:10088000BB2AE196FFADE1972F2E312C29964CAC77
:100890005DAC6EAC7FAC2997F101EE0FFF1F25E632
:1008A00030E02C0F3D1FE20FF31F6196ECACFDAC66
:1008B0000EAD1FAD61972D962CAD3DAD4EAD5FAD2C
:1008C0002D970190F081E02DC301B2010995659645
:1008D0000CAD1DAD2EAD3FAD6597800E911EA21ED5
:1008E000B31EF101EE0FFF1FEE0FFF1F45E550E0B5
:1008F0004C0F5D1FE40FF51F0081118122813381B0
:10090000800E911EA21EB31EE1E0F0E0EC0FFD1F71
:10091000E0962FADE09754E0259FE00DF11D1124E6
:100920000081118122813381800E911EA21EB31E8F
:10093000860E971EA81EB91E40E150E0BE016F5BF7
:100940007F4FE3968EAD9FADE3970E94E90E25960B
:100950008CAE9DAEAEAEBFAE2597D301C20162E0B4
:10096000B695A795979587956A95D1F77EE1440C42
:10097000551C661C771C7A95D1F784299529A629E0
:10098000B7292D968CAF9DAFAEAFBFAF2D97AF9669
:100990003FADAF973F5FAF963FAFAF97343151F464
:1009A000C1010196482F4370E1964FAFE197AF9692
:1009B0001FAEAF97AE965FADAE975F5FAE965FAF7F
:1009C000AE97503509F0D9CECE018F5B9F4F7C0199
:1009D00096018C010C5E1F4FF7014191519161917D
:1009E00071917F01F90180819181A281B381840F8E
:1009F000951FA61FB71F81939193A193B1939F0158
:100A0000E016F10649F7F6012489358946895789A8
:100A1000608D718D828D938D3E5F4F4F5F4F6F4F15
:100A20007F4F8F4F9F4F248B358B468B578B608F1B
:100A3000718F828F938FCE58DF4F0FB6F894DEBF41
:100A40000FBECDBFDF91CF911F910F91FF90EF901F
:100A5000DF90CF90BF90AF909F908F907F906F90DE
:100A60005F904F903F902F9008952F923F924F921A
:100A70005F926F927F928F929F92AF92BF92CF922E
:100A8000DF92EF92FF920F931F93CF93DF93CDB737
:100A9000DEB7C054D1090FB6F894DEBF0FBECDBF8C
:100AA0004C011B012A018A013B010115E2E01E07EE
:100AB00048F0B301C4010E945703125080E4680E4D
:100AC000711CF3CF3201F1E07F22930140E050E04E
:100AD00060E070E080E090E0F401A488B588C6880A
:100AE000D788E08CF18C028D138D0E94730E248BBD
:100AF000358B468B578B608F718F828F938F50E42D
:100B0000F52E8E010F5F1F4FF8018F2D11928A95E0
:100B1000E9F7A301495F5F4F63E0569547956A95F2
:100B2000E1F7B201672F77276695F6E0660F771F2A
:100B3000FA95E1F7620D731DC8010E94E00EF30102
:100B4000A3E0F695E795AA95E1F7E00FF11F87E09E
:100B50004822552480E890E002C0959587954A94F4
:100B6000E2F79081982B9083E0EC6E16E1E07E0630
:100B700000F1B801C4010E945703F40124893589AA
:100B800046895789608D718D828D938D32504109D0
:100B900051096109710981099109248B358B468BB3
:100BA000578B608F718F828F938FF8011192FA9417
:100BB000E9F7D4015C96FE01F996CE018F5B9F4F59
:100BC0002E912193E817F907D9F7B801C4010E94C3
:100BD0005703C05CDF4F0FB6F894DEBF0FBECDBF2A
:100BE000DF91CF911F910F91FF90EF90DF90CF9009
:100BF000BF90AF909F908F907F906F905F904F903D
:100C00003F902F900895FF920F931F93CF93DF9300
:100C10008B01EC01F12CF80161917191819191911D
:100C20008F010E9454036993799389939993F39464
:100C3000F5E0FF12F0CFDF91CF911F910F91FF9060
:100C40000895EF92FF920F931F93CF93DF93CDB749
:100C5000DEB7A0970FB6F894DEBF0FBECDBF7C0104
:100C60008B01CE0101962D8F3E8F4F8F58A30E948E
:100C700022032D8D3E8D4F8D58A1DA01C9018827A1
:100C80009E7F892B8A2B8B2B99F0B801CE01019680
:100C90002D8F3E8F4F8F58A30E945703005C1F4F2C
:100CA0002D8D3E8D4F8D58A1325041095109E5CF10
:100CB000A901B801CE0101960E943505BE016F5F02
:100CC0007F4FC7010E940306A0960FB6F894DEBFBF
:100CD0000FBECDBFDF91CF911F910F91FF90EF908D
:100CE00008952F923F924F925F926F927F928F92D0
:100CF0009F92AF92BF92CF92DF92EF92FF920F93AB
:100D00001F93CF93DF93CDB7DEB7C056D1090FB68F
:100D1000F894DEBF0FBECDBF5C0149011701280169
:100D20008E010F5F1F4F80E4F80111928A95E9F759
:100D30004130F2E05F0738F09A0140E050E0C8012E
:100D40000E9421060AC0495F5F4FE3E05695479530
:100D5000EA95E1F7C8010E94E00E6E0181E4C80E39
:100D6000D11CF80196E3808189278193EC15FD055C
:100D7000D1F7C6010E942203B801C6010E945703A1
:100D8000A201910134012115F2E03F07410551050F
:100D900018F1B301C6016E962FAF6E976F963FAFF5
:100DA0006F97A0964FAFA097A1965FAFA1970E94B3
:100DB0005703E0E46E0E711C6E962FAD6E976F9622
:100DC0003FAD6F97A0964FADA097A1965FADA1974D
:100DD000325041095109D7CFB201A10151706627A4
:100DE0007727D201C10139E0B695A79597958795E8
:100DF0003A95D1F71C0166E0220C331C6A95E1F7A5
:100E0000280C391CB101C6010E94350548019AE63B
:100E1000F4018081892781934F01EC15FD05C1F70D
:100E2000BF01C5010E940306C4010E942203B8014C
:100E3000C4010E94570340EA50E0B501C4010E947A
:100E40003505B401C5010E940306C05ADF4F0FB635
:100E5000F894DEBF0FBECDBFDF91CF911F910F91F0
:100E6000FF90EF90DF90CF90BF90AF909F908F90CA
:100E70007F906F905F904F903F902F9008950F93C9
:100E80001F93CF93DF93FC01208530E0838590E0B2
:100E9000BC01A4E075956795AA95E1F7A901559560
:100EA000479546275489569566895627517013A150
:100EB000668D62FB662760F9C12FCC1FCC27CC1F43
:100EC000C627D42FD170D5270589602F70E0DC01AB
:100ED000B595A795B595A795B595A795959587953A
:100EE000959587958A238427DB01B595A795B595B8
:100EF000A7958A27817090A1991F9927991F9527F7
:100F000046E0759567954A95E1F7502F551F55278F
:100F1000551F56239527412F50E0BA01A6E075953D
:100F20006795AA95E1F7B5E055954795BA95E1F72C
:100F3000462314E0359527951A95E1F7422741702D
:100F40004C27DF0110E050E02C9130E0B901660F32
:100F5000672F661F770B220F331F212B2D935F5FA7
:100F6000543211F0162FF0CF20812E7F242B2083B6
:100F70008295880F807E23852F7D822B8387990F12
:100F800086898D7F982B968BDC1711F080E801C045
:100F900080E0DF91CF911F910F910895FF920F9301
:100FA0001F93CF93DF938C0198E0F92E80E0C82F38
:100FB000D0E0D595C795C8010E943F078C2BFA94C5
:100FC000B1F7DF91CF911F910F91FF900895AF92EC
:100FD000BF92CF92DF92EF92FF920F931F93CF9326
:100FE000DF936C01EB017A015901279663E0D695F6
:100FF000C7956A95E1F743E250E04C1B5D0B60E05A
:1010000070E0C8018C0F9D1F0E94FB0E60E070E035
:101010003FEF3C0F832F861BF601E80FF11D9081F7
:10102000E92FEF70F0E0ED5CFE4F8491E92FF0E0E6
:1010300054E0F595E7955A95E1F7ED5CFE4F249164
:10104000D801A60FB71F40E1849FC0011124282BAF
:101050002C936F5F7F4FC613DDCF77E0A70EB11CD7
:1010600043E0B694A7944A95E1F75A2D80E090E0CA
:101070006FEF6A0D262F281BF701E20FF11D30815B
:10108000E32FEF70F0E0ED5CFE4F2491E32FF0E0F2
:1010900034E0F595E7953A95E1F7ED5CFE4F449124
:1010A0003CE0380FD801A30FB11DE0E12E9F900165
:1010B0001124422B4C9301965813DCCFFCE0AF0E69
:1010C000B11C90E0F801EA0DFB1D8081282F2295CC
:1010D000220F207E869586958695892B808341E018
:1010E000A41AB1087BE0A716B10410F0922FEACF42
:1010F00080EEF80183A3C0E8D4E0C8010E943F0756
:1011000021972097D1F7DF91CF911F910F91FF90F9
:10111000EF90DF90CF90BF90AF900895FC012485B1
:101120003585F901E05CFF4F80819181F901EE5B2B
:10113000FF4F20813181821B930B8F739927089574
:10114000FC0184859585FC01E05CFF4F4081518165
:10115000FC01EE5BFF4F208131814217530741F0C4
:101160000190F081E02DE80FF91F808190E0089553
:101170008FEF9FEF0895FC0184859585FC01E05C6D
:10118000FF4F40815181FC01EE5BFF4F2081318197
:101190004217530779F0A081B181A80FB91F8C9134
:1011A000208131812F5F3F4F2F733327318320837D
:1011B00090E008958FEF9FEF0895FC0181A18823AF
:1011C00029F0A489B5898C9186FFFBCF11A20895DF
:1011D000CF93DF93FC0126853785D901A05CBF4FF3
:1011E0008D919C91119701968F739927E901CE5BA0
:1011F000DF4F4881598184179507D9F30D90BC9131
:10120000A02DA20FB31F6C93A685B785A05CBF4F1E
:1012100011969C938E93A689B7892C9181E090E0DA
:10122000078C02C0880F991F0A94E2F7282B2C9391
:1012300081E081A30488F589E02D8081806480832A
:1012400081E090E0DF91CF9108951F920F920FB649
:101250000F9211242F933F934F938F939F93EF936C
:10126000FF938091C00082FD1CC04091C600809118
:101270001D0290911E0201968F73992720911F02E3
:10128000309120028217930771F0E0911D02F091D6
:101290001E02E352FE4F408390931E0280931D0274
:1012A00002C08091C600FF91EF919F918F914F9165
:1012B0003F912F910F900FBE0F901F9018951F9286
:1012C0000F920FB60F9211242F933F938F939F93FA
:1012D000EF93FF932091D9013091DA018091DB01E6
:1012E0009091DC012817390731F48091C1008F7D7E
:1012F0008093C10014C0E091DB01F091DC01E7565E
:10130000FE4F20818091DB019091DC0101968F736B
:1013100099279093DC018093DB012093C600FF9115
:10132000EF919F918F913F912F910F900FBE0F9052
:101330001F901895CF92DF92EF92FF92CF93DF9399
:10134000EC016A017B01411581EE580761057105C9
:10135000F9F0EC89FD8981E090E008A002C0880FD7
:10136000991F0A94E2F7808360E079E08DE390E0D2
:10137000A70196010E944A0E2150310941095109E5
:101380005695479537952795211580E1380798F0B0
:10139000EC89FD89108260E874E88EE190E0A70195
:1013A00096010E944A0E2150310941095109569572
:1013B000479537952795E889F9893083EA89FB892C
:1013C000208319A2EE89FF89408181E090E09C0191
:1013D0000C8C02C0220F331F0A94E2F7422B408389
:1013E000EE89FF8940819C010D8C02C0220F331FC2
:1013F0000A94E2F7422B4083EE89FF8940819C01E9
:101400000E8C02C0220F331F0A94E2F7422B408356
:10141000EE89FF8920810F8C02C0880F991F0A94E2
:10142000E2F7809582238083DF91CF91FF90EF9048
:10143000DF90CF90089581E0089510927A01109284
:10144000790188EE93E0A0E0B0E080937B01909377
:101450007C01A0937D01B0937E0188E291E090939E
:101460007801809377018DED91E0909384018093D2
:10147000830189E991E0909386018093850185EC51
:1014800090E0909388018093870184EC90E09093A2
:101490008A018093890180EC90E090938C01809385
:1014A0008B0181EC90E090938E0180938D0182EC12
:1014B00090E09093900180938F0186EC90E0909360
:1014C00092018093910184E08093930183E0809363
:1014D000940187E08093950185E08093960181E0F7
:1014E000809397010895CF92DF92EF92FF920F932E
:1014F0001F93CF93DF936C017A01EB01E60EF71E89
:1015000000E010E0CE15DF0561F06991D601ED91A4
:10151000FC910190F081E02DC6010995080F191F7B
:10152000F1CFC801DF91CF911F910F91FF90EF9004
:10153000DF90CF9008956115710581F0DB010D906A
:101540000020E9F7AD0141505109461B570BDC0162
:10155000ED91FC910280F381E02D099480E090E010
:101560000895EF92FF920F931F93CF93DF938C0117
:10157000FB01C0E0D0E064917F018FEFE81AF80A28
:10158000662361F0D801ED91FC910190F081E02D8E
:10159000C8010995C80FD91FF701EDCFCE01DF9122
:1015A000CF911F910F91FF90EF900895DC01ED9185
:1015B000FC910190F081E02D09940F931F93CF933C
:1015C000DF93EC016DE00E94D60A8C016AE0CE0147
:1015D0000E94D60A800F911FDF91CF911F910F912A
:1015E00008950F931F93CF93DF93EC010E94B10AEC
:1015F0008C01CE010E94DD0A800F911FDF91CF91F7
:101600001F910F9108958F929F92AF92BF92CF92A8
:10161000DF92EF92FF920F931F93CF93DF93CDB79B
:10162000DEB7A1970FB6F894DEBF0FBECDBF7C0129
:10163000C42EE52FCB01D22E19A221E02D1510F0DA
:101640002AE0D22E8E010F5D1F4F8D2C912CA12CE4
:10165000B12C6C2D7E2FA50194010E944A0E8C2D79
:10166000D29E80191124015011098A3014F4805D32
:1016700001C0895CF80180832115310541055105C0
:1016800021F0C22EE32FCA01E4CFB801C7010E94A6
:101690009B0AA1960FB6F894DEBF0FBECDBFDF91B7
:1016A000CF911F910F91FF90EF90DF90CF90BF905F
:1016B000AF909F908F900895CF92DF92EF92FF921C
:1016C0000F931F93CF93DF93EC016A017B012115E8
:1016D000310579F4E881F9810190F081E02D642FE2
:1016E000DF91CF911F910F91FF90EF90DF90CF90FE
:1016F00009942A303105E9F477FF1AC06DE20E949F
:10170000D60A8C0144275527BA014C195D096E0988
:101710007F092AE0CE010E94030B800F911FDF9109
:10172000CF911F910F91FF90EF90DF90CF90089590
:101730002AE0B701A601CE01DF91CF911F910F9151
:10174000FF90EF90DF90CF900C94030B9A01AB01C8
:10175000662757FD6095762F0C945C0B211531059B
:1017600041F4DC01ED91FC910190F081E02D642FBA
:1017700009940C94030BCF93DF938230910510F4FE
:1017800082E090E0E0912C02F0912D0220E030E028
:10179000A0E0B0E0309739F14081518148175907F6
:1017A000B8F04817590771F482819381109729F096
:1017B00013969C938E9312972CC090932D02809336
:1017C0002C0227C02115310531F04217530718F0BC
:1017D000A901DB0101C0EF019A01BD01DF01028017
:1017E000F381E02DD7CF21153105F9F0281B390BF6
:1017F0002430310580F48A819B816115710521F0C7
:10180000FB019383828304C090932D0280932C026A
:10181000FE01329644C0FE01E20FF31F81939193C3
:1018200022503109398328833AC020912A0230910D
:101830002B02232B41F420910801309109013093B0
:101840002B0220932A0220910601309107012115D5
:10185000310541F42DB73EB740910A0150910B017B
:10186000241B350BE0912A02F0912B02E217F307BB
:10187000A0F42E1B3F0B2817390778F0AC014E5F00
:101880005F4F2417350748F04E0F5F1F50932B0210
:1018900040932A028193919302C0E0E0F0E0CF01EF
:1018A000DF91CF910895CF93DF93009709F487C01C
:1018B000FC01329713821282C0912C02D0912D022A
:1018C000209781F420813181280F391F80912A02CD
:1018D00090912B028217930779F5F0932B02E093F6
:1018E0002A026DC0DE0120E030E0AE17BF0750F4E1
:1018F00012964D915C9113979D014115510509F187
:10190000DA01F3CFB383A28340815181840F951F05
:101910008A179B0771F48D919C911197840F951FE5
:1019200002969183808312968D919C911397938355
:1019300082832115310529F4F0932D02E0932C02C6
:101940003EC0D9011396FC93EE9312974D915D9191
:10195000A40FB51FEA17FB0779F480819181840FEA
:10196000951F0296D90111969C938E938281938143
:1019700013969C938E931297E0E0F0E08A819B810E
:10198000009719F0FE01EC01F9CFCE0102962881F3
:101990003981820F931F20912A0230912B02281740
:1019A000390769F4309729F410922D0210922C0215
:1019B00002C013821282D0932B02C0932A02DF91BD
:1019C000CF9108950C94BB0B1F920F920FB60F92FC
:1019D00011242F933F938F939F93AF93BF93809145
:1019E000220290912302A0912402B091250230910D
:1019F000210223E0230F2D3720F40196A11DB11DF4
:101A000005C026E8230F0296A11DB11D20932102D7
:101A10008093220290932302A0932402B093250284
:101A20008091260290912702A0912802B09129026C
:101A30000196A11DB11D8093260290932702A093C9
:101A40002802B0932902BF91AF919F918F913F914E
:101A50002F910F900FBE0F901F9018953FB7F894DD
:101A60008091260290912702A0912802B09129022C
:101A700026B5A89B05C02F3F19F00196A11DB11DE9
:101A80003FBF6627782F892F9A2F620F711D811D06
:101A9000911D42E0660F771F881F991F4A95D1F765
:101AA0000895CF92DF92EF92FF92CF93DF936B0175
:101AB0007C010E942E0DEB01C114D104E104F1045C
:101AC00079F00E942E0D6C1B7D0B683E7340A0F3D5
:101AD00081E0C81AD108E108F108C851DC4FECCF09
:101AE000DF91CF91FF90EF90DF90CF9008957894A1
:101AF00084B5826084BD84B5816084BD85B5826013
:101B000085BD85B5816085BDEEE6F0E080818160B0
:101B10008083E1E8F0E010828081826080838081B0
:101B200081608083E0E8F0E0808181608083E1EB88
:101B3000F0E0808184608083E0EBF0E08081816070
:101B40008083EAE7F0E08081846080838081826026
:101B5000808380818160808380818068808310920F
:101B6000C1000895833081F028F4813099F08230EB
:101B7000A1F008958630A9F08730B9F08430D1F40F
:101B8000809180008F7D03C0809180008F7780934B
:101B90008000089584B58F7702C084B58F7D84BDA1
:101BA00008958091B0008F7703C08091B0008F7D41
:101BB0008093B0000895CF93DF9390E0FC01E95A41
:101BC000FE4F2491FC01E559FE4F8491882349F191
:101BD00090E0880F991FFC01E757FE4FA591B49143
:101BE00081589E4FFC01C591D4919FB7611108C0E7
:101BF000F8948C91209582238C93888182230AC04B
:101C0000623051F4F8948C91322F309583238C9369
:101C10008881822B888304C0F8948C91822B8C93CA
:101C20009FBFDF91CF9108950F931F93CF93DF93C1
:101C30001F92CDB7DEB7282F30E0F901ED5BFE4FE4
:101C40008491F901E95AFE4F1491F901E559FE4FCB
:101C500004910023C9F0882321F069830E94B20D0A
:101C60006981E02FF0E0EE0FFF1FE158FE4FA591D4
:101C7000B4919FB7F8948C91611103C010958123A2
:101C800001C0812B8C939FBF0F90DF91CF911F914B
:101C90000F910895A1E21A2EAA1BBB1BFD010DC0D6
:101CA000AA1FBB1FEE1FFF1FA217B307E407F5070C
:101CB00020F0A21BB30BE40BF50B661F771F881FE8
:101CC000991F1A9469F760957095809590959B017E
:101CD000AC01BD01CF0108956927962769277827B0
:101CE0008727782708952A0D3B1D4C1D5D1D6E1D0D
:101CF0007F1D801F911F0895EE0FFF1F0590F49127
:101D0000E02D09948F929F92AF92BF92CF92DF9273
:101D1000EF92FF92CF93DF93EC01688179818A8102
:101D20009B81611571058105910521F464E279EDCE
:101D30008BE597E02DE133EF41E050E00E941D0F6D
:101D400049015A019B01AC01A7EAB1E40E940A0FC4
:101D50006B017C01ACEEB4EFA50194010E94180F59
:101D6000C60ED71EE81EF91EF7FE06C081E0C81A8F
:101D7000D108E10880E8F80AC882D982EA82FB82A9
:101D8000C6019F77DF91CF91FF90EF90DF90CF90CA
:101D9000BF90AF909F908F9008950E94820E0895FB
:101DA00080E091E00E94820E0895A0E0B0E0809370
:101DB000000190930101A0930201B09303010895E3
:101DC000FB01DC0102C001900D9241505040D8F758
:101DD00008956817790768F4FB01DC01E40FF51F2B
:101DE000A40FB51F02C002900E9241505040D8F788
:101DF00008950C94E00EDC0101C06D9341505040F9
:101E0000E0F70895F999FECF92BD81BDF89A992720
:101E100080B508950E943C0FA59F900DB49F900D32
:101E2000A49F800D911D11240895B7FF0C940A0FF3
:101E30000E940A0F821B930B0895052E97FB1EF438
:101E400000940E94340F57FD07D00E944A0E07FCF1
:101E500003D04EF40C94340F509540953095219555
:101E60003F4F4F4F5F4F08959095809570956195C6
:101E70007F4F8F4F9F4F0895A29FB001B39FC00126
:101E8000A39F700D811D1124911DB29F700D811DA6
:0A1E90001124911D0895F894FFCF6E
:101E9A00010000000D0000002E028000C1020F03A5
:101EAA00E4020F039979825AA1EBD96EDCBC1B8F2D
:101EBA00D6C162CA00000000E808730A8E08BB088F
:041ECA00A008DD0887
:00000001FF
