:100000000C94CC000C94F4000C94F4000C94F400C8
:100010000C94F4000C94F4000C94F4000C94F40090
:100020000C94F4000C94F4000C94F4000C94F40080
:100030000C94F4000C94F4000C94F4000C94F40070
:100040000C9424080C94F4000C9465040C949F0404
:100050000C94F4000C94F4000C94F4000C94F40050
:100060000C94F4000C94F4004461726B004C6967CA
:10007000687400205B75735D00456E6372797074FF
:10008000696F6E20746F74616C2074616B65733A74
:100090002000205B627974655D00416674657220A2
:1000A000656E6372797074696F6E206F66206D651E
:1000B000737361676520667265654D656D6F7279F2
:1000C00028293D2000205B627974655D00426566E9
:1000D0006F726520656E6372797074696F6E206FE0
:1000E00066206D65737361676520667265654D6531
:1000F0006D6F727928293D2000205B75735D004982
:100100006E696369616C69736174696F6E20746F85
:1001100074616C2074616B65733A20004372656191
:1001200074696E67206172726179206F6620646104
:100130007461000C05060B09000A0D030E0F08047C
:10014000070102000000070002010000030406008E
:10015000000000000000000102040810204080019F
:1001600002040810200102040810200404040404FE
:100170000404040202020202020303030303030055
:10018000000000250028002B0000000000240027AC
:10019000002A000099025D0511241FBECFEFD8E0B0
:1001A000DEBFCDBF11E0A0E0B1E0EAE8F3E102C0BC
:1001B00005900D92A831B107D9F711E0A8E1B1E09F
:1001C00001C01D92AA3FB107E1F711E0C8E9D1E0F3
:1001D00004C02297FE010E94AE09C439D107C9F7B5
:1001E0000E9490020C94C3090C940000CB010C9463
:1001F000BB09CF93DF9300D0CDB7DEB72091F601D6
:100200003091F7012115310511F42AEF31E0CE01CB
:100210000196821B930B0F900F90DF91CF91089561
:100220006CE171E083E491E00E9431060E946E0867
:1002300060931D0170931E0180931F019093200114
:1002400020E030E080E090E06DE271E44091230135
:10025000509124012A3131053CF4DA01A80FB91F6D
:10026000E1E4E20FEC930EC0FA01E80FF91F60839E
:10027000E0912301F0912401E80FF91F71830196A9
:1002800020E030E001962F5F3F4F811544E0940756
:10029000ECF20895EF92FF920F931F93CF93DF93A9
:1002A0007C0109E311E0C0E0D0E0CE15DF0554F495
:1002B000BE0188E191E00E94F600F80181938F0170
:1002C0002196F3CFDF91CF911F910F91FF90EF9087
:1002D0000895FB0120E030E0DC014D91CD01419318
:1002E0002F5F3F4F28303105B9F7089540E855E2B8
:1002F00060E070E083E491E00E94DA0483E491E03E
:100300000E945B058823D1F30E9410018AE090E0EF
:100310000E944A010E946E0860931D0170931E01A5
:1003200080931F019093200145E251E06AE089E348
:1003300091E00E94FC020E946E0860931901709384
:100340001A0180931B0190931C016FEF70E083E40E
:1003500091E00E94F1054091190150911A016091BC
:100360001B0170911C0180911D0190911E01A091B3
:100370001F01B0912001481B590B6A0B7B0B2AE02F
:1003800030E083E491E00E94EE0669EF70E083E4E0
:1003900091E00E94310661E0809100010C941B09FC
:1003A0000F931F93CF93DF93CDB7DEB728970FB688
:1003B000F894DEBF0FBECDBF6DEC70E083E491E03A
:1003C0000E94F1050E94F9004AE050E0BC0183E47C
:1003D00091E00E94E60665EC70E083E491E00E9403
:1003E00031060E946E0860931D0170931E01809378
:1003F0001F019093200100E810E0BE016F5F7F4F66
:1004000080912101909122010E94690165E271E0D1
:10041000CE0101960E941B0380912101909122013F
:100420000896909322018093210101501109011532
:10043000110519F70E946E086093190170931A0153
:1004400080931B0190931C016AE970E083E491E0C2
:100450000E94F1050E94F9004AE050E0BC0183E4EB
:1004600091E00E94E60662E970E083E491E00E9478
:10047000310669E770E083E491E00E94F105409164
:10048000190150911A0160911B0170911C0180911A
:100490001D0190911E01A0911F01B0912001481BE8
:1004A000590B6A0B7B0B2AE030E083E491E00E9459
:1004B000EE0663E770E083E491E00E94310683E496
:1004C00091E00E941D066DE670E083E491E00E94D9
:1004D000310661E0809100010E94540968EE73E0EA
:1004E00080E090E00E94910868E670E083E491E08B
:1004F0000E94310660E0809100010E94540968EE7C
:1005000073E080E090E00E94910828960FB6F8947E
:10051000DEBF0FBECDBFDF91CF911F910F91089528
:100520000E94B7080E9476010E94D00180E090E00E
:10053000089580E094E00E94220890932401809323
:10054000230190932201809321010895FC01DB0196
:10055000480F591FE417F50729F09D9180818927DD
:100560008193F8CF08950F931F93CF93DF931F923A
:10057000CDB7DEB78C01FC0170855185872F389689
:1005800044E032912291338322834150D1F7F80124
:100590007083518321852295220F207E908153E024
:1005A000969587955A95E1F7292B2193282F207E40
:1005B0004F5F4A3099F7F801808169830E942003D8
:1005C000807FF80190819F70892B8083698170E022
:1005D000CB019695982F8827979587959085982792
:1005E0009087759567958781862787830F90DF9120
:1005F000CF911F910F9108951F93CF93DF932AE01E
:10060000FC01DA0101900D922A95E1F7EA012A96A0
:100610002AE0FC01DE0101900D922A95E1F711E03C
:10062000612FCE010E94B3021F5F1032C9F7DF9124
:10063000CF911F91089523EB32E04AE00C945B03C5
:10064000E82FF0E094E0F595E7959A95E1F7ED5CF9
:10065000FE4F94918F70E82FF0E0ED5CFE4FE49137
:1006600020E1929FC00111248E2B0895CF9320E0AA
:10067000C0E030E0DC01A20FB11D5C91550F5C932E
:10068000FB01EC0FF11D4081441F4427441F452B03
:100690004C934081440F40832E5F2770432F477057
:1006A000473009F4CF5F3F3109F42F5F3F5F3034AB
:1006B00009F7CF9108957F928F929F92AF92BF9248
:1006C000CF92DF92EF92FF920F931F93CF93DF931E
:1006D000CDB7DEB729970FB6F894DEBF0FBECDBFFA
:1006E0008C014901ADB6BEB650E08DB79EB7841BF4
:1006F000950B0FB6F8949EBF0FBE8DBFEDB7FEB73A
:1007000031967F01CF010E94B20948E050E0B70165
:10071000C8010E94A6027724739497E0C92ED12CB9
:10072000F801EC0DFD1D808199870E942003E1E016
:10073000F0E0EC0FFD1FEC0DFD1D808399859150BD
:1007400068F7BE016F5F7F4FC8010E943603672DB7
:10075000C701F401099548E050E0B701C8010E94C3
:10076000A6027394F0E27F12D8CF0FB6F894BEBE03
:100770000FBEADBE29960FB6F894DEBF0FBECDBF3B
:10078000DF91CF911F910F91FF90EF90DF90CF906D
:10079000BF90AF909F908F907F900895FC0124852B
:1007A0003585F901E05CFF4F80819181F901EE5BB5
:1007B000FF4F20813181821B930B8F7399270895FE
:1007C000FC0184859585FC01E05CFF4F40815181EF
:1007D000FC01EE5BFF4F208131814217530741F04E
:1007E0000190F081E02DE80FF91F808190E00895DD
:1007F0008FEF9FEF0895FC0184859585FC01E05CF7
:10080000FF4F40815181FC01EE5BFF4F2081318120
:100810004217530779F0A081B181A80FB91F8C91BD
:10082000208131812F5F3F4F2F7333273183208306
:1008300090E008958FEF9FEF0895FC0181A1882338
:1008400029F0A489B5898C9186FFFBCF11A2089568
:10085000CF93DF93FC0126853785D901A05CBF4F7C
:100860008D919C91119701968F739927E901CE5B29
:10087000DF4F4881598184179507D9F30D90BC91BA
:10088000A02DA20FB31F6C93A685B785A05CBF4FA8
:1008900011969C938E93A689B7892C9181E090E064
:1008A000078C02C0880F991F0A94E2F7282B2C931B
:1008B00081E081A30488F589E02D808180648083B4
:1008C00081E090E0DF91CF9108951F920F920FB6D3
:1008D0000F9211242F933F934F938F939F93EF93F6
:1008E000FF938091C00082FD1CC04091C6008091A2
:1008F000E9019091EA0101968F7399272091EB010C
:100900003091EC018217930771F0E091E901F091C9
:10091000EA01E755FE4F40839093EA018093E90195
:1009200002C08091C600FF91EF919F918F914F91EE
:100930003F912F910F900FBE0F901F9018951F920F
:100940000F920FB60F9211242F933F938F939F9383
:10095000EF93FF932091A5013091A6018091A7010B
:100960009091A8012817390731F48091C1008F7D3B
:100970008093C10014C0E091A701F091A801EB5948
:10098000FE4F20818091A7019091A80101968F735D
:1009900099279093A8018093A7012093C600FF9107
:1009A000EF919F918F913F912F910F900FBE0F90DC
:1009B0001F901895CF92DF92EF92FF92CF93DF9323
:1009C000EC016A017B01411581EE58076105710553
:1009D000F9F0EC89FD8981E090E008A002C0880F61
:1009E000991F0A94E2F7808360E079E08DE390E05C
:1009F000A70196010E948A09215031094109510934
:100A00005695479537952795211580E1380798F039
:100A1000EC89FD89108260E874E88EE190E0A7011E
:100A200096010E948A0921503109410951095695C0
:100A3000479537952795E889F9893083EA89FB89B5
:100A4000208319A2EE89FF89408181E090E09C011A
:100A50000C8C02C0220F331F0A94E2F7422B408312
:100A6000EE89FF8940819C010D8C02C0220F331F4B
:100A70000A94E2F7422B4083EE89FF8940819C0172
:100A80000E8C02C0220F331F0A94E2F7422B4083E0
:100A9000EE89FF8920810F8C02C0880F991F0A946C
:100AA000E2F7809582238083DF91CF91FF90EF90D2
:100AB000DF90CF90089581E0089510924601109242
:100AC000450188EE93E0A0E0B0E080934701909369
:100AD0004801A0934901B0934A018CE091E09093C2
:100AE00044018093430189EA91E0909350018093FF
:100AF0004F0185E691E0909352018093510185EC7E
:100B000090E0909354018093530184EC90E0909393
:100B100056018093550180EC90E0909358018093AA
:100B2000570181EC90E090935A018093590182EC37
:100B300090E090935C0180935B0186EC90E0909351
:100B40005E0180935D0184E080935F0183E0809388
:100B5000600187E08093610185E08093620181E01C
:100B6000809363010895CF92DF92EF92FF920F93EB
:100B70001F93CF93DF936C017A01EB01E60EF71E12
:100B800000E010E0CE15DF0561F06991D601ED912E
:100B9000FC910190F081E02DC6010995080F191F05
:100BA000F1CFC801DF91CF911F910F91FF90EF908E
:100BB000DF90CF9008956115710581F0DB010D90F4
:100BC0000020E9F7AD0141505109461B570BDC01EC
:100BD000ED91FC910280F381E02D099480E090E09A
:100BE0000895EF92FF920F931F93CF93DF938C01A1
:100BF000FB01C0E0D0E064917F018FEFE81AF80AB2
:100C0000662361F0D801ED91FC910190F081E02D17
:100C1000C8010995C80FD91FF701EDCFCE01DF91AB
:100C2000CF911F910F91FF90EF900895DC01ED910E
:100C3000FC910190F081E02D09940F931F93CF93C5
:100C4000DF93EC016DE00E9416068C016AE0CE0194
:100C50000E941606800F911FDF91CF911F910F9177
:100C600008950F931F93CF93DF93EC010E94F1053A
:100C70008C01CE010E941D06800F911FDF91CF9144
:100C80001F910F9108958F929F92AF92BF92CF9232
:100C9000DF92EF92FF920F931F93CF93DF93CDB725
:100CA000DEB7A1970FB6F894DEBF0FBECDBF7C01B3
:100CB000C42EE52FCB01D22E19A221E02D1510F064
:100CC0002AE0D22E8E010F5D1F4F8D2C912CA12C6E
:100CD000B12C6C2D7E2FA50194010E948A098C2DC8
:100CE000D29E80191124015011098A3014F4805DBC
:100CF00001C0895CF801808321153105410551054A
:100D000021F0C22EE32FCA01E4CFB801C7010E942F
:100D1000DB05A1960FB6F894DEBF0FBECDBFDF9105
:100D2000CF911F910F91FF90EF90DF90CF90BF90E8
:100D3000AF909F908F900895CF92DF92EF92FF92A5
:100D40000F931F93CF93DF93EC016A017B01211571
:100D5000310579F4E881F9810190F081E02D642F6B
:100D6000DF91CF911F910F91FF90EF90DF90CF9087
:100D700009942A303105E9F477FF1AC06DE20E9428
:100D800016068C0144275527BA014C195D096E09D6
:100D90007F092AE0CE010E944306800F911FDF9158
:100DA000CF911F910F91FF90EF90DF90CF9008951A
:100DB0002AE0B701A601CE01DF91CF911F910F91DB
:100DC000FF90EF90DF90CF900C9443069A01AB0117
:100DD000662757FD6095762F0C949C0621153105EA
:100DE00041F4DC01ED91FC910190F081E02D642F44
:100DF00009940C944306CF93DF938230910510F44D
:100E000082E090E0E091F801F091F90120E030E01B
:100E1000A0E0B0E0309739F140815181481759077F
:100E2000B8F04817590771F482819381109729F01F
:100E300013969C938E9312972CC09093F9018093F4
:100E4000F80127C02115310531F04217530718F07A
:100E5000A901DB0101C0EF019A01BD01DF010280A0
:100E6000F381E02DD7CF21153105F9F0281B390B7F
:100E70002430310580F48A819B816115710521F050
:100E8000FB019383828304C09093F9018093F8015E
:100E9000FE01329644C0FE01E20FF31F819391934D
:100EA00022503109398328833AC02091F6013091CC
:100EB000F701232B41F42091040130910501309377
:100EC000F7012093F60120910201309103012115D1
:100ED000310541F42DB73EB740910601509107010D
:100EE000241B350BE091F601F091F701E217F307AF
:100EF000A0F42E1B3F0B2817390778F0AC014E5F8A
:100F00005F4F2417350748F04E0F5F1F5093F701CE
:100F10004093F6018193919302C0E0E0F0E0CF01AD
:100F2000DF91CF910895CF93DF93009709F487C0A5
:100F3000FC01329713821282C091F801D091F9011D
:100F4000209781F420813181280F391F8091F6018B
:100F50009091F7018217930779F5F093F701E093E9
:100F6000F6016DC0DE0120E030E0AE17BF0750F49F
:100F700012964D915C9113979D014115510509F110
:100F8000DA01F3CFB383A28340815181840F951F8F
:100F90008A179B0771F48D919C911197840F951F6F
:100FA00002969183808312968D919C9113979383DF
:100FB00082832115310529F4F093F901E093F801BA
:100FC0003EC0D9011396FC93EE9312974D915D911B
:100FD000A40FB51FEA17FB0779F480819181840F74
:100FE000951F0296D90111969C938E9382819381CD
:100FF00013969C938E931297E0E0F0E08A819B8198
:10100000009719F0FE01EC01F9CFCE01029628817C
:101010003981820F931F2091F6013091F701281733
:10102000390769F4309729F41092F9011092F80108
:1010300002C013821282D093F701C093F601DF91B0
:10104000CF9108950C94FB061F920F920FB60F924A
:1010500011242F933F938F939F93AF93BF938091CE
:10106000EE019091EF01A091F001B091F10130916A
:10107000ED0123E0230F2D3720F40196A11DB11DB2
:1010800005C026E8230F0296A11DB11D2093ED0196
:101090008093EE019093EF01A093F001B093F101E2
:1010A0008091F2019091F301A091F401B091F501CA
:1010B0000196A11DB11D8093F2019093F301A093BD
:1010C000F401B093F501BF91AF919F918F913F9142
:1010D0002F910F900FBE0F901F9018953FB7F89467
:1010E0008091F2019091F301A091F401B091F5018A
:1010F00026B5A89B05C02F3F19F00196A11DB11D73
:101100003FBF6627782F892F9A2F620F711D811D8F
:10111000911D42E0660F771F881F991F4A95D1F7EE
:101120000895CF92DF92EF92FF92CF93DF936B01FE
:101130007C010E946E08EB01C114D104E104F104AA
:1011400079F00E946E086C1B7D0B683E7340A0F323
:1011500081E0C81AD108E108F108C851DC4FECCF92
:10116000DF91CF91FF90EF90DF90CF90089578942A
:1011700084B5826084BD84B5816084BD85B582609C
:1011800085BD85B5816085BDEEE6F0E0808181603A
:101190008083E1E8F0E0108280818260808380813A
:1011A00081608083E0E8F0E0808181608083E1EB12
:1011B000F0E0808184608083E0EBF0E080818160FA
:1011C0008083EAE7F0E080818460808380818260B0
:1011D0008083808181608083808180688083109299
:1011E000C1000895833081F028F4813099F0823075
:1011F000A1F008958630A9F08730B9F08430D1F499
:10120000809180008F7D03C0809180008F778093D4
:101210008000089584B58F7702C084B58F7D84BD2A
:1012200008958091B0008F7703C08091B0008F7DCA
:101230008093B0000895CF93DF9390E0FC01E95ACA
:10124000FE4F2491FC01E559FE4F8491882349F11A
:1012500090E0880F991FFC01E757FE4FA591B491CC
:1012600081589E4FFC01C591D4919FB7611108C070
:10127000F8948C91209582238C93888182230AC0D4
:10128000623051F4F8948C91322F309583238C93F3
:101290008881822B888304C0F8948C91822B8C9354
:1012A0009FBFDF91CF9108950F931F93CF93DF934B
:1012B0001F92CDB7DEB7282F30E0F901ED5BFE4F6E
:1012C0008491F901E95AFE4F1491F901E559FE4F55
:1012D00004910023C9F0882321F069830E94F20859
:1012E0006981E02FF0E0EE0FFF1FE158FE4FA5915E
:1012F000B4919FB7F8948C91611103C0109581232C
:1013000001C0812B8C939FBF0F90DF91CF911F91D4
:101310000F910895A1E21A2EAA1BBB1BFD010DC05F
:10132000AA1FBB1FEE1FFF1FA217B307E407F50795
:1013300020F0A21BB30BE40BF50B661F771F881F71
:10134000991F1A9469F760957095809590959B0107
:10135000AC01BD01CF010895EE0FFF1F0590F49180
:10136000E02D0994FB01DC0102C001900D92415077
:101370005040D8F70895F999FECF92BD81BDF89AF3
:0A138000992780B50895F894FFCF77
:10138A000D000000FA018000000000002804B305E7
:08139A00CE03FB03E0031D0478
:00000001FF
